:020000040800F2
:100000000000022045740008E9120008EB12000805
:10001000ED120008EF120008F112000800000000C5
:10002000000000000000000000000000F3120008C3
:10003000F512000800000000F7120008F91200088D
:10004000957400089574000895740008957400086C
:10005000957400089574000895740008957400085C
:10006000957400089574000895740008957400084C
:10007000957400089574000895740008957400083C
:10008000957400089574000895740008957400082C
:10009000957400089574000895740008957400081C
:1000A000957400089574000895740008957400080C
:1000B00095740008957400089574000895740008FC
:1000C00095740008957400089574000895740008EC
:1000D00095740008957400089574000895740008DC
:1000E00095740008957400089574000895740008CC
:1000F00095740008957400089574000895740008BC
:1001000095740008957400089574000895740008AB
:10011000957400089574000895740008957400089B
:100120000113000895740008957400089574000880
:10013000957400080000000000000000957400089D
:100140009574000895740008957400081113000850
:10015000957400089574000895740008957400085B
:10016000957400089574000895740008957400084B
:10017000957400089574000895740008000000004C
:10018000000000009574000800000000000000005E
:10019000957400080000000000000000957400083D
:1001A000000000000000000000000000957400083E
:1001B00095740008957400089574000895740008FB
:0401C000957400082A
:1001D00010B5054C237833B9044B13B10448AFF381
:1001E00000800123237010BDD00200200000000019
:1001F00060A1000808B5034B1BB103490348AFF3E6
:10020000008008BD00000000D402002060A10008AA
:1002100001F0FF01102A2BDB10F0070F08D010F8B7
:10022000013B013A8B422DD010F0070F42B3F6D1BB
:10023000F0B441EA012141EA014122F007047FF0D4
:1002400000070023F0E80256083C85EA010586EA2B
:10025000010685FA47F5A3FA87F586FA47F6A5FA67
:1002600087F68EB9EED1F0BC01F0FF0102F0070273
:1002700032B110F8013B013A83EA010313B1F8D11E
:100280000020704701387047002D06BF35460338FF
:10029000073815F0010F07D1013015F4807F02BF38
:1002A000013015F4C03F0130F0BC0138704700BF89
:1002B000034613F8012B002AFBD1181A01387047A6
:1002C00081F0004102E000BF83F0004330B54FEA07
:1002D00041044FEA430594EA050F08BF90EA020F74
:1002E0001FBF54EA000C55EA020C7FEA645C7FEA07
:1002F000655C00F0E2804FEA5454D4EB5555B8BF2A
:100300006D420CDD2C4480EA020281EA030382EA9A
:10031000000083EA010180EA020281EA0303362D2C
:1003200088BF30BD11F0004F4FEA01314FF4801CFF
:100330004CEA113102D0404261EB410113F0004F11
:100340004FEA03334CEA133302D0524263EB4303C8
:1003500094EA050F00F0A780A4F10104D5F1200E66
:100360000DDB02FA0EFC22FA05F2801841F10001C1
:1003700003FA0EF2801843FA05F359410EE0A5F195
:1003800020050EF1200E012A03FA0EFC28BF4CF0C6
:10039000020C43FA05F3C01851EBE37101F000457C
:1003A00007D54FF0000EDCF1000C7EEB00006EEB89
:1003B0000101B1F5801F1BD3B1F5001F0CD3490813
:1003C0005FEA30004FEA3C0C04F101044FEA44526A
:1003D00012F5800F80F09A80BCF1004F08BF5FEAF1
:1003E000500C50F1000041EB045141EA050130BDD1
:1003F0005FEA4C0C404141EB0101013C28BFB1F5E3
:10040000801FE9D291F0000F04BF01460020B1FA2D
:1004100081F308BF2033A3F10B03B3F120020CDA00
:100420000C3208DD02F1140CC2F10C0201FA0CF0DE
:1004300021FA02F10CE002F11402D8BFC2F1200C43
:1004400001FA02F120FA0CFCDCBF41EA0C019040F9
:10045000E41AA2BF01EB0451294330BD6FEA040442
:100460001F3C1CDA0C340EDC04F11404C4F120022D
:1004700020FA04F001FA02F340EA030021FA04F33F
:1004800045EA030130BDC4F10C04C4F1200220FA96
:1004900002F001FA04F340EA0300294630BD21FAD4
:1004A00004F0294630BD94F0000F83F4801306BF9A
:1004B00081F480110134013D4EE77FEA645C18BF8E
:1004C0007FEA655C29D094EA050F08BF90EA020F25
:1004D00005D054EA000C04BF1946104630BD91EA1D
:1004E000030F1EBF0021002030BD5FEA545C05D120
:1004F0004000494128BF41F0004130BD14F580045F
:100500003CBF01F5801130BD01F0004545F0FE41D2
:1005100041F470014FF0000030BD7FEA645C1ABF07
:10052000194610467FEA655C1CBF0B46024650EA3E
:10053000013406BF52EA033591EA030F41F400216A
:1005400030BD00BF90F0000F04BF0021704730B5F0
:100550004FF4806404F132044FF000054FF00001C5
:1005600050E700BF90F0000F04BF0021704730B586
:100570004FF4806404F1320410F0004548BF40425B
:100580004FF000013EE700BF42004FEAE2014FEAB0
:1005900031014FEA02701FBF12F07F4393F07F4F8B
:1005A00081F06051704732F07F4208BF704793F08E
:1005B0007F4F04BF41F40021704730B54FF46074A1
:1005C00001F0004521F000411CE700BF50EA0102A4
:1005D00008BF704730B54FF000050AE050EA01024D
:1005E00008BF704730B511F0004502D5404261EBBD
:1005F00041014FF4806404F132045FEA915C3FF4FE
:10060000D8AE4FF003025FEADC0C18BF03325FEA9A
:10061000DC0C18BF033202EBDC02C2F1200300FA4B
:1006200003FC20FA02F001FA03FE40EA0E0021FA70
:1006300002F11444BDE600BF70B54FF0FF0C4CF45E
:10064000E06C1CEA11541DBF1CEA135594EA0C0F10
:1006500095EA0C0F00F0DEF82C4481EA030621EA4B
:100660004C5123EA4C5350EA013518BF52EA033586
:1006700041F4801143F4801338D0A0FB02CE4FF038
:100680000005E1FB02E506F00042E0FB03E54FF068
:100690000006E1FB03569CF0000F18BF4EF0010E60
:1006A000A4F1FF04B6F5007F64F5407404D25FEA5C
:1006B0004E0E6D4146EB060642EAC62141EA55510F
:1006C0004FEAC52040EA5E504FEACE2EB4F1FD0C51
:1006D00088BFBCF5E06F1ED8BEF1004F08BF5FEACF
:1006E000500E50F1000041EB045170BD06F0004681
:1006F00046EA010140EA020081EA0301B4EB5C042E
:10070000C2BFD4EB0C0541EA045170BD41F4801125
:100710004FF0000E013C00F3AB8014F1360FDEBF4A
:10072000002001F0004170BDC4F10004203C35DA26
:100730000C341BDC04F11404C4F1200500FA05F3A9
:1007400020FA04F001FA05F240EA020001F000424A
:1007500021F0004110EBD37021FA04F642EB0601C0
:100760005EEA430E08BF20EAD37070BDC4F10C04EA
:10077000C4F1200500FA04F320FA05F001FA04F2AE
:1007800040EA020001F0004110EBD37041F100019A
:100790005EEA430E08BF20EAD37070BDC4F12005A5
:1007A00000FA05F24EEA020E20FA04F301FA05F20D
:1007B00043EA020321FA04F001F0004121FA04F2B5
:1007C00020EA020000EBD3705EEA430E08BF20EA85
:1007D000D37070BD94F0000F0FD101F000464000BF
:1007E00041EB010111F4801F08BF013CF7D041EA41
:1007F000060195F0000F18BF704703F00046520045
:1008000043EB030313F4801F08BF013DF7D043EA15
:100810000603704794EA0C0F0CEA135518BF95EACB
:100820000C0F0CD050EA410618BF52EA4306D1D152
:1008300081EA030101F000414FF0000070BD50EA71
:10084000410606BF1046194652EA430619D094EAFB
:100850000C0F02D150EA013613D195EA0C0F05D1E5
:1008600052EA03361CBF104619460AD181EA030139
:1008700001F0004141F0FE4141F470014FF00000F1
:1008800070BD41F0FE4141F4780170BD70B54FF08C
:10089000FF0C4CF4E06C1CEA11541DBF1CEA13550C
:1008A00094EA0C0F95EA0C0F00F0A7F8A4EB0504EE
:1008B00081EA030E52EA03354FEA013100F08880E5
:1008C0004FEA03334FF0805545EA131343EA1263AE
:1008D0004FEA022245EA111545EA10654FEA002663
:1008E0000EF000419D4208BF964244F1FD0404F51C
:1008F000407402D25B084FEA3202B61A65EB030578
:100900005B084FEA32024FF480104FF4002CB6EB34
:10091000020E75EB030E22BFB61A754640EA0C00B4
:100920005B084FEA3202B6EB020E75EB030E22BFF4
:10093000B61A754640EA5C005B084FEA3202B6EB35
:10094000020E75EB030E22BFB61A754640EA9C00F4
:100950005B084FEA3202B6EB020E75EB030E22BFC4
:10096000B61A754640EADC0055EA060E18D04FEA82
:10097000051545EA16754FEA06164FEAC30343EA22
:1009800052734FEAC2025FEA1C1CC0D111F4801FEF
:100990000BD141EA00014FF000004FF0004CB6E7E8
:1009A00011F4801F04BF01430020B4F1FD0C88BF87
:1009B000BCF5E06F3FF6AFAEB5EB030C04BFB6EB92
:1009C000020C5FEA500C50F1000041EB045170BD85
:1009D0000EF0004E4EEA113114EB5C04C2BFD4EBB2
:1009E0000C0541EA045170BD41F480114FF0000E36
:1009F000013C90E645EA060E8DE60CEA135594EAB2
:100A00000C0F08BF95EA0C0F3FF43BAF94EA0C0FB4
:100A10000AD150EA01347FF434AF95EA0C0F7FF429
:100A200025AF104619462CE795EA0C0F06D152EA7D
:100A300003353FF4FDAE1046194622E750EA410661
:100A400018BF52EA43067FF4C5AE50EA41047FF472
:100A50000DAF52EA43057FF4EBAE12E74FF0FF3CD7
:100A600006E000BF4FF0010C02E000BF4FF0010CA8
:100A70004DF804CD4FEA410C7FEA6C5C4FEA430C21
:100A800018BF7FEA6C5C1BD001B050EA410C0CBF70
:100A900052EA430C91EA030F02BF90EA020F0020D2
:100AA000704710F1000F91EA030F58BF994208BF39
:100AB00090422CBFD8176FEAE37040F001007047F6
:100AC0004FEA410C7FEA6C5C02D150EA013C07D14D
:100AD0004FEA430C7FEA6C5CD6D152EA033CD3D098
:100AE0005DF8040B704700BF8446104662468C4692
:100AF0001946634600E000BF01B5FFF7B7FF0028C5
:100B000048BF10F1000F01BD4DF808EDFFF7F4FFED
:100B10000CBF012000205DF808FB00BF4DF808ED78
:100B2000FFF7EAFF34BF012000205DF808FB00BF9B
:100B30004DF808EDFFF7E0FF94BF012000205DF8BD
:100B400008FB00BF4DF808EDFFF7CEFF94BF012072
:100B500000205DF808FB00BF4DF808EDFFF7C4FF6B
:100B600034BF012000205DF808FB00BF4FEA410CB4
:100B70007FEA6C5C02D150EA013C0AD14FEA430C97
:100B80007FEA6C5C02D152EA033C02D14FF00000D4
:100B900070474FF0010070474FEA410212F5001212
:100BA00015D211D56FF47873B3EB625212D94FEAB4
:100BB000C12343F0004343EA505311F0004F23FA9E
:100BC00002F018BF404270474FF00000704750EAF3
:100BD000013005D111F0004008BF6FF000407047B0
:100BE0004FF00000704700BF53B94AB9002908BF51
:100BF00000281CBF4FF0FF314FF0FF3000F088B9E4
:100C0000ADF1080C6DE904CE00F006F8DDF804E063
:100C1000DDE9022304B070472DE9F047089D8E46B8
:100C200004468846002B4AD18A42174662D9B2FA56
:100C300082F64EB1C6F1200301FA06F820FA03F35A
:100C4000B74043EA0808B4404FEA174E1FFA87FC42
:100C5000B8FBFEF1230C0EFB118843EA084301FBAD
:100C60000CF29A4209D9FB1801F1FF3080F0EA80BA
:100C70009A4240F2E78002393B449A1AA3B2B2FB8F
:100C8000FEF00EFB102243EA024300FB0CFC9C45E5
:100C900009D9FB1800F1FF3280F0D6809C4540F264
:100CA000D3803B44023840EA0140A3EB0C0300210F
:100CB0001DB1F3400022C5E90032BDE8F0878B4248
:100CC00005D90DB1C5E9000100210846F5E7B3FAE1
:100CD00083F1002946D1734502D3824200F2058197
:100CE000841A6EEB030201209046002DE5D0C5E981
:100CF0000048E2E7002A00F09080B2FA82F6002E67
:100D000040F0A4808A1A030C4FEA174E80B2BCB29E
:100D10000121B2FBFEFC0EFB1C2243EA024304FB52
:100D20000CF29A4207D9FB180CF1FF3802D29A4212
:100D300000F2E080C4469B1AB3FBFEF20EFB1233B6
:100D400040EA034302FB04F49C4207D9FB1802F17A
:100D5000FF3002D29C4200F2CA8002461B1B42EACC
:100D60000C40A5E7C1F120068B4022FA06F71F438D
:100D70000EFA01F420FA06F32EFA06FE4FEA17499E
:100D8000234300FA01F81FFA87FCBEFBF9F01C0CA4
:100D900009FB10EE44EA0E4400FB0CFEA64502FAE5
:100DA00001F209D93C1900F1FF3A80F09C80A64578
:100DB00040F2998002383C44A4EB0E041FFA83FEF3
:100DC000B4FBF9F309FB13444EEA044403FB0CFCA7
:100DD000A44508D93C1903F1FF3E80F08280A44568
:100DE0007FD9023B3C4443EA0040A4EB0C04A0FB47
:100DF00002EC64457346E14662D35FD05DB1B8EB67
:100E0000030264EB090404FA06F622FA01F31E4316
:100E1000CC40C5E9006400214FE7B1FBF2FC010CB6
:100E200041EA0E4180B240EA01423B4638463C4628
:100E3000B846BE462026B1FBF7F1A2EB080241EA14
:100E40000C4166E7014618E710462CE7C6F1200280
:100E50002EFA02F3B740B14020FA02F24FEA174EE1
:100E60000A43B3FBFEF8BCB20EFB1833110C41EA87
:100E7000034108FB04F9B04089454FEA104380B2B2
:100E80003ED9791808F1FF3C01D289451FD8A1EB62
:100E90000901B1FBFEF909FB04F80EFB191192B22E
:100EA00042EA0142424529D2BA1809F1FF31C4D2BF
:100EB0004245C2D2A9F102013A44BEE7F0459DD2B3
:100EC000BEEB02036CEB070C0138E14696E7A7EB9B
:100ED00009094944A8F1020CB1FBFEF909FB04F829
:100EE000DBE773467FE7504666E70846FDE63B448E
:100EF000023A33E7ACF1020C3B441CE749469CE75D
:100F0000A1EB0901C446B1FBFEF909FB04F8C4E7F3
:100F1000704700BF10B592B0454C0DF14701204617
:100F200000F0E8FA11A9204600F0EAFA0DF14201BA
:100F3000204600F0EBFA3F4C10A9204600F052FA90
:100F40000DF13E01204600F053FA0DAA0EA93A48D1
:100F500000F050FB0BAA0CA9384800F04BFB09AA83
:100F60000AA9374800F046FB07AA08A9354800F04F
:100F700041FBBDF84230BDF844209DF8471032488F
:100F800000F0ECFBBDF83E20BDF840102F4800F00B
:100F9000E5FBF2EE047ADDED0E4A64EEA74A9DED24
:100FA0000D4A24EE274ADDED0C3A63EEA73A9DED9B
:100FB0000B7A27EE277ADDED0A6A66EEA76A9DEDC9
:100FC000096A26EE276ADDED085A65EEA75A9DEDFF
:100FD000075A65EE277AFDEEE77ACDED047AFDEE4D
:100FE000E55ACDED035ABDEEC66A8DED026AFDEEFF
:100FF000E66ACDED016ABDEEC77A8DED007AFDEEB1
:10100000E37A17EE903AFDEEC47A17EE902AFDEEE1
:10101000E47A17EE901A0E4800F0A0FB0D4B5968C9
:101020000D4800F09BFB0A2002F0AAFF12B010BD91
:101030002C03002034030020240300201C03002084
:10104000140300200C03002078A1000884A10008EC
:101050008CA10008FC020020A8A1000872B6FEE7DF
:1010600000B595B03422002107A806F0ABFF00239D
:10107000029303930493059306930093204A116C03
:1010800041F080511164126C02F080520092009A7B
:1010900001931C4A136823F4404343F480431360D4
:1010A000136803F440430193019B012307934FF41A
:1010B0008033089302230D934FF480020E92042292
:1010C0000F9248221092119303221292139307A8B1
:1010D00002F06AF980B90F230293022103910023E1
:1010E00004934FF480520592069302A801F00EFC7F
:1010F00020B915B05DF804FBFFF7B0FFFFF7AEFFB6
:10110000003802400070004008B502F00DFFFFF704
:10111000A7FF00F047F802F0AFFF00F08FF802F0F1
:10112000C5FF03F03BFA00F0F1FA154CC02221464E
:10113000144800F069F9A4222146134800F0F2F99E
:1011400088222146114800F045FA8A22214610489B
:1011500000F040FA8C2221460E4800F03BFA8E2225
:1011600021460D4800F036FA0C4C0D49204600F09F
:10117000AFFA204600F0BAFAFFF7CCFEFCE700BF5A
:101180003C030020340300202C0300202403002013
:101190001C030020140300200C030020FC0200208C
:1011A000F803002030B58BB0002405940694079412
:1011B0000894099401941F4B1A6B42F080021A6341
:1011C0001A6B02F080020192019A02941A6B42F0AB
:1011D00004021A631A6B02F004020292029A039448
:1011E0001A6B42F001021A631A6B02F001020392B9
:1011F000039A04941A6B42F002021A631B6B03F009
:1012000002030493049B0C4D22460121284602F060
:10121000DDFB01220621284602F0D8FB07230593B7
:10122000012306930794089405A9284602F0DEFAE4
:101230000BB030BD003802400008024008B50B4832
:101240000B4B03600B4B436000238360C3604FF480
:101250008042026143618361C361036200F010FE5A
:1012600000B908BDFFF7FAFEFBE700BF3C03002012
:1012700000540040801A060030B589B00023039363
:1012800004930593069307930268144B9A4201D086
:1012900009B030BD00250195114C236B43F00203CA
:1012A0002363236B03F002030193019B4FF410733C
:1012B000039312230493032306930423079303A9A0
:1012C000084802F093FA0295236C43F40013236458
:1012D000236C03F400130293029BD9E700540040EF
:1012E0000038024000040240FEE7FEE7FEE7FEE7AA
:1012F000FEE770477047704708B502F02FFE08BD43
:1013000008B5024802F080FC08BD00BF9803002029
:1013100008B5024803F019FF08BD00BF3C1B0020C0
:10132000074B834200D07047064B1A685B6843EA5C
:1013300002431B12044A536001231373F3E700BFF7
:10134000F8030020EC020020FC020020704700009F
:1013500082B0002100910B4B5A6C42F480425A64D7
:101360005A6C02F480420092009A01911A6C42F089
:1013700080521A641B6C03F080530193019B02B0EE
:10138000704700BF0038024000B587B08DF81420C8
:101390008DF81530642302930223019305AB00936B
:1013A00001230A460179006801F082F807B05DF870
:1013B00004FB10B586B01446642302930223019304
:1013C00005AB009301230A460179006801F022F978
:1013D00030B99DF815209DF8143043EA022323808C
:1013E00006B010BD08B50A460921FFF7E2FF08BDA7
:1013F00008B50A460821FFF7DCFF08BD08B50A4614
:101400000C21FFF7D6FF08BD10B582B0044602716B
:1014100001600DF10601FFF7F1FF40BBBDF806309A
:10142000B3F5C37F03D00124204602B010BD0023D2
:10143000402219462046FFF7A7FF08B10124F3E731
:1014400000231A4603212046FFF79EFF08B101241E
:10145000EAE70323002204212046FFF795FF044614
:1014600008B10124E0E7322002F08AFDDCE7012424
:10147000DAE700B587B08DF81720642302930123C3
:1014800001930DF1170200920A460179006801F0FC
:101490000FF807B05DF804FB00B585B06423029334
:1014A0000123019300920A460179006801F0B2F825
:1014B00005B05DF804FB10B586B0144664230293B2
:1014C0000223019305AB009301230A4601790068CA
:1014D00001F0A0F830B99DF815209DF8143043EACA
:1014E0000223238006B010BD08B50A461021FFF77D
:1014F000C0FF08BD08B50A462121FFF7CDFF08BD92
:1015000008B50A462221FFF7D6FF08BD08B50A46EE
:101510002421FFF7D0FF08BD08B50A460021FFF7D8
:10152000CAFF08BD30B583B00446027101600DF1F9
:101530000601FFF7F1FFC0B90546BDF80630B3F567
:10154000B07F03D00125284603B030BD01212046DD
:10155000FFF7CAFF322002F013FD02212046FFF7F9
:10156000C3FFC82002F00CFDEDE70125EBE700B555
:1015700086464FF0000CFF2011E04000C0B201335E
:10158000DBB2072B07D842B2002AF6DA520082F00B
:101590003102D0B2F3E70CF1010C5FFA8CFC8C4500
:1015A00004D21EF80C3058400023EAE75DF804FB33
:1015B00000B585B00B0A8DF80C308DF80D10642342
:1015C0000093022303AA0179006800F037FD05B0FB
:1015D0005DF804FB10B50160027143F2A201FFF750
:1015E000E7FF10B10124204610BD0446032002F09D
:1015F000C7FCF8E770B584B004460E46154642F2C3
:101600001641FFF7D5FF18B10124204604B070BD84
:10161000012002F0B5FC64230093062302AA21797D
:10162000206800F0C7FD0446002841D1022102A82D
:10163000FFF79DFF9DF80A3098423BD102210DF142
:101640000B00FFF794FF9DF80D30984234D19DF8C0
:1016500008209DF8093043EA02239DF80B109DF8FD
:101660000C2042EA012207EE903AF8EE676A9FEDFD
:10167000147AC6EE877ADFED136A67EEA67ADFED9D
:10168000126A77EEE67AC6ED007A07EE902AF8EE57
:10169000676AC6EE877A9FED0D7A67EE877AC5EDA9
:1016A000007A5BB14FF6FF739A42AED10124ACE7EA
:1016B0000124AAE70124A8E70124A6E70124A4E75E
:1016C00000FF7F4700002F43000034420000C84263
:1016D000034638B141B10160002018735873586057
:1016E00098607047012070470120704738B108B5F5
:1016F000006830B10222044902F008FE08BD012052
:1017000070470120FAE700BFEC02002070B586B0F8
:1017100000240194029403940494059400940D4BC6
:101720001A6B42F004021A631B6B03F0040300936C
:10173000009B0726019601230293074D01A9284625
:1017400002F054F822463146284602F03FF906B02E
:1017500070BD00BF00380240000802400FB410B551
:10176000A2B024AB53F8042B0193802102A806F009
:101770001BFC041E03DC08E0012002F001FCA1B206
:1017800002A802F0FDFF0128F6D022B0BDE810400B
:1017900004B0704703685A6912F4806F01D10020C9
:1017A00070476FF480625A6100230363202280F83F
:1017B0003D2080F83E30026C42F00402026480F862
:1017C0003C30012070472DE9F04106460C46174693
:1017D00098463BE002F0CEFB069BC01A404502D87B
:1017E000B8F1000F32D1012D18D033689B6924EA7B
:1017F00003039BB2B3FA83F35B099F4226D1002314
:101800003363202286F83D2086F83E30326C42F069
:101810002002326486F83C30012027E033685B699F
:1018200024EA03039BB2B3FA83F35B09E5E7336869
:101830005B6924EA030C1FFA8CFCBCFA8CFC4FEAAF
:101840005C1C674511D1B8F1FF3FC3D1C4F3074514
:10185000012DECD033689B6924EA030C1FFA8CFC41
:10186000BCFA8CFC4FEA5C1CEBE70020BDE8F08181
:101870002DE9F84305460E469046994653E01A680E
:1018800042F400721A602B686FF480625A61002380
:101890002B63202285F83D2085F83E302A6C42F0EB
:1018A00004022A6485F83C3001204AE002F062FB21
:1018B000A0EB0900404502D8B8F1000F33D1012F49
:1018C00017D02B689B6926EA03039BB2003B18BF25
:1018D000012343B300232B63202285F83D2085F8A4
:1018E0003E302A6C42F020022A6485F83C30012008
:1018F00027E02B685B6926EA03039BB2003B18BF15
:101900000123E6E72B689C6926EA0404A4B2003CA4
:1019100018BF0124A4B12B685A6912F4806FAED1AC
:10192000B8F1FF3FC2D1C6F30747012FEAD12B68B8
:101930005C6926EA0404A4B2003C18BF0124E9E76C
:101940000020BDE8F8830000F0B583B004460D46E2
:1019500016461F46C36A082B0DD0012B0BD013F57A
:10196000803F08D0036B122B0AD10268136843F43E
:101970008073136004E02268136843F4807313607B
:101980000097334600224FF001112046FFF71BFF5E
:1019900080B92369B3F5804F16D1236805F0FE05A1
:1019A0001D613B46324613492046FFF761FFF8B9F7
:1019B00003B0F0BD23681B6813F4807F02D04FF49E
:1019C000007323640320F3E7EB11226803F006039E
:1019D00043F0F00313613B46324607492046FFF7C8
:1019E00047FF18B92368EDB21D61DAE70120DFE790
:1019F0000120DDE702000100080001002DE9F041AF
:101A000084B004460D4616461F46C26A01680B683C
:101A100043F480630B60082A0DD0012A0BD012F525
:101A2000803F08D0036B112B0AD10268136843F47E
:101A30008073136004E02268136843F480731360BA
:101A40000097334600224FF001112046FFF7BBFEFE
:101A500098B92369B3F5804F19D1236845F0010582
:101A6000EDB21D613B4632462A492046FFF700FF92
:101A700000284CD104B0BDE8F08123681B6813F442
:101A8000807F02D04FF4007323640320F2E74FEA13
:101A9000E51808F00608236848F0F0021A613B4692
:101AA00032461D492046FFF7E3FE08B10120E1E779
:101AB0002368EDB21D613B46324616492046FFF7CA
:101AC000D7FE08B10120D5E70022039223685969A7
:101AD0000391996903910399196841F48071196020
:101AE000009733464FF001112046FFF76CFE20B9F6
:101AF000226848F0F1031361B4E723681B6813F40C
:101B0000807F02D04FF4007323640320B2E70120EA
:101B1000B0E700BF020001000800010070B50446F4
:101B20000D46164623685B6913F0800F21D12046CD
:101B3000FFF730FEF8B9B5F1FF3FF3D002F01AFA23
:101B4000801BA84201D8002DECD123685B6913F0FB
:101B5000800FE7D100232363202284F83D2084F8FE
:101B60003E30226C42F02002226484F83C30012096
:101B700000E0002070BD0120FCE700002DE9F043EB
:101B800085B004460D4691461F46DDF830800D9E17
:101B90000368196841F48071196000964346002279
:101BA0004FF00111FFF70FFE60B9236805F0FE0545
:101BB0001D613346424626492046FFF759FE68B16B
:101BC000012008E023681B6813F4807F02D04FF4E3
:101BD00000732364032005B0BDE8F0830023039362
:101BE00023685A6903929B690393039B32464146DB
:101BF0002046FFF793FF30B9012F0FD123685FFA1A
:101C000089F61E61E7E7236C042B01D00120E2E78F
:101C10002268136843F400731360F7E723684FEA00
:101C200019221A61324641462046FFF777FF20B954
:101C300023685FFA89F61E61CDE7236C042B01D07F
:101C40000120C8E72268136843F400731360F7E7C4
:101C5000020001002DE9F04784B004460D46164607
:101C600099460C9FDDF834800268136843F4806362
:101C700013600368196841F480711960CDF8008021
:101C80003B4600224FF00111FFF79DFD70B95FFA4E
:101C900085FA236805F0FE051D6143463A46414931
:101CA0002046FFF7E5FD68B1012008E023681B68C6
:101CB00013F4807F02D04FF400732364032004B038
:101CC000BDE8F0870023039323685A6903929B6958
:101CD0000393039B424639462046FFF71FFF80B916
:101CE000B9F1010F18D12368F6B21E614246394698
:101CF0002046FFF713FF68B3236C042B24D0012088
:101D0000DDE7236C042B01D00120D8E7226813689B
:101D100043F400731360F7E72368320A1A614246FE
:101D200039462046FFF7FAFE18B92368F6B21E615D
:101D3000DCE7236C042B01D00120C0E72268136884
:101D400043F400731360F7E72268136843F40073E9
:101D50001360D4E72268136843F480731360CDF8EE
:101D600000803B4600224FF001112046FFF72BFD7B
:101D700068B922684AF00103136143463A460949AB
:101D80002046FFF775FD002899D0012097E72368CA
:101D90001B6813F4807F02D04FF400732364032088
:101DA0008DE700BF0200010070B504460D461646DF
:101DB00023685B6913F0040F21D12046FFF7EAFC8A
:101DC000F8B9B5F1FF3FF3D002F0D4F8801BA84278
:101DD00001D8002DECD123685B6913F0040FE7D123
:101DE00000232363202284F83D2084F83E30226CB7
:101DF00042F02002226484F83C30012000E0002000
:101E000070BD0120FCE770B504460D46164614E08F
:101E10006FF010025A6100232363202284F83D20D2
:101E200084F83E30226C226484F83C30012025E0A6
:101E300023685B6913F0400F10D02368586910F0D5
:101E4000400F1AD1586910F0100FE1D102F092F84A
:101E5000801BA842ECD8002DEFD1E9E700232363D3
:101E6000202284F83D2084F83E30226C42F020028B
:101E7000226484F83C30012000E0002070BD0000A6
:101E8000002800F0CC8070B5044690F83D30002B5F
:101E900077D0242384F83D302268136823F00103AF
:101EA00013602268136843F40043136022681368C8
:101EB00023F40043136000F0DFFD62685A4B9A423E
:101EC00064D85A4B98428CBF00230123002B40F06A
:101ED000A8805749A1FB00318B0C25686A6822F065
:101EE0003F0242EA91426A6021680A6A22F03F0298
:101EF00066684D4DAE424FD8013313430B622168E3
:101F0000CA6922F44F4222F0FF026568464B9D42A7
:101F10004CD8431E6D00B3FBF5F3013340F6FC7063
:101F2000034278D0C3F30B031A43CA6121680B68DC
:101F300023F0C003E269206A024313430B60216867
:101F40008B6823F4034323F0FF032269E068024314
:101F500013438B602168CB6823F0FF036269A0699B
:101F600002431343CB602268136843F001031360FC
:101F700000202064202384F83D30206384F83E0054
:101F800070BD80F83C30FFF777F982E7294B984223
:101F90008CBF0023012399E74FF4967505FB03F3EB
:101FA000254DA5FB03539B090133A6E7A668BEB9DF
:101FB000431E05EB450CB3FBFCF30133C3F30B03EA
:101FC000B3FA83F35B0943BBC6B9431E05EB450572
:101FD000B3FBF5F30133C3F30B0343F40043A3E76F
:101FE000431E05EB850C0CEB8C0CB3FBFCF30133AF
:101FF000C3F30B03B3FA83F35B09E4E7431E05EB7A
:10200000850505EB8505B3FBF5F30133C3F30B033E
:1020100043F4404388E7042386E7012384E7012053
:1020200070470120ACE700BFA08601007F841E003E
:1020300083DE1B43FF083D00D34D62102DE9F043C2
:1020400085B004460F46914698460C9E01F092FFDB
:10205000054694F83D00C0B2202804D00227384637
:1020600005B0BDE8F0830095192301224F492046B1
:10207000FFF7A9FB002840F0928094F83C30012B38
:1020800000F08F80012384F83C3023681A6812F036
:10209000010F03D11A6842F001021A602268136826
:1020A00023F400631360212384F83D30102384F867
:1020B0003E3000232364C4F82490A4F82A80638D62
:1020C00023853B4BE3622B46324639462046FFF7D9
:1020D0003BFC0746002866D10023039323685A6916
:1020E00003929B690393039B11E0236C042B01D0A3
:1020F0000127B4E72268136843F400731360F7E71D
:102100002A4631462046FFF74FFE00282ED1238D68
:10211000002B36D02A4631462046FFF7FFFC002828
:10212000E3D1626A236812781A61606A431C6362B1
:10213000618D89B2013989B26185238D013B9BB2E2
:1021400023852268516911F0040FD9D0002BD7D014
:1021500043781361636A01336362638D9BB2013B11
:102160009BB26385238D013B2385C9E7236C042B38
:1021700001D0012773E72268136843F400731360EA
:10218000F7E72268136843F400731360202384F890
:102190003D30002384F83E3084F83C305FE702276E
:1021A0005DE702275BE7012759E700BF0200100047
:1021B0000000FFFF2DE9F04387B004460F4691462B
:1021C00098460E9E01F0D6FE054694F83D00C0B23A
:1021D000202804D00227384607B0BDE8F0830095D8
:1021E0001923012289492046FFF7EDFA002840F023
:1021F0004F8194F83C30012B00F04C81012384F88E
:102200003C3023681A6812F0010F03D11A6842F0BB
:1022100001021A602268136823F40063136022230A
:1022200084F83D30102384F83E3000232364C4F842
:102230002490A4F82A80638D2385754BE3622B4696
:10224000324639462046FFF7D9FB0746002840F0C2
:102250002381238D5BB9029323685A6902929A699C
:102260000292029A1A6842F400721A607AE0012B14
:102270000FD0022B1FD02268136843F480631360D1
:102280000023059323685A6905929B690593059B72
:1022900068E02268136823F48063136000230393CB
:1022A00023685A6903929A690392039A1A6842F45E
:1022B00000721A6056E02268136823F4806313608A
:1022C0002268136843F400631360002304932368B7
:1022D0005A6904929B690493049B43E02A46314661
:1022E0002046FFF790FD002840F0D88023681A6947
:1022F000636A1A70636A01336362238D013B23852D
:10230000638D9BB2013B9BB263852BE00095334606
:10231000002240492046FFF756FA002840F0C080CE
:102320002268136843F40073136023681A69636AB0
:102330001A70626A531C6362238D013B2385638D8F
:102340009BB2013B9BB2638523681B695370636A30
:1023500001336362238D013B2385638D9BB2013B77
:102360009BB26385218D002900F08980032953D811
:102370000129B3D00229C9D000953346002225494E
:102380002046FFF720FA002840F08C80226813686E
:1023900023F48063136023681A69636A1A70636A9E
:1023A00001336362238D013B2385618D89B201393D
:1023B00089B2618500953346002216492046FFF711
:1023C00002FA002870D12268136843F40073136086
:1023D00023681A69636A1A70626A531C6362238DE8
:1023E000013B2385638D9BB2013B9BB263852368D0
:1023F0001B695370636A01336362238D013B23853C
:10240000638D9BB2013B9BB26385ABE7020010007A
:102410000000FFFF040001002A4631462046FFF776
:10242000F2FC002842D123681A69636A1A70636A51
:1024300001336362228D013A92B22285638D9BB291
:10244000013B9BB263852368596911F0040F89D061
:10245000032A0FD023681A69636A1A70636A01330A
:102460006362238D013B2385638D9BB2013B9BB24D
:10247000638577E71A6822F480621A60EAE720230E
:1024800084F83D30002384F83E3084F83C30A2E6E6
:102490000227A0E602279EE601279CE601279AE68E
:1024A000012798E6012796E6012794E6012792E6A0
:1024B0002DE9F04383B004460F46904699460C9EA2
:1024C00001F058FD054694F83D00C0B2202803D025
:1024D000022003B0BDE8F0830095192301224B4987
:1024E0002046FFF770F9002840F0898094F83C30CE
:1024F000012B00F08680012384F83C3023681A68A1
:1025000012F0010F03D11A6842F001021A6022682A
:10251000136823F400631360212384F83D304023C3
:1025200084F83E30002323640A9B6362BDF82C309C
:102530006385638D2385364BE362019500964B4698
:10254000424639462046FFF719FB00285BD1238D10
:10255000002B35D02A4631462046FFF7DFFA20BB54
:10256000626A236812781A61626A531C6362218D61
:10257000013989B22185638D9BB2013B9BB2638592
:102580002368586910F0040FE1D00029DFD0527899
:102590001A61636A01336362238D013B2385638D76
:1025A0009BB2013B9BB26385D1E7236C042B01D026
:1025B00001208EE72268136843F400731360F7E785
:1025C0002A4631462046FFF7EFFB50B1236C042B1F
:1025D00001D001207DE72268136843F40073136083
:1025E000F7E72268136843F400731360202384F82C
:1025F0003D30002384F83E3084F83C3069E7022007
:1026000067E7022065E7012063E700BF02001000D2
:102610000000FFFF2DE9F04387B004460F469046C7
:102620009946109E01F0A6FC054694F83D00C0B204
:10263000202804D00227384607B0BDE8F083009573
:102640001923012288492046FFF7BDF8002840F0F1
:102650004D8194F83C30012B00F04A81012384F82D
:102660003C3023681A6812F0010F03D11A6842F057
:1026700001021A602268136823F4006313602223A6
:1026800084F83D30402384F83E30002323640E9BC1
:102690006362BDF83C306385638D2385734BE362D1
:1026A000019500964B46424639462046FFF7D2FA3E
:1026B0000746002840F01E81238D5BB902932368F2
:1026C0005A6902929A690292029A1A6842F4007256
:1026D0001A6075E0012B0AD0022B1AD00023059353
:1026E00023685A6905929B690593059B68E02268F7
:1026F000136823F4806313600023039323685A69EB
:1027000003929A690392039A1A6842F400721A605B
:1027100056E02268136823F480631360226813680C
:1027200043F4006313600023049323685A690492FE
:102730009B690493049B43E02A4631462046FFF7F9
:1027400062FB002840F0D88023681A69636A1A7017
:10275000636A01336362238D013B2385638D9BB2E2
:10276000013B9BB263852BE0009533460022404934
:102770002046FFF728F8002840F0C0802268136840
:1027800043F40073136023681A69636A1A70626AFB
:10279000531C6362238D013B2385638D9BB2013BF8
:1027A0009BB2638523681B695370636A013363625C
:1027B000238D013B2385638D9BB2013B9BB26385D7
:1027C000238D002B00F08980032B53D8012BB3D02D
:1027D000022BC9D000953346002225492046FEF73A
:1027E000F2FF002840F08C802268136823F4806395
:1027F000136023681A69636A1A70636A013363623B
:10280000238D013B2385638D9BB2013B9BB2638586
:1028100000953346002216492046FEF7D4FF0028D3
:1028200070D12268136843F40073136023681A6937
:10283000636A1A70626A531C6362238D013B2385AD
:10284000638D9BB2013B9BB2638523681B69537008
:10285000636A01336362238D013B2385638D9BB2E1
:10286000013B9BB26385ABE7020010000000FFFF55
:10287000040001002A4631462046FFF7C4FA00282A
:1028800042D123681A69636A1A70636A013363620A
:10289000228D013A92B22285638D9BB2013B9BB29D
:1028A00063852368596911F0040F89D0032A0FD07A
:1028B00023681A69636A1A70636A01336362238D3D
:1028C000013B2385638D9BB2013B9BB2638577E718
:1028D0001A6822F480621A60EAE7202384F83D3007
:1028E000002384F83E3084F83C30A4E60227A2E6B8
:1028F0000227A0E601279EE601279CE601279AE62B
:10290000012798E6012796E6012794E6002800F0C3
:102910009B8070B50D4604464F4B1B6803F00F03B8
:102920008B4208D2CBB24C4A1370136803F00F03EA
:102930008B4240F08B80236813F0020F17D013F006
:10294000040F04D0454A936843F4E053936023682E
:1029500013F0080F04D0414A936843F46043936036
:102960003E4A936823F0F003A1680B439360236809
:1029700013F0010F32D06368012B21D09A1E012A77
:1029800025D9364A126812F0020F61D033498A689D
:1029900022F0030213438B6001F0ECFA06462F4B42
:1029A0009B6803F00C036268B3EB820F16D001F052
:1029B000E1FA801B41F288339842F0D9032042E0CB
:1029C000264A126812F4003FE0D101203BE0234A7E
:1029D000126812F0007FD9D1012034E01E4B1B6831
:1029E00003F00F03AB4207D9EAB21B4B1A701B6806
:1029F00003F00F03AB422DD1236813F0040F06D070
:102A0000164A936823F4E053E1680B43936023680C
:102A100013F0080F07D0114A936823F4604321692B
:102A200043EAC103936000F0F7FB0C4B9B68C3F3D0
:102A300003130B4AD35CD8400A4B18600A4B186842
:102A400001F04CFA002070BD012070470120FAE728
:102A50000120F8E70120F6E7003C02400038024080
:102A600004A200080800002004000020014B1868A0
:102A7000704700BF0800002008B5FFF7F7FF044BC0
:102A80009B68C3F38223034AD35CD84008BD00BFD0
:102A900000380240FCA10008F0B583B00446066887
:102AA00016F001060DD0964AD2F88C3023F0C063A0
:102AB000816B0B43C2F88C30836B002B00F09B8042
:102AC0000026236813F0020F0BD08D4AD2F88C3009
:102AD00023F0C053E16B0B43C2F88C30E36B03B9B6
:102AE0000126256815F004050FD0854AD2F88C30F0
:102AF00023F44013216B0B43C2F88C30236BB3F5E6
:102B0000801F7AD0002B7AD00025236813F0080F9D
:102B10000ED07B4AD2F88C3023F44003616B0B4318
:102B2000C2F88C30636BB3F5800F6AD003B901250E
:102B3000236813F0200F66D1236813F0100F04D020
:102B400094F858206F4BC3F8E021236813F0800FEE
:102B500008D06B4AD2F8943023F44003E16C0B4365
:102B6000C2F89430236813F0400F08D0644AD2F8BA
:102B7000943023F08063A16C0B43C2F89430236837
:102B800013F4807F0DD05E4AD2F8943023F00063B6
:102B9000616D0B43C2F89430636DB3F1006F00F0C8
:102BA0009B80236813F4007F08D0554AD2F89430F4
:102BB00023F08053616C0B43C2F89430236813F404
:102BC000806F0CD04E4AD2F8943023F00053216D20
:102BD0000B43C2F89430236DB3F1005F7ED0002E1A
:102BE0007CD12368B3F5006F78D0012D00F02581EA
:102BF000002003B0F0BD012663E7012682E701252E
:102C000083E7012692E7002301933D4B1A6C42F0C3
:102C100080521A641B6C03F080530193019B3A4A63
:102C2000136843F48073136001F0A4F90746364B30
:102C30001B6813F4807F06D101F09CF9C01B0228A9
:102C4000F5D90320D5E72E4B1B6F13F4407314D036
:102C5000226C02F440729A420FD0294B1A6F22F470
:102C600040722A490120C1F8400E0020C1F8400EF0
:102C70001A671B6F13F0010F12D1236C03F440721B
:102C8000B2F5407F1DD01E4A936823F4F813936079
:102C90001B490B6F226CC2F30B0213430B674BE70C
:102CA00001F068F90746164B1B6F13F0020FE4D1D1
:102CB00001F060F9C01B41F288339842F3D9032038
:102CC00097E70F498A6822F4F81223F0704323F43F
:102CD000407313438B60DBE7012562E70B4B002257
:102CE0009A6601F047F90646054B1B6813F0006F22
:102CF0000ED001F03FF9801B0228F5D9032078E7B8
:102D00000038024000104742007000400000474277
:102D1000236813F0010F01D0A26B22B113F0020F50
:102D200015D0E36B9BB9774AD2F88400D2F88410AF
:102D30006368A66843EA861300F44030034301F059
:102D400070610B43616943EA0173C2F88430236800
:102D500013F0040F03D0226BB2F5801F06D013F0DE
:102D6000080F20D0636BB3F5800F1CD1654AD2F8F1
:102D70008400D2F884106368A66843EA861300F4DE
:102D800040300343206943EA006301F0E0410B4314
:102D9000C2F88430D2F88C3023F01F03A16A0139C5
:102DA0000B43C2F88C30236813F4806F03D0236D7B
:102DB000B3F1005F28D0236813F4006F11D063686B
:102DC000A26843EA8213E2685208013A43EA0243E6
:102DD000226943EA0263626943EA0273494AC2F81C
:102DE0008430494B01229A6601F0C4F80646454BEF
:102DF0001B6813F0006F7FF4F8AE01F0BBF8801B86
:102E00000228F4D90320F4E63E48D0F88420C2F327
:102E100001420132D0F884606368A16843EA8113FB
:102E2000E1684908013943EA014343EA426306F095
:102E3000E0421343C0F88430BDE7334B00221A67E9
:102E400001F098F805462F4B1B6813F0005F06D081
:102E500001F090F8401B0228F5D90320C9E6236849
:102E600013F0040F01D0226B22B113F0080F1AD017
:102E7000636BC3B9234AD2F88810A369E06943EAB7
:102E8000801301F440310B43616A43EA0163C2F8E5
:102E90008830D2F88C3023F4F853E16A013943EAE0
:102EA0000123C2F88C30236813F4807F03D0636D54
:102EB000B3F1006F11D0144B01221A6701F05AF8D8
:102EC0000446104B1B6813F0005F18D101F052F854
:102ED000001B0228F5D903208BE60A48D0F8881099
:102EE000A369E26943EA8213226A5208013A43EA7B
:102EF000024301F070621343C0F88830DBE7002022
:102F000077E600BF0038024000004742013807283A
:102F100000F26781DFE810F0A500060165010800F6
:102F20006501650165010800B04BD3F88C3003F4EE
:102F30007003B3F5401F00F056810BD9B3F5000FB5
:102F400067D0B3F5400F00F08480B3F5800F35D023
:102F500000207047B3F5801F30D0B3F5001F58D064
:102F60000BBBA24B5B6813F4800F1ED19F4BD3F8B1
:102F7000883003F03F039E49B1FBF3F19B4BD3F83C
:102F80008820C2F30362D3F88800C0F3881001FBE5
:102F900000F0B0FBF2F0D3F88C30C3F3042301331C
:102FA000B0FBF3F0704700207047904BD3F88830A7
:102FB00003F03F038F49B1FBF3F1DFE78B4B5B6815
:102FC00013F4800F1CD1894BD3F8843003F03F03F6
:102FD0008749B1FBF3F1854BD3F88420C2F3036238
:102FE000D3F88400C0F3881001FB00F0B0FBF2F0CE
:102FF000D3F88C3003F01F030133B0FBF3F07047BC
:103000007A4BD3F8843003F03F037A49B1FBF3F1F4
:10301000E1E7764B5B6813F4800F12D1734B5B686A
:1030200003F03F03724AB2FBF3F270494B68C3F3FB
:1030300002734868C0F3881002FB00F0B0FBF3F0A5
:1030400070476A4B5B6803F03F036A4AB2FBF3F2D6
:10305000EBE7664B5B6813F4800F40F0CF80644869
:103060007047624BD3F88C3003F0C063B3F1806FCC
:1030700038D006D893B1B3F1007F40F0C1805E48EC
:103080007047B3F1C06F07D1584B5B6813F4800FE2
:1030900000F0B8805748704700207047534B5B687A
:1030A00013F4800F15D0514BD3F8842002F03F0267
:1030B000504BB3FBF2F34D4AD2F88400C0F38810B2
:1030C00003FB00F0D2F88430C3F30273B0FBF3F0DB
:1030D0007047464BD3F8842002F03F02444BB3FBC9
:1030E000F2F3E8E7414B5B6813F4800F12D03F4BDB
:1030F0005A6802F03F023F4BB3FBF2F33B4A506881
:10310000C0F3881003FB00F05368C3F30273B0FBF5
:10311000F3F07047354B5A6802F03F02344BB3FB73
:10312000F2F3EBE7314BD3F88C3003F0C053B3F13B
:10313000805F36D005D883B1B3F1006F64D12E48DB
:103140007047B3F1C05F06D1284B5B6813F4800F62
:103150005CD02848704700207047244B5B6813F40C
:10316000800F15D0214BD3F8842002F03F02214B71
:10317000B3FBF2F31D4AD2F88400C0F3881003FBBE
:1031800000F0D2F88430C3F30273B0FBF3F0704761
:10319000164BD3F8842002F03F02154BB3FBF2F339
:1031A000E8E7124B5B6813F4800F12D00F4B5A689C
:1031B00002F03F020F4BB3FBF2F30C4A5068C0F32E
:1031C000881003FB00F05368C3F30273B0FBF3F005
:1031D0007047064B5A6802F03F02054BB3FBF2F30F
:1031E000EBE7002070470448704700BF00380240FA
:1031F0000024F40000127A000080BB0004487047ED
:10320000002070470348704700207047014870470E
:1032100000127A000024F40008B5604B9B6803F0AC
:103220000C03082B06D00C2B5ED0042B40F0B4808E
:103230005B4833E0594B5A6802F03F025B6813F475
:10324000800F2CD0554B5868C0F388104FEA401CB3
:10325000BCEB000C6EEB0E0E4FEA8E1343EA9C6340
:103260004FEA8C11B1EB0C0163EB0E03DB0043EA78
:103270005173C90011EB000C43F100035902002304
:103280004FEA4C2041EADC51FDF7AEFC434B5B6852
:10329000C3F3014301335B00B0FBF3F008BD3F4BC8
:1032A0005868C0F388104FEA401CBCEB000C6EEB72
:1032B0000E0E4FEA8E1343EA9C634FEA8C11B1EB7A
:1032C0000C0163EB0E03DB0043EA5173C90011EB01
:1032D000000C43F10003990200234FEA8C2041EADD
:1032E0009C51FDF781FCD1E72C4B5A6802F03F025C
:1032F0005B6813F4800F2AD0284B5868C0F38810FD
:103300004FEA401CBCEB000C6EEB0E0E4FEA8E1326
:1033100043EA9C634FEA8C11B1EB0C0163EB0E03A3
:10332000DB0043EA5173C90011EB000C43F10003C9
:10333000590200234FEA4C2041EADC51FDF754FCCE
:10334000164B5B68C3F30273B0FBF3F0A6E7134BB5
:103350005868C0F388104FEA401CBCEB000C6EEBC1
:103360000E0E4FEA8E1343EA9C634FEA8C11B1EBC9
:103370000C0163EB0E03DB0043EA5173C90011EB50
:10338000000C43F10003990200234FEA8C2041EA2C
:103390009C51FDF729FCD3E702487FE70038024043
:1033A00000127A000024F400002800F0018270B5B9
:1033B00082B00446036813F0010F41D0994B9B681B
:1033C00003F00C03042B32D0964B9B6803F00C03E4
:1033D000082B27D0934B9B6803F00C030C2B59D080
:1033E0006368B3F5803F5BD0B3F5A02F5ED08D4B03
:1033F0001A6822F480321A601A6822F480221A6055
:103400006368002B5CD000F0B5FD0546854B1B685A
:1034100013F4003F14D100F0ADFD401B6428F5D932
:103420000320CCE17F4B5B6813F4800FD2D07D4B3F
:103430001B6813F4003F03D06368002B00F0BA81CF
:10344000236813F0020F60D0764B9B6813F00C0FCB
:103450004AD0744B9B6803F00C03082B3FD0714B90
:103460009B6803F00C030C2B69D0E368002B75D02C
:103470006D4B01221A6000F07DFD0546694B1B680B
:1034800013F0020F61D100F075FD401B0228F5D941
:10349000032094E1634B5B6813F4800FA0D0C6E770
:1034A000604A136843F480331360A9E75D4B1A68E0
:1034B00042F480221A601A6842F480321A609FE750
:1034C00000F058FD0546574B1B6813F4003FB7D07A
:1034D00000F050FD401B6428F5D903206FE1514BEB
:1034E0005B6813F4800FBAD14E4B1B6813F0020FC8
:1034F00003D0E368012B40F05F814A4A136823F050
:10350000F803216943EAC1031360236813F0080F2D
:1035100049D06369002B33D0434B0122C3F8802E7E
:1035200000F028FD05463F4B5B6F13F0020F3AD1C8
:1035300000F020FD401B0228F5D903203FE1394B64
:103540005B6813F4800F90D1CEE7364A136823F0FE
:10355000F803216943EAC1031360D6E7324B002226
:103560001A6000F007FD05462E4B1B6813F0020F92
:10357000CBD000F0FFFC401B0228F5D903201EE150
:10358000294B0022C3F8802E00F0F4FC0546254BA1
:103590005B6F13F0020F06D000F0ECFC401B02281A
:1035A000F5D903200BE1236813F0040F76D01D4BEF
:1035B0001B6C13F0805F33D100230193194B1A6CFD
:1035C00042F080521A641B6C03F080530193019BFC
:1035D0000125164B1B6813F4807F29D0A368012BAB
:1035E0003AD0052B3ED00F4B1A6F22F001021A671A
:1035F0001A6F22F004021A67A368002B3CD000F077
:10360000B9FC0646074B1B6F13F0020F45D100F0C3
:10361000B1FC801B41F288339842F3D90320CEE0FD
:103620000025D6E700380240000047420070004005
:103630006B4A136843F48073136000F09BFC0646EA
:10364000674B1B6813F4807FC8D100F093FC801B8C
:103650000228F5D90320B2E0624A136F43F0010358
:103660001367C9E75F4B1A6F42F004021A671A6FBB
:1036700042F001021A67BFE700F07CFC0646594B96
:103680001B6F13F0020F08D000F074FC801B41F296
:1036900088339842F3D9032091E0EDB9A369002B58
:1036A00000F08C804F4A926802F00C02082A54D035
:1036B000022B17D04C4B00221A6600F05BFC04462C
:1036C000484B1B6813F0007F45D000F053FC001BF3
:1036D0000228F5D9032072E0424A136C23F080538C
:1036E0001364DBE7404B00221A6600F043FC0546FA
:1036F0003C4B1B6813F0007F06D000F03BFC401BE6
:103700000228F5D903205AE0E369226A1343626A6A
:1037100043EA8213A26A5208013A43EA0243E26A88
:1037200043EA0263226B43EA02732E4A53602E4B34
:1037300001221A6600F01EFC04462A4B1B6813F097
:10374000007F06D100F016FC001B0228F5D90320EB
:1037500035E0002033E0002031E0012B31D0214B57
:103760005B6803F48001E26991422CD103F03F02CF
:10377000216A8A4229D1616A47F6C0721A40B2EBC7
:10378000811F24D103F44031A26A5208013AB1EBFF
:10379000024F1ED103F07062E16AB2EB016F1AD1E1
:1037A00003F0E043226BB3EB027F16D1002006E06A
:1037B00001207047012002E0012000E0002002B05B
:1037C00070BD0120FBE70120F9E70120F7E70120A8
:1037D000F5E70120F3E70120F1E70120EFE700BF63
:1037E00000700040003802400000474200230F2BC9
:1037F00000F2E38070B582B065E085684FEA430E61
:10380000032404FA0EF425EA0405CC6804FA0EF445
:103810002C438460446824EA02044A68C2F300121C
:103820009A40224342605CE0DC08083450F82420CF
:1038300003F00705AD004FF00F0E0EFA05FE22EA69
:103840000E0E0A69AA4042EA0E0240F824205CE00B
:10385000062200E0002202FA0EF22A430234574DFB
:1038600045F82420564A94686FEA0C0224EA0C05B5
:103870004E6816F4801F01D04CEA0405504CA56038
:10388000E46802EA04054E6816F4001F01D04CEA11
:1038900004054B4CE560646802EA04054E6816F4C2
:1038A000003F01D04CEA0405454C65602468224085
:1038B0004D6815F4803F01D04CEA0402404C226070
:1038C00001330F2B77D801229A400C6804EA020CCE
:1038D00032EA0404F4D14C6804F00304013C012CE6
:1038E0008BD94A6802F00302032A09D0C4685D003C
:1038F0000322AA4024EA02048A68AA402243C26042
:103900004A6802F00302022A8ED004684FEA430E8E
:10391000032202FA0EF224EA02044A6802F00302C9
:1039200002FA0EF2224302604A6812F4403FC7D006
:1039300000220192234A546C44F480445464526C33
:1039400002F480420192019A9C08A51C1B4A52F87D
:10395000255003F0030E4FEA8E0E0F2202FA0EF2EC
:1039600025EA0205184A90423FF474AF02F58062DE
:10397000904216D002F58062904214D002F5806227
:10398000904212D002F58062904210D002F580621F
:1039900090420ED002F5806290423FF459AF072268
:1039A00059E7012257E7022255E7032253E7042291
:1039B00051E705224FE702B070BD70470038014063
:1039C000003C014000380240000002400AB1816121
:1039D000704709048161704730B405682C6824F48D
:1039E00080242C60046863608368402B05D00368E2
:1039F00099600368DA6030BC704703689A600368B6
:103A0000D960F8E710B40368D9B210390A4AA2FBAA
:103A100001421209094CA25CC2655F2907D96FF304
:103A2000090304338365806D5DF8044B70476FF3C1
:103A300009038365F7E700BFABAAAAAAF4A10008AF
:103A4000836A826992B9012B0AD0022B02D00BB192
:103A500000207047C36A13F0807F28D10020704790
:103A6000C36AB3F1C07F24D000207047B2F5005F75
:103A700009D0022B25D9032B25D1C36A13F0807FEF
:103A800023D100207047032B03D8DFE803F0140490
:103A9000140A00207047C36A13F0807F0DD1002004
:103AA0007047C36AB3F1C07F09D00020704701207E
:103AB00070470120704701207047012070470120A6
:103AC00070470120704700207047012070470000B8
:103AD00070B5044600F04EFA002C5BD00546022378
:103AE00084F83530002384F834302268136823F0DA
:103AF0000103136023681A6812F0010F0AD000F066
:103B000039FA431B052BF5D920236365032084F87C
:103B1000350070BD1A68204911406268A0680243F0
:103B2000E06802432069024360690243A0690243DE
:103B3000E0690243206A02430A43616A04291ED0F5
:103B40001A602668756925F00705636A1D43042B12
:103B500007D1A36A1D43E36A1BB12046FFF770FF3C
:103B600090B975612046FFF74DFFE26D3F2393400A
:103B7000836000206065012384F83530C9E7E16A7D
:103B8000206B01430A43DBE740236365012084F88F
:103B90003500BEE70120BCE73F8010F038B5044691
:103BA000856D90F8340001282BD0012084F8340072
:103BB00094F83500C0B2012804D0002384F83430D2
:103BC000022038BD022084F83500002060652046C0
:103BD000FFF702FFE26D3F239340AB60226813685A
:103BE00043F016031360236C23B12268136843F07B
:103BF000080313602268136843F001031360002078
:103C0000DFE70220DDE70000F0B583B004460023C3
:103C10000193724B1D68724BA3FB0535AD0A876D8E
:103C20003E68C26D08239340334210D003681A687F
:103C300012F0040F0BD01A6822F004021A60C26D51
:103C400008239340BB60436D43F001034365E26D7D
:103C500001239340334209D02268526912F0800F49
:103C600004D0BB60636D43F002036365E26D04231F
:103C70009340334209D02268126812F0020F04D038
:103C8000BB60636D43F004036365E26D10239340F2
:103C9000334224D02268126812F0080F1FD0BB6094
:103CA00023681A6812F4802F0DD01B6813F4002FBC
:103CB00004D1236C9BB12046984710E0A36C73B1EC
:103CC000204698470BE01A6812F4807F03D11A68E7
:103CD00022F008021A60236C0BB120469847E26D6F
:103CE00020239340334255D02268126812F0100FFF
:103CF00050D0BB6094F83530DBB2052B0ED0236872
:103D00001A6812F4802F33D01B6813F4002F2AD1C5
:103D1000636C002B3ED0204698473BE02268136836
:103D200023F0160313602268536923F08003536164
:103D3000236CA3B12268136823F008031360E26DBB
:103D40003F239340BB60012384F83530002384F87F
:103D50003430236D002B3FD0204698473CE0A36CC5
:103D6000002BE7D1EBE7E36BA3B12046984711E0C6
:103D70001A6812F4807F09D11A6822F010021A60C2
:103D8000012384F83530002384F83430E36B0BB121
:103D900020469847636DFBB1636D13F0010F17D098
:103DA000052384F835302268136823F0010313607B
:103DB000019B01330193AB4204D823681B6813F0C5
:103DC000010FF5D1012384F83530002384F8343015
:103DD000E36C0BB12046984703B0F0BD080000200B
:103DE000B5814E1B002807DB00F01F0240090123AC
:103DF0009340024A42F82030704700BF00E100E0E3
:103E0000002808DB0901C9B200F1604000F56140FB
:103E100080F80013704700F00F000901C9B2014B90
:103E20001954704714ED00E000B500F00700C0F130
:103E3000070CBCF1040F28BF4FF0040C031D062B28
:103E40000FD9C31E4FF0FF3E0EFA0CF021EA00011D
:103E500099400EFA03FE22EA0E0241EA02005DF8E2
:103E600004FB0023EEE70000074AD36823F4E06375
:103E70001B041B0C000200F4E060034343F0BF632B
:103E800043F40033D360704700ED00E010B5044602
:103E9000054BD868C0F30220FFF7C6FF0146204655
:103EA000FFF7AEFF10BD00BF00ED00E008B5FFF763
:103EB00099FF08BD0138B0F1807F0BD24FF0E023AD
:103EC0005861054AF02182F82310002098610722EA
:103ED0001A6170470120704700ED00E010B50446FC
:103EE0000E4B1A784FF47A73B3FBF2F30C4A106856
:103EF000B0FBF3F0FFF7DEFF68B90F2C01D901200A
:103F00000AE0002221464FF0FF30FFF7BFFF054BCC
:103F10001C60002000E0012010BD00BF0000002058
:103F2000080000200400002008B50B4B1A6842F47A
:103F300000721A601A6842F480621A601A6842F4C9
:103F400080721A600320FFF78FFF0F20FFF7C6FF74
:103F5000FDF7FEF9002008BD003C0240034A11684D
:103F6000034B1B780B441360704700BF9003002085
:103F700000000020014B1868704700BF900300202C
:103F800038B50446FFF7F6FF0546B4F1FF3F02D00F
:103F9000044B1B781C44FFF7EDFF401BA042FAD3F3
:103FA00038BD00BF00000020034AD2F8883043F437
:103FB0007003C2F88830704700ED00E010B503468A
:103FC0000C4A0D490D48006840B10C480068034494
:103FD000521A934206D8094A136010BD0748084C8C
:103FE0000460F2E704F040F80C2303604FF0FF3068
:103FF000F3E700BF0000022000040000940300204B
:10400000702100200120704708B504F02DF8162318
:1040100003604FF0FF3008BD08B54FF0FF31FFF7E8
:10402000F3FFFEE770B50C461646002506E0AFF339
:104030000080214601F8010B01350C46B542F6DB44
:10404000304670BD70B50C461646002504E014F8E5
:10405000010BAFF300800135B542F8DB304670BD8F
:104060004FF0FF3070474FF400534B600020704713
:10407000012070470020704700B583B000210191F6
:10408000094B1A6B42F480021A631B6B03F4800322
:104090000193019B0A463820FFF7F8FE3820FFF70E
:1040A00005FF03B05DF804FB0038024008B50C487A
:1040B0000C4B03604FF44073436000238360032282
:1040C000C26003614FF4FA5242618361C3610362CB
:1040D00000F07EF800B908BDFCF7C0FFFBE700BFA9
:1040E000F80300200030014030B59FB004460021A5
:1040F00019911A911B911C911D915C2202A803F049
:1041000061FF22682D4B9A4201D01FB030BD0223BF
:10411000029332220492059304220392079306939A
:1041200001230C9302A8FEF7B7FC002840D100251C
:104130000095234B5A6C42F480525A645A6C02F434
:1041400080520092009A01951A6B42F001021A63A4
:104150001B6B03F001030193019BB023199302230E
:104160001A931B951C9505231D9319A91548FFF754
:104170003DFB1548154B03604FF0C06343608560FD
:10418000C5604FF4806303614FF4805343614FF483
:10419000804383614FF48073C3614FF40033036243
:1041A0004562FFF795FC30B9074BE3639C63ACE7CE
:1041B000FCF754FFBBE7FCF751FFF5E70030014087
:1041C00000380240000002409803002010640240C2
:1041D000002800F0928038B5044690F841300BB3C7
:1041E000022284F841202168CB6923F47B6323F009
:1041F0000F03CB6123681A62636993427BD0E36843
:10420000BBB91025A368202B00D86D0023683C4A59
:10421000934210D002F5806293420CD00220FEF748
:1042200075FE0BE080F84030364B4363FFF75CFFD0
:10423000D6E72025E6E70120FEF768FE2369B3F5FF
:10424000007F3AD0B0FBF5F000EB800043006269DC
:10425000B3FBF2F305332C4AA2FB0323C3F3C002E2
:10426000C2EBD3035B0811029A1EFD2A3DD82269D6
:104270000A4321681A430A622168CB6923F47B63ED
:1042800023F00F036268A0680243E0680243A0695C
:104290000243134343F40063CB61A368302B01D086
:1042A000B02B04D12268D36943F48053D36100203A
:1042B0006064012384F8413038BDE36853B1AD0038
:1042C000B0FBF5F000EB800043006269B3FBF2F352
:1042D0000533C0E7ED00B0FBF5F000EB80004300D4
:1042E0006269B3FBF2F30533B5E7636C43F0100387
:1042F00063640120E0E70021B9E70120704700BFB7
:1043000000380040A3440008CDCCCCCC002968D0B4
:1043100030B583B00446002A65D094F84150EDB220
:10432000012D63D194F84030DBB2012B60D0012322
:1043300084F84030042384F8413000236364E16250
:104340002368DB6903F00703032B04D0052B02D09D
:104350002286628603E0520092B222866286E36B76
:10436000244A1A64E36B244ADA63E36B234ADA646F
:104370002168CB6903F44073B3F5407F1DD0238ED1
:104380009BB2E26A0C31E06BFFF708FCE8B900234E
:1043900084F8403023685A6812F0010F03D15A683C
:1043A00042F001025A602368DA6912F4806F1BD16F
:1043B000DA6942F48062DA6116E000230193CB6887
:1043C00001938B680193019BD9E7636C43F0080369
:1043D0006364012384F84130002384F84030284688
:1043E00002E001207047012003B030BD0220FBE74E
:1043F0000220F9E73B4400087D44000873450008AB
:10440000704708B5426A03681288DA60436A02336B
:104410004362438D9BB2013B9BB24385438D9BB26C
:1044200003B108BD0268536823F0A0035360012361
:1044300080F84130FFF7E4FFF3E708B5806BFCF745
:104440006FFF08BD08B50368DA68C36A1A80C36ADB
:104450000233C362438E9BB2013B9BB24386438EC1
:104460009BB203B108BD0268536823F06003536038
:10447000012380F84130FCF769FFF3E708B50346F4
:10448000806BDB694BB90268536823F0010353600A
:1044900000234386012380F84130FCF757FF08BD15
:1044A000704710B584B0044602689368039390F88F
:1044B0004130DBB2042B06D094F84130DBB2032B41
:1044C0002CD004B010BD039B13F0010F03D0536830
:1044D00013F0400F1FD1039B13F0400FECD0236863
:1044E0005A6812F0200FE7D05A6822F060025A6032
:1044F000002301932368DA6801929B680193019B72
:10450000012384F84130636C43F002036364204666
:10451000FFF7C6FFD0E7FFF795FFDCE7039B13F03B
:10452000020F04D023685B6813F0800F1DD1039B3A
:1045300013F0080FC5D023685A6812F0200FC0D0BE
:104540005A6822F0A0025A600023029323689B68F5
:104550000293029B012384F84130636C43F004030F
:1045600063642046FFF79CFFABE72046FFF749FF57
:10457000DDE708B5806B0268536823F003035360DE
:10458000002343854386012380F84130436C43F088
:1045900008034364FFF784FF08BD000008B500224C
:1045A0000F49104801F0CAFE70B90F490D4801F0DB
:1045B000DCFE60B90D490B4802F0E8FE50B909482D
:1045C00001F0F3FE48B908BDFCF748FDEDE7FCF744
:1045D00045FDEFE7FCF742FDF1E7FCF73FFDF2E7B1
:1045E0004C00002040040020C40000206C0000208B
:1045F00012230B80004870473800002004230B80F2
:1046000000487047280000200C230B8000487047AA
:104610002C000020002393421ED200B510E00CF1C4
:10462000370C01F813C000014FEA430C0CF1010CE8
:104630004FF0000E01F80CE00133DBB2934209D2D7
:104640004FEA107CB0F1204FE9D20CF1300C01F8A8
:1046500013C0E8E75DF804FB7047000038B50B4B6A
:10466000D3F8100AD3F8144AD3F8183AC01800D176
:1046700038BD074D08222946FFF7CCFF042205F17B
:1046800010012046FFF7C6FFF2E700BF0070FF1FD2
:104690000E00002008B51A230B80FFF7DFFF01484A
:1046A00008BD00BF0C00002008B50A4628B905491E
:1046B000054802F0E1FB034808BD0249024802F048
:1046C000DBFBF8E71C070020ACA1000810B50A4688
:1046D000034C2146034802F0CFFB204610BD00BF2B
:1046E0001C070020C4A1000808B50A4628B90549DE
:1046F000054802F0C1FB034808BD0249024802F028
:10470000BBFBF8E71C070020D8A1000808B50A4643
:1047100028B90549054802F0AFFB034808BD024926
:10472000024802F0A9FBF8E71C070020E4A10008FA
:1047300000207047002070470020704710B50146E8
:10474000044C204602F03BFE204602F05FFE0020B3
:1047500010BD00BF4004002010B5064C00220649E1
:10476000204602F01EFE0549204602F028FE0020E9
:1047700010BD00BF400400201C0900201C110020B7
:10478000094BD3F8BC32D3F814320BB10120704777
:1047900010B5054C0A460146204602F002FE2046AE
:1047A00002F019FE10BD00BF4004002030B59FB0DC
:1047B0000446002119911A911B911C911D915C22B4
:1047C00002A803F0FFFB2368B3F1A04F01D01FB094
:1047D00030BD4FF48073029302A8FEF75DF9002804
:1047E00030D100250095194C236B43F0010323635E
:1047F000236B03F001030093009B4FF4C053199304
:1048000002231A931B9503231C930A231D9319A9B2
:104810000F48FEF7EBFF636B43F080036363019582
:10482000636C43F480436364636C03F480430193DB
:10483000019B2A4629464320FFF728FB4320FFF728
:1048400035FBC4E7FCF70AFCCBE700BF00380240A9
:104850000000024008B500F29C41D0F8E00401F0ED
:10486000BAFD08BD08B501EBC10300EB8303D3F823
:104870006022D0F8E00401F081FE08BD08B501EB2C
:10488000C10300EB83031A6AD0F8E00401F0DBFEF9
:1048900008BD08B5D0F8E00401F01BFE08BD10B556
:1048A0000446C17911B1022909D10121D4F8E004EB
:1048B00001F0F0FDD4F8E00401F0B9FD10BDFCF703
:1048C000CDFB0121F2E7000010B50446D0F8E0046A
:1048D00001F0E3FD2268D2F8003E43F00103C2F884
:1048E000003EE37A23B1034A136943F006031361E0
:1048F00010BD00BF00ED00E008B5D0F8E00401F005
:10490000DBFD08BD08B5D0F8E00401F00AFE08BDE3
:1049100008B5D0F8E00401F0EDFD08BD08B5D0F809
:10492000E00401F015FE08BD08B5D0F8E00401F080
:1049300011FE08BD02780AB10020704710B5034689
:104940001548C0F8E034C3F8C8024FF0A043036034
:10495000062303710222C2710023837142728372A3
:10496000C37203738373C37300F01EF980B90A4CDA
:104970008021204600F010FF40220021204600F058
:10498000E5FE80220121204600F0E0FE002010BD5F
:10499000FCF764FBEBE700BF3C1B0020D0F8C832FB
:1049A00011F0800F08D101F07F0101EBC10103EB91
:1049B000810393F85602704701F07F0101EBC101BA
:1049C00003EB8103987D704708B5D0F8C80200F06A
:1049D000F7FA08BD10B50446A1B101291FD102683C
:1049E000D2F8003E43F00103C2F8003ED0F8E004E4
:1049F00001F053FDE37A93B10D4A136943F00603C6
:104A000013610CE0C37A5BB92268D2F8003E23F050
:104A10000103C2F8003ED4F8E00401F04DFD10BDE2
:104A2000FCF71EFB024A136923F006031361EBE750
:104A300000ED00E0004870471C1900207047032873
:104A400005D8DFE800F005040205012070470320C7
:104A5000704708B5D0F8C80200F02FF9FFF7EFFF54
:104A600008BD08B594461A466346D0F8C80200F05F
:104A700004FAFFF7E4FF08BD08B5D0F8C80200F05B
:104A800042FAFFF7DCFF08BD08B5D0F8C80200F015
:104A9000C5FAFFF7D4FF08BD08B5D0F8C80200F08A
:104AA00000FBFFF7CCFF08BD08B5D0F8C80200F046
:104AB000D1F9FFF7C4FF08BD08B5D0F8C80200F06F
:104AC00088FAFFF7BCFF08BD08B5D0F8C80200F0AF
:104AD00052FAFFF7B4FF08BD2DE9F04383B0D0F8D8
:104AE000008001EBC10300EB83039A6A5B6A9A4280
:104AF00054D807460C469B1A01EBC10200EB820218
:104B0000D2699A4200D31A4602F103094FEA990981
:104B100015E006F103094FEA9909BB7904EBC405D6
:104B200007EB8505296A0093B3B2E2B2404601F073
:104B300080F92B6A33442B62AB6A3344AB6208EBD7
:104B4000441303F510639B699BB24B4512D304EBEE
:104B5000C40307EB83039A6A5B6A9A420AD24BB199
:104B60009B1A04EBC40207EB8202D6699E42D0D3A3
:104B70001E46CEE704EBC40307EB83077A6ABB6AE1
:104B80009A420FD804F00F040122A240D8F834381A
:104B900023EA0203C8F83438002000E0012003B003
:104BA000BDE8F0830020FAE730B583B0002800F0BC
:104BB00082800446056890F89534C3B1032384F8D5
:104BC0009534B5F1A04F17D0206800F0E9FE237CA2
:104BD0008DF80030231D0ECB206800F020FE70B150
:104BE000022384F895340125284603B030BD80F8AF
:104BF0009434FFF7DBFDE1E70023A371E4E7002134
:104C0000206801F02CFB024608B9034617E0022396
:104C100084F895340125E7E703EBC30104EB810138
:104C2000012048750B75CB8500200876C8610862A5
:104C300003EBC30104EB810148620133DBB220794D
:104C40009842E9D816E002EBC20304EB830300218B
:104C500083F8551283F8542283F85812C3F85C1273
:104C6000C3F8601202EBC20304EB8303C3F86412BF
:104C70000132D2B29042E6D8237C8DF80030231D59
:104C80000ECB206800F0E2FE054658B9002363749D
:104C9000012384F89534237B012B08D0206801F090
:104CA0009DFAA1E7022384F8953401259CE720466C
:104CB00000F076FDF2E7012596E7036890F894246A
:104CC000012A1AD010B50446012280F89424DA682B
:104CD00012F0400F02D0427B012A09D0206800F078
:104CE00059FE206801F06CFA002084F8940410BD8D
:104CF0009A6B42F480329A63F0E70220704700001A
:104D000070B504460D460068066C00EB411303F5D0
:104D100030639A68A179012911D038498E4256D062
:104D20003DB905EBC50304EB8303D3F86432002BD4
:104D30005ED0E9B22046FFF795FD002070BD12F06D
:104D4000080F09D02E498E42F7D912F4004FF4D043
:104D50004FF400429A60F0E712F0200F02D02022B8
:104D60009A60EAE712F0280FE7D125498E4206D96A
:104D700012F4004F03D04FF400429A60DDE705EBD8
:104D8000C50204EB8202D2F874121B69C3F312034A
:104D9000CB1AC2F868327DB905EBC50204EB82027A
:104DA000D2F864226AB105EBC50204EB8202D2F8A4
:104DB00060121944C2F86012E9B22046FFF752FDB2
:104DC000BBE704F29C42012101F088FAF4E712F4F7
:104DD000004F03D04FF400429A60AEE712F0200F6C
:104DE00001D020229A60E9B22046FFF73BFDA4E7FC
:104DF00004F29C42002101F071FA9AE70A31544F03
:104E00000A30544F38B5044603681D6C03EB411358
:104E1000D3F8081B0E4A954207D903F5306311F405
:104E2000004F02D04FF400429A602046FFF712FD77
:104E3000074B9D4202D9A379012B01D0002038BD38
:104E400004F29C420121206801F048FAF6E700BF15
:104E50000A30544F90F89434012B0CD010B504460E
:104E6000012380F894344174006801F099F900201E
:104E700084F8940410BD0220704738B505468C466E
:104E800011F0800F2BD101F00F0E0EEBCE04A40019
:104E900004F514740444211D0EEBCE0E00EB8E0EAF
:104EA00000208EF855020CF00F0C81F800C0C2F300
:104EB0000A028A600B714A780AB1A1F81AC0022B63
:104EC0001CD095F89434012B1BD0012385F8943421
:104ED000286800F092FE002085F8940438BD01F0A7
:104EE0000F0000EBC001890010312944043100EBB0
:104EF000C00005EB800001244475D4E700234B710A
:104F0000DFE70220EAE710B504460A4611F0800FF9
:104F100020D101F00F0000EBC0039B0003F51473D8
:104F20002344191D00EBC00004EB8000002380F82F
:104F3000553202F00F020A7094F89434012B18D005
:104F4000012384F89434206800F0A4FE002084F843
:104F5000940410BD01F00F0000EBC0039B00103360
:104F60002344191D00EBC00004EB800001234375AE
:104F7000DFE70220EDE710B5144601F00F0C0CEB53
:104F8000CC01890001F51471014404310CEBCC0E05
:104F900000EB8E0ECEF86022CEF864320023CEF8FD
:104FA00068328EF855328EF854C28279012A04D0C4
:104FB000006800F055FF002010BDCEF87042F7E702
:104FC00001F00F0101EBC10100EB8100D0F8680294
:104FD000704710B5144601F00F0C0CEBCC018900A2
:104FE0001031014404310CEBCC0E00EB8E0ECEF8E8
:104FF0002020CEF824300023CEF8283001238EF86C
:1050000015308EF814C082799A4204D0006800F0FE
:1050100027FF002010BDCEF83040F7E738B501F08B
:105020000F050279AA4238D304460B4611F0800FCF
:105030001FD101EBC101890001F514710144043154
:1050400003EBC30300EB8303002283F85522012303
:105050008B700D7094F89434012B20D0012384F8C8
:105060009434206801F041F885B1002084F894045C
:1050700038BD05EBC501890010310144043105EB51
:10508000C50300EB830301225A75E0E704F29C425A
:10509000A179206801F022F9E7E70120E8E7022082
:1050A000E6E701F00F0302799A4230D310B50446C7
:1050B00011F0800F1ED103EBC301890001F51471BB
:1050C0000144043103EBC30200EB8202002082F8AA
:1050D000550200228A700B7094F89434012B18D07A
:1050E000012384F89434206801F02CF8002084F81F
:1050F000940410BD03EBC301890010310144043155
:1051000003EBC30200EB820201205075E1E70120AE
:1051100070470220EDE708B511F0800F0CD101F0C7
:105120000F0101EBC101890001F514710144043143
:10513000006800F01FFE08BD01F00F0101EBC10186
:105140008900103101440431F2E72DE9F04F83B0BA
:1051500004460568284601F07EF810B103B0BDE8AA
:10516000F08F0646206801F047F80028F6D005F5D4
:105170000067BB68C3F30D23C4F8D434206801F082
:105180003BF810F0020F04D02268536903F00203C9
:105190005361206801F030F810F0100F16D022682B
:1051A000936923F010039361D5F8208008F00F096C
:1051B00008F4F013B3F5802F6AD0B3F5402F00F058
:1051C0008D802268936943F010039361206801F099
:1051D00013F810F4002F40F09380206801F00CF8D1
:1051E00010F4802F40F0FC80206801F005F80028C2
:1051F000C0F27D81206800F0FFFF10F4006F09D03D
:10520000BB6813F0010F40F08A812268536903F4F0
:1052100000635361206800F0EFFF10F0006F15D0BD
:105220002268536903F00063536194F8CC34002B77
:1052300040F07981012184F8CC1423685B6DC3F3BD
:105240008303C4F8D0342046FFF7C4FB206800F085
:10525000D3FF10F4805F40F06A81206800F0CCFF3B
:1052600010F4005F40F0B781206800F0C5FF10F037
:10527000080F40F0C881206800F0BEFF10F0800FDA
:1052800000F0DB81AB6923F08003AB610126C4E150
:1052900047F6F07318EA030F93D04FEA181A4FEA53
:1052A000C903019309EBC90B04EB8B0BC8F30A127A
:1052B000DBF86012284600F0F5FEDBF86032CAF336
:1052C0000A0A5344CBF86032DBF86832019A4A4448
:1052D00004EB82025344C2F8683272E7082204F2F7
:1052E0009C41284600F0DEFE09EBC90304EB830372
:1052F000D3F86822C8F30A184244C3F8682260E76A
:10530000206800F07DFF8046B14635E005EB49138B
:105310000122C3F8082B49462046FFF7F1FC3CE088
:1053200005EB49130822C3F8082B49462046FFF72E
:1053300069FD35E009EBC90304EB830393F85732A9
:10534000012B41D005EB49130222C3F8082B1AF0B8
:10535000200F04D005EB49132022C3F8082B1AF4C0
:10536000005F05D005EB49134FF40052C3F8082B3A
:1053700009F101094FEA5808B8F1000F3FF42DAFC9
:1053800018F0010FF4D05FFA89FB5946206800F04D
:1053900047FF824610F0010FB8D11AF0080FBFD1B5
:1053A0001AF0100F04D005EB49131022C3F8082B94
:1053B0001AF0020FCBD06B6913F0800FBAD07B6864
:1053C00043F480637B60B5E709EBC90304EB830317
:1053D000002283F8572259462046FFF793FAB1E797
:1053E000206800F015FF8046B14625E0594620466A
:1053F000FFF744FA1AF0080F04D005EB491308220E
:10540000C3F808291AF0100F04D005EB4913102235
:10541000C3F808291AF0400F04D005EB49134022C5
:10542000C3F808291AF0020F40D11AF0800F59D1A1
:1054300009F101094FEA5808B8F1000F3FF4D4AE62
:1054400018F0010FF4D05FFA89FB5946206800F08C
:10545000F0FE824610F0010FCCD009F00F020121BE
:1054600001FA02F27B6B23EA02037B6305EB49132B
:10547000C3F80819A3798B42B8D109EBC90304EB2F
:1054800083031A6AD9690A441A62B9F1000FADD1CF
:1054900009EBC90304EB83035B6A002BA6D104F27A
:1054A0009C420121206800F019FF9FE749462846E9
:1054B00000F07CFA09EBC90304EB8303DB7D012BCD
:1054C00005D005EB49130222C3F80829ADE709EB23
:1054D000C90304EB83030022DA7559462046FFF71F
:1054E00017FAEEE749462046FFF7F6FAA0E77B6891
:1054F00023F001037B6094F8CC34012B08D02046C4
:10550000FFF7FAF92268536903F00043536171E62B
:10551000002184F8CC142046FFF75CFAF2E720461D
:10552000FFF7D2F971E62046FFF7CEF98EE67B68E9
:1055300023F001037B601021206800F037FA1AE0A5
:1055400005EB46134FF67F31C3F80819D3F800294D
:1055500022F40012C3F80029C3F8081BD3F8002B6B
:1055600022F40012C3F8002BD3F8002B42F00062A3
:10557000C3F8002B01362379B342E1D8FB6943F02D
:105580000113FB61E37BDBB1D7F8843043F00B03FD
:10559000C7F884307B6C43F00B037B64D5F800388C
:1055A00023F4FE63C5F8003804F29C42A179206818
:1055B00000F094FE2268536903F4805353614CE673
:1055C0007B6943F4005343F02B037B613B6943F059
:1055D0000B033B61E2E7206800F072FE206800F0F8
:1055E000FBFAE0712668FDF741FA0146E2793046A0
:1055F00000F05EF92046FFF752F92268536903F480
:105600000053536130E62046FFF743F9226853699F
:1056100003F0080353612EE601362379B3420CD917
:1056200006EBC60304EB830393F85732012BF3D147
:10563000F1B22046FFF76FFDEEE7206800F0DCFDD9
:1056400010F4801F25D1206800F0D6FD10F4001F53
:1056500058D0012326E001362379B3421BD905EB4C
:105660004613D3F8002906EBC60304EB83031B7E25
:10567000012BF0D1002AEEDA06EBC60304EB83031C
:105680000122DA7566F07F01C9B22046FFF743FDBB
:10569000E1E70126E0E72268536903F480135361D0
:1056A000D1E7013322799A4227D905EB4312D2F888
:1056B000001B03EBC30204EB820292F85822012A7A
:1056C000EFD10029EDDAD4F8D42482EA114212F0A5
:1056D000010FE6D103EBC30204EB8202012182F841
:1056E0005712AA6942F08002AA616A6912F0800F1B
:1056F000D7D17B6843F400737B602268536903F45D
:1057000000135361206800F077FD10F0804F10D136
:10571000206800F071FD10F0040F3FF41FAD236806
:105720005D6815F0040F0DD1226853682B43536058
:1057300014E52046FFF7F2F82268536903F080432E
:105740005361E5E72046FFF7EFF8EDE710B4046892
:10575000606A31B940EA0240A06200205DF8044B63
:1057600070478C46A36A00EB1340002308E003F166
:10577000400104EB8101496800EB11400133DBB2C9
:105780000CF1FF318B42F2D340EA02400CF13F01B1
:1057900004EB81046060E0E7036859620020704711
:1057A000034602680121C0F8D814002083F8CC0415
:1057B000936943F000639361536D43F0805343F06A
:1057C00003035365704782B000230193019B0133AB
:1057D0000193019BB3F1706F1CD80369002BF5DABC
:1057E0000A23019302E0019B013B0193019B002BE3
:1057F000F9D1036943F001030361019B0133019374
:10580000019BB3F1706F08D8036913F0010FF4D155
:10581000002000E0032002B070470320FBE784B0C3
:1058200010B5044603A880E80E009DF81130012B46
:1058300021D1A36B23F48033A363E36823F48403AF
:1058400023F04003E360E36823F44013E3609DF832
:105850001830012B0AD02046FFF7B5FF9DF80E3017
:10586000012B1CD0BDE8104004B07047E36843F43E
:105870008013E360EFE7E36843F04003E360204612
:10588000FFF7A1FF9DF8153023B9A36B43F48033D4
:10589000A363E3E7A36B23F48033A363DEE7A3688A
:1058A00043F00603A360A36843F02003A360D9E795
:1058B000022A0AD00922C36823F47053C360C36864
:1058C00043EA8223C36000207047234B0B44234AE2
:1058D00093422FD9224B0B44224A93422CD9A1F553
:1058E0007403A3F51053204A934227D9A1F183737F
:1058F000A3F5E7431D4A934222D31D4B0B441D4A97
:1059000093421FD91C4B0B441C4A93421CD31C4B83
:105910000B441C4A934219D3A1F1B773A3F5585312
:10592000194A934214D3194B0B44194A934211D28A
:105930000722C0E70F22BEE70E22BCE70D22BAE71E
:105940000C22B8E70B22B6E70A22B4E70922B2E735
:105950000822B0E70622AEE7405327FFFF340C00D1
:10596000401E1BFF3F420F007F4F120020D6130046
:1059700060B6E5FE5FE3160000D3CEFE40771B0065
:10598000C05BB3FEC091210020753800E05459FE81
:10599000E09C4100836843F001038360002070476E
:1059A000836823F0010383600020704782B00023E6
:1059B0000193019B01330193019BB3F1706F15D8E3
:1059C0000369002BF5DA00230193890141F02001DE
:1059D0000161019B01330193019BB3F1706F08D802
:1059E000036913F0200FF4D1002000E0032002B07F
:1059F00070470320FBE782B000230193019B013332
:105A00000193019BB3F1706F13D80369002BF5DA92
:105A10000023019310230361019B01330193019B38
:105A2000B3F1706F08D8036913F0100FF4D10020A0
:105A300000E0032002B070470320FBE7D0F80038F5
:105A40001943C0F8001800207047000084B0F8B572
:105A5000044607A880E80E00002306E003F1400298
:105A600004EB82020021516001330E2BF6D99DF820
:105A7000266006BBD4F8043843F00203C4F80438A7
:105A8000A36B23F40013A363236843F04003236054
:105A9000236843F0800323600023C4F8003E9DF890
:105AA0002130012B11D19DF81F304BB90021204628
:105AB000FFF7C4FF0DE0A36B43F40013A363EBE710
:105AC00001212046FFF7BAFF03E003212046FFF73C
:105AD000B5FF10212046FFF769FF054600B10125FB
