:020000040800F2
:10000000000002205DA30008CD530008CF53000874
:10001000D1530008D3530008D55300080000000056
:10002000000000000000000000000000D75300089E
:10003000D953000800000000DB530008DD5300081E
:10004000ADA30008ADA30008ADA30008ADA3000850
:10005000ADA30008ADA30008ADA30008ADA3000840
:10006000ADA30008ADA30008ADA30008ADA3000830
:10007000ADA30008ADA30008ADA30008ADA3000820
:10008000ADA30008ADA30008ADA30008ADA3000810
:10009000ADA30008ADA30008ADA30008ADA3000800
:1000A000ADA30008ADA30008ADA30008ADA30008F0
:1000B000ADA30008ADA30008ADA30008ADA30008E0
:1000C000ADA30008ADA30008ADA30008ADA30008D0
:1000D000ADA30008ADA30008ADA30008ADA30008C0
:1000E000ADA30008ADA30008ADA30008ADA30008B0
:1000F000ADA30008ADA30008ADA30008ADA30008A0
:10010000ADA30008ADA30008ADA30008ADA300088F
:10011000ADA30008ADA30008ADA30008ADA300087F
:10012000E5530008ADA30008ADA30008ADA3000887
:10013000ADA300080000000000000000ADA300080F
:10014000ADA30008ADA30008ADA30008F553000857
:10015000ADA30008ADA30008ADA30008ADA300083F
:10016000ADA30008ADA30008ADA30008ADA300082F
:10017000ADA30008ADA30008ADA300080000000077
:1001800000000000ADA30008000000000000000017
:10019000ADA300080000000000000000ADA30008AF
:1001A000000000000000000000000000ADA30008F7
:1001B000ADA30008ADA30008ADA30008ADA30008DF
:0401C000ADA30008E3
:100200000348044B834202D0034B03B118477047A5
:10021000D8020020D802002000000000054806494E
:100220000B1AD90F01EBA301491002D0034B03B104
:1002300018477047D8020020D802002000000000B4
:1002400010B5064C237843B9FFF7DAFF044B13B11E
:100250000448AFF300800123237010BDD8020020B2
:1002600000000000B0A3000808B5044B1BB104490E
:100270000448AFF30080BDE80840CFE7000000006D
:10028000DC020020B0A30008014B1868704700BFD3
:100290000000002070B50D4E0D4D761BB61006D037
:1002A0000024013455F8043B9847A642F9D1094E81
:1002B000094D761B0AF07CF8B61006D000240134F4
:1002C00055F8043B9847A642F9D170BD1CA8000818
:1002D0001CA8000820A800081CA80008F0B4860785
:1002E00046D0541E002A3CD0CAB2034602E014F1A4
:1002F000FF3436D303F8012B9D07F8D1032C29D9FD
:10030000CDB245EA05250F2C45EA054533D9A4F1C0
:100310001006360903F1200707EB061703F1100258
:1003200042E9045542E902551032BA42F8D1721C32
:1003300014F00C0F03EB021204F00F0613D0331F5E
:1003400023F003030433134442F8045B9342FBD1CC
:1003500006F003042CB1C9B21C4403F8011B9C42F3
:10036000FBD1F0BC704734461346002CF3D1F8E7BC
:1003700014460346C2E71A462646E0E72DE9F04751
:1003800057EC106B84B0002F894692461946DDE980
:100390000D545EDB0023662D0B7018D0462D16D051
:1003A00025F02003452B36D003AA02ABCDE900325D
:1003B00002210C9B4A4647EC106B00F0C3FE672DF0
:1003C000804636D11AF0010F35D1039B1CE003AAF9
:1003D00002ABCDE9003203210C9B4A4647EC106B7F
:1003E00000F0B0FE804600EB090598F80030302B95
:1003F00034D00C9B1B681D44304639460022002334
:1004000004F09EFCD0B12B46A3EB080340462360CA
:1004100004B0BDE8F08703A902AB09F10109CDE9F9
:1004200000314A460C9B022147EC106B00F08AFE1B
:100430008046472DC6D008EB0905DDE7039B9D42AA
:10044000E2D930215A1C03921970039BAB42F9D3B5
:10045000DAE707F100431F462D239CE70022002323
:100460003046394604F06CFC0028C2D10C9AC9F120
:1004700001031360BFE700BFF0B400290446BABF10
:1004800049422D232B23092904F8022B82B0437003
:100490002DDD0DF107063546194F01E015461946C9
:1004A00087FB0132CB17C3EBA20303EB8302A1EB63
:1004B00042023032632905F8012C05F1FF32EDDCF0
:1004C0003033A91EDBB28E4202F8013C0BD9214623
:1004D00001E012F8013B01F8013BB242F9D10DF104
:1004E00009035D1B2C44201A02B0F0BC7047303168
:1004F0003023041DC1708370201A02B0F0BC704715
:10050000676666662DE9F04F8DB00C46DDF85880C1
:1005100016461F46054601F083FD036806931846FC
:1005200000F00EFD00230A93D8F80030079007333F
:1005300023F0070393ED007B08338DED047BD4F8A3
:1005400000B094F818A0C8F80030DDE9042323F0C7
:1005500000499046104684ED127B49464FF0FF3229
:10056000AF4B04F01FFC40B9404649464FF0FF3204
:10057000AB4B04F0F9FB00287BD0DDE90401024617
:100580000B4604F00FFC002840F035826168481CDF
:100590004BF480622CD0BAF1670F64D0BAF1470FE8
:1005A00061D0002322600AA8039309AB0290009354
:1005B000CDF804A00DF123039DED040B2846FFF7B1
:1005C000DDFE8046BAF1650F099B33D8013B194621
:1005D000524604F150000993FFF74EFF0A9A131890
:1005E000012A8146236140F37E810133236133E098
:1005F00006216160002322600AA8039309AB0290E0
:100600000093CDF804A00DF123039DED040B2846C3
:10061000FFF7B4FE0AF0DF03472B8046D2D1099BD7
:10062000D91C80F2E280AAF1020A5FFA8AFABAF1D2
:10063000650FCBD9BAF1660F00F0DE800A9A9A42B4
:1006400040F3E580002BD4BFC3F1020101210A442D
:100650002261A3654FF000099DF823300BB32D23D1
:1006600084F843301DE0002940F0138101216160CE
:10067000C0E7DDE904010022002304F06BFB10B1A8
:100680002D2384F84330674867492BF00402032385
:100690002260BAF1470F94BF8046884623614FF02D
:1006A0000009009733460BAA2146284600F0C2F9FC
:1006B000013024D0236858052CD4236942463146A2
:1006C0002846B84701301AD022680B98E368920791
:1006D0001AD51A1A002A17DD04F119094FF000087B
:1006E00004E0E3680B981A1A42450DDD01234A46DF
:1006F00031462846B847013008F10108F1D14FF0E2
:10070000FF300DB0BDE8F08F9842B8BF18460DB06D
:10071000BDE8F08FBAF1650F33D900220023D4E988
:10072000120104F00DFB002800F0828001233F4AF3
:1007300031462846B8470130E1D0DDE909239A4225
:1007400002DB2268D107C0D5DDE906233146284601
:10075000B8470130D3D00A9B012BB5DD04F11A094B
:100760004FF0000803E00A9B013B4345ACDD012349
:100770004A4631462846B847013008F10108F2D10F
:10078000BDE70A9A012A40F39A8001234246314686
:100790002846B8470130B2D0DDE906233146284665
:1007A000B8470130ABD000220023D4E91201DDF8B4
:1007B00028A004F0C5FA002800F09080BAF1010FDB
:1007C00040F3888004F11A0A4FF0000803E00A9B06
:1007D000013B43457EDD0123524631462846B8475A
:1007E000013008F10108F2D189E7626893423FF7CE
:1007F0001AAF4FF0670A21E7002B626878DD2361AA
:10080000002A00F0A68001321A44226121E7226802
:100810002361D2077FF51DAF5A1C226119E700BF83
:10082000FFFFEF7FD0A60008D4A60008E0A60008CE
:10083000099B002B63DD0A9BD4F858A05345A8BF41
:100840005346002B9B4608DD424631462846B847B2
:1008500001303FF454AFD4F858A02BEAEB7BAAEB5D
:100860000B03002B40F3828004F11A034FF00009C0
:100870009A4604E0A36DA3EB0B024A4575DD012304
:10088000524631462846B847013009F10109F1D1F5
:1008900035E7002322600AA8039309AB0290009376
:1008A000CDF804A00DF123039DED040B2846FFF7BE
:1008B00065FD099BD91C8046FFF6B5AE95E7D907C3
:1008C0003FF563AF4246012331462846B847013021
:1008D0003FF415AF4B4604F15002F0E60AF1FF3346
:1008E00008F10102F0E72268D2077FF5B5AE7CE699
:1008F000002A33D12168C90730D40122A8E6012398
:10090000494A31462846B84701303FF4F8AEDDE9A0
:100910000923134324D0DDE9062331462846B8478E
:1009200001303FF4ECAE099B002B79DA04F11A0A8E
:100930004FF0000903E0099B5B424B4570DD01234A
:10094000524631462846B847013009F10109F2D133
:10095000D5E62168C8077FF57CAE54E7023277E61A
:100960002268D3077FF5B1AED5E79A46DDE90921C4
:100970008A4202DB2368D80709D5DDE90623314620
:100980002846B84701303FF4BAAEDDE909215245A7
:10099000A1EB0203D4BFA1EB0A099946B9F1000FFC
:1009A0000BDD08EB0A024B4631462846B8470130BA
:1009B0003FF4A5AEDDE909239B1A29EAE979A3EB07
:1009C0000903002B7FF780AE04F11A0A4FF00008EC
:1009D00007E0DDE909239B1AA3EB090343457FF7F1
:1009E00073AE0123524631462846B847013008F11C
:1009F0000108EED183E6059B0C490D4A002BBCBFD4
:100A00002D2384F843302BF0040323600323BAF131
:100A1000470F94BF8846904623614FF0000940E697
:100A200042460A9B4BE600BFE0A60008D8A6000895
:100A3000DCA600082DE9F0470C4691460A69896852
:100A4000DDF820808A42B8BF0A46C9F8002094F831
:100A5000431006461F4611B10132C9F80020236831
:100A600099065CD5D9F800200232C9F80020236825
:100A700013F0060F19461DD1E1688A1A002AD8BF63
:100A8000194617DD04F1190A002505E0E368D9F8D5
:100A900000209B1AAB420CDD0123524639463046FA
:100AA000C047013005F10105F0D14FF0FF30BDE83E
:100AB000F087216894F84330003318BF01238A0679
:100AC0000AD5E1185A1C302081F84300224494F8DA
:100AD000451082F84310023304F143023946304690
:100AE000C0470130E1D02368A268216903F0060302
:100AF000042B1DD08A4226DD4FF00009521A914482
:100B00001A34002501E04D451DDA012322463946FD
:100B10003046C047013005F10105F4D1C5E713F0B7
:100B2000060F13D094F84330003318BF0123D3E7E6
:100B3000D9F80000E3688A42A3EB000323EAE379D3
:100B4000DCDC002BDCDC0020BDE8F087E168D9F8B4
:100B500000208A1A002AD8BF194693DCAAE700BFF2
:100B60002DE9F0430C46097E85B06E2906461746EE
:100B70000C98984604F1430E6DD039D9732900F0D2
:100B8000F68044D9752900F00481782940F011815C
:100B900078232268DFF858C284F8453001681506CA
:100BA00051F8043B016040F1A180D10744BF42F0FD
:100BB00020022260002B00F093801022002184F894
:100BC00043106068A0600028C0F2C880216821F04E
:100BD00004012160002B40F0A380002840F0C08079
:100BE0007546082A00F0AC80AEEB0503236141E0B6
:100BF000632900F0E5801AD8002938D0582940F040
:100C0000D88084F845102268DFF8E8C1C6E76F296C
:100C100000F0BF80702940F0CC802268DFF8D0C19E
:100C200042F020027823226084F84530B6E7642938
:100C300002D0692940F0BD8022680368110603F1E3
:100C4000040557D5196805600B46002959DBDFF804
:100C5000A4C10A22B5E70368226861691D1D056009
:100C600015061B6802D4500600F1BD8019600023F0
:100C700075462361CDF800803B4603AA21463046E5
:100C8000FFF7D8FE013020D02A4623693946304686
:100C9000C047013019D022680398E368920719D53C
:100CA0001A1A002A16DD04F11909002504E0E36888
:100CB00003981A1AAA420DDD01234A4639463046E6
:100CC000C047013005F10105F1D14FF0FF3005B00B
:100CD000BDE8F0839842B8BF184605B0BDE8F08380
:100CE000226822F020022260102267E7500648BFE7
:100CF0009BB25AE75106A5D5B3F9003005601946F5
:100D0000A3E76168A1602D200029C3F1000384F8E6
:100D1000430002DB22F004022260DFF8D8C00A227E
:100D2000754600E00B46B3FBF2F102FB1130934233
:100D30001CF8000005F8010DF4D2082A7FF454AF26
:100D40002368DB077FF550AF626823699A423FF75B
:100D50004BAF302305F8013C013D45E7002BDFD1C7
:100D60009CF8003084F8423004F1420539E703680A
:100D70006268191D01601D680021284601F068F9AC
:100D8000002832D0401B60602061002384F843308B
:100D900070E72268036812F0800F03F104051AD08F
:100DA0001B6805606F290CBF08220A22DFF844C0C7
:100DB00004E7012384F84210236104F14205E4E7CB
:100DC00003681A68191D0123016004F1420584F8C3
:100DD00042202361D9E712F0400F0DBF1B68056068
:100DE0001B880560DEE7198041E76068CCE700BF3B
:100DF000F8A60008E4A6000808B430B5002A9CB0A4
:100E0000044635DB4FF4027302910691ADF81430BD
:100E100020A918D0013A0B460492079201911F9A1B
:100E20004FF6FF7502A9ADF8165002F0BBF8421C50
:100E300001DA8B232360029B00221A701CB0BDE8EC
:100E4000304001B070470B460492079201914FF673
:100E5000FF751F9AADF8165002A902F0A3F8431CC3
:100E600001DA8B2323601CB0BDE8304001B070472D
:100E70008B2202604FF0FF30F5E700BF0CB430B5B5
:100E8000204B00299DB01C6837DB4FF402730290A1
:100E90000690ADF8143021A819D001390346209AE4
:100EA0000491079101904FF6FF7502A92046ADF815
:100EB000165002F077F8421C01DA8B232360029B64
:100EC00000221A701DB0BDE8304002B070470346E2
:100ED0000491079101904FF6FF75209AADF81650D6
:100EE00002A9204602F05EF8431C01DA8B2323603E
:100EF0001DB0BDE8304002B070478B2323604FF037
:100F0000FF30F5E7000000200000000000000000B6
:100F100000000000000000000000000000000000D1
:100F200000000000000000000000000000000000C1
:100F300000000000000000000000000000000000B1
:100F400090F800F06DE9024520F007016FF0000C09
:100F500010F0070491F820F040F049804FF00004B1
:100F60006FF00700D1E9002391F840F000F108008C
:100F700082FA4CF2A4FA8CF283FA4CF3A2FA8CF3C4
:100F80004BBBD1E9022382FA4CF200F10800A4FA2B
:100F90008CF283FA4CF3A2FA8CF3E3B9D1E904237F
:100FA00082FA4CF200F10800A4FA8CF283FA4CF3B6
:100FB000A2FA8CF37BB9D1E9062301F1200182FA70
:100FC0004CF200F10800A4FA8CF283FA4CF3A2FA76
:100FD0008CF3002BC6D0002A04BF04301A4612BA84
:100FE000B2FA82F2FDE8024500EBD2007047D1E987
:100FF000002304F00305C4F100004FEAC50514F016
:10100000040F91F840F00CFA05F562EA05021CBFE6
:1010100063EA050362464FF00004A9E70000000000
:101020002DE9F04F03690F69BB4283B0C0F286809F
:10103000013F01F1140600F1140A56F827305AF85E
:101040002720BC000133009406EB04099A42544463
:10105000B2FBF3F801943AD300252A46B646D446AB
:101060005EF8044BDCF800301FFA84FB08FB0B55DC
:101070004FEA154B240C08FB04B4ADB2551BA2B2C9
:10108000C2EB134215FA83F302EB23429BB243EA0D
:101090000243F1454FEA14454CF8043B4FEA224223
:1010A000DED2009B5AF803308BB9019A131F9A4580
:1010B0000CD252F8043C4BB9A2F1080302E01A68C2
:1010C000043B1AB99A4507F1FF37F8D30761044684
:1010D00001F086FB00282DDB08F1010850460023B3
:1010E00056F8041B05688AB29A1A0B0C12FA85F29C
:1010F000C3EB154303EB224392B242EA0342B145EC
:1011000040F8042B4FEA2343EAD25AF827200AEB8F
:1011100087037AB91A1F92450BD253F8042C42B9AF
:10112000083B02E01A68043B1AB99A4507F1FF37F9
:10113000F8D32761404603B0BDE8F08F002003B02C
:10114000BDE8F08F2DE9F04F55EC104B97B0466A93
:10115000209F039182460A920793CDE90045002E15
:1011600000F03683316851B172684A6001239340C0
:101170008B6001F097F8DAF8243000221A602E1EF6
:10118000B4BF012300233B60774BBCBF26F0004671
:101190000196B34300F0B0809DED007B0022002358
:1011A00051EC170B8DED047B03F0CAFD054678B1B9
:1011B000079A01231360219B002B00F023836B4BC4
:1011C000219A1360013B0293029817B0BDE8F08F9B
:1011D000DDE9047814AA15A948EC107B504601F00B
:1011E00033FC340D834640F09D80DDE914542C44DB
:1011F00004F23243202B40F3CD83C3F140039E40E1
:10120000009B04F2124023FA00F0304303F0B6FAD8
:10121000A1F1F87301210246013C0E9110461946D6
:101220000022534B03F06CF949A3D3E9002303F0E8
:101230001FFB49A3D3E9002303F064F906462046C7
:101240000F4603F0ABFA46A3D3E9002303F010FBEB
:1012500002460B463046394603F054F906460F461F
:1012600003F0B6FD0022814600233046394603F0E4
:1012700071FD002840F0B9822C1BB9F1160F04F162
:10128000FF3800F299823B4B03EBC903D3E90023FB
:10129000DDE9040103F05EFD002871D00023B8F100
:1012A000000F09F1FF390D93C0F28C8200230993DE
:1012B000B9F1000F6ADA099BCDF81890A3EB090386
:1012C0000993C9F100030C93039BDAF82400092B5E
:1012D0004FF0000964D8052B40F35A83043B039375
:1012E0000024039B023B032B00F26486DFE813F02B
:1012F000660463043E045604079A42F20F731360B7
:10130000009BC6F31306334318D1219B002B00F03A
:101310006086194B02930833219A0298136017B024
:10132000BDE8F08FC8F3130141F07F530E953A46A4
:10133000A4F2FF3443F44013149D6FE7219B002B6C
:1013400040F003840D4B02933EE700BFAFF30080F3
:1013500061436F63A787D23FB3C8608B288AC63FBB
:10136000FB799F501344D33F0000F07FE1A60008B3
:101370000000F83FE0A300080CA7000818A7000829
:10138000B8F1000FC0F2A3840D90099000230C93D4
:10139000039BCDF81890092BC844DAF824009AD999
:1013A000002301240393CDE90A344FF0FF3308935F
:1013B0000021089B41600F93504600F033FF0290DC
:1013C000002800F0FF85DAF82430029A1A60089BA2
:1013D0000E2B00F20A81002C00F0078106990029EB
:1013E00040F37784B14B01F00F0203EBC20393ED9E
:1013F000007B0C11E2068DED107B40F11484AC4BA8
:10140000DDE90401D3E9082303F05CFBCDE9000129
:1014100004F00F0403267CB1DDE91001A44DE307BD
:1014200004D5D5E9002303F023FA0136641005F151
:101430000805F4D1CDE91001DDE90001DDE9102353
:1014400003F040FBCDE900010D9B53B1DDE9004500
:101450000022984B2046294603F07CFC002840F0EF
:101460003585304603F09AF9DDE9002303F000FAF0
:10147000914B002203F046F8089B0446A1F15075F9
:10148000002B00F00884069B1293089B1093DDE963
:1014900000673946304603F09BFC009003F07EF96C
:1014A00002460B463046394603F02AF87F4B009A35
:1014B0000F461099064603EBC1030B980299303290
:1014C000CDE90045D5B24C1C53E90223002800F0B9
:1014D000A1840020794903F0F5FADDE9002303F047
:1014E0000FF8029B32461D703B46CDE9000103F028
:1014F0004FFC002840F0DE8432463B4600206D4918
:1015000002F0FEFF02460B46DDE9000103F040FC5D
:10151000002840F03D85109B012B62D0029ACDF847
:1015200040901344CDF84C80DDE90089CDF800B03F
:10153000D3469A460EE032463B4600205D4902F013
:10154000DFFF42464B4603F005FC002840F0FC84D8
:1015500054453FD0404649460022594B03F088F994
:101560000022574B804689463046394603F080F9C1
:101570000F46064603F02CFC054603F00FF9024621
:101580000B463046394602F0BBFF3035EDB204F869
:10159000015B42464B4606460F4603F0DBFB002844
:1015A000C9D0129BDA460133DDF800B006935946E4
:1015B000504600F077FE00232370079B1A46069BD7
:1015C0001360219B002B3FF4FFAD02981C6017B005
:1015D000BDE8F08FDA46DDF84090DDF84C80DDF8AC
:1015E00000B0DDE90434CDE90034159B002BC0F2D6
:1015F000C680069A0E2A00F3C2802C4B03EBC2036E
:10160000D3E900890A9B002B17DA089F002F14DC0E
:1016100040F05A8300222B4B4046494603F028F9FC
:10162000DDE9002303F0AAFB002800F0D283089F25
:101630003D460A9B029CDB43DEE2DDE90045424673
:101640004B462046294603F03DFA03F0C1FB06460F
:10165000009003F0A3F842464B4603F009F9024616
:101660000B4620462946029C3546303502F048FF9D
:10167000069E04F8015B089D0136012D02460B46CB
:10168000069652D000220E4B03F0F2F800220023FF
:1016900006460F4603F054FB002888D1CDF800B071
:1016A0000125DDF820B0CDF80CA01AE0E0A3000879
:1016B000D0A400080000F03F00001C400000E03F04
:1016C00000002440000014400022BF4B03F0D0F87B
:1016D0000022002306460F4603F032FB002840F0AC
:1016E0006D8342464B463046394603F0EBF903F032
:1016F0006FFB824603F052F842464B4603F0B8F8BF
:1017000002460B463046394602F0FAFE01350AF130
:101710003006AB4502460B4604F8016BD4D1DDF828
:1017200000B0CDF800A0DDF80CA01046194602F07C
:10173000E9FE42464B4606460F4603F029FB60B9D8
:1017400042464B463046394603F0FAFA00283FF449
:101750002EAF009BD9077FF52AAF14F8015C029ADF
:10176000631E04E09A4200F0D78313F8015D392D1F
:1017700003F10104F6D06A1CD2B21A7017E70B9A73
:10178000002A45D0039A012A40F36382089B5E1E1B
:101790000C9BB342C0F241829E1B089B002BC0F2FF
:1017A0001383099A14461A44984409920121504619
:1017B00000F094FE05462EE00123B8F1000F0D93D2
:1017C000BFF674ADC4F1010309934FF000086FE553
:1017D000102000F02DFCCAF82400002800F0DD8362
:1017E000C0E901660660C660C9E4484602F0D6FF5B
:1017F00032463B4603F0A4FA00287FF43DAD09F1E0
:10180000FF3939E5714B0293029817B0BDE8F08FAC
:101810000C9E099C0B9D002C0CDDB8F1000F09DD1E
:101820004445099A2346A8BF4346D21A0992E41AAE
:10183000A8EB03080C9BD3B10B9B002B00F07E811F
:10184000002E10DD29463246504600F003FF5A466E
:1018500001460546504600F057FE59460746504699
:1018600000F020FDBB460C9B9A1B40F068810121D3
:10187000504600F033FEB9F1000F074600F39080A8
:10188000039B012B40F3668100260120B9F1000F74
:1018900040F09180404410F01F0077D0C0F1200349
:1018A000042B40F39A83C0F11C00099B0344099365
:1018B00004448044099B002B05DD59461A465046D6
:1018C00000F02AFF8346B8F1000F05DD3946424695
:1018D000504600F021FF07460D9B002B40F013817E
:1018E000089B002B40F3FA800B9B002B7ED1069BBC
:1018F00001330693029CDDF82080012607E059465B
:1019000000230A22504600F0F3FC01368346394694
:101910005846FFF785FBB04500F1300004F8010B95
:10192000EDDC03464FF00009594601225046009372
:1019300000F0F2FE3946834600F052FF002814F80A
:10194000012C40F37881631E029904E0994200F073
:101950008D8113F8012D392A03F10104F6D00132EB
:101960001A703946504600F09DFC002D3FF41FAE22
:10197000B9F1000F05D0A94503D04946504600F003
:1019800091FC2946504600F08DFC10E61C208CE7A7
:101990000124A6E4C3F12006009B03FA06F035E417
:1019A00001464A46504600F055FE039B012B074670
:1019B00040F3B98100263B6907EB8303186900F007
:1019C0003DFDC0F1200065E700002440E0A60008CE
:1019D000294600230A22504600F08AFC0F9B002B68
:1019E000054640F3CC82CDF818800893002C00F314
:1019F0000D81002E40F0CB81A846009B0399029EEA
:101A000003F001020B920A430A92089A731E1A44C9
:101A1000099239465846FFF703FB2946009058467D
:101A200000F0DEFE424681463946504600F0F4FEA4
:101A3000009BC26804463033002A41D10146584613
:101A4000089300F0CDFE21460490504600F02AFC99
:101A5000049A089B1AB90A99002900F07C82B9F10E
:101A6000000F06F10104C0F27581039941EA0909EA
:101A70000B9951EA090100F06D81002A00F3AB8156
:101A8000099A3370B24200F0B281594600230A220B
:101A9000504600F02DFC4545834629464FF0000393
:101AA0004FF00A02504613D000F022FC4146054692
:101AB00000230A22504600F01BFC26468046A8E779
:101AC00001465046049300F0EDFB0122049BC6E75B
:101AD00000F00EFC2646054680469AE7039B022B43
:101AE00073DC0B9B002B81D139465846FFF798FADF
:101AF000069A029C00F130030132069204F8013B81
:101B00004FF0000910E73946584600F069FE0028FA
:101B1000BFF6E6AE594600230A22504600F0E8FB25
:101B2000069B03F1FF380B9B8346002B7FF450AFDD
:101B30000F9B002B40F31C820893DBE60C9A59465E
:101B4000504600F087FD834691E6AC4B0293033389
:101B5000FFF7E2BBDDE9001200297FF495AEC2F386
:101B60001303002B00F0EA80009E8EE601230B9306
:101B70000A9D002D5ADD0F9508950021172D416013
:101B80007FF71AAC012204235B0003F11406AE4276
:101B9000114602F10102F7D941600DE401230B93D4
:101BA0000A9B069A13440F930133012B1D46089399
:101BB000B8BF0125E1E700230B93F1E700230B9366
:101BC000D6E70F9B0893CDF81880089B002B7FF475
:101BD00030AD39460522504600F08AFB01460746E3
:101BE000584600F0FDFD00287FF723AD029C069BC0
:101BF000312204F8012B0133013339465046069354
:101C000000F050FB002D7FF4BCAED0E42946224604
:101C1000504600F081FD0546EBE60C9B0C96F31A4E
:101C200099440026B9E50226FFF7F5BB01230A9384
:101C30000893FFF7BDBB03D1009BDB073FF583AEE5
:101C4000631E01E013F8012D302A03F10104F9D0DD
:101C500087E60E9A002A00F0328103F23343099A94
:101C60000C9E14461A44984409929FE5069A013244
:101C70000692029A3123137073E6304602F08EFD0D
:101C8000DDE9002302F0F4FD00225D4B02F03AFC96
:101C90000446A1F1507500225A4BDDE9000102F023
:101CA0002FFC22462B4606460F4603F071F800280B
:101CB00040F08E80224605F100433046394603F05D
:101CC00049F800283FF48DAC00273D46B1E40D9063
:101CD00078E500F0F880069B5C424B4B04F00F0265
:101CE00003EBC203D3E90023DDE9040102F0C0FDE8
:101CF0002411CDE9000100F0E680444D00230226C6
:101D0000E70705D5D5E9002302F0B2FD013601232E
:101D1000641005F10805F3D1002B3FF495ABCDE934
:101D20000001FFF791BB009B002B7FF443AEDDE980
:101D30000012C2F31303002B7FF43CAE344E164066
:101D4000002E3FF4A2AD099B0133099308F101086D
:101D500001269AE50699002A01F10101069112DD9A
:101D6000594601225046039300F0D6FC394683467B
:101D700000F036FD0028039B40F3E080392B00F093
:101D8000D280009B3133A94633704546E9E5696846
:101D9000504600F047FA0446002800F004812B6901
:101DA00002339A0005F10C010C3000F0A1F9214634
:101DB0000122504600F0B0FC80461EE6DDF800B07F
:101DC000DDF80CA0FFF7F3BBDDE908239C1AEDE476
:101DD00000273D460AE7069A392B02F101020692D6
:101DE00000F0A1800133A94633704546B9E5069A53
:101DF0000132A9460692454696E500BF18A700089D
:101E000000001C4000001440E0A30008D0A400081B
:101E10000000F07FDDE9000102F02AFD029B1D7049
:101E2000109B012BCDE9000123D0109B029ACDF825
:101E300040901344C14698460022714B30463946C3
:101E400002F016FD0F46064602F0C2FF054602F0FC
:101E5000A5FC303502460B463046394602F050FBB1
:101E600004F8015B444506460F46E5D1C846DDF857
:101E70004090644B0022DDE9000102F043FB324652
:101E80003B4602F067FF002852D1DDE90023002025
:101E90005C4902F035FB32463B4602F079FF0028F0
:101EA0003FF49FAB00E0144614F8013C302B04F1E2
:101EB000FF32F8D0129B01330693FFF778BB149BD7
:101EC000C3F13603CBE60226FFF7BEBA089B002B10
:101ED0003FF4D3AE0F9F002F7FF783AB0022484B18
:101EE0002046294602F0C4FC04460D46701CCDE98C
:101EF000004502F053FC22462B4602F0B9FC424B4F
:101F0000002202F0FFFA069B1097013B0446A1F164
:101F100050751293FFF7BBBA069A0132069231222E
:101F20001A70FFF744BB3922A946327045460AE5CC
:101F3000129B0133069314F8015C10E47FF423AF85
:101F4000DA077FF520AF19E7129B0133DA460693D3
:101F5000DDF800B003E4069A392B02F10102069283
:101F600006F10104DFD0B9F1000F3FF70AAF0AE72D
:101F7000039B022B3FF725AECDF81880B4E5039BF9
:101F8000022B3FF71EAE0F9BCDF8188008932DE56E
:101F9000129B01330693FFF7E2BB02461B4B1C4822
:101FA000EA2101F04BF902461A4B194840F2EA21A6
:101FB00001F044F9002444602146504600F032F913
:101FC000029078B9134B124800224FF4D57101F0FA
:101FD00035F9114B0293FFF7F7B83FF46BACC0F142
:101FE0003C0062E4DAF82430029919604FF0FF32C5
:101FF000012308920A940F920B93FFF7F6BA00BFE1
:10200000000024400000E03F00001C401CA7000826
:1020100034A7000868A700080CA70008F030704734
:1020200000487047540100200048704754010020C8
:10203000024B0146186800F075BE00BF000000208A
:10204000024B0146186800F017BE00BF00000020D8
:1020500001F0FF01102A2BDB10F0070F08D010F859
:10206000013B013A8B422DD010F0070F42B3F6D15D
:10207000F0B441EA012141EA014122F007047FF076
:1020800000070023F0E80256083C85EA010586EACD
:10209000010685FA47F5A3FA87F586FA47F6A5FA09
:1020A00087F68EB9EED1F0BC01F0FF0102F0070215
:1020B00032B110F8013B013A83EA010313B1F8D1C0
:1020C0000020704701387047002D06BF35460338A1
:1020D000073815F0010F07D1013015F4807F02BFDA
:1020E000013015F4C03F0130F0BC0138704700BF2B
:1020F000844641EA000313F003036DD1403A41D313
:1021000051F8043B40F8043B51F8043B40F8043BD1
:1021100051F8043B40F8043B51F8043B40F8043BC1
:1021200051F8043B40F8043B51F8043B40F8043BB1
:1021300051F8043B40F8043B51F8043B40F8043BA1
:1021400051F8043B40F8043B51F8043B40F8043B91
:1021500051F8043B40F8043B51F8043B40F8043B81
:1021600051F8043B40F8043B51F8043B40F8043B71
:1021700051F8043B40F8043B51F8043B40F8043B61
:10218000403ABDD2303211D351F8043B40F8043B01
:1021900051F8043B40F8043B51F8043B40F8043B41
:1021A00051F8043B40F8043B103AEDD20C3205D311
:1021B00051F8043B40F8043B043AF9D2043208D009
:1021C000D2071CBF11F8013B00F8013B01D30B887B
:1021D00003806046704700BF082A13D38B078DD059
:1021E00010F003038AD0C3F10403D21ADB071CBF2B
:1021F00011F8013B00F8013B80D331F8023B20F895
:10220000023B7BE7043AD9D3013A11F8013B00F8CD
:10221000013BF9D20B7803704B7843708B78837055
:102220006046704770B5446A06460D465CB1E36887
:10223000A3B153F82500E8B1026843F82520002334
:10224000C0E9033370BD1020FFF7F2FE0446706250
:10225000E8B10023C0E901330360C36021220421F7
:10226000304600F0FBFC736AE060DB68002BE0D1D5
:10227000002070BD012101FA05F4621D3046920074
:1022800000F0ECFC0028F3D0C0E90154D7E7024687
:10229000024B0348662100F0D1FF00BF1CA70008D5
:1022A0007CA7000830B5456A83B0044655B139B102
:1022B000636A4A68DB6853F82200086043F822101A
:1022C00003B030BD10200191FFF7B2FE01996062AA
:1022D00020B1C0E901550560C560E8E70246024B40
:1022E00002488A2100F0AAFF1CA700087CA700086A
:1022F000F0B50C6983B00D46064601F1140C0027B9
:10230000DCF8000081B202FB0133190C000C02FB67
:1023100000109BB2013703EB0043BC424CF8043B76
:102320004FEA1043ECDC3BB1AA68A24207DD05EBA3
:102330008402013453612C61284603B0F0BD696802
:10234000019330460131FFF76DFF019B0746A0B1B5
:102350002A6901930232920005F10C010C30FFF75B
:10236000C7FE294630463D46FFF79CFF05EB840239
:10237000019B536101342C61DEE70246024B0348A6
:10238000B52100F05BFF00BF68A700087CA700082C
:102390002DE9F843264C089E1D46083384FB034C68
:1023A000092D4FEAE373904607460C46C3EB6C02D7
:1023B00036DD012300215B009A4201F10101FADCC4
:1023C0003846FFF72FFF68B30123B8F1090FC0E9C2
:1023D000043613DC0A344FF0090845450CDDA5EB43
:1023E0000805254414F8013B0146303B0A223846D3
:1023F000FFF77EFFA542F5D1BDE8F88304F1090996
:102400004E46444416F8013B0146303B0A2238460A
:10241000FFF76EFFB442F5D1A8F108044C44DCE7A5
:102420000021CDE70246034B0348CE2100F006FF12
:10243000398EE33868A700087CA70008020C120454
:102440000346CAB90304102013F07F4F04BF1B02D8
:10245000083013F0704F04BF1B01043013F0404FDD
:1024600004BF9B000230002B05DB13F0804F00F10E
:10247000010008BF202070470020E5E7036813F043
:102480000702014607D0DA0720D4980722D55B0857
:102490000B600120704798B2B0B91B0C102013F0EC
:1024A000FF0F04BF1B0A08301A0704BF1B090430C2
:1024B0009A0704BF9B080230DA0703D45B0800F1D7
:1024C000010005D00B6070471046E8E70020704718
:1024D000202070479B080B600220704710B50C4607
:1024E0000121FFF79FFE024618B10123C0E9043421
:1024F00010BD034B03484FF4A07100F09FFE00BFD6
:1025000068A700087CA700082DE9F04F0E6917693D
:10251000BE4283B00C46154605DB3A462B4637468D
:102520000D4616461C46D5E9011307EB0608434540
:10253000B8BF0131FFF776FE009000287FD0009BE6
:1025400003F1140A0AEB8809CA4505D25346002153
:1025500043F8041B9945FBD804F1140E0EEB860BCF
:1025600005F11403DE4503EB870753D2CDF8048051
:10257000984605E0090C28D1F3450AF1040A47D929
:102580005EF8041B8EB2002EF4D04546544600235C
:1025900055F8041B20688AB21FFA80FC06FB02C2B1
:1025A000090C000C134406FB010202EB13429BB220
:1025B00043EA0243AF4244F8043B4FEA1243E7D8F0
:1025C00023605EF8041C090CD6D0DAF800304046CF
:1025D0001A4654464FF0000C0588120C01FB0522E8
:1025E00094449BB243EA0C4344F8043B50F8043B48
:1025F00022681B0C95B201FB035303EB1C4387427B
:102600004FEA134CE8D8F34523600AF1040AB7D81F
:10261000DDF80480B8F1000F0BDD59F8043CA9F196
:1026200004091BB105E059F8043D13B9B8F10108DC
:10263000F9D10098C0F8108003B0BDE8F08F0246D1
:10264000024B034840F25D1100F0F8FD68A7000856
:102650007CA700082DE9F04312F0030383B0144671
:1026600007462DD10E46A4101CD07A6A8AB395680D
:10267000002D39D0E3074FF0000906D4641011D0C3
:10268000286898B10546E307F8D531462A4638460A
:10269000FFF73AFF314680463846FFF703FE6410E5
:1026A0004646EDD1304603B0BDE8F0832A462946C0
:1026B0003846FFF729FF2860C0F800900546E2E79A
:1026C000013B124A52F823200023FFF711FE064671
:1026D000C9E71020FFF7ACFC0246786280B1002306
:1026E000C0E901330360C36040F2712138460192B2
:1026F000FFF7F4FE019A0023906005460360B9E7F6
:10270000034B04484FF4D77100F098FDD0A30008A4
:102710001CA700087CA700082DE9F0470E690D46AC
:102720004FEA621AD1E901135644741C9C42914647
:10273000074604DD5B009C4201F10101FADC3846EA
:10274000FFF770FD804600283FD0BAF1000F00F17E
:1027500014000EDD0AF1050A4FEA8A0A08EB0A01A5
:102760000346002243F8042B8B42FBD1AAF1140A42
:102770005044296905F1140319F01F0903EB810C7A
:102780001BD0C9F1200E0022196801FA09F111438A
:1027900040F8041B53F8042B9C4522FA0EF2F3D8A0
:1027A0000260002A18BF26463846C8F8106029463D
:1027B000FFF778FD4046BDE8F087043853F8042B56
:1027C00040F8042F9C45F9D8EEE70246024B034837
:1027D00040F2D91100F032FD68A700087CA700087C
:1027E00030B40B6905460069C01A10D19B0014353E
:1027F000143119442B4401E09D4208D253F8044D92
:1028000051F8042D9442F7D003D24FF0FF3030BC82
:102810007047012030BC70472DE9F84316460B691C
:102820001269A3EB0208B8F1000F0D4667D19200C0
:1028300001F1140706F11401BB18114401E09F4295
:1028400061D253F8042D51F8044DA242F7D050D371
:102850006968FFF7E7FC00285FD02F693369C0F88B
:102860000C8006F11402143505EB870C02EB830E85
:1028700000F11406002100E0264652F8044B55F8FA
:10288000048B1FFA84F911FA88F3210CA3EB0903D6
:10289000C1EB184101EB234134469BB243EA0143AB
:1028A00096454FEA214144F8043BA846E4D8AC459C
:1028B00016D9264658F8042B11FA82F3191401EBA5
:1028C00012419BB243EA0143C44546F8043B4FEA38
:1028D0002141EFD80CF1FF36761B26F00306264483
:1028E00023B956F8043D013F002BFAD00761BDE83B
:1028F000F8832B464FF0010835461E46A8E7F8DB63
:102900004FF00008A4E70021FFF78CFC60B1012222
:102910000023C0E90423BDE8F8830246064B0748BC
:102920004FF4107100F08AFC0246034B034840F25A
:10293000322100F083FC00BF68A700087CA70008D4
:10294000124B10EE902A1A40A2F15073002B04DDB6
:102950000020194641EC100B70475B421B15132BEE
:1029600007DC4FF40022002042FA03F141EC100B87
:102970007047143B1E2BDABF4FF0004222FA03F3DC
:1029800001230021184641EC100B70470000F07F36
:10299000F8B5046900F1140606EB840454F8045CED
:1029A0002846FFF74BFDC0F120030A280B60A4F175
:1029B000040131DD8E42A0F10B001AD254F8081C3C
:1029C00010B3C0F12007854021FA07F31D4345F0FD
:1029D0007F53A4F10805AE4201FA00F043F440131E
:1029E00003D254F80C1CF9400843024643EC102B68
:1029F000F8BD40B105FA00F040F07F53002043F4E9
:102A000040130246F2E7014645F07F5343F440137A
:102A10000A4643EC102BF8BD8E42C0F10B0738BFBD
:102A200054F8081C25FA07FC00F115004CF07F5300
:102A300034BFF940002105FA00F043F4401340EAA6
:102A4000010243EC102BF8BD2DE9F043884683B01A
:102A50000121154657EC106BFFF7E4FB04460028F4
:102A600050D0C7F30A59C7F31303B9F1000F01D0CF
:102A700043F48013002E019325D068460096FFF79B
:102A8000FDFC00283AD0DDE90013C0F1200203FA72
:102A900002F20A43C34001936261002B14BF02217A
:102AA0000121A3612161B9F1000F17D0A9F23349C7
:102AB00009EB0003C0F13500C8F80030286020465B
:102AC00003B0BDE8F08301A8FFF7D8FC019B636168
:102AD000012120302161B9F1000FE7D104EB81031E
:102AE000A0F23240C8F800001869FFF7A7FCC0EB5D
:102AF00041102860204603B0BDE8F083DDE90023E3
:102B00006261CAE70246034B034840F20A3100F013
:102B100095FB00BF68A700087CA700082DE9F043DB
:102B200083B0884669468146FFF732FF404601A9D7
:102B300055EC104BFFF72CFFDDE90013D9F81020FE
:102B4000D8F81000CB1A121A03EB4213002B57ECE3
:102B5000106B0DDD05EB03594D4632463B462046D2
:102B6000294601F0AFFF41EC100B03B0BDE8F08344
:102B7000C3EB033307EB03510F46EEE71728D0B53D
:102B800004460CDD0A490B4F0020002632463B4626
:102B900001F06EFE013CF9D141EC100BD0BD064BAB
:102BA00003EBC004D4E9040141EC100BD0BD00BF1D
:102BB0000000F03F00002440D0A3000870B4146966
:102BC0004E1E02F11403761103EB840101368B4291
:102BD00000EB86060CD2041F53F8045B44F8045F34
:102BE0009942F9D88B1A153B23F003030433184498
:102BF000864204D9002340F8043B8642FBD870BCCF
:102C0000704700BF03694A11934210B400F11404E5
:102C100010DA04EB83039C421ED253F8040C043BED
:102C200018B115E053F8042D92B99C42FAD35DF81F
:102C3000044B704704EB8203EDDD11F01F01EAD075
:102C400054F8220020FA01F202FA01F18842E2D09F
:102C500001205DF8044B70470020E8E738B502FB1F
:102C600001F4214600F05EF8054618B12246002125
:102C7000FDF734FB284638BD00293CD038B551F863
:102C8000043C0C1F002BB8BFE418054600F0A4FB61
:102C9000234B1A682AB1A2420DD9216860188242DA
:102CA00023D0626028461C60BDE8384000F096BB27
:102CB000A34203D81A465368002BF9D11168501863
:102CC000A04219D024D821686018834206D06360DE
:102CD00054602846BDE8384000F080BBD3E90003CB
:102CE0000144636021605460F3E7D2E900020144CB
:102CF00062602160D6E77047206801445018834223
:102D00001160E6D1D3E90003014453601160E0E7AC
:102D10000C232B602846BDE8384000F05FBB00BFA5
:102D200004030020F8B5CD1C25F0030508350C2D53
:102D300038BF0C25002D064633DBA94231D82A4F77
:102D400000F04AFB3A6852B113685B1B04D43FE0C1
:102D500023685B1B29D522465468002CF8D179687A
:102D600000293BD02946304600F056FA431C28D0B3
:102D7000C41C24F00304A04205D0211A304600F000
:102D80004BFA01301DD02560304600F027FB04F1DE
:102D90000B0020F00700231DC21A01D01B1AA350FC
:102DA000F8BD0C2232600020F8BD0B2B05D8A242E2
:102DB000636811D05360E7E7144623601C44256024
:102DC000E2E70C233046336000F008FB0020F8BD3A
:102DD0000B2BF1D8536814463B60D5E7304600F022
:102DE0001BFA7860BEE700BF040300202DE9F0471E
:102DF0008E681D46AE420C460B68174636D8804694
:102E0000888910F4906F0ED1354618462A46394607
:102E100000F07AFAA2682368961B2B44A660236010
:102E20000020BDE8F087D1E9041606EB4606A3EBC7
:102E3000010906EBD6766B1C76104B44B342324642
:102E400084BF1E463246430512D511464046FFF761
:102E500069FF824600B34A462169FFF749F9A38911
:102E600023F4906343F08003A38106E02E46CCE771
:102E7000404600F0B5FA824650B1A6EB09020AEBD3
:102E800009036661C4F810A02360A2602E46BCE767
:102E900021694046FFF7F0FE0C23C8F80030A389F3
:102EA00043F04003A3814FF0FF30BAE72DE9F04F24
:102EB000936883B09046002B6DD017688D6882466A
:102EC0000C460868083743E0A38913F4906F2ED0AE
:102ED000D4E9041505EB4505A0EB010B05EBD57511
:102EE0000BEB06006D100130A8422A4684BF054650
:102EF0002A465B0536D511465046FFF713FF0028DA
:102F00003AD05A4621690190FFF7F2F8A289019B55
:102F100022F4906242F08002A281A5EB0B0203EB47
:102F20000B00656123612060A2603546B3465A46B6
:102F3000494600F0E9F9D8F80830A2682068551B26
:102F400058449E1BA5602060C8F808601EB308376F
:102F500057E90296AB46002EF9D0AE42B4D23546C0
:102F6000B346E4E7504600F03BFA03460028D4D1CC
:102F700021695046FFF780FE0C23CAF80030A38970
:102F8000002243F040034FF0FF30A381C8E9012243
:102F900003B0BDE8F08F0020C8F8040003B0BDE81E
:102FA000F08F00BF2DE9F04F90468A899FB014063C
:102FB0008B46029003D50A69002A00F00B81059325
:102FC00030238DF8323098F800308E4E00212022C8
:102FD0000B918DF831200127002B00F08480252BE8
:102FE00000F0F680454603E0252B00F0868025465C
:102FF0006B786C1C002BF7D1B4EB080A73D04246F7
:10300000534659460298FFF7F1FE01306BD00B9BF7
:103010006A7853440B93002A65D000234FF0FF32A7
:1030200001340693CDE908338DF85B301C93079289
:1030300005E0069A07FA03F313432C460693254648
:10304000052215F8011B3046FFF702F8AA46831B3C
:103050000028EED1069BD90644BF20228DF85B20C4
:1030600021781A0744BF2B228DF85B202A2948D1EA
:10307000059A11680432002905927EDB0991617876
:10308000A51C2E2956D0604C03222046FEF7E0FFF7
:10309000002868D0001B069B402404FA00F003437C
:1030A000069305F10108297858488DF8301006225A
:1030B000FEF7CEFF002866D0554B002B56D005AB4F
:1030C00000935A46534B029806A9FDF71BFA814616
:1030D000B9F1FF3F07D00B9B4B440B9398F800309E
:1030E000002B7FF47CAFBBF80C305B0654BF0B9811
:1030F0004FF0FF301FB0BDE8F08FB4EB080A8CD062
:103100007DE7A1F13002092A88BFA246B9D8099B00
:1031100001E02C460135297803EB830302EB4303DE
:10312000A1F13002092AAA46F3D92E2904F1020599
:103130000993A8D19AF801102A292ED1059B9AF853
:1031400002101A6807920433002A05930AF1030556
:103150000AF1020337DB2C4C032220469A46FEF785
:1031600077FF002896D1A84655469CE7059B073374
:1031700023F0070308330593ADE7494243F0020308
:10318000099106937BE705AB00935A46214B0298C1
:1031900006A9FDF7E5FC81469AE7A1F1300200237C
:1031A000092A079301D923E05546697803EB830385
:1031B00002EB4303A1F13002092A05F1010AF3D918
:1031C000023507935FE74FF0FF329A4607925AE7BE
:1031D000444622E740210393FFF7A4FD039BCBF86D
:1031E0000000CBF8100030B14022CBF81420E6E606
:1031F000AA46013547E7029A0C2313604FF0FF30CF
:1032000078E700BFB0A70008B8A70008BCA700086F
:1032100005050008ED2D000838B5074C00230546CC
:103220000846236003F05CFE431C00D038BD2368D1
:10323000002BFBD02B6038BD0020002000B50A4CCD
:103240002668054685B01C46F06852B1074B0091D0
:10325000CDE9013206492B46224600F021F800F064
:103260008FFB044B1A46F2E700000020C4A70008B9
:10327000D4A70008D0A7000808B513460022FFF71E
:10328000DDFF00BF0CB400B583B004AB53F8042BD2
:10329000019300F00FF903B05DF804EB02B0704742
:1032A0000EB410B583B005AB064C53F8042B019354
:1032B0000146206800F0FEF803B0BDE8104003B0FE
:1032C000704700BF0000002010B4034CD4F8E44065
:1032D000A4465DF8044B60476400002082B049B109
:1032E0005AB16BB113780B601278101C18BF012013
:1032F00002B0704701A9002AF3D1104602B070470E
:103300006FF00100F4E700BF8842F0B40DD98B18CC
:1033100083420AD9841832B1224613F8014D02F8CB
:10332000014D9942F9D1F0BC70470F2A0ED80346DF
:10333000541E002AF7D001340C44013B11F8012B34
:1033400003F8012FA142F9D1F0BC704740EA010314
:103350009B073BD1A2F110073F0901F1200606EBC4
:10336000071601F1100300F1100453F8105C44F843
:10337000105C53F80C5C44F80C5C53F8085C44F89F
:10338000085C53F8045C44F8045C1033B34204F165
:103390001004EAD17B1C1B0112F00C0F194402F03F
:1033A0000F05034415D0043DAD0803EB850C1C1F2D
:1033B0000E4656F8047B44F8047F6445F9D1013584
:1033C000AD002B44294402F00302B1E7541E03462A
:1033D000B1E72A46ACE700BF704700BF704700BFA7
:1033E00009B3F8B51446CAB106460D4600F0FCFE16
:1033F000A04202D32F463846F8BD21463046FFF79B
:1034000091FC07460028F6D022462946FEF770FEBA
:1034100030462946FFF730FC3846F8BD2746FFF70F
:103420002BFC3846F8BD1146FFF77CBC9368013B86
:10343000002B936011DA10B49469A34209DB0A29C6
:1034400007D01368581C1060197008465DF8044BCB
:1034500070475DF8044B00F09BB91368581C10606E
:1034600019700846704700BF9BB1F8B513440F466A
:1034700006465D1E541E01E0AC4208D03A4614F8E0
:10348000011F3046FFF7D2FF431CF5D1F8BD0020E5
:10349000F8BD0020704700BF936810B5144613B9FB
:1034A0005360184610BD00F053FC0023C4E90133FB
:1034B00010BD00BF2DE9F04F9FB08B4690461C46D3
:1034C000039018B18369002B00F0B780A24B9B4595
:1034D00000F0B980A14B9B4500F0C780A04B9B45F5
:1034E00004BF039BD3F80CB0BBF80C30180740F1B5
:1034F000B280DBF81030002B00F0AD8030238DF867
:10350000323098F800300594002120220B918DF87C
:103510003120944E0127002B00F08780252B00F0EE
:103520001581454603E0252B00F0A38025466B78E6
:103530006C1C002BF7D1B4EB080A76D042465346F8
:1035400059460398FFF790FF01306ED00B9B6A78C5
:1035500053440B93002A68D000234FF0FF3201340C
:103560000693CDE908338DF85B301C93079205E094
:10357000069A07FA03F313432C46069325460522C1
:1035800015F8011B3046FEF763FDAA46831B002891
:10359000EED1069BD90644BF20228DF85B2021780E
:1035A0001A0744BF2B228DF85B202A2966D1059A81
:1035B0001168043200290592C0F29D80099161785A
:1035C000A51C2E2973D0684C03222046FEF740FD2F
:1035D000002800F08680001B069B402404FA00F0BF
:1035E0000343069305F10108297860488DF83010EF
:1035F0000622FEF72DFD002800F083805C4B002B97
:1036000072D005AB00935A465A4B039806A9FCF7B3
:1036100079FF8146B9F1FF3F07D00B9B4B440B93D9
:1036200098F80030002B7FF479AFBBF80C305B06C4
:1036300018D40B981FB0BDE8F08F00F069FB464B23
:103640009B457FF447AF039BD3F804B0BBF80C3025
:1036500018073FF54EAF5946039800F011F90028BE
:103660003FF44CAF4FF0FF30E4E7039BD3F808B0D2
:103670003AE7B4EB080A3FF46FAF5FE7A1F130021D
:10368000092A88BFA2469CD8099B01E02C46013537
:10369000297803EB830302EB4303A1F13002092AEB
:1036A000AA46F3D92E2904F1020509938BD19AF881
:1036B00001102A292FD1059B9AF802101A68079247
:1036C0000433002A05930AF103050AF1020338DBEB
:1036D000254C032220469A46FEF7BAFC00287FF4C8
:1036E0007AAFA84655467FE7059B073323F00703CB
:1036F0000833059391E7494243F002030991069389
:103700005DE705AB00935A461A4B039806A9FDF7EF
:1037100027FA81467EE7A1F130020023092A0793A8
:1037200001D915E05546697803EB830302EB4303A7
:10373000A1F13002092A05F1010AF3D902350793F4
:1037400041E74FF0FF329A4607923CE7444603E7D1
:10375000AA46013537E700BF3CA600081CA60008B2
:10376000FCA50008B0A70008B8A70008BCA700087F
:10377000050500086934000810B4044C13460A46D5
:10378000014620685DF8044BFFF794BE000000205E
:10379000F8B50D461446064608B1836943B3254B78
:1037A0009C422AD0244B9C4229D0244B9C4208BFE7
:1037B000F468A389A269A2601A0722D5236903B31A
:1037C00022686169D31AEDB299422F4629DD01338F
:1037D000A168501C0139A1602060157062699A428D
:1037E00016D0A389DB0701D50A2D11D03846F8BDC4
:1037F00000F08EFA0F4B9C42D4D17468D9E7B468BC
:10380000D7E72146304600F03BF838B92369D7E7BF
:103810002146304600F052F90028E7D04FF0FF373C
:10382000E4E72146304600F049F90028F6D1226845
:103830000123CDE73CA600081CA60008FCA5000853
:10384000024B0A4601461868FFF7A2BF000000209D
:1038500010B4034CD4F8E040A4465DF8044B604734
:103860006400002049B1FF2A02D80A700120704785
:103870008A2303604FF0FF3070470846704700BF4F
:103880003B4B70B51D6806460C460DB1AB69DBB10C
:10389000384B9C421ED0384B9C424AD0374B9C42FE
:1038A00008BFEC68B4F90C2093B2190718D5206949
:1038B00008B313F001022CD0636900225B42A361BC
:1038C000A26060B3002070BD284600F021FA294BA9
:1038D0009C42E0D16C68B4F90C2093B21907E6D48D
:1038E000DD063CD5580726D4206942F00803A381A1
:1038F0009BB20028DDD103F42072B2F5007FD8D04E
:103900003046214600F026FCA389206913F001020D
:10391000D2D1990758BF6269A2600028D2D1B4F908
:103920000C301A06CFD543F04003A3814FF0FF308F
:1039300070BDAC68B6E7616B51B104F144039942C4
:1039400004D03046FFF798F9B4F90C2000236363E4
:1039500000232069636022F024022060C5E742F062
:103960004002092333604FF0FF30A28170BD00BFD9
:10397000000000203CA600081CA60008FCA50008CA
:1039800008B5062000F0BEFC012003F0D7FA00BF06
:103990008B891A072DE9F0410C46804641D44A68CC
:1039A000002A59DDE66A002E53D00022D8F80050D4
:1039B000216AC8F8002013F4805251D101234046F7
:1039C000B047431C5FD0A389E66A216A5F0705D52B
:1039D0006268636B801A0BB1236CC01A0246002325
:1039E0004046B047461C45D1D8F80030B4F90C2009
:1039F000002B55D01D2B01D0162B5AD12369002244
:103A0000C4E90032616BC8F8005011B304F14403FB
:103A1000994202D04046FFF72FF900206063BDE8CD
:103A2000F0810E69AEB10D680E6099070CBF636935
:103A30000023AD1BA3600AE02B463246A76A216A29
:103A40004046B8470028A5EB000506440ADD002DD6
:103A5000F2DC0020BDE8F0810A6C002AA2DCF8E765
:103A6000606DB3E7A38943F04003A3814FF0FF30BB
:103A7000BDE8F0812269A389226000226260DA0435
:103A8000C0D56065BEE7D8F80030002B9BD01D2B59
:103A90000CD0162B0AD0A38943F04003A381D9E7A9
:103AA0002169C4E90013D304ACD5EAE7C8F8005093
:103AB000CFE742F04002A281CCE700BF0B6923B3FD
:103AC00010B5044682B008B18369BBB1104B99426E
:103AD00012D0104B994216D00F4B994208BFE168A3
:103AE000B1F90C302BB1204602B0BDE81040FFF711
:103AF0004FBF002002B010BD6168F1E7019100F0F6
:103B000007F90199E2E7A168EAE70020704700BFE2
:103B10003CA600081CA60008FCA5000820B1054B27
:103B200001461868FFF7CABF034B0449186800F044
:103B3000B9BA00BF00000020C8A30008BD3A0008C1
:103B400000207047014900F0ADBA00BFBD3A00083F
:103B50000020704770B54A1E682505FB02F50E4629
:103B600005F17401FFF7DEF8044640B100210C3086
:103B7000666005F168022160A060FCF7AFFB20469B
:103B800070BD00BF1E4B70B51D68AB69064643B3E0
:103B90004835D5E90134013B05D51EE0013B5A1CEF
:103BA00004F1680419D0B4F90C20002AF6D10025DC
:103BB000144B6566C4E90055A560C4E90455A561C8
:103BC0002946E360082204F15C00FCF787FBC4E9A6
:103BD0000D55C4E91255204670BD2C682CB1254600
:103BE000D7E7284600F010F8D2E704213046FFF767
:103BF000B1FF044628600028F1D10C233360EAE7C6
:103C0000C8A300080100FFFF2DE9F84F334B3449EA
:103C10001A68816290424FF00003C0E912330365D5
:103C200004BF012383610546FFF7ACFF68602846A7
:103C3000FFF7A8FFA8602846FFF7A4FF6E68E860BA
:103C400000240423F3607466C6E90044B460C6E946
:103C50000444B461214606F15C000822FCF73EFBF7
:103C6000DFF888B0AF68DFF888A0DFF88890DFF869
:103C700088801C4BC6F83080C6E9086BC6E90AA9E3
:103C80002146FB6008227C66C7E90044BC60C7E9A6
:103C90000444BC6107F15C00FCF720FBEE68124BAA
:103CA000C7F83080C7E9087BC7E90AA92146F36055
:103CB0007466C6E90044B460C6E90444B46106F120
:103CC0005C000822FCF70AFB0123C6E9086BC6E981
:103CD0000AA9C6F83080AB61BDE8F88FC8A3000818
:103CE000453B00080900010012000200754300086E
:103CF0009D430008DD430008FD430008024B0349D3
:103D0000186800F0CFB900BFC8A30008BD3A00088A
:103D1000836903B978E77047704700BF704700BFF9
:103D2000704700BF704700BF024B0349186800F09E
:103D300093B900BF00000020413B0008024B03493B
:103D4000186800F089B900BF00000020513B00084E
:103D50009368002B00F002812DE9F04FB1F90C308F
:103D60009BB20C46190783B08246904635D522692E
:103D70009AB313F00202D8F800603DD00027D4F8BF
:103D800028B0D4F820C0DFF8CC923D464D452B46F4
:103D90003A4628BF4B4661465046D5B1D847002821
:103DA00040F3D280D8F808301B1A07442D1AC8F8FF
:103DB0000830002B00F0B780D4F820C0D4F828B029
:103DC0004D452B463A4628BF4B4661465046002D8E
:103DD000E4D1D6E900750836D8E721465046FFF70A
:103DE0004FFD002840F03081B4F90C30D8F8006065
:103DF0009BB213F00202C1D113F0010940F0B08070
:103E0000A76820684D46002D54D09A0540F1BC802B
:103E1000AF42BB4600F2E78013F4906F2FD0D4E995
:103E2000041707EB4707A0EB010B07EBD777681CDC
:103E30007F105844B8423A4684BF07463A465B056D
:103E400040F1E98011465046FEF76CFF002800F073
:103E5000F5805A4621690190FEF74AF9A289019B33
:103E600022F4906242F08002A281A7EB0B0203EBE6
:103E70000B00676123612060A2602F46AB465A4663
:103E80004946FFF741FAA2682368D21B5B442F46DC
:103E9000A26023600025D8F80830DB1BB944C8F8BD
:103EA0000830002B3FD0B4F90C30A76820689BB2D3
:103EB000002DAAD1D6E900950836A4E70BF1080336
:103EC00053E902679B460833002FF9D03A460A218E
:103ED0003046FEF7BDF8002853D00130A0EB0609AC
:103EE0004B46D4E904122068BB4228BF3B468842B7
:103EF00003D9A5681544AB4219DC9A427DDC134610
:103F0000A56A216A32465046A847051E1CDDB9EB5A
:103F100005096BD00120D8F808305B1B2E447F1BAD
:103F2000C8F8083013BB002003B0BDE8F08F31465D
:103F30002A46FFF7E9F923682B44236021465046BF
:103F4000FFF7BCFD0028E2D0B4F90C3043F0400389
:103F50004FF0FF30A38103B0BDE8F08F0020704721
:103F600033469146104617464E469B46002FA5D035
:103F70000028B5D13A460A213046FEF769F80028F4
:103F8000ABD17B1C9946ACE72369834215D36169A9
:103F9000A94212D82E4BA76A9D4294BF2B466FF0C0
:103FA00000434A4693FBF1F3504601FB03F3216AB9
:103FB000B847071EC8DDED1B6DE7AF4228BF2F468F
:103FC0003A464946FFF7A0F9A3682268DB1B3A444A
:103FD000A3602260002BEED121465046FFF76EFD14
:103FE0000028E8D0B0E72F46AB4648E721465046C8
:103FF000FFF764FD00288ED0A6E71A4631460193EC
:10400000FFF782F9019BA1682268C91A1A44A160CE
:1040100022601D467BE75046FFF7E2F90346002881
:104020007FF423AF21695046FEF726FEB4F90C3029
:104030000C2223F08003CAF8002087E70C23CAF87B
:104040000030B4F90C3081E74FF0FF306CE700BF6F
:10405000FEFFFF7F00FCFF7F2DE9F04110F14807D4
:104060001BD088460026D7E90154013D0FD4A3890F
:10407000012B05F1FF3506D9B4F90E300133204686
:1040800001D0C04706436B1C04F16804EFD13F68C0
:10409000002FE8D13046BDE8F0813E463046BDE80D
:1040A000F08100BF2DE9F84310F148071FD0884682
:1040B00006464FF00009D7E90154013D11D4A38908
:1040C000012B05F1FF3508D9B4F90E300133214633
:1040D000304602D0C04749EA00096B1C04F168046D
:1040E000EDD13F68002FE6D14846BDE8F883B946D8
:1040F0004846BDE8F88300BF70B50C46B1F90E1014
:10410000002996B016461D4613DB6A4600F0A2F958
:1041100000280EDB019A02F47042A2F50052B2FAB6
:1041200082F252094FF4806300202A60336016B097
:1041300070BDA38900221B062A6004D540230020FD
:10414000336016B070BD4FF480630020336016B04A
:1041500070BD00BF8A8992070B4606D501F1470260
:1041600001211A60C3E90421704770B582B001AB28
:104170006A460C460646FFF7BFFF009905463046E3
:10418000FEF7D0FDB4F90C3070B11649B162019A56
:104190000099206043F08003A381C4E904018AB937
:1041A0002B43A38102B070BD9A05FBD423F0030317
:1041B00004F1470243F002030121A3812260C4E914
:1041C0000421EFE73046B4F90E1000F057F910B9AA
:1041D000B4F90C30E4E7A38923F0030343F00103AF
:1041E0001BB2DDE7453B000851F8043C181F002BCB
:1041F000BCBF0B58C018704710B580210446FEF7AD
:1042000091FD606440B1031F00227C3043F8042F0D
:104210008342FBD1002010BD4FF0FF3010BD00BF26
:10422000436C0BB100207047E6E700BF1F2970B553
:10423000054608D8436C16460C464BB153F824008B
:1042400043F8246070BD162202604FF0FF3070BD4D
:10425000FFF7D2FF08B96B6CF0E74FF0FF3070BD8D
:104260001F2938B521D8426C05460C466AB152F870
:10427000213053B1012B16D0591C10D000252046F7
:1042800042F824509847284638BD284600F070F878
:10429000224601462846BDE8384000F055B81623AE
:1042A0000360012038BD002038BD162303604FF0A5
:1042B000FF3038BD1F2921D838B5436C05460C4660
:1042C00083B153F8242003EB84034AB1511C10D06E
:1042D000012A0CD0002520461D609047284638BD95
:1042E000012038BDFFF788FF28B96B6CE9E7032090
:1042F00038BD022038BD4FF0FF3038BD4FF0FF30E1
:10430000704700BF024B01461868FFF7A9BF00BF06
:1043100000000020024B0A4601461868FFF786BFDE
:1043200000000020034B1868436C0BB1002070475D
:1043300062E700BF00000020024B01461868FFF74B
:10434000B9BF00BF0000002038B50B46074C05463A
:10435000114618460023236002F0E8FD431C00D0FC
:1043600038BD2368002BFBD02B6038BD0020002017
:1043700002F0DABD10B50C46B1F90E1000F0A6F847
:10438000002803DB636D0344636510BDA38923F438
:104390008053A38110BD00BF002070472DE9F0417C
:1043A0001646B1F90C201F46D3050C460546B1F957
:1043B0000E1009D422F48052A2813B463246284690
:1043C000BDE8F04100F01EB80022022300F068F8BA
:1043D000B4F90C20B4F90E10ECE700BF10B50C4690
:1043E000B1F90E1000F05CF8A389421C0EBF23F453
:1043F000805343F480536065A38110BDB1F90E1062
:1044000000F016B870B50D46084C114606461A461F
:1044100028460023236002F0A7FD431C00D070BD96
:104420002368002BFBD0336070BD00BF002000204C
:1044300038B5074C002305460846236002F0A2FD6C
:10444000431C00D038BD2368002BFBD02B6038BD47
:104450000020002038B50B46074C0546114618468B
:104460000023236002F091FD431C00D038BD236877
:10447000002BFBD02B6038BD0020002038B5074C46
:10448000002305460846236002F084FD431C00D04B
:1044900038BD2368002BFBD02B6038BD00200020E6
:1044A00070B50D46084C114606461A4628460023AC
:1044B000236002F071FD431C00D070BD2368002B07
:1044C000FBD0336070BD00BF0020002070B50D46EA
:1044D000084C114606461A4628460023236002F07F
:1044E00033FD431C00D070BD2368002BFBD033602C
:1044F00070BD00BF0020002081F0004102E000BF3D
:1045000083F0004330B54FEA41044FEA430594EA93
:10451000050F08BF90EA020F1FBF54EA000C55EACE
:10452000020C7FEA645C7FEA655C00F0E2804FEA9F
:104530005454D4EB5555B8BF6D420CDD2C4480EA81
:10454000020281EA030382EA000083EA010180EAB1
:10455000020281EA0303362D88BF30BD11F0004FFF
:104560004FEA01314FF4801C4CEA113102D0404235
:1045700061EB410113F0004F4FEA03334CEA133370
:1045800002D0524263EB430394EA050F00F0A78088
:10459000A4F10104D5F1200E0DDB02FA0EFC22FA83
:1045A00005F2801841F1000103FA0EF2801843FA77
:1045B00005F359410EE0A5F120050EF1200E012A68
:1045C00003FA0EFC28BF4CF0020C43FA05F3C018A6
:1045D00051EBE37101F0004507D54FF0000EDCF11F
:1045E000000C7EEB00006EEB0101B1F5801F1BD3C8
:1045F000B1F5001F0CD349085FEA30004FEA3C0CCC
:1046000004F101044FEA445212F5800F80F09A80C1
:10461000BCF1004F08BF5FEA500C50F1000041EBC5
:10462000045141EA050130BD5FEA4C0C404141EBC9
:104630000101013C28BFB1F5801FE9D291F0000FC4
:1046400004BF01460020B1FA81F308BF2033A3F173
:104650000B03B3F120020CDA0C3208DD02F1140C6A
:10466000C2F10C0201FA0CF021FA02F10CE002F1A5
:104670001402D8BFC2F1200C01FA02F120FA0CFC9E
:10468000DCBF41EA0C019040E41AA2BF01EB0451E7
:10469000294330BD6FEA04041F3C1CDA0C340EDCE5
:1046A00004F11404C4F1200220FA04F001FA02F328
:1046B00040EA030021FA04F345EA030130BDC4F1E6
:1046C0000C04C4F1200220FA02F001FA04F340EADB
:1046D0000300294630BD21FA04F0294630BD94F08C
:1046E000000F83F4801306BF81F480110134013D73
:1046F0004EE77FEA645C18BF7FEA655C29D094EAE4
:10470000050F08BF90EA020F05D054EA000C04BF61
:104710001946104630BD91EA030F1EBF002100204C
:1047200030BD5FEA545C05D14000494128BF41F0EB
:10473000004130BD14F580043CBF01F5801130BD4F
:1047400001F0004545F0FE4141F470014FF00000DA
:1047500030BD7FEA645C1ABF194610467FEA655C8B
:104760001CBF0B46024650EA013406BF52EA03352D
:1047700091EA030F41F4002130BD00BF90F0000F1B
:1047800004BF0021704730B54FF4806404F1320457
:104790004FF000054FF0000150E700BF90F0000F10
:1047A00004BF0021704730B54FF4806404F1320437
:1047B00010F0004548BF40424FF000013EE700BF07
:1047C00042004FEAE2014FEA31014FEA02701FBF97
:1047D00012F07F4393F07F4F81F06051704732F0C9
:1047E0007F4208BF704793F07F4F04BF41F4002120
:1047F000704730B54FF4607401F0004521F000417E
:104800001CE700BF50EA010208BF704730B54FF007
:1048100000050AE050EA010208BF704730B511F008
:10482000004502D5404261EB41014FF4806404F140
:1048300032045FEA915C3FF4D8AE4FF003025FEAC6
:10484000DC0C18BF03325FEADC0C18BF033202EB4A
:10485000DC02C2F1200300FA03FC20FA02F001FAA4
:1048600003FE40EA0E0021FA02F11444BDE600BF47
:1048700070B54FF0FF0C4CF4E06C1CEA11541DBFF6
:104880001CEA135594EA0C0F95EA0C0F00F0DEF8C1
:104890002C4481EA030621EA4C5123EA4C5350EAA6
:1048A000013518BF52EA033541F4801143F48013F7
:1048B00038D0A0FB02CE4FF00005E1FB02E506F088
:1048C0000042E0FB03E54FF00006E1FB03569CF0DD
:1048D000000F18BF4EF0010EA4F1FF04B6F5007FE3
:1048E00064F5407404D25FEA4E0E6D4146EB060655
:1048F00042EAC62141EA55514FEAC52040EA5E50DE
:104900004FEACE2EB4F1FD0C88BFBCF5E06F1ED887
:10491000BEF1004F08BF5FEA500E50F1000041EBBE
:10492000045170BD06F0004646EA010140EA02006B
:1049300081EA0301B4EB5C04C2BFD4EB0C0541EA8D
:10494000045170BD41F480114FF0000E013C00F3A2
:10495000AB8014F1360FDEBF002001F0004170BDC6
:10496000C4F10004203C35DA0C341BDC04F11404DF
:10497000C4F1200500FA05F320FA04F001FA05F26B
:1049800040EA020001F0004221F0004110EBD37038
:1049900021FA04F642EB06015EEA430E08BF20EA64
:1049A000D37070BDC4F10C04C4F1200500FA04F307
:1049B00020FA05F001FA04F240EA020001F0004199
:1049C00010EBD37041F100015EEA430E08BF20EA0C
:1049D000D37070BDC4F1200500FA05F24EEA020E54
:1049E00020FA04F301FA05F243EA020321FA04F083
:1049F00001F0004121FA04F220EA020000EBD3703A
:104A00005EEA430E08BF20EAD37070BD94F0000F39
:104A10000FD101F00046400041EB010111F4801F6D
:104A200008BF013CF7D041EA060195F0000F18BF1E
:104A3000704703F00046520043EB030313F4801F5A
:104A400008BF013DF7D043EA0603704794EA0C0F14
:104A50000CEA135518BF95EA0C0F0CD050EA41062A
:104A600018BF52EA4306D1D181EA030101F00041A7
:104A70004FF0000070BD50EA410606BF10461946CF
:104A800052EA430619D094EA0C0F02D150EA0136DB
:104A900013D195EA0C0F05D152EA03361CBF10461C
:104AA00019460AD181EA030101F0004141F0FE41BB
:104AB00041F470014FF0000070BD41F0FE4141F43F
:104AC000780170BD70B54FF0FF0C4CF4E06C1CEA3F
:104AD00011541DBF1CEA135594EA0C0F95EA0C0FF4
:104AE00000F0A7F8A4EB050481EA030E52EA0335AF
:104AF0004FEA013100F088804FEA03334FF08055D0
:104B000045EA131343EA12634FEA022245EA1115FC
:104B100045EA10654FEA00260EF000419D4208BFAD
:104B2000964244F1FD0404F5407402D25B084FEA5A
:104B30003202B61A65EB03055B084FEA32024FF406
:104B400080104FF4002CB6EB020E75EB030E22BF63
:104B5000B61A754640EA0C005B084FEA3202B6EB23
:104B6000020E75EB030E22BFB61A754640EA5C00D2
:104B70005B084FEA3202B6EB020E75EB030E22BF62
:104B8000B61A754640EA9C005B084FEA3202B6EB63
:104B9000020E75EB030E22BFB61A754640EADC0022
:104BA00055EA060E18D04FEA051545EA16754FEA84
:104BB00006164FEAC30343EA52734FEAC2025FEAA2
:104BC0001C1CC0D111F4801F0BD141EA00014FF031
:104BD00000004FF0004CB6E711F4801F04BF014302
:104BE0000020B4F1FD0C88BFBCF5E06F3FF6AFAE1E
:104BF000B5EB030C04BFB6EB020C5FEA500C50F1AE
:104C0000000041EB045170BD0EF0004E4EEA113130
:104C100014EB5C04C2BFD4EB0C0541EA045170BD37
:104C200041F480114FF0000E013C90E645EA060E7B
:104C30008DE60CEA135594EA0C0F08BF95EA0C0FA9
:104C40003FF43BAF94EA0C0F0AD150EA01347FF4F1
:104C500034AF95EA0C0F7FF425AF104619462CE7C8
:104C600095EA0C0F06D152EA03353FF4FDAE10462B
:104C7000194622E750EA410618BF52EA43067FF47C
:104C8000C5AE50EA41047FF40DAF52EA43057FF40C
:104C9000EBAE12E74FF0FF3C06E000BF4FF0010C17
:104CA00002E000BF4FF0010C4DF804CD4FEA410C7B
:104CB0007FEA6C5C4FEA430C18BF7FEA6C5C1BD048
:104CC00001B050EA410C0CBF52EA430C91EA030FC9
:104CD00002BF90EA020F0020704710F1000F91EA26
:104CE000030F58BF994208BF90422CBFD8176FEAF4
:104CF000E37040F0010070474FEA410C7FEA6C5CC2
:104D000002D150EA013C07D14FEA430C7FEA6C5CC8
:104D1000D6D152EA033CD3D05DF8040B704700BFF4
:104D20008446104662468C461946634600E000BF42
:104D300001B5FFF7B7FF002848BF10F1000F01BD14
:104D40004DF808EDFFF7F4FF0CBF012000205DF8DF
:104D500008FB00BF4DF808EDFFF7EAFF34BF012064
:104D600000205DF808FB00BF4DF808EDFFF7E0FFFD
:104D700094BF012000205DF808FB00BF4DF808ED4E
:104D8000FFF7CEFF94BF012000205DF808FB00BFB5
:104D90004DF808EDFFF7C4FF34BF012000205DF897
:104DA00008FB00BF4FEA410C7FEA6C5C02D150EA7D
:104DB000013C0AD14FEA430C7FEA6C5C02D152EA13
:104DC000033C02D14FF0000070474FF001007047E4
:104DD0004FEA410212F5001215D211D56FF4787323
:104DE000B3EB625212D94FEAC12343F0004343EAC6
:104DF000505311F0004F23FA02F018BF40427047A1
:104E00004FF00000704750EA013005D111F000402A
:104E100008BF6FF0004070474FF00000704700BFC0
:104E200053B94AB9002908BF00281CBF4FF0FF3111
:104E30004FF0FF3000F06EB9ADF1080C6DE904CE13
:104E400000F006F8DDF804E0DDE9022304B0704765
:104E50002DE9F047089D04468C46002B40F08380E6
:104E60008A42174647D9B2FA82F242B1C2F1200013
:104E700024FA00F09140974040EA010C94404FEA38
:104E80001748230CBCFBF8F61FFA87FE08FB16C177
:104E900043EA014306FB0EF1994209D9FB1806F1DA
:104EA000FF3080F01981994240F21681023E3B4466
:104EB0005B1AA4B2B3FBF8F008FB103344EA0344D6
:104EC00000FB0EFEA64509D93C1900F1FF3380F026
:104ED0000581A64540F2028102383C4440EA064082
:104EE000A4EB0E0400261DB1D4400023C5E9004305
:104EF0003146BDE8F08702B9FFDEB2FA82F2002A3D
:104F000050D1CB1B4FEA174E1FFA87F80126B3FB8F
:104F1000FEFC210C0EFB1C3341EA034108FB0CF3A1
:104F20008B4207D979180CF1FF3002D28B4200F284
:104F3000E9808446C91AA3B2B1FBFEF00EFB101142
:104F400043EA014408FB00F8A04507D93C1900F1E9
:104F5000FF3302D2A04500F2D9801846A4EB080422
:104F600040EA0C40BFE78B4209D9002D00F0B18028
:104F70000026C5E9000130463146BDE8F087B3FAA6
:104F800083F6002E4AD18B4202D3824200F2B880CF
:104F9000841A61EB030101208C46002DA8D0C5E9DD
:104FA000004CA5E7C2F1200320FA03F6974001FA6E
:104FB00002F04FEA174ED9403043030CB1FBFEF626
:104FC0001FFA87F80EFB161143EA014306FB08F1AE
:104FD000994204FA02F409D9FB1806F1FF3C80F06B
:104FE0008D80994240F28A80023E3B445B1A81B236
:104FF000B3FBFEF00EFB103341EA034100FB08F364
:105000008B4207D9791800F1FF3C73D28B4271D9DA
:1050100002383944CB1A40EA064678E7C6F1200C3C
:1050200003FA06F422FA0CF31C4320FA0CF701FAF7
:1050300006F34FEA144E21FA0CF11F433B0CB1FB6F
:10504000FEF91FFA84F80EFB191143EA014109FB2E
:1050500008FA8A4502FA06F200FA06F308D961183E
:1050600009F1FF3048D28A4546D9A9F10209214405
:10507000A1EB0A01BFB2B1FBFEF00EFB101147EA33
:10508000014700FB08F8B84507D9E71900F1FF31DF
:105090002ED2B8452CD90238274440EA0940A7EB64
:1050A0000807A0FB02894F45C64649461AD317D0C8
:1050B0005DB1B3EB0E0267EB010707FA0CFCF2409F
:1050C0004CEA0202F740C5E9002700263146BDE858
:1050D000F0872E4628460BE70646E9E61846FDE629
:1050E0004345E5D2B8EB020E69EB04010138DFE776
:1050F0000846D2E760468DE78146B9E7664675E720
:1051000030464AE7ACF1020C394413E702383C441C
:1051100024E700BF704700BF00B5C3B0084B5B6811
:10512000019300230093074A4FF4807102A8FBF714
:10513000A5FE81B202A802F0B5FA43B05DF804FB07
:10514000A01F00205CA6000872B6FEE700B595B06F
:105150003422002107A8FBF7C1F800230293039330
:105160000493059306930093204A116C41F08051FB
:105170001164126C02F080520092009A01931C4A52
:10518000136823F4404343F480431360136803F42B
:1051900040430193019B012307934FF4803308930D
:1051A00002230D934FF480020E9204220F924822A4
:1051B0001092119303221292139307A800F0F2FFAA
:1051C00080B90F23029302210391002304934FF42B
:1051D00080520592069302A800F096FA20B915B005
:1051E0005DF804FBFFF7B0FFFFF7AEFF00380240A9
:1051F0000070004008B501F029FEFFF7A7FF00F09E
:1052000025F801F0CBFE00F06DF801F0E1FE02F0B0
:1052100057F900F05BF94FF4FA6001F043FE0848DB
:1052200000F058FA00F05EF8064C0749204600F0FE
:105230002FF9204600F03AF9FFF76EFFFCE700BFB8
:10524000AC1F0020A01F00207403002030B58BB0DD
:1052500000240594069407940894099401941F4B24
:105260001A6B42F080021A631A6B02F080020192FC
:10527000019A02941A6B42F004021A631A6B02F04C
:1052800004020292029A03941A6B42F001021A631A
:105290001A6B02F001020392039A04941A6B42F013
:1052A00002021A631B6B03F002030493049B0C4D70
:1052B00022460121284601F01BFB01220621284637
:1052C00001F016FB07230593012306930794089426
:1052D00005A9284601F088F90BB030BD003802401E
:1052E0000008024008B50B480B4B03600B4B4360B2
:1052F00000238360C3604FF4804202614361836195
:10530000C361036200F008F900B908BDFFF71CFF94
:10531000FBE700BFAC1F002000540040801A0600CD
:1053200030B589B000230393049305930693079344
:105330000268154B9A4201D009B030BD0025019595
:10534000124C236B43F002032363236B03F002032D
:105350000193019B4FF4107303931223049305955B
:10536000032306930423079303A9094801F03CF99A
:105370000295236C43F400132364236C03F400139D
:105380000293029BD8E700BF00540040003802405F
:105390000004024002680A4B9A4200D0704710B5E0
:1053A000084A136C23F400131364074C4021204671
:1053B00001F00AFA4FF40071204601F005FA10BD21
:1053C000005400400038024000040240FEE7FEE7BF
:1053D000FEE7FEE7FEE770477047704708B501F04B
:1053E0004FFD08BD08B5024801F0A0FB08BD00BF95
:1053F0001403002008B5024802F039FE08BD00BFC2
:10540000B81A00200B4B834200D070470A4B1A6831
:105410005B681B0A03EB022313F4000F07D043F071
:105420007F43064A5360054B01221A72EDE7034A97
:105430005360F8E774030020F4020020A01F00204E
:10544000034B834200D07047024B01225A72FAE7A5
:1054500074030020A01F002082B0002100910B4B9C
:105460005A6C42F480425A645A6C02F480420092B0
:10547000009A01911A6C42F080521A641B6C03F07E
:1054800080530193019B02B0704700BF0038024077
:10549000034630B139B1016000201872587258606B
:1054A00070470120704701207047000038B108B5EF
:1054B000006830B10422044901F0BAFE08BD0120A1
:1054C00070470120FAE700BFF402002070B586B0F3
:1054D0000024059400940E4B1A6B42F004021A63E8
:1054E0001B6B03F004030093009B07260196012326
:1054F000029303940494074D01A9284601F074F81F
:1055000022463146284601F0F3F906B070BD00BFCF
:105510000038024000080240002800F0CC8070B53E
:10552000044690F83D30002B77D0242384F83D309A
:105530002268136823F0010313602268136843F4A0
:10554000004313602268136823F40043136000F0E3
:1055500091F962685A4B9A4264D85A4B98428CBF70
:1055600000230123002B40F0A8805749A1FB003104
:105570008B0C25686A6822F03F0242EA91426A6019
:1055800021680A6A22F03F0266684D4DAE424FD84C
:10559000013313430B622168CA6922F44F4222F09F
:1055A000FF026568464B9D424CD8431E6D00B3FB1D
:1055B000F5F3013340F6FC70034278D0C3F30B03DC
:1055C0001A43CA6121680B6823F0C003E269206AAC
:1055D000024313430B6021688B6823F4034323F0D9
:1055E000FF032269E068024313438B602168CB68A4
:1055F00023F0FF036269A06902431343CB60226872
:10560000136843F00103136000202064202384F812
:105610003D30206384F83E0070BD80F83C30FFF7D9
:105620007FFE82E7294B98428CBF0023012399E734
:105630004FF4967505FB03F3254DA5FB03539B091A
:105640000133A6E7A668BEB9431E05EB450CB3FBC4
:10565000FCF30133C3F30B03B3FA83F35B0943BBDE
:10566000C6B9431E05EB4505B3FBF5F30133C3F3A0
:105670000B0343F40043A3E7431E05EB850C0CEB3F
:105680008C0CB3FBFCF30133C3F30B03B3FA83F3CA
:105690005B09E4E7431E05EB850505EB8505B3FBD8
:1056A000F5F30133C3F30B0343F4404388E70423CA
:1056B00086E7012384E7012070470120ACE700BFA3
:1056C000A08601007F841E0083DE1B43FF083D008F
:1056D000D34D6210A8B110B50446242380F83D30A4
:1056E0000268136823F001031360FFF753FE0020E4
:1056F000206484F83D00206384F83E0084F83C0078
:1057000010BD012070470000002800F09B8070B59C
:105710000D4604464F4B1B6803F00F038B4208D223
:10572000CBB24C4A1370136803F00F038B4240F066
:105730008B80236813F0020F17D013F0040F04D0EE
:10574000454A936843F4E0539360236813F0080FCD
:1057500004D0414A936843F4604393603E4A93689F
:1057600023F0F003A1680B439360236813F0010F4B
:1057700032D06368012B21D09A1E012A25D9364ADE
:10578000126812F0020F61D033498A6822F00302D6
:1057900013438B6001F080FB06462F4B9B6803F0A0
:1057A0000C036268B3EB820F16D001F075FB801B0F
:1057B00041F288339842F0D9032042E0264A126829
:1057C00012F4003FE0D101203BE0234A126812F0BE
:1057D000007FD9D1012034E01E4B1B6803F00F037A
:1057E000AB4207D9EAB21B4B1A701B6803F00F03D8
:1057F000AB422DD1236813F0040F06D0164A9368EC
:1058000023F4E053E1680B439360236813F0080F1F
:1058100007D0114A936823F46043216943EAC10326
:10582000936000F0F7FB0C4B9B68C3F303130B4A28
:10583000D35CD8400A4B18600A4B186801F0E0FAB4
:10584000002070BD012070470120FAE70120F8E731
:105850000120F6E7003C02400038024078A600082C
:10586000D8010020D4010020014B1868704700BF08
:10587000D801002008B5FFF7F7FF044B9B68C3F37E
:105880008223034AD35CD84008BD00BF00380240E1
:1058900070A60008F0B583B00446066816F001064D
:1058A0000DD0964AD2F88C3023F0C063816B0B4345
:1058B000C2F88C30836B002B00F09B80002623689D
:1058C00013F0020F0BD08D4AD2F88C3023F0C05366
:1058D000E16B0B43C2F88C30E36B03B901262568FA
:1058E00015F004050FD0854AD2F88C3023F440130C
:1058F000216B0B43C2F88C30236BB3F5801F7AD039
:10590000002B7AD00025236813F0080F0ED07B4AB5
:10591000D2F88C3023F44003616B0B43C2F88C3017
:10592000636BB3F5800F6AD003B90125236813F0C8
:10593000200F66D1236813F0100F04D094F858207C
:105940006F4BC3F8E021236813F0800F08D06B4A37
:10595000D2F8943023F44003E16C0B43C2F8943046
:10596000236813F0400F08D0644AD2F8943023F033
:105970008063A16C0B43C2F89430236813F4807FDA
:105980000DD05E4AD2F8943023F00063616D0B4372
:10599000C2F89430636DB3F1006F00F09B80236810
:1059A00013F4007F08D0554AD2F8943023F0805386
:1059B000616C0B43C2F89430236813F4806F0CD0F1
:1059C0004E4AD2F8943023F00053216D0B43C2F8B5
:1059D0009430236DB3F1005F7ED0002E7CD123681C
:1059E000B3F5006F78D0012D00F02581002003B0C1
:1059F000F0BD012663E7012682E7012583E7012642
:105A000092E7002301933D4B1A6C42F080521A64D6
:105A10001B6C03F080530193019B3A4A136843F4D3
:105A20008073136001F038FA0746364B1B6813F495
:105A3000807F06D101F030FAC01B0228F5D903207F
:105A4000D5E72E4B1B6F13F4407314D0226C02F475
:105A500040729A420FD0294B1A6F22F440722A49A1
:105A60000120C1F8400E0020C1F8400E1A671B6FDC
:105A700013F0010F12D1236C03F44072B2F5407F92
:105A80001DD01E4A936823F4F81393601B490B6FD3
:105A9000226CC2F30B0213430B674BE701F0FCF9D6
:105AA0000746164B1B6F13F0020FE4D101F0F4F917
:105AB000C01B41F288339842F3D9032097E70F497E
:105AC0008A6822F4F81223F0704323F440731343DE
:105AD0008B60DBE7012562E70B4B00229A6601F041
:105AE000DBF90646054B1B6813F0006F0ED001F082
:105AF000D3F9801B0228F5D9032078E7003802404B
:105B0000001047420070004000004742236813F035
