:020000040800F2
:10000000D8710020C502000889570008514900082E
:10001000D15400088316000865860008000000001F
:10002000000000000000000000000000555A000819
:100030004718000800000000FB590008695A000832
:10004000DF020008DF020008DF020008DF0200080C
:10005000DF020008DF020008DF020008DF020008FC
:10006000DF020008DF020008DF020008DF020008EC
:10007000DF020008DF020008DF020008DF020008DC
:10008000DF020008DF020008DF020008DF020008CC
:10009000DF020008DF020008DF020008DF020008BC
:1000A000DF020008DF020008DF020008DF020008AC
:1000B000DF020008DF020008DF020008DF0200089C
:1000C000DF020008DF020008DF020008DF0200088C
:1000D000DF020008DF020008DF020008DF0200087C
:1000E000DF020008DF020008DF020008DF0200086C
:1000F000DF020008DF020008DF020008DF0200085C
:10010000DF020008DF020008DF020008DF0200084B
:10011000DF020008DF020008DF020008DF0200083B
:1001200059170008DF020008DF020008DF0200089C
:10013000DF0200080000000000000000DF020008ED
:10014000DF020008DF020008DF0200088D57000808
:10015000DF020008DF020008DF020008DF020008FB
:10016000DF020008DF020008DF020008DF020008EB
:10017000DF020008DF020008DF02000800000000C4
:1001800000000000DF020008000000000000000086
:10019000DF0200080000000000000000DF0200088D
:1001A000000000000000000000000000DF02000866
:1001B000DF020008DF020008DF020008DF0200089B
:1001C000DF02000800F002F800F06CF80AA090E8E6
:1001D000000C82448344AAF10107DA4501D100F002
:1001E00061F8AFF2090EBAE80F0013F0010F18BF63
:1001F000FB1A43F00103184704870000248700001E
:100200000A444FF0000C10F8013B13F0070408BF3C
:1002100010F8014B1D1108BF10F8015B641E05D0DA
:1002200010F8016B641E01F8016BF9D113F0080F8F
:100230001EBF10F8014BAD1C0C1B09D16D1E58BF21
:1002400001F801CBFAD505E014F8016B01F8016B58
:100250006D1EF9D59142D6D37047000000230024CB
:1002600000250026103A28BF78C1FBD8520728BFC6
:1002700030C148BF0B607047662908F0D9826429F5
:1002800000F0CE80002070471FB508F0CCFA00F0D7
:10029000BBFC04000020002108F038FAE0601FBD1C
:1002A00010B510BD00F0B0FD1146FFF7EDFF08F0EE
:1002B00016FA00F0CEFD03B4FFF7F2FF03BC00F026
:1002C00011FE00000948804709480047FEE7FEE7A5
:1002D000FEE7FEE7FEE7FEE7FEE7FEE7FEE7FEE7F6
:1002E00004480549054A064B70470000295B000891
:1002F000C5010008D8210020D8710020D831002085
:10030000D831002053EA020C00F069802DE9F04B4F
:100310004FF00006002B1FBFB3FA83F503FA05F474
:1003200024FA05F65E4012BF1643B2FA82F502FACD
:1003300005F4C5F120051EBF22FA05FC44EA0C04B1
:10034000203556EA044C4FEA144418BF641C4FF0A1
:1003500000084FF00009904271EB030C39D30029DB
:1003600019BFB1FA81F701FA07F6B0FA80F700FA7F
:1003700007F6C7F120071EBF20FA07FC46EA0C0665
:100380002037B6FBF4FCA7EB0507103F07F01F0B67
:10039000CBF120060CFA0BFB2CFA06F644BFB34651
:1003A0000026202FA4BF5E464FF0000B5BEA060C30
:1003B00008BF4FF0010B19EB0B09ABFB027C48EBBC
:1003C0000608C01B06FB02CC0BFB03CC71EB0C0137
:1003D000C1E70B46024641464846BDE8F08B13B5DF
:1003E0004FF000004FF00001AFF30080BDE81C406B
:1003F000704700000FB41CB5084B06AA7B44694641
:100400000090059800F0E7FB04460020694600F0E4
:10041000F5FB20461CBC5DF814FB0000FD07000046
:100420002DE9F0410646002410687529314616A5CD
:1004300010D0AFF30080002802DA404213A507E095
:1004400031688A0701D512A502E0490704D511A534
:10045000012401E0AFF3008000210A2206F1240705
:1004600009E0B0FBF2FCB0FBF2F302FB1C00303001
:1004700078541846491C0028F3D123462A463046B2
:10048000BDE8F04100F039B9000000002D00000087
:100490002B000000200000002DE9F05F8946044693
:1004A0004FF0000ADFF874B1FB44C0F820A02046EA
:1004B000E1688847002874D0252806D0D4E90121B6
:1004C0009047206A401C2062F1E700265F462046E4
:1004D000E16888472028054607DB312D05D27819C9
:1004E00010F8200C08B10643F1E7B00701D526F05B
:1004F0000406C4F81CA00027C4F818A02A2D09D0AF
:10050000284608F0E5F838B304EB8708303DC8F812
:10051000185019E059F8041B204604EB870291613A
:10052000E1688847012F054618D1E069002820DAE4
:1005300026F020061DE0D8F8180000EB800005EB3F
:1005400040003038C8F818002046E1688847054662
:1005500008F0BEF80028EED1012F0AD02E2D08D1C8
:100560002046E16888477F1C0546022F46F020069A
:10057000C4DBA069002803DA404246F00106A0610E
:10058000F00701D026F010066C2D0BD0682D09D095
:100590004C2D39D06A2D35D0742D35D07A2D33D0ED
:1005A00016E038E0E1682F4620468847B842054605
:1005B00009D16C2F26D04FF48060E16806432046B5
:1005C0008847054604E06C2F1AD04FF4807006432C
:1005D0000DB3A5F14100192802D8203546F4006674
:1005E0004A462946204626604E46FFF745FE80B122
:1005F00001280BD0F61D26F0070000F1080956E788
:100600004020E4E78020D8E70020D6E706F104097F
:100610004DE7284652E7206ABDE8F09FA883000016
:1006200040EA0103024630B59B0710D14FF0013478
:1006300000E008C208C91D1B9D4315EAC41FF8D07D
:1006400013F0FF0102F8011B0DD01B0AF8E711F8A7
:10065000013B002B02F8013B05D011F8013B002BB8
:1006600002F8013BF3D130BD10B5431C02E010F895
:10067000011B71B18107FAD14FF0013202C88C1A07
:100680008C4314EAC211F9D0C01A0A0603D0C01E66
:1006900010BDC01A10BD0A0401D0801E10BD090291
:1006A000FCD0401E10BD4FF0000200B5134694462A
:1006B0009646203922BFA0E80C50A0E80C50B1F1BA
:1006C0002001BFF4F7AF090728BFA0E80C5048BFCE
:1006D0000CC05DF804EB890028BF40F8042B08BF6C
:1006E000704748BF20F8022B11F0804F18BF00F868
:1006F000012B70477047704770472DE9F0470D4652
:1007000099469246044600F124080168880604D5FB
:10071000E06921F01001216000E00120A84201DD24
:10072000471B00E00027A1697A1902EB0900081AAB
:10073000A0612078C00602D42046AFF300800026D6
:1007400008E0D4E901211AF806009047206A401C0D
:10075000761C20624E45F4DB2078C0060AD5204680
:10076000AFF3008006E0D4E9012130209047206AF1
:10077000401C2062381EA7F10107F4DC07E0D4E931
:10078000012118F805009047206A401C2062281EAD
:10079000A5F10105F3DC2046AFF3008020780006C8
:1007A00002D50220BDE8F0870120FBE770472DE964
:1007B000FF4F0C461E464FF0FF378BB0D2E90001C9
:1007C000DDF860800A908A46C1F30A5505B93D46B6
:1007D000002108464FF00000BAF1000F00F440007D
:1007E00005DA00EB80004FF4400101EA50004FEAC7
:1007F0009059B9F1010F00DDB9460A9850EA4A0054
:100800000ED044F61050A5F2FF3545432F14B8F131
:10081000000F1ED07542291E1EDDC9F100021CE02A
:10082000B8F1010F4FF0000001D0302103E0F24396
:1008300005E02154401CB042FBDB30460022002181
:1008400021540B99C1F80880C1E900200FB0BDE820
:10085000F08FBD1B6D1CDEE74A4600DA694206A830
:1008600000F05CFA06AB93E8070003AB83E80700EF
:1008700050460A9900F03DFB8DE80700A0F50050B6
:100880001F3800900398002D0ADD42F21F014A46EE
:100890000844002303A90390684600F0A6FD09E080
:1008A000A0F500504A461F38002303A9039068466C
:1008B00000F0B0FD8DE807000004000C03D04FF0FD
:1008C000FF30410800E01046B8F1000F03D00022CD
:1008D000009215461EE0751E05D400F099F93032DD
:1008E00062556D1EF9D5B3460122084302D000229D
:1008F0007F1C04E02078302801D100227F1E002ACE
:10090000099784D01DE0112D07DA00F081F930320B
:1009100062556D1C50EA0102F5D1084302D00098DF
:10092000C8B10EE00021681E05E0235C625C6354E0
:100930002254401E491C8142F7DBAB46A81B401ED7
:100940000990002004F80B000B98099AC0F8088061
:10095000C0E9002B7AE711264FF0000857E72DE990
:10096000F04F88460446D21D22F0070191B0D1E92C
:100970000001CDE90A0107F077FE02460B98C00F8F
:1009800001D02D2007E02068810701D52B2002E04F
:10099000202101EAC000032A099001D0072A05DBC3
:1009A00003464146204600F079F90BE120788006A5
:1009B00001D5E06900E00620B8F1650F814606D058
:1009C000B8F1660F18D0B8F1670F70D131E0002090
:1009D000B9F1110F009001DB112301E009F10103CE
:1009E0000AAA01A90CA8FFF7E2FEDDE90C700026B7
:1009F00009F10105834647E001204B4600904FF086
:100A000000470AAA01A90CA8FFF7D1FEDDE90DB045
:100A10000C995D46002610B909F101000D18B9EBDB
:100A2000050003D4C0F1FF3609F10105A5EB09006B
:100A30002BE0B9F1010F01DA4FF001090020B9F103
:100A4000110F0090484601DD112300E003460AAA79
:100A500001A90CA8FFF7ABFEDDE90C704D4600269E
:100A60008346207800070AD4AB4500DA5D4601A82A
:100A7000012D04DD411911F8011C302907D04F4523
:100A800002DA17F1040F04DA012082460FE06D1E2E
:100A9000EEE7002F02DCED1B3E4403E0781CA84289
:100AA00000DD7D1CB81B00F1010A4FF000472078E3
:100AB000000703D4AA4501DB4FF0FF3A0021B7F14C
:100AC000004F0DF143088DF8431024D002202B2352
:100AD000002F01DA7F422D230A21021EA0F101001E
:100AE00000DC5FB197FBF1FC97FBF1F201FB1C7C92
:100AF00017460CF1300C08F801CDEEE7A8F1010023
:100B000003702188090501D5452100E06521A0F188
:100B1000010800F8011C09980FA9A1EB0807FF1DA7
:100B200000B10120411901EBEA70A1693844081AAB
:100B3000401EA0612078C00602D42046AFF300809A
:100B4000099828B1D4E901219047206A401C20620D
:100B50002078C00622D52046AFF300801EE0002E8C
:100B600004DBB34502DD01A8805D00E03020D4E95C
:100B700001219047206A401C2062761CAAF10100E6
:100B80005FEA000A0AD100F03FF8C0680168405CE3
:100B9000D4E901219047206A401C2062281EA5F15B
:100BA0000105DCDC07E0D4E9012118F8010B9047CE
:100BB000206A401C2062381EA7F10107F3DC2046A2
:100BC000AFF30080032011B041E6000001694A1C28
:100BD00002610878704700B58FB0CDE9013100217E
:100BE000059105497944CDE9031011466846FFF7A0
:100BF00053FC0FB000BD0000E5FFFFFF0A6802F8DC
:100C0000010B0A60704700000048704798210020DF
:100C100030B5B0F10A024FEA900E71F100034EEACE
:100C2000817EB0EB0E0061EB91014FEA101E4EEA9F
:100C3000017E10EB0E0041EB11114FEA102E4EEA2F
:100C4000016E10EB0E0041EB11214FEA104E4EEAFF
:100C5000014E10EB0E0041EB1141401841F1000133
:100C60004FEAD00040EA41704FEAD10110EB800515
:100C70004FEA810444EA907444EB01046D1944EB9B
:100C80000404521BA3414FF0000348BF0A3200D5B1
:100C900030BD401C41F1000130BD00002DE9F041A4
:100CA0001F46044603260168072A01F4006004DB9E
:100CB00008B116A505E016A503E008B115A500E0EA
:100CC00015A521F010002060A069C01EA0610FB121
:100CD000401EA0612046AFF300804FB1D4E901214E
:100CE00038469047206A401C2062C01C206206E003
:100CF000206AFAE7D4E9012115F8010B9047761E26
:100D0000F8D22046AFF30080BDE8F0814E414E009E
:100D10006E616E00494E4600696E66002DE9F0472F
:100D2000814616468AB0354878440DC88DE80D00D6
:100D300032487844801C03AC0DC884E80D0041F6AD
:100D40009B300844372190FBF1F290FBF1F5A5F1BF
:100D5000800501FB12041B3C02D56442012000E027
:100D60000020DFF898A080460027FA44AAF1BE0AC6
:100D70000EE0E0070AD03246684607EB4701012340
:100D80000AEB810100F046FB8DE8070064107F1C30
:100D9000002CEED1194F7F44AE3F19E0E80715D083
:100DA00007EB04100DF1180A90E80E008AE80E0017
:100DB000C068F04201D1981908903246012306A973
:100DC00003A800F027FB03AB83E807006D10641C49
:100DD000002DE3D14FF0010332466946B8F1000F10
:100DE00003A802D000F001FB01E000F013FBC9E909
:100DF0000001C9F808200AB0BDE8F087B87B000000
:100E000000487047782100207546FFF7F9FFAE468D
:100E100005006946534620F00700854618B020B506
:100E2000FFF75EFABDE820404FF000064FF00007E4
:100E30004FF000084FF0000B21F00701AC46ACE882
:100E4000C009ACE8C009ACE8C009ACE8C0098D46EF
:100E5000704710B50446AFF300802046BDE810404F
:100E6000FFF729BA4FF0013C50F8042B51F8043B2E
:100E70009A4221D1A2EB0C03934313EACC1317D16E
:100E800050F8042B51F8043B9A4215D1A2EB0C0305
:100E9000934313EACC130BD150F8042B51F8043BC5
:100EA0009A4209D1A2EB0C03934313EACC13DBD093
:100EB0004FF00000704700BFD01A01BAB1FA81F1BB
:100EC00001F0180122FA01F0CB40C1F12001DBB2A0
:100ED000C0B2C01A2CFA01F3D11A914311EAC3111E
:100EE000E6D1704701491820ABBEFEE7260002009C
:100EF00070475FEA400C08BF91F0000F4FEA8C2367
:100F00004FEAC12243EA51514FEA1C5018BF00F585
:100F1000F0404FEA300018BF41F000415FEA6C5CDE
:100F200000F02980BCF1FF3F08BF40F080407047CF
:100F3000130C06BF12044FF0100C4FF0000C130EF0
:100F400004BF12020CF1080C130F04BF12010CF1C4
:100F5000040C930F04BF92000CF1020CD30F04BFDA
:100F600052000CF1010C11464FF00002A0F11F00DD
:100F7000A0EB0C00704711F0004F08BF704731F034
:100F800000413FF4D5AF0B0C06BF09044FF0100C25
:100F90004FF0000C0B0E04BF09020CF1080C0B0FF4
:100FA00004BF09010CF1040C8B0F04BF89000CF184
:100FB000020CCB0F04BF49000CF1010CCCF1200353
:100FC000A0EB0C0022FA03F302FA0CF241EA03014F
:100FD00000F10100704720F07F4C80EA030023F00D
:100FE0007F47ACEB070303F57C5300F0004003F1AF
:100FF000FF032DE980494FEA154B09B44FEA14432A
:1010000025EA0B4E24EA03480FF2042606EB1327C9
:1010100049083E785FEA320203FB0667C7F500071E
:1010200007FB06F64FEA54374FEAD64606F10206AA
:1010300007FB066CCCF1005C4FEA1C472CEA074C1E
:1010400007FB06F40CFB06F504EB15464FEA961673
:1010500034BF00204FF000404FEAD13706FB07FCB9
:101060004FEA1C4C0CFB0BF7D21B03FB0CF761EB9C
:1010700007010CFB0EF7B0EB074072EB17420CFBBD
:1010800008F734BFA2EB0742B2EB074261EB17410E
:101090004FEA0C444FEA910706FB07FC4FEA1C4C51
:1010A0000CFB0BF7B0EBC74072EB573203FB0CF7AE
:1010B00034BFA2EBC742B2EBC74261EB57310CFB26
:1010C0000EF7B0EBC70072EB57720CFB08F734BF9A
:1010D000A2EBC702B2EBC70261EB5771039F4FEA65
:1010E000816141EA921104EBCC044FEAD1374FEA17
:1010F000826206FB07FC42EA90124FEA80604FEAE8
:101100001C4C0CFB0BF7D21B03FB0CF761EB07012C
:101110000CFB0EF7B0EB074072EB17420CFB08F725
:1011200034BFA2EB0742B2EB074261EB17414FEA33
:101130008C554FEA910704EB9C2406FB07FC4FEA11
:101140001C4C0CFB0BF7B0EBC74072EB573203FBA8
:101150000CF734BFA2EBC742B2EBC74261EB573189
:101160000CFB0EF7B0EBC70072EB57720CFB08F7E5
:1011700034BFA2EBC702B2EBC70261EB577115EBAC
:101180004C254FEA816141EA92114FEA82624FEAAF
:10119000D13742EA901206FB07FC44F100044FEA03
:1011A00080604FEA1C4C0CFB0BF7D21B03FB0CF7C7
:1011B00061EB07010CFB0EF7B0EB074072EB174237
:1011C0000CFB08F734BFA2EB0742B2EB074261EB1E
:1011D000174115EB1C154FEA813141EA92414FEA64
:1011E000823242EA90424FEA80304FEA0C7644F174
:1011F000000448EA03434EEA0B484FF0000EB2EBFE
:10120000080C71EB030724BF624639464EEB0E0E05
:101210004FF0000B0018524149414BEB0B0BB2EB66
:10122000080C71EB03077BF1000B24BF62463946C3
:101230004EEB0E0E4FF0000B0018524149414BEBA4
:101240000B0BB2EB080C71EB03077BF1000B24BF17
:10125000624639464EEB0E0E51EA020718BF46F0C1
:10126000010616EB0E7655F1000254F1000103D58C
:10127000BDE88901BDE80088BDE88901BDE80048F6
:10128000B619524141EB0101A3F10103704780807F
:101290007F7E7D7C7B7A79787776767574737271D0
:1012A00071706F6E6E6D6C6C6B6A6A696868676688
:1012B00066656464636362616160605F5F5E5E5D1A
:1012C0005D5C5C5B5B5A5A5959585857575656558E
:1012D00055555454535352525251515050504F4FF0
:1012E0004F4E4E4D4D4D4C4C4C4B4B4B4A4A4A4940
:1012F0004949484848474747474646464545454483
:101300004444444343434342424242414141002B0F
:101310009C4630D477002BD01CB54FEA370703B476
:101320004FF010004FF01001BAF1000F06D0BCF1E1
:10133000000FDCBF40F0080040F008014FF0000053
:101340000FBCBDE810400BF1010BBBF1010F08BF52
:101350005FEA170722BF12F1010211F101014FF0FC
:10136000004143F1000300F0004043EA00007047F1
:10137000F9D35708D0E746EA064613F1400F4FEA83
:1013800016461FDD13F1200FDFBF16430A4600216A
:1013900020335B42BED0C3F1200746EA064602FA7C
:1013A00007F74FEA164646EA0706C3F1200722FA76
:1013B00003F201FA07F721FA03F14FF0000342EAC2
:1013C0000702A7E746EA020646EA06464FEA16463D
:1013D00046EA0106BCBF46EA0646360C4FF000035B
:1013E0004FF000024FF0000194E72DE9804C9A463F
:1013F000934670B491E8380007C831EA400C48BF02
:1014000034EA430C03D5FFF7E6FDFFF780FFF0BC9D
:10141000BDE8008C2DE9804C9A46934670B491E863
:10142000380007C810F0804F08BF13F0804F03D179
:1014300000F005F8FFF76BFFF0BCBDE8008C20F072
:101440007F4780EA030023F07F4C07EB0C03A3F5F2
:101450007C5300F00040A3F1FE0392F0000F00F077
:10146000B38095F0000F00F077802DE901494FEA35
:1014700011404FEA144621EA004800FB06FC24EA2A
:10148000064708FB06F607FB08F800FB07F718EB12
:1014900006484CEB164C4FEA124B18EB07484FEA44
:1014A00015464CEB174022EA0B4E0BFB06FC25EAD7
:1014B00006470EFB06F607FB0EFE0BFB07F71EEBBF
:1014C000064E4CEB164C4FF000061EEB074E4CEB55
:1014D000174B18EB0B0840F1000018EB0E0B58EB04
:1014E000000840F100008F1A4FF000013CBFC943D3
:1014F000661B14BFB5EB040C00213CBFC943F61BAF
:101500004FEA17444EEA8E0E27EA04454FEA1C477D
:1015100004FB07622CEA074C05FB07F70CFB05F6FA
:1015200004FB0CFC16EB074642EB174216EB0C468D
:1015300042EB1C421BEB060658EB0202414146EA15
:101540009E0601D5BDE80189B619524141EB010162
:10155000A3F10103BDE801894FEA14454FEA1147A1
:1015600024EA054621EA074C05FB07F406FB07F7CA
:101570000CFB06F105FB0CFC11EB074144EB174497
:101580004FEA124711EB0C4144EB1C4422EA074C92
:1015900005FB07F206FB07F70CFB06F605FB0CFC48
:1015A00016EB074642EB174216EB0C4642EB1C4586
:1015B0006A1854F1000148BF7047B619524141EB17
:1015C0000101A3F10103704795F0000F37D04FEAF6
:1015D00011424FEA144721EA024624EA074C02FB73
:1015E00007F106FB07F70CFB06F402FB0CFC14EBFF
:1015F000074441EB17414FEA154714EB0C4441EB0C
:101600001C4125EA074C02FB07F506FB07F70CFB1C
:1016100006F602FB0CFC16EB074645EB174516EBEE
:101620000C4645EB1C42121951F1000148BF7047AE
:10163000B619524141EB0101A3F1010370474FEA92
:1016400014454FEA114724EA054621EA074C05FBF9
:1016500007F106FB07F70CFB06F24FF0000605FB4F
:101660000CFC12EB074241EB174112EB0C4251EB21
:101670001C4148BF7047921841EB0101A3F10103DF
:10168000704700BFFEE70346042B15D007DC7BB193
:10169000012B0ED0022B0DD0032B12D10BE0202BEF
:1016A0000BD0212B0AD0222B09D0232B09D107E004
:1016B00008E007E006E005E004E003E002E001E006
:1016C00000E000BF00BF002070470020704700000E
:1016D00010B500220449054804F0DFFD0449034821
:1016E00004F0CCFD002010BD7412002098050020ED
:1016F000740A002070B504460D462146034804F0E4
:10170000BDFD024804F086FD002070BD9805002054
:1017100010B503460C460021084610BD2DE9F041E6
:1017200004460D4600270B48D0F8BC6216B90120CC
:10173000BDE8F081D6F8140208B10120F8E72A4686
:101740002146044804F0A9FD024804F059FE07466A
:101750003846EDE79805002010B5024800F092F8F1
:1017600010BD0000F004002001460878103818234E
:10177000B0FBF3F20848805CC865032A05D9086805
:101780006FF30900001D886503E008686FF3090026
:101790008865886D70470000348800080146002085
:1017A0008A6A8B69CBB932B1012A0DD0022A03D0E3
:1017B000032A10D10EE000BFCB6A03F08073B3F1AF
:1017C000807F00D1012007E0CB6AB3F1C07F00D158
:1017D000012001E000E000BF34E08B69B3F5005F59
:1017E0001AD132B1012A07D0022A03D0032A11D11B
:1017F0000AE000BF01200EE0CB6A03F08073B3F172
:10180000807F00D1012006E0CB6AB3F1C07F00D118
:10181000012000E000BF15E032B1012A05D0022A04
:1018200004D0032A0CD103E000BF00BF012008E070
:10183000CB6A03F08073B3F1807F00D1012000E018
:1018400000BF00BF7047704772B600BFFEE70000E0
:1018500070B50A480468001D0568001D0668344418
:1018600054B108220649204603F00FFD0422044922
:101870001031284603F009FD70BD0000107AFF1FEB
:1018800066000020F8B50446002000908C480068EF
:101890004FF41651B0FBF1F7A56D2E6894F85C106B
:1018A00008208840304098B12068006800F00400AB
:1018B00070B12068006820F004002168086094F886
:1018C0005C1008208840A860606D40F001006065F1
:1018D00094F85C1001208840304068B1206840696D
:1018E00000F0800040B194F85C1001208840A860AE
:1018F000606D40F00200606594F85C100420884040
:10190000304068B12068006800F0020040B194F8EF
:101910005C1004208840A860606D40F004006065A1
:1019200094F85C1010208840304078B3206800683C
:1019300000F0080050B394F85C1010208840A860B4
:101940002068006800F4802080B12068006800F4FE
:10195000002028B9206CC8B12046216C884715E0CA
:10196000A06C98B12046A16C88470FE02068006801
:1019700000F4807028B92068006820F00800216811
:101980000860206C10B12046216C884794F85C10E8
:10199000202088403040002865D02068006800F092
:1019A000100000285FD094F85C1020208840A860C8
:1019B00094F83500052828D12068006820F016002A
:1019C000216808602068406920F080002168486133
:1019D000206C08B9A06C28B12068006820F00800CD
:1019E0002168086094F85C103F208840A8600120BE
:1019F00084F8350000BF002084F8340000BF206D5B
:101A000010B12046216D8847F8BD2068006800F4B9
:101A1000802080B12068006800F4002028B9606C44
:101A200010B12046616C88471DE0E06BD8B12046BC
:101A3000E16B884717E02068006800F4807068B99F
:101A40002068006820F0100021680860012084F8F8
:101A5000350000BF002084F8340000BFE06B10B1F7
:101A60002046E16B8847606D38B3606D00F001007F
:101A7000F0B1052084F835002068006820F00100EE
:101A80002168086000BF0098401C0090B84200D94F
:101A900005E02068006800F001000028F3D100BFD5
:101AA000012084F8350000BF002084F8340000BF16
:101AB000E06C10B12046E16C884700BFA4E700004D
:101AC000A00000202DE9F0410446002500F07CF93B
:101AD000074614B90120BDE8F081606A00B100BF7B
:101AE000022084F8350000BF002084F8340000BFD5
:101AF0002068006820F00100216808600AE000F01A
:101B000063F9C01B052805D920206065032084F8EF
:101B10003500E0E72068006800F001000028EED101
:101B20002068056821480540D4E901010843E168BF
:101B300008432169084361690843A1690843E169D1
:101B40000843216A08430543606A042803D1D4E9A5
:101B50000B0108430543206805602068456925F0AE
:101B60000705606A0543606A04280DD1A06A054331
:101B7000E06A48B12046FFF711FE28B140206065B9
:101B8000012084F83500A6E7206845612046FFF76C
:101B9000EBFD064694F85C103F208840B0600020C2
:101BA0006065012084F83500002094E73F8010F044
:101BB00070B5044600F008F906462546681C10B1C9
:101BC00004480078054400BF00F0FEF8801BA842DE
:101BD000FAD370BD9C000020F8B502460B460025E4
:101BE000002400200021D1E0012606FA01F51E683C
:101BF00006EA0504AC4274D11E7906F00306012EF4
:101C000004D01E7906F00306022E13D190684F000F
:101C10000326BE40B0434F00DE68BE4030439060B4
:101C2000506801268E40B0431E79C6F300168E40E0
:101C3000304350601E7906F00306032E09D0D068A9
:101C40004F000326BE40B0434F009E68BE40304365
:101C5000D0601E7906F00306022E13D1CF0802F1E0
:101C6000200656F827004E07F70E0F26BE40B04359
:101C70004F07FF0E1E69BE403043CF0802F1200619
:101C800046F8270010684F000326BE40B0431E7977
:101C900006F003064F00BE40304310605E6806F455
:101CA0004036002E71D000BF00260096394E3668AF
:101CB00046F48046374F3E603E46366806F480461E
:101CC000009600BF00BF344E8F0856F827008E07DD
:101CD000370F0F26BE40B043304EB24202D100262D
:101CE0001FE052E02E4EB24201D1012619E02D4EE6
:101CF000B24201D1022614E02B4EB24201D103269A
:101D00000FE02A4EB24201D104260AE0284EB24228
:101D100001D1052605E0274EB24201D1062600E09A
:101D200007268F073F0FBE4030431B4E8F0846F8F3
:101D30002700214E3068A0435E6806F4801606B185
:101D400020431D4E3060361D3068A0435E6806F4A7
:101D5000001606B12043184E361D3060164E361F51
:101D60003068A0435E6806F4003606B12043124E88
:101D7000361F3060361F3068A0435E6806F4803638
:101D800006B120430C4E083E3060491C1029FFF478
:101D90002BAFF8BD44380240083801400000024033
:101DA0000004024000080240000C02400010024003
:101DB0000014024000180240083C01400AB1816151
:101DC00001E00B0483617047014800687047000020
:101DD0009400002070B504460CB9012070BD94F841
:101DE0003D0028B9002084F83C00204600F016FB96
:101DF000242084F83D002068006820F0010021685C
:101E000008602068006840F400402168086020688D
:101E1000006820F400402168086002F0DFF9054600
:101E20005C496068884206D85B48854201D201203F
:101E300007E0002005E05948854201D2012000E07A
:101E40000020012800D1C9E75548B5FBF0F620680D
:101E5000406820F03F003043216848604D49606889
:101E6000884201D8701C07E04FF4967070434FF41D
:101E70007A71B0FBF1F0401C2168096A21F03F0142
:101E800008432168086243496068884214D8681E84
:101E900061684900B0FBF1F0401CC0F30B0004285E
:101EA00001D204203DE0681E61684900B0FBF1F0FA
:101EB000401CC0F30B0034E0A06838B9681E6168AC
:101EC00001EB4101B0FBF1F0401C0AE0681E6168C3
:101ED00001EBC10202EB0111B0FBF1F0401C40F438
:101EE0008040C0F30B0008B901201AE0A06848B98F
:101EF000681E616801EB4101B0FBF1F0401CC0F3CA
:101F00000B000CE0681E616801EBC10202EB0111DD
:101F1000B0FBF1F0401CC0F30B0040F4804040F4F3
:101F200000402168C9694CF6FF729143084321685B
:101F3000C861D4E9070108432168096821F0C0019C
:101F4000084321680860D4E90310084321688968C0
:101F500048F2FF329143084321688860D4E90501C3
:101F600008432168C96821F0FF0108432168C8605F
:101F70002068006840F001002168086000202064AB
:101F8000202084F83D000020206384F83E0000BF3C
:101F900024E70000A086010080841E0000093D00A7
:101FA00040420F002DE9F8430446894616461F4675
:101FB000DDF82080FFF708FF054694F83D00202853
:101FC0007ED11923012251492046009502F025FEB9
:101FD00010B10220BDE8F88300BF94F83C0001284E
:101FE00001D10220F6E7012084F83C0000BF206800
:101FF000006800F0010028B92068006840F0010086
:10200000216808602068006820F40060216808608A
:10201000212084F83D00102084F83E000020206438
:1020200066626785608D20853948E0622B464246AE
:102030004946204602F0AEFC08B10120CAE700BFC5
:10204000002000902068406900902068806900901E
:1020500000BF00BF44E02A464146204602F0FEFE93
:1020600050B1206C042805D12068006840F400704D
:10207000216808600120ADE7606A00782168086186
:10208000606A401C6062608D401E6085208D401E2D
:10209000208520684069C0F3800070B1208D60B158
:1020A000606A007821680861606A401C6062608D27
:1020B000401E6085208D401E20852A46414600E056
:1020C00022E0204602F076FD50B1206C042805D1B4
:1020D0002068006840F4007021680860012079E7FA
:1020E000208D0028B7D12068006840F40070216876
:1020F0000860202084F83D00002084F83E0000BFE6
:1021000084F83C0000BF65E7022063E7020010008E
:102110000000FFFF2DE9FC5F04460F4690469946FC
:10212000DDE90CAB0E9EFFF74FFE054694F83D002F
:10213000202870D119230122B5492046009502F0CC
:102140006CFD10B10220BDE8FC9F00BF94F83C007C
:10215000012801D10220F6E7012084F83C0000BFED
:102160002068006800F0010028B92068006840F08D
:102170000100216808602068006820F40060216880
:102180000860222084F83D00402084F83E000020B2
:102190002064C4F824A0A4F82AB0608D20859D484E
:1021A000E0624B46424639462046CDE9006502F0E2
:1021B00051FC08B10120C6E7208D88B900BF00207E
:1021C000019020684069019020688069019000BFFB
:1021D00000BF2068006840F400702168086040E09B
:1021E000208D012818D12068006820F480602168C3
:1021F000086000BF002001902068406901902068BD
:102200008069019000BF00BF2068006840F4007042
:102210002168086025E0F8E0208D022816D12068AA
:10222000006820F48060216808602068006840F43D
:1022300000602168086000BF0020019020684069AC
:10224000019020688069019000BF0AE000BF002073
:10225000019020684069019020688069019000BF6A
:1022600000BFC3E0208D03287ED8208D012815D122
:102270002A463146204602F0ACFD08B1012062E753
:1022800020680069616A0870606A401C6062208D85
:10229000401E2085608D401E6085A7E0208D0228AD
:1022A0002AD1334600225C492046009502F0B5FC55
:1022B00008B1012047E72068006840F400702168F9
:1022C000086020680069616A0870606A401C60628A
:1022D000208D401E2085608D401E6085206800692D
:1022E000616A0870606A401C6062208D401E208513
:1022F000608D401E608579E03346002246492046C5
:10230000009502F08AFC08B101201CE720680068F3
:1023100020F480602168086020680069616A0870A4
:10232000606A401C6062208D401E2085608D401ECA
:1023300060853346002238492046009502F06DFC46
:1023400008B10120FFE62068006840F400702168B1
:10235000086020680069616A0870606A401C6062F9
:10236000208D401E208500E010E0608D401E6085BD
:1023700020680069616A0870606A401C6062208D94
:10238000401E2085608D401E60852FE02A46314624
:10239000204602F01EFD08B10120D4E62068006945
:1023A000616A0870606A401C6062208D401E208552
:1023B000608D401E608520684069C0F38000A8B130
:1023C000208D032805D12068006820F480602168F2
:1023D000086020680069616A0870606A401C606279
:1023E000208D401E2085608D401E6085208D002838
:1023F0007FF438AF202084F83D00002084F83E00B0
:1024000000BF84F83C0000BF9DE602209BE6000070
:10241000020010000000FFFF0400010010B586B0AC
:102420000446142101A8FEF73EF91B4920688842A2
:1024300030D100BF002000901848006840F0020032
:10244000164908600846006800F00200009000BFCE
:1024500000BF4FF4107001901220029000200390F2
:10246000032004900420059001A90D48FFF7B4FB58
:1024700000BF0020009009481030006840F40010B0
:102480000649103108600846006800F4001000900A
:1024900000BF00BF06B010BD0054004030380240FD
:1024A00000040240704700002DE9F047044614B9CB
:1024B0000120BDE8F08794F8410038B9002084F885
:1024C00040004D486063204600F09CF8022084F8EC
:1024D00041002068C06940F6BF7188432168C86127
:1024E000022021680862606902284AD0E06808B9C1
:1024F000102500E02025A068202800D86D003F4965
:102500002068884203D03E492068884204D10120D7
:1025100001F03CF9074603E0022001F037F90746D5
:102520002069B0F5007F17D1E06850B1A800B7FB73
:10253000F0F000EB800041006069B1FBF0F0461D57
:1025400013E0E800B7FBF0F000EB800041006069A9
:10255000B1FBF0F0461D08E0B7FBF5F000EB8000A2
:1025600041006069B1FBF0F0461D0A20B6FBF0F6B1
:1025700006F00109A6EB09004FEA50084FEA0929C5
:1025800003E04FF002084FF00009B8F1020F02D348
:10259000B8F1FF0F05D9606C40F0100060640120B5
:1025A00087E7206940EA090040EA080021680862DC
:1025B000606840F40060A1680843E1680843A169CD
:1025C00008432168C96940F6BF72914308432168F6
:1025D000C861A068302802D0A068B02805D1206862
:1025E000C06940F480502168C86100206064012007
:1025F00084F8410000205CE7C34E0008003800402A
:10260000003C004010B59EB00446142119A8FEF706
:102610004AF85C2102A8FEF746F83449206888424F
:1026200062D10220029032210491022105910420FE
:1026300003900791069101200C900020119002A8B0
:1026400001F058FA08B1FFF7FFF800BF0020019031
:102650002748006840F48050254908600846006813
:1026600000F48050019000BF00BF00BF0020019027
:102670001F481438006840F001001D4914390860F3
:102680000846006800F00100019000BF00BFB020C4
:10269000199002201A9000201B901C9005201D907C
:1026A00019A91448FFF798FA1348144908604FF025
:1026B000C0604860002111488160C1604FF48061B2
:1026C000016189004161890081618911C161002135
:1026D00001624162FFF7F6F908B1FFF7B5F800BFF4
:1026E0000648E063846300BF1EB010BD00300140A7
:1026F000443802400000024010640240F004002010
:10270000074988420BD1074A5269064B1B8A42EAA5
:1027100003418A12044B5A6001225A7300BF70476A
:10272000A8040020000000204401002070470000A1
:102730000348006803490978084401490860704764
:10274000940000209C00002010B50D48006840F463
:1027500000700B4908600846006840F4806008601B
:102760000846006840F480700860032000F0A6F876
:10277000002000F007F800F02BF8002010BD00004A
:10278000003C024070B504460E4800784FF47A7160
:10279000B1FBF0F00C490968B1FBF0F5284602F0F6
:1027A0003DF808B1012070BD102C07D2002221464F
:1027B000501E00F045F80548046001E00120F2E7F2
:1027C0000020F0E79C000020A000002098000020DE
:1027D00008B500BF002000900E48006840F480401B
:1027E0000C4908600846006800F48040009000BF73
:1027F00000BF00BF00200090081F006840F080501C
:10280000091F08600846006800F08050009000BF73
:1028100000BF08BD443802400146084600280DDBD1
:1028200000BF00BF00F01F0301229A4043099B0034
:1028300003F1E023C3F8002100BF00BF00BF7047D1
:102840002DE9F05F80460D461646002705F024FF6F
:10285000074639462A46334601F00700C0F1070A09
:10286000BAF1040F02D94FF0040A01E0C0F1070ADF
:10287000D14600F1040ABAF1070F02D24FF0000A64
:1028800001E0A0F1030AD4464FF0010A0AFA09FA5E
:10289000AAF1010A0AEA020A0AFA0CFA4FF0010B3D
:1028A0000BFA0CFBABF1010B0BEA030B4AEA0B042E
:1028B0002146404605F0F8FEBDE8F09F00BF00F05D
:1028C0000702064B19684FF6FF031940044B0B43F0
:1028D00043EA0221014B196000BF70470CED00E094
:1028E0000000FA0501460A680120C1F8D80400205A
:1028F00081F8CC04906940F000609061506D024B0B
:1029000018435065002070470300001070B504465E
:102910000D4615B1012D2CD116E0E07A38B103F047
:10292000A7F81548006820F00600134908602068E1
:10293000D0F8000E20F001002168C1F8000ED4F894
:10294000E00404F01AFB14E02068D0F8000E40F018
:1029500001002168C1F8000ED4F8E00404F0A0FBE7
:10296000E07A28B10448006840F006000249086097
:1029700000BF00BF70BD000010ED00E0024610680F
:10298000416200207047F0B5034615461868446A56
:1029900021B944EA05401E68B06219E01868806AEF
:1029A00004EB1044002208E0186800F5827050F82B
:1029B000220004EB1044501CC2B2481E9042F3D8CF
:1029C00044EA0547186800F582704E1E40F82670EC
:1029D0000020F0BD10B50446D4F8E00404F0AEF9D0
:1029E00010BD70B504460D4605EBC50304F1140196
:1029F00001EB8301CA682946D4F8E00404F091F899
:102A000070BD70B504460D4605EBC50304F51571A0
:102A100001EB8301CA682946D4F8E00404F009F9FF
:102A200070BD10B50446D4F8E00404F08AF910BD76
:102A30002DE9F04104460D4605F08000802808D1BC
:102A400005F00F0000EBC00104F1140000EB81065B
:102A500007E005F00F0000EBC00104F5157000EB76
:102A600081063146206805F0BFFB07463846BDE8C1
:102A7000F08170B504460E4606F0800080280AD129
:102A800006F00F0000EBC00104F1140000EB81051B
:102A90000120687009E006F00F0000EBC00104F5AA
:102AA000157000EB81050020687006F00F0028709B
:102AB00000BF94F89404012801D1022070BD0120C8
:102AC00084F8940400BF2946206804F01FFF00BF6B
:102AD000002084F8940400BF00BFEFE770B50446FF
:102AE0000E4606F00F002179884201D9012070BD01
:102AF00006F0800080280AD106F00F0000EBC0012C
:102B000004F1140000EB81050120687009E006F073
:102B10000F0000EBC00104F5157000EB81050020EB
:102B200068700020A87006F00F00287000BF94F8AD
:102B30009404012801D10220D9E7012084F89404EB
:102B400000BF2946206805F0DBF800BF002084F8AC
:102B5000940400BF00BFCAE7024601F00F0000EB7B
:102B6000C00302F5157000EB8300406970472DE942
:102B7000F04705460E4690461F464FF0000906F006
:102B8000800080280AD106F00F0000EBC00105F19B
:102B9000140000EB81040120607009E006F00F00D2
:102BA00000EBC00105F5157000EB8104002060709A
:102BB00006F00F002070C8F30A00A060277160784B
:102BC00008B120786083022F01D10020607100BF1E
:102BD00095F89404012802D10220BDE8F087012075
:102BE00085F8940400BF2146286804F09BFD00BFCF
:102BF000002085F8940400BF4846EEE72DE9F04137
:102C000005460E461746984606F00F0000EBC00139
:102C100005F5157000EB8104E760C4F81080002012
:102C20006061607006F00F002070A879012800D163
:102C3000E761AA792146286805F0F6F80020BDE88A
:102C4000F08170B504460D4605F00F0021798842E9
:102C500001D9012070BD05F0800080280AD105F05F
:102C60000F0000EBC00104F1140000EB810601200D
:102C7000707007E005EBC50104F5157000EB8106E7
:102C8000002070700120B07005F00F00307000BFA0
:102C900094F89404012801D10220DBE7012084F894
:102CA000940400BF3146206805F071F805F00F006C
:102CB00028B9A17904F29C42206804F0E9FF00BF22
:102CC000002084F8940400BF00BFC3E72DE9F04161
:102CD00005460E461746984606F00F0000EBC00169
:102CE00005F1140000EB8104E760C4F810800020B7
:102CF00060610120607006F00F002070A879012843
:102D000000D1E761AA792146286805F08DF80020F6
:102D1000BDE8F0812DE9FE4F0446D4F800B05E46D0
:102D2000206805F043FB002874D1206805F07DFB86
:102D300008B9BDE8FE8F40F608008059C0F30D20A9
:102D4000C4F8D404206805F070FB00F002000228EB
:102D500005D12068406900F00200216848612068C0
:102D600005F063FB00F01000102845D12068806951
:102D700020F0100021688861DBF8209009F00F0036
:102D800000EBC00104F5157000EB810AC9F3434064
:102D900002281AD147F6F07009EA000030B3C9F3EF
:102DA0000A125846DAF80C1005F044FBC9F30A1170
:102DB000DAF80C000844CAF80C00C9F30A11DAF872
:102DC00014000844CAF8140010E0C9F34340062870
:102DD0000CD1082204F29C41584605F02BFBC9F3A4
:102DE0000A11DAF814000844CAF81400206880694F
:102DF00040F0100021688861206805F016FB00F49F
:102E00000020B0F5002F7BD10025206805F0DDFA09
:102E1000029072E003E3029800F00100002868D0FD
:102E2000E9B2206805F0F4FA804608F0010048B1E4
:102E3000012106F5306000EB4510816029462046EF
:102E400002F0DEFC08F00800082809D1082106F588
:102E5000306000EB451081602946204602F09EFC60
:102E600008F01000102805D1102106F5306000EBA5
:102E70004510816008F00200022824D1DBF814001C
:102E800000F08000802807D140F60400805940F40B
:102E9000806140F60400815105EBC50104F5157011
:102EA00000EB810A9AF80300012806D100208AF875
:102EB0000300E9B2204600F0BDFA022106F53060B9
:102EC00000EB4510816008F02000202805D120216A
:102ED00006F5306000EB4510816008F40050B0F555
:102EE000005F06D14FF4005106F5306000EB45104D
:102EF00081606D1C029840080290029800288AD1D7
:102F0000206805F092FA00F48020B0F5802F7DD182
:102F1000206805F050FA029000259AE0029800F02F
:102F20000100002873D0E9B2206805F058FA804605
:102F300008F00100F0B305F00F0101208840019076
:102F400040F634008159019821EA000040F634012E
:102F50008851012106F5106000EB45108160A079D1
:102F6000012824D105EBC50104F1140000EB810018
:102F700005EBC502C16804F1140000EB8200806813
:102F8000014405EBC50204F1140000EB8200C160AE
:102F90006DB905EBC50104F1140000EB8100006977
:102FA00028B904F29C420121206804F071FEE9B2C4
:102FB000204600E001E0FFF714FD08F008000828B3
:102FC00005D1082106F5106000EB4510816008F07E
:102FD0001000102805D1102106F5106000EB4510F7
:102FE000816008F04000402805D1402106F51060BE
:102FF00000EB4510816008F0020002281DD129462F
:10300000584605F096F905EBC50101E025E01CE006
:1030100004F1140000EB810A9AF80300012806D19C
:1030200000208AF80300E9B2204600F0FAF90221F4
:1030300006F5106000EB4510816008F080008028E4
:1030400003D12946204602F07DFC6D1C0298400801
:103050000290029800287FF461AF206805F0E5F93E
:1030600000F00040B0F1004F1CD140F60400805940
:1030700020F0010140F60400815194F8CC040128AD
:1030800007D1002084F8CC0400212046FFF73EFC45
:1030900002E0204600F008FB2068406900F0004094
:1030A00021684861206805F0C0F900F40060B0F5BF
:1030B000006F0ED140F60800805900F0010010B1F9
:1030C000204600F049FB2068406900F40060216858
:1030D0004861206805F0A9F900F00060B0F1006FC8
:1030E00019D12068406900F000602168486194F8B7
:1030F000CC0468B9012084F8CC042068406DC0F38A
:103100008300C4F8D00401212046FFF7FFFB02E052
:10311000204600F021FB206805F087F900F480507C
:10312000B0F5805F7ED140F60400805920F00101A7
:1031300040F6040081511021206805F0FAF80027BC
:1031400032E04FF67F3106F5106000EB47108160EA
:1031500006F5106000EB4710006820F4001106F53A
:10316000106000EB471001604FF67F3106F53060CC
:1031700000EB4710816006F5306000EB47100068F7
:1031800020F4001106F5306000EB4710016006F5F1
:10319000306000EB4710006840F0006106F53060D9
:1031A00000EB471001607F1C2079B842C9D840F677
:1031B0001C00805940F0011140F61C008151E07B59
:1031C00070B1D6F8840840F00B01C6F8841840F6B8
:1031D0004400805940F00B0140F6440081510FE05B
:1031E00040F61400805942F22B01084340F61401C6
:1031F0008851081F805940F00B014FF40160815144
:10320000D6F8000820F4FE60C6F80008A17904F2A0
:103210009C42206804F03CFD2068406900F4805026
:10322000216800E000E04861206805F0FEF800F445
:103230000050B0F5005F17D1206804F0DBFA206879
:1032400005F0A1F8E07100F0C3FF0090E27920687A
:10325000009905F071F9204600F00EFA20684069E7
:1032600000F4005021684861206805F0DEF800F0A5
:103270000800082808D1204600F01DFA206840699F
:1032800000F0080021684861206805F0CEF800F0E1
:103290008000802818D1DBF8180020F08000CBF8DF
:1032A000180001250DE005EBC50104F5157000EBD4
:1032B0008100C078012803D1E9B22046FFF7B8FBAE
:1032C0006D1C2079A842EED8206805F0AEF800F415
:1032D0008010B0F5801F2DD1012522E006F5106089
:1032E00000EB4510D0F8009005EBC50104F1140087
:1032F00000EB81000079012812D109F00040B0F103
:10330000004F0DD1012105EBC50204F1140000EBC3
:103310008200C170E8B240F080012046FFF788FBD0
:103320006D1C2079A842D9D82068406900F480102B
:1033300021684861206805F078F800F40010B0F5C5
:10334000001F44D1012538E006F5306000EB451040
:10335000D0F8009005EBC50104F5157000EB810075
:103360000079012828D109F00040B0F1004F23D1A5
:1033700094F8D40400F00100C9F3004188421BD145
:10338000012105EBC50204F5157000EB8200C17048
:10339000DBF8180040F08000CBF81800DBF81400D0
:1033A00000F0800040B940F60400805940F40071FC
:1033B00040F60400815103E06D1C2079A842C3D877
:1033C00000BF2068406900F400102168486120684F
:1033D00005F02BF800F08040B0F1804F08D1204676
:1033E000FFF7F8FA2068406900F0804021684861E2
:1033F000206805F01AF800F0040004280FD12068B6
:10340000D0F8049009F00400042802D12046FFF708
:1034100008FB2068406840EA09002168486000BF56
:1034200087E470B504460D462946D4F8E00403F05D
:10343000F5FC70BD70B504460D462946D4F8E0048D
:1034400003F010FD70BDF8B504460CB90120F8BDBD
:10345000266894F8950428B9002084F8940420463E
:1034600000F0A6F8032084F89504B6F1A04F01D12E
:103470000021A171206804F003FC207C8DF800007D
:1034800094E80F0004F0CAF920B1022084F89504F2
:103490000120DCE70021206804F0FCFF20B10220BD
:1034A00084F895040120D2E7002531E0012105EBE5
:1034B000C50204F1140000EB8200417005EBC50168
:1034C00004F1140000F8215005EBC50100EB810068
:1034D0004583002105EBC50204F1140000EB8200D6
:1034E000017105EBC50204F1140000EB820081605C
:1034F00005EBC50204F1140000EB8200C16005EB8E
:10350000C50204F1140000EB82000161681CC5B221
:103510002079A842CADC00252AE0002105EBC5027B
:1035200004F5157000EB8200417005EBC50104F550
:10353000157000F82150002105EBC50200EB820058
:10354000017105EBC50204F5157000EB8200816086
:1035500005EBC50204F5157000EB8200C16005EBB8
:10356000C50204F5157000EB82000161681CC5B24C
:103570002079A842D1DC207C8DF8000094E80F006F
:1035800004F08EFA20B1022084F8950401205EE751
:1035900000206074012084F89504207B012802D16A
:1035A0002046FFF79FF9206804F068FA00204EE7F4
:1035B00010B59EB00446142119A8FDF774F85C21DB
:1035C00002A8FDF770F82068B0F1A04F4DD14FF47C
:1035D000807002900020179002A800F08BFA08B1CA
:1035E000FEF732F900BF002001902148006840F04A
:1035F00001001F4908600846006800F001000190C2
:1036000000BF00BF4FF4C050199002201A90002054
:103610001B9003201C900A201D9019A91548FEF745
:10362000DBFA00BF1248001D006840F0800010491E
:10363000091D086000BF002001900D48143000688B
:1036400040F480400A49143108600846006800F4DC
:103650008040019000BF00BF00BF00220221432034
:10366000FFF7EEF84320FFF7D7F81EB010BD0000BB
:10367000303802400000024070B504460125E07970
:1036800008B9002506E0E079022801D1012501E012
:10369000FEF7DAF82946D4F8E00403F08DFCD4F8FC
:1036A000E00403F033FC70BD10B50446D4F8E00428
:1036B00003F063FC10BD10B50446D4F8E00403F039
:1036C00067FC10BD70B504460D4600BF94F8940425
:1036D000012801D1022070BD012084F8940400BFAC
:1036E00065742946206804F009FF00BF002084F8B3
:1036F000940400BF00BFEEE710B5044604F29C41FD
:10370000D4F8E00403F06FFC10BD70B504462568E2
:1037100000BF94F89404012801D1022070BD01205B
:1037200084F8940400BFE86800F0400030B1607B8A
:10373000012803D1A86B40F48030A863206804F00E
:10374000C9FD206804F088F900BF002084F89404C3
:1037500000BF00BFE2E7000010B50446D4F8E00463
:1037600003F09EFC2068D0F8000E40F001002168B4
:10377000C1F8000EE07A28B10348006840F0060066
:103780000149086010BD000010ED00E0F0B50446EE
:10379000002200200021002500260023012C78D0E3
:1037A000022C77D0042C02D0082C74D100E000BF8A
:1037B000CC4F3D6805F47005C5F31307002F6BD19E
:1037C0002F150D2F68D2DFE807F007356890369C7B
:1037D0009C9C699C9C9C9200C24F883F3F6807F468
:1037E00080074FB9BF4F3F1F3F6807F03F07DFF823
:1037F000F8C2BCFBF7F108E0BA4F3F1F3F6807F083
:103800003F07DFF8E8C2BCFBF7F1B64F3F1F3F6848
:10381000C7F30362B34F3F1F3F68C7F388174F4397
:10382000B7FBF2F0AF4F3F68C7F304277A1CB0FB39
:10383000F2F067E000BFAB4F883F3F6807F48007B6
:103840004FB9A84F083F3F6807F03F07DFF898C21D
:10385000BCFBF7F108E0A34F083F3F6807F03F07C4
:10386000DFF888C2BCFBF7F19E4F083F3F68C7F303
:1038700003629C4F083F3F68C7F388174F43B7FB6D
:10388000F2F0984F3F6807F01F077A1CB0FBF2F088
:1038900038E039E0ADE021E133E000BF914F883FEF
:1038A0003F6807F480074FB98E4F883F3F6807F0A5
:1038B0003F07DFF834C2BCFBF7F108E0894F883FCF
:1038C0003F6807F03F07DFF824C2BCFBF7F1854FE4
:1038D000883F3F68C7F30272824F883F3F68C7F353
:1038E00088174F43B7FBF2F00CE081480AE07D4FA8
:1038F000883F3F6807F480070FB97B4800E07B48AA
:1039000000E000BF00BFEAE0764F3F6807F0C06606
:103910005EB1B6F1007F06D0B6F1806F2FD0B6F160
:10392000C06F62D155E0724861E06E4F883F3F68DA
:1039300007F48007B7F5800F09D16A4F083F3F6849
:1039400007F03F07DFF8A4C1BCFBF7F108E0654FC3
:10395000083F3F6807F03F07DFF88CC1BCFBF7F179
:10396000604F083F3F68C7F3881707FB01F35D4FBF
:10397000083F3F68C7F30277B3FBF7F037E0594FD2
:10398000883F3F6807F48007B7F5800F09D1554F8E
:10399000883F3F6807F03F07DFF850C1BCFBF7F1F5
:1039A00008E0504F883F3F6807F03F07DFF838C115
:1039B000BCFBF7F14B4F883F3F68C7F3881707FB05
:1039C00001F3484F883F3F68C7F30277B3FBF7F036
:1039D0000DE0444F883F3F6807F48007B7F5800F3C
:1039E00001D1424800E0404801E0002000BF00BF94
:1039F00075E03C4F3F6807F0C0565EB1B6F1006F0E
:103A000006D0B6F1805F2FD0B6F1C05F62D155E02D
:103A1000374861E0334F883F3F6807F48007B7F5C8
:103A2000800F09D12F4F083F3F6807F03F07DFF8AD
:103A3000BCC0BCFBF7F108E02A4F083F3F6807F025
:103A40003F07DFF8A4C0BCFBF7F1264F083F3F68F3
:103A5000C7F3881707FB01F3224F083F3F68C7F3FE
:103A60000277B3FBF7F037E01E4F883F3F6807F45B
:103A70008007B7F5800F09D11A4F883F3F6807F0DC
:103A80003F07DFF868C0BCFBF7F108E0154F883F3F
:103A90003F6807F03F07DFF850C0BCFBF7F1114F5C
:103AA000883F3F68C7F3881707FB01F30D4F883F36
:103AB0003F68C7F30277B3FBF7F00DE0094F883F8B
:103AC0003F6807F48007B7F5800F01D1074800E091
:103AD000054801E0002000BF00BF00E000BF00BFBC
:103AE000F0BD00008C3802400024F40000127A007F
:103AF0000080BB002DE9FE4F04460025002600276C
:103B0000A846A946AA46AB4600200290019020781C
:103B100000F0010058B1FE48006820F0C060A16BC1
:103B20000843FB490860A06B08B901200290207887
:103B300000F0020002280BD1F548006820F0C050C8
:103B4000E16B0843F2490860E06B08B9012002907C
:103B5000207800F00400042811D1ED48006820F41A
:103B60004010216B0843EA490860206BB0F5801FC4
:103B700001D101200290206B08B90120019020782A
:103B800000F00800082811D1E148006820F4400046
:103B9000616B0843DE490860606BB0F5800F01D1AE
:103BA00001200290606B08B901200190207800F09C
:103BB000200020286FD100BF00200090D4484C384E
:103BC000006840F08050D2494C39086008460068CF
:103BD00000F08050009000BF00BFCE48006840F465
:103BE0008070CC490860FEF7EFF8054607E0FEF765
:103BF000EBF8401B022802D90320BDE8FE8FC54820
:103C0000006800F480700028F1D0C1481C380068BA
:103C100000F4407656B3B4F8400000F44070B0426F
:103C200024D0BB481C38006820F440760120BA49F3
:103C3000086000200860B6481C380660006800F084
:103C4000010098B1FEF7C0F8054608E0FEF7BCF8A1
:103C5000401B41F28831884201D90320CDE7AC48AE
:103C60001C380068C0F340000028EFD000BFB4F853
:103C7000400000F44070B0F5407F0DD1A448843876
:103C8000006820F4F810A54A216C11400843A049AF
:103C90008439086008E013E09D488438006820F407
:103CA000F8109B498439086099481C380068B4F8BA
:103CB0004010C1F30B01084395491C39086000BF4F
:103CC000207800F01000102803D194F8580094498F
:103CD0000860207800F08000802809D18C480830E6
:103CE000006820F44000E16C08438949083108600D
:103CF000207800F04000402809D18548083000684D
:103D000020F08060A16C0843814908310860208858
:103D100000F48070B0F5807F0FD17D4808300068D6
:103D200020F00060616D0843794908310860606DDA
:103D3000B0F1006F01D101200190208800F40070E3
:103D4000B0F5007F09D172480830006820F080503B
:103D5000616C08436E4908310860208800F4806077
:103D6000B0F5806F0FD16A480830006820F000502D
:103D7000216D0843664908310860206DB0F1005F8D
:103D800001D1012002900298012803D02068B0F5EB
:103D9000006F7DD1002063498866FEF715F805465F
:103DA00006E0FEF711F8401B022801D9032024E7A2
:103DB00057488C380068C0F3C0600028F1D12078E3
:103DC00000F0010008B1A06B30B1207800F00200D3
:103DD00002281ED1E06BE0B94D4808380068C0F3F6
:103DE0000140401C47004A4808380068C0F3036897
:103DF000D4E9011041EA80100121C1EB570140EAEA
:103E0000014040EA0861207D41EA007040490839DC
:103E10000860207800F00400042803D1206BB0F57E
:103E2000801F08D0207800F00800082829D1606B96
:103E3000B0F5800F25D1364808380068C0F301403E
:103E4000401C4700324808380068C0F30279D4E9C2
:103E5000011041EA80100121C1EB570140EA014104
:103E6000207C41EA006040EA09702949083908606D
:103E70002748006820F01F00A16A491E0843244912
:103E80000860208800F48060B0F5806F23D100E0E6
:103E90005BE0206DB0F1005F1DD11D48083800685F
:103EA000C0F30140401C4FEA400819480838006838
:103EB000C0F30279D4E9011041EA80110122E068DF
:103EC000C2EB500041EA004040EA086040EA097055
:103ED0000F4908390860208800F40060B0F5006FD1
:103EE00012D1D4E9011041EA80110122E068C2EB4D
:103EF000500041EA0041207C41EA0061207D41EA16
:103F000000700349083908600120064988660BE003
:103F10008C38024000700040400E4742FFFCFF0F0B
:103F2000E011474200004742FDF74EFF054606E01C
:103F3000FDF74AFF401B022801D903205DE64148F6
:103F40000068C0F3C0600028F2D00198012877D142
:103F500000203D490867FDF737FF054606E0FDF7FD
:103F600033FF401B022801D9032046E6354800688C
:103F7000C0F340700028F2D1207800F0040004283B
:103F800001D1206B30B1207800F00800082824D13E
:103F9000606B10BB2B4888300068C0F30140401CA8
:103FA0004FEA400AD4E9061041EA80100121C1EB32
:103FB0005A0140EA01412420005D41EA00602149A4
:103FC00088310860081D006820F4F851E06A401E3E
:103FD00041EA00201B498C310860208800F4807081
:103FE000B0F5807F17D1606DB0F1006F13D1154827
:103FF00088300068C0F3036BD4E9061041EA8011F1
:104000000122206AC2EB500041EA004040EA0B6006
:104010000C498831086001200B490867FDF7D4FE80
:10402000054607E0FDF7D0FE401B022802D9032019
:10403000E3E505E003480068C0F340700028F1D0D4
:104040000020DAE5003802400000474270B504461F
:104050000D460CB9012070BD5848006800F00F00F3
:10406000A84209D255490D700846006800F00F00BB
:10407000A84201D00120EEE7207800F002000228DB
:104080001DD1207800F00400042805D14C480068B8
:1040900040F4E0504A490860207800F00800082801
:1040A00005D14748006840F46040454908604448ED
:1040B000006820F0F000A1680843414908602078BA
:1040C00000F00100A8B36068012807D13C48083817
:1040D0000068C0F34040B8B90120BCE7606802281E
:1040E00002D06068032807D1354808380068C0F35B
:1040F000406048B90120AEE7314808380068C0F395
:10410000400008B90120A6E72D48006820F0030010
:10411000616808432A490860FDF756FE064609E033
:10412000FDF752FE801B41F28831884202D90320FC
:1041300091E707E02248006800F00C006168B0EBEE
:10414000810FEDD11D48006800F00F00A84209D989
:104150001A490D700846006800F00F00A84201D00F
:10416000012078E7207800F00400042807D11448E3
:10417000006820F4E050E1680843114908602078A5
:1041800000F00800082808D10D48006820F46040BD
:10419000216940EAC1000A49086000F03FF8084977
:1041A0000968C1F30311074A515CC8400649086019
:1041B00006480068FEF7E6FA00204CE7003C0240A3
:1041C000083802403C880008A00000209800002029
:1041D0000148006870470000A000002000B5FFF70C
:1041E000F7FF04490968C1F38221034A515CC840C2
:1041F00000BD0000083802404C88000800B5FFF7F9
:10420000E7FF04490968C1F34231034A515CC840E1
:1042100000BD0000083802404C8800082DE9F04736
:10422000002400250026A146A2463F48006800F071
:104230000C0030B1042807D0082808D00C286BD116
:1042400038E0DFF8E8A06AE0DFF8E4A067E036488D
:10425000001F006800F03F043348001F006800F4AE
:10426000800078B132483049091F0968C1F38811CC
:10427000A0FB01700146224600233846FCF742F8B5
:1042800005460DE029482849091F0968C1F388112E
:10429000A0FB0171224600233846FCF733F805469F
:1042A0002148001F0068C0F30140401C4600B5FBD8
:1042B000F6FA34E01C48001F006800F03F041A487A
:1042C000001F006800F4800078B119481649091FE2
:1042D0000968C1F38811A0FB017001462246002342
:1042E0003846FCF70FF805460EE010480E49091F46
:1042F0000968C1F38811A0FB017001462246002322
:104300003846FBF7FFFF05460748001F0068C0F36B
:104310000279B5FBF9FA02E0DFF810A000BF00BF98
:104320005046BDE8F0870000083802400024F40041
:1043300000127A00F8B504460CB90120F8BD2078C7
:1043400000F0010000286FD0FE48006800F00C006B
:1043500004281BD0FB48006800F00C00082807D197
:10436000F848001F006800F48000B0F5800F0DD001
:10437000F448006800F00C000C2813D1F148001F2D
:10438000006800F48000B0F5800F0BD1ED480838CC
:104390000068C0F34040002859D06068002856D11A
:1043A0000120CBE700BF6068B0F5803F08D1E54849
:1043B0000838006840F48030E249083908601EE09F
:1043C0006068B0F5A02F0DD1DE480838006840F4D1
:1043D0008020DC49083908600846006840F48030D5
:1043E00008600CE0D7480838006820F48030D549D0
:1043F000083908600846006820F48020086000BF83
:10440000606890B1FDF7E0FC054606E0FDF7DCFCD6
:10441000401B642801D9032090E7CA480838006887
:10442000C0F340400028F1D011E0FDF7CDFC054677
:1044300006E0FDF7C9FC401B642801D903207DE795
:10444000C04808380068C0F340400028F1D1207807
:1044500000F0020002286BD1BA48006800F00C009E
:10446000B8B1B848006800F00C00082805D1B5487C
:10447000001F006800F4800058B1B248006800F0E6
:104480000C000C281CD1AF48001F006800F480000D
:10449000B0B9AC4808380068C0F3400020B1E0680B
:1044A000012801D0012049E7A6480838006820F01B
:1044B000F800216940EAC100A2490839086037E0E4
:1044C000E06800B30120A0490860FDF77DFC0546C7
:1044D00006E0FDF779FC401B022801D903202DE7F7
:1044E000984808380068C0F340000028F1D095488B
:1044F0000838006820F0F800216940EAC1009149BD
:104500000839086014E000208F490860FDF75CFC62
:10451000054606E0FDF758FC401B022801D90320A0
:104520000CE7884808380068C0F340000028F1D143
:10453000207800F0080008282CD16069A8B101207B
:1045400082490860FDF740FC054606E0FDF73CFCAB
:10455000401B022801D90320F0E67A486C3000683D
:10456000C0F340000028F1D014E000207749086033
:10457000FDF72AFC054606E0FDF726FC401B022855
:1045800001D90320DAE66F486C300068C0F34000C0
:104590000028F1D1207800F00400042870D1002711
:1045A00068483830006800F0805090B900BF0020A3
:1045B000009064483830006840F0805061493831DC
:1045C00008600846006800F08050009000BF00BFFF
:1045D00001275F48006800F48070B0B95C4800684B
:1045E00040F480705A490860FDF7EEFB054606E08E
:1045F000FDF7EAFB401B022801D903209EE6544840
:10460000006800F480700028F2D000BFA068012884
:1046100008D14C486830006840F0010049496831D1
:1046200008601DE0A06805280DD146486830006884
:1046300040F004004349683108600846006840F0D3
:10464000010008600CE03F486830006820F001007D
:104650003C49683108600846006820F004000860A2
:1046600000BFA068A8B1FDF7AFFB054609E0FDF764
:10467000ABFB401B41F28831884202D903205DE642
:1046800026E0304868300068C0F340000028EED0D3
:1046900013E0FDF799FB054608E0FDF795FB401B8D
:1046A00041F28831884201D9032047E62548683025
:1046B0000068C0F340000028EFD1012F07D1214846
:1046C0003830006820F080501E493831086000BF43
:1046D000A069002851D01B48006800F00C00082891
:1046E00061D0A069022849D1002017490866FDF76A
:1046F0006BFB054606E0FDF767FB401B022801D96E
:1047000003201BE60F4808380068C0F3406000280B
:10471000F1D1D4E907010843616A40EA811101221D
:10472000A06AC2EB500041EA00412C20005D41EA42
:1047300000613020005D41EA00700249091F0860F5
:10474000012007E00838024000004742800E47423F
:10475000007000402F490866FDF736FB054606E06D
:10476000FDF732FB401B022801D90320E6E52A4869
:104770000068C0F340600028F2D048E000202549DE
:104780000866FDF721FB054606E0FDF71DFB401B13
:10479000022801D90320D1E51F480068C0F340601A
:1047A0000028F2D133E0A069012800D1C6E51A48FB
:1047B000001D0668A069012827D006F48001E06981
:1047C000814222D106F03F01206A81421DD147F685
:1047D000C0703040616AB0EB811F16D106F44031E1
:1047E0000122A06AC2EB5000B1EB004F0DD106F0E0
:1047F00070612C20005DB1EB006F06D106F0E04146
:104800003020005DB1EB007F01D0012096E5002053
:1048100094E50000000047420038024070B50446AD
:104820002546681EB0F1807F01D301200FE0681E8D
:104830004FF0E02148610F214FF0FF3003F034FFCB
:1048400000204FF0E021886107200861002070BD42
:1048500010B504460CB9012010BDA06900B100E0FC
:1048600000BF94F8410028B9002084F84000204699
:1048700000F02AF8242084F841002068C06820F461
:1048800000502168C860204601F058F9206800698E
:1048900020F49040216808612068406920F02A00D7
:1048A000216848612068C06840F400502168C860F1
:1048B00000206064202084F8410084F84200002039
:1048C000606300BFC8E7000010B586B0044614213D
:1048D00001A8FBF7E8FE1B492068884230D100BFE1
:1048E000002000901848006840F010001649086049
:1048F0000846006800F01000009000BF00BF00BF35
:104900000020009010481438006840F001000E4963
:10491000143908600846006800F00100009000BFEC
:1049200000BF4FF4C060019002200290002003906D
:10493000032004900720059001A90448FDF74CF9D5
:1049400006B010BD00100140443802400000024093
:1049500000BFFEE7014608684069C0F38020B0B19F
:104960006FF480600A68506100200863202081F89D
:104970003D00002081F83E00086C40F0040008640F
:1049800000BF002081F83C0000BF012070470020DC
:10499000FCE700002DE9F84304460D46174698460B
:1049A000E66A082E04D0012E02D016F5803F06D10B
:1049B0002068006840F480702168086008E0206B7F
:1049C000122805D12068006840F4807021680860D2
:1049D0003B4600224FF001112046CDF8008000F048
:1049E0001CF960B12068006800F48070B0F5807F29
:1049F00002D14FF4007020640320BDE8F8832069E1
:104A0000B0F5804F04D105F0FE002168086112E086
:104A100005F44070F02141EAE01021680861434646
:104A20003A460B49204600F057F908B10120E4E767
:104A3000E8B22168086143463A460549891F204685
:104A400000F04AF908B10120D7E70020D5E70000BF
:104A5000080001002DE9F84304460F461546994623
:104A6000DDE908862068006840F4806021680860FD
:104A70002068006840F48070216808604346002286
:104A80004FF001112046009600F0C7F860B1206891
:104A9000006800F48070B0F5807F02D14FF40070A0
:104AA00020640320BDE8F88307F0FE002168086158
:104AB000334642463E49204600F00EF908B1012037
:104AC000F0E700BF00200090206840690090206857
:104AD0008069009000BF00BF32464146204600F08A
:104AE000BDF950B1206C042805D12068006840F45D
:104AF0000070216808600120D4E7B9F1010F03D1EB
:104B0000E8B22168086117E0C5F307202168086151
:104B100032464146204600F0A1F950B1206C0428ED
:104B200005D12068006840F4007021680860012009
:104B3000B8E7E8B22168086132464146204600F0F5
:104B40008DF950B1206C042805D12068006840F42C
:104B50000070216808600120A4E72068006840F424
:104B6000807021680860434600224FF00111204602
:104B7000009600F052F858B12068006800F4807088
:104B8000B0F5807F02D14FF400702064032089E7E4
:104B9000F8B240F0010021680861334642460449FA
:104BA000204600F099F808B101207BE7002079E762
:104BB0000200010070B504460D46164625E0204669
:104BC000FFF7C8FE08B1012070BD681CE8B1FDF711
:104BD000FBF8801BA84200D8BDB920684069C0F32B
:104BE000800090B900202063202084F83D00002040
:104BF00084F83E00206C40F02000206400BF0020BC
:104C000084F83C0000BF0120DEE720684069C0F363
:104C100080000028D3D00020D6E72DE9F0410446DB
:104C20000D4617461E46DDF8188038E0701CA8B304
:104C3000FDF7CAF8A0EB0800B04200D876BBC5F378
:104C4000074001280AD120684069A9B20840A9B2EA
:104C5000884201D101200BE0002009E02068806932
:104C6000A9B20840A9B2884201D1012000E0002089
:104C7000B84214D100202063202084F83D00002099
:104C800084F83E00206C40F02000206400BF00202B
:104C900084F83C0000BF0120BDE8F081FFE7C5F3C8
:104CA000074001280AD120684069A9B20840A9B28A
:104CB000884201D101200BE0002009E020688069D2
:104CC000A9B20840A9B2884201D1012000E0002029
:104CD000B842ABD00020DFE72DE9F04104460D4695
:104CE00016461F4658E020684069C0F38020E8B1AE
:104CF0002068006840F40070216808606FF48060EC
:104D00002168486100202063202084F83D000020B5
:104D100084F83E00206C40F00400206400BF0020B6
:104D200084F83C0000BF0120BDE8F081701C90B306
:104D3000FDF74AF8C01BB04200D866BBC5F3074078
:104D400001280AD120684069A9B20840A9B2884266
:104D500001D101200BE0002009E020688069A9B2A0
:104D60000840A9B2884201D1012000E0002090B99A
:104D700000202063202084F83D00002084F83E00BD
:104D8000206C40F02000206400BF002084F83C002C
:104D900000BF0120C8E7FFE7C5F3074001280AD19B
:104DA00020684069A9B20840A9B2884201D1012017
:104DB0000BE0002009E020688069A9B20840A9B290
:104DC000884201D1012000E0002000288BD0002083
:104DD000AAE770B504460D46164637E020684069DC
:104DE000C0F30010A0B16FF01000216848610020EE
:104DF0002063202084F83D00002084F83E00206CD1
:104E0000206400BF002084F83C0000BF012070BD7A
:104E1000FCF7DAFF801BA84200D8BDB920684069C2
:104E2000C0F3801090B900202063202084F83D005A
:104E3000002084F83E00206C40F02000206400BF79
:104E4000002084F83C0000BF0120E0E720684069B2
:104E5000C0F380100028C1D00020D8E770B5044608
:104E60000D46164625E02046FFF774FD08B10120E7
:104E700070BD681CE8B1FCF7A7FF801BA84200D8F2
:104E8000BDB920684069C0F3C01090B9002020630C
:104E9000202084F83D00002084F83E00206C40F083
:104EA0002000206400BF002084F83C0000BF0120E7
:104EB000DEE720684069C0F3C0100028D3D000208E
:104EC000D6E71CB5044620688068019094F841003C
:104ED000042830D1019800F0010038B12068406802
:104EE000C0F3801010B1204600F059F8019800F08E
:104EF000400040281FD120684068C0F34010D0B166
:104F00002068406820F060002168486000BF0020F1
:104F100000902068C068009020688068009000BF02
:104F200000BF012084F84100606C40F00200606422
:104F30002046FDF7B7FA94F8410003282ED10198D6
:104F400000F00200022807D120684068C0F3C010BA
:104F500010B1204600F03EF8019800F00800082843
:104F60001CD120684068C0F34010B8B12068406888
:104F700020F0A0002168486000BF00200090206859
:104F80008068009000BF00BF012084F84100606C81
:104F900040F0040060642046FDF784FA1CBD10B5A3
:104FA00004462068C068E16A0880E06A801CE0620C
:104FB000608E401E6086608E58B92068406820F080
:104FC000600021684860012084F841002046FDF718
:104FD00097FB10BD10B50446606A00882168C86060
:104FE000606A801C6062608D401E6085608D58B96B
:104FF0002068406820F0A00021684860012084F803
:1050000041002046FDF792FB10BD0000F8B50446B4
:105010000E461546266025710A20FCF7C9FD6A4632
:105020007521204600F000F908B10120F8BD9DF877
:105030000000472801D00120F8E701221121204675
:1050400000F012F908B10120F0E70A20FCF7B0FDEA
:105050000F224E21204600F007F908B10120E5E7B4
:105060000120FCF7A5FD06224F21204600F0FCF8A8
:1050700008B10120DAE706225021204600F0F4F8BA
:1050800008B10120D2E79FED050A84ED020A9FEDE9
:10509000040A84ED030A0020C8E7000000007A3DFE
:1050A0000000003A2DE9F04788B004460D46164648
:1050B00099460E2304AA1D21204600F0C5F880461B
:1050C000B8F1000F0ED0424651A15548FBF792F9B6
:1050D00082461FFA8AF15248FCF720FB404608B08E
:1050E000BDE8F0879DF811009DF8101040EA0120FE
:1050F00007B200EE107AF8EEC00A9FED4A1A80EE71
:10510000810AF3EE090A30EE200A89ED000A9DF8C3
:1051100013009DF8121040EA012000B2ADF808001B
:105120009DF815009DF8141040EA012000B2ADF87A
:105130000A009DF817009DF8161040EA012000B201
:10514000ADF80C00BDF9080000EE100AB8EEC00A78
:10515000D4ED030A20EE200A85ED000ABDF90A000D
:1051600000EE100AB8EEC00AD4ED030A20EE200AC1
:1051700085ED010ABDF90C0000EE100AB8EEC00A78
:10518000D4ED030A20EE200A85ED020A9DF81900ED
:105190009DF8181040EA012000B2ADF800009DF81B
:1051A0001B009DF81A1040EA012000B2ADF8020081
:1051B0009DF81D009DF81C1040EA012000B2ADF8DA
:1051C0000400BDF9000000EE100AB8EEC00AD4EDEC
:1051D000020A20EE200A86ED000ABDF9020000EE68
:1051E000100AB8EEC00AD4ED020A20EE200A86EDBD
:1051F000010ABDF9040000EE100AB8EEC00AD4EDB1
:10520000020A20EE200A86ED020A002067E700006D
:105210004572726F72547970653A25640A00000015
:10522000D4030020E17A0443FEB504460D46164639
:1052300032200121CDE900610290217901232A4623
:105240002068FCF767FFFEBDFEB504460D46164616
:105250001F463220CDE900670290217901232A46BA
:105260002068FCF757FFFEBD7CB504460D46164688
:105270008DF804508DF805603220009021790223CA
:1052800001AA2068FCF78EFE7CBD30B50B460021DC
:1052900000BF16E00A24B4EB107F05D9302404EBDC
:1052A000107403F8114005E0412404EB10740A3C2B
:1052B00003F81140000100254C00641C1D554C1CD6
:1052C000E1B29142E6DB30BD024602B109B90120EC
:1052D000704711600020107350735060906000BFE1
:1052E000F6E7000008B500BF002000900A480068FB
:1052F00040F48000084908600846006800F4800017
:10530000009000BF00BF002205213820FDF798FA69
:105310003820FDF781FA08BD3038024000B587B06B
:10532000142102A8FBF7BFF900BF00200190264816
:10533000006840F08000244908600846006800F0DA
:105340008000019000BF00BF00BF00200190084610
:10535000006840F0040008600846006800F004009F
:10536000019000BF00BF00BF002001900846006808
:1053700040F0010008600846006800F0010001905C
:1053800000BF00BF00BF002001900846006840F049
:10539000020008600846006800F00200019000BFAB
:1053A00000BF002207210948FCF708FD07200290F2
:1053B0000120039000200490059002A90348FCF707
:1053C0000BFC07B000BD000030380240000802406E
:1053D00010B50B480B4908600B484860002109488C
:1053E0008160C1604FF480410161002141618161B0
:1053F000C1610162FCF7EEFC08B1FCF725FA10BDB3
:105400000054004054040020801A060010B50D48D6
:105410000D4908604FF44070486000210A488160DF
:105420000321C160002101614FF4FA514161002163
:105430008161C1610162FDF737F808B1FCF704FA38
:1054400010BD000000300140A804002010B50B483A
:105450000B4908604FF4E130486000210848816042
:10546000C16001610C21416100218161C161FFF7CF
:10547000EFF908B1FCF7E8F910BD00000010014099
:105480005005002010B500220D490E4801F006FB22
:1054900008B1FCF7D9F90C490A4801F042FE08B1FD
:1054A000FCF7D2F90949074800F0DCFE08B1FCF727
:1054B000CBF9044801F038FF08B1FCF7C5F910BD7D
:1054C0002000002098050020B4000020800000206B
:1054D00000BFFEE710B53AA13E48FBF7A1F83D48F2
:1054E000FBF7C2F884B221463A48FCF717F900F0FE
:1054F00085FA39A13748FBF793F83648FBF7B4F83B
:1055000084B221463348FCF709F94FF47A70FCF76E
:105510004FFB36A12F48FBF783F82E48FBF7A4F882
:1055200084B221462B48FCF7F9F86420FCF740FBD5
:1055300033493448FFF7C8FE33A12648FBF770F81B
:105540002448FBF791F884B221462248FCF7E6F89C
:105550006420FCF72DFB31A11E48FBF761F81D48C4
:10556000FBF782F884B221461A48FCF7D7F864208A
:10557000FCF71EFBD0222E492E48FFF747FD2EA137
:105580001448FBF74DF81348FBF76EF884B2214638
:105590001048FCF7C3F86420FCF70AFB2BA10D4868
:1055A000FBF73EF80B48FBF75FF884B22146094849
:1055B000FCF7B4F84FF4FA70FCF7FAFA10BD0000EB
:1055C0005247425F4C45445F496E69742E2E2E0A45
:1055D00000000000540100205247425F4C45445FE8
:1055E000496E6974204F4B0A00000000494E49542F
:1055F0003A4D4943524F50484F4E452E2E2E0A00E9
:10560000A804002044010020494E49543A4D494322
:10561000524F50484F4E45204F4B0A00494E495477
:105620003A49434D34323638382E2E2E0A000000C7
:105630005404002034010020494E49543A49434D56
:105640003432363838204F4B0A0000003D3D3D3D96
:105650003D3D3D3D3D3D20414C4C2053454E534F3B
:105660005253205245414459203D3D3D3D3D3D3D35
:105670003D3D3D0A000000002DED0E8B94B0002052
:105680001190129013900E900F9010909FED300A91
:105690008DED0D0A5BE00DAB0EAA11A92D48FFF7A9
:1056A00001FD0D9803F04EF841EC180B9DED100A2A
:1056B00010EE101A084603F045F841EC190B9DED69
:1056C0000F0A10EE101A084603F03CF841EC1A0BD2
:1056D0009DED0E0A10EE101A084603F033F841EC67
:1056E0001B0B9DED130A10EE101A084603F02AF862
:1056F00041EC1C0B9DED120A10EE101A084603F047
:1057000021F841EC1D0B9DED110A10EE101A084610
:1057100003F018F841EC1E0B0F4840680C908DED1B
:105720000A8B8DED089B8DED06AB8DED04BB8DEDE9
:1057300002CB8DED00DB53EC1E2B08A11148FAF7CC
:1057400059FE0446A1B20F48FBF7E8FF00BFA2E7ED
:10575000000000003401002044010020252E3266A4
:105760002C252E32662C252E32662C252E32662CC8
:10577000252E32662C252E32662C252E32662C25BF
:10578000640A0000D401002000BFFEE710B5024803
:10579000FDF7C0FA10BD0000741A00202DE9F04793
:1057A00004460D4626683746D6F8408007F5306037
:1057B00000EB4510D0F80890104880450BD909F44B
:1057C0000040B0F5004F06D14FF4004107F53060BE
:1057D00000EB451081602046FDF78EFF07488045AD
:1057E00008D9A079012805D104F29C420121206842
:1057F00002F04EFA0020BDE8F08700000A30544F56
:105800002DE9F04705460C46D5F800904E46D9F8EC
:1058100040A006F5306000EB4410D0F80880A8796D
:10582000012855D108F0080008280FD143488245C7
:105830000BD908F40040B0F5004F7BD14FF4004184
:1058400006F5306000EB4410816073E008F0200042
:10585000202806D1202106F5306000EB441081603D
:1058600068E008F02800002864D1344882450CD94B
:1058700008F40040B0F5004F07D14FF4004106F5A1
:10588000306000EB4410816054E004EBC40105F586
:10589000157000EB810706F5306000EB4410396AA3
:1058A0000069C0F31200081A786164B9386930B928
:1058B00005F29C420121286802F0EAF903E07969C7
:1058C000F8680844F860E1B22846FDF79AF831E03C
:1058D0001B4882451BD108F40040B0F5004F07D1AA
:1058E0004FF4004106F5306000EB4410816021E088
:1058F00008F02000202805D1202106F5306000EBBB
:1059000044108160E1B22846FDF77BF812E06CB9E3
:1059100004EBC40105F5157000EB8100006928B99E
:1059200005F29C420021286802F0B2F9E1B2284653
:10593000FDF767F80020BDE8F08700000A30544FFB
:105940000A31544F2DE9F84F07460E46D7F800901C
:10595000C84606EBC60107F1140000EB8104D4E948
:105960000410884202D90120BDE8F88FD4E904016F
:10597000451AA068A84200D2A568E81C4FEA900A20
:1059800017E0D4E90401451AA068A84200D2A5682E
:10599000E81C4FEA900AB879ABB2F2B200904846E0
:1059A000E16802F03DFEE0682844E0606069284458
:1059B000606108F5106000EB4610806980B25045C8
:1059C00006D3D4E90410884202D220690028D8D135
:1059D000D4E9040188420ED806F00F01012000FA34
:1059E00001FB40F6340050F8080020EA0B0040F6B6
:1059F000340141F808000020B6E7704700B587B0D1
:105A0000142102A8FAF74FFE00BF002001900F48B2
:105A1000006840F004000D4908600846006800F086
:105A20000400019000BF00BF0720029001200390F6
:105A300000200490059002A90548FCF7CDF800224B
:105A400007210348FCF7BAF907B000BD303802401F
:105A500000080240704730B501460A461378521CD0
:105A6000147843EA042030BD10B5FCF761FE10BD88
:105A700000B593B0342106A8FAF715FE142101A849
:105A8000FAF711FE00BF002000902548006840F0A2
:105A90008050234908600846006800F0805000905C
:105AA00000BF00BF00BF002000901E48006820F427
:105AB000404040F480401B4908600846006800F4FC
:105AC0004040009000BF00BF0120069000040790F6
:105AD00002200C9041050D9104210E9148210F9157
