:020000040800F2
:1000000078700020C9020008595A000845440008C9
:1000100031590008FF150008517900080000000060
:10002000000000000000000000000000315C00083B
:100030003117000800000000D75B00083D5C000895
:10004000E3020008E3020008E3020008E3020008FC
:10005000E3020008E3020008E3020008E3020008EC
:10006000E3020008E3020008E30200087516000836
:10007000E3020008E302000881160008E30200081A
:10008000E3020008E3020008E3020008E3020008BC
:10009000E3020008E3020008E3020008E3020008AC
:1000A000E3020008E3020008E3020008E30200089C
:1000B000E3020008E3020008E302000855440008D8
:1000C00049440008E3020008E3020008E3020008D4
:1000D000255C0008E3020008E3020008E3020008D0
:1000E000E3020008E3020008E3020008E30200085C
:1000F000E3020008E3020008E3020008E30200084C
:10010000E3020008E3020008E3020008E30200083B
:10011000E3020008E3020008E3020008E30200082B
:10012000E3020008E3020008E3020008E30200081B
:10013000E30200080000000000000000E3020008E5
:10014000E3020008E3020008E30200085D5A000829
:10015000E3020008E3020008E3020008E3020008EB
:10016000E3020008E3020008E3020008E3020008DB
:10017000E3020008E3020008E302000800000000B8
:1001800000000000E3020008000000000000000082
:10019000E30200080000000000000000E302000885
:1001A000000000000000000000000000E302000862
:1001B000E3020008E3020008E3020008E30200088B
:1001C000E302000800F002F800F06FF80AA090E8DF
:1001D000000C82448344AAF10107DA4501D100F002
:1001E00064F8AFF2090EBAE80F0013F0010F18BF60
:1001F000FB1A43F001031847B87A0000D87A0000D0
:100200000A444FF0000C10F8013B13F0070408BF3C
:1002100010F8014B1D1108BF10F8015B641E05D0DA
:1002200010F8016B641E01F8016BF9D113F0080F8F
:100230001EBF10F8014BAD1C0C1B09D16D1E58BF21
:1002400001F801CBFAD505E014F8016B01F8016B58
:100250006D1EF9D59142D6D37047000000230024CB
:1002600000250026103A28BF78C1FBD8520728BFC6
:1002700030C148BF0B607047662907F0B38464291A
:1002800000F0D080752900F0CD80002070471FB5A8
:1002900007F0A3FC00F076FC04000020002107F02A
:1002A0000FFCE0601FBD10B510BD00F06BFD1146E6
:1002B000FFF7EDFF07F0ECFB00F089FD03B4FFF75B
:1002C000F2FF03BC00F0CCFD094880470948004715
:1002D000FEE7FEE7FEE7FEE7FEE7FEE7FEE7FEE7F6
:1002E000FEE7FEE704480549054A064B7047000053
:1002F000D95C0008C5010008782000207870002033
:10030000783000207830002053EA020C00F0698039
:100310002DE9F04B4FF00006002B1FBFB3FA83F519
:1003200003FA05F424FA05F65E4012BF1643B2FA4A
:1003300082F502FA05F4C5F120051EBF22FA05FC7C
:1003400044EA0C04203556EA044C4FEA144418BF22
:10035000641C4FF000084FF00009904271EB030C51
:1003600039D3002919BFB1FA81F701FA07F6B0FABB
:1003700080F700FA07F6C7F120071EBF20FA07FC36
:1003800046EA0C062037B6FBF4FCA7EB0507103F46
:1003900007F01F0BCBF120060CFA0BFB2CFA06F62C
:1003A00044BFB3460026202FA4BF5E464FF0000B8B
:1003B0005BEA060C08BF4FF0010B19EB0B09ABFB16
:1003C000027C48EB0608C01B06FB02CC0BFB03CCEF
:1003D00071EB0C01C1E70B46024641464846BDE8B9
:1003E000F08B13B54FF000004FF00001AFF3008029
:1003F000BDE81C40704700000FB41CB5084B06AAAE
:100400007B4469460090059800F0A3FB0446002059
:10041000694600F0B1FB20461CBC5DF814FB0000EF
:10042000750700002DE9F041064600241068752983
:10043000314616A510D0AFF30080002802DA404202
:1004400013A507E031688A0701D512A502E0490724
:1004500004D511A5012401E0AFF3008000210A2298
:1004600006F1240709E0B0FBF2FCB0FBF2F302FB5B
:100470001C00303078541846491C0028F3D123461C
:100480002A463046BDE8F04100F0F6B80000000012
:100490002D0000002B000000200000002DE9F05F7F
:1004A000894604464FF0000ADFF874B1FB44C0F8F7
:1004B00020A02046E1688847002874D0252806D06F
:1004C000D4E901219047206A401C2062F1E7002610
:1004D0005F462046E16888472028054607DB312D26
:1004E00005D2781910F8200C08B10643F1E7B007DF
:1004F00001D526F00406C4F81CA00027C4F818A0F3
:100500002A2D09D0284607F0BCFA38B304EB870837
:10051000303DC8F8185019E059F8041B204604EB88
:1005200087029161E1688847012F054618D1E0698B
:10053000002820DA26F020061DE0D8F8180000EB8D
:10054000800005EB40003038C8F818002046E1680C
:100550008847054607F095FA0028EED1012F0AD00A
:100560002E2D08D12046E16888477F1C0546022FC2
:1005700046F02006C4DBA069002803DA404246F0BA
:100580000106A061F00701D026F010066C2D0BD0FB
:10059000682D09D04C2D39D06A2D35D0742D35D029
:1005A0007A2D33D016E038E0E1682F4620468847A0
:1005B000B842054609D16C2F26D04FF48060E1681F
:1005C000064320468847054604E06C2F1AD04FF4B6
:1005D000807006430DB3A5F14100192802D82035DB
:1005E00046F400664A462946204626604E46FFF7F6
:1005F00043FE80B101280BD0F61D26F0070000F164
:10060000080956E74020E4E78020D8E70020D6E735
:1006100006F104094DE7284652E7206ABDE8F09F3D
:10062000587700004FF0000200B5134694469646F6
:10063000203922BFA0E80C50A0E80C50B1F12001F5
:10064000BFF4F7AF090728BFA0E80C5048BF0CC0A3
:100650005DF804EB890028BF40F8042B08BF704701
:1006600048BF20F8022B11F0804F18BF00F8012B73
:1006700070477047704770472DE9F0470D4699461F
:100680009246044600F124080168880604D5E06912
:1006900021F01001216000E00120A84201DD471B8C
:1006A00000E00027A1697A1902EB0900081AA0618D
:1006B0002078C00602D42046AFF30080002608E070
:1006C000D4E901211AF806009047206A401C761CE4
:1006D00020624E45F4DB2078C0060AD52046AFF3F1
:1006E000008006E0D4E9012130209047206A401CB8
:1006F0002062381EA7F10107F4DC07E0D4E90121EC
:1007000018F805009047206A401C2062281EA5F1B9
:100710000105F3DC2046AFF300802078000602D507
:100720000220BDE8F0870120FBE770472DE9FF4F6D
:100730000C461E464FF0FF378BB0D2E90001DDF8C2
:1007400060800A908A46C1F30A5505B93D460021EA
:1007500008464FF00000BAF1000F00F4400005DA3F
:1007600000EB80004FF4400101EA50004FEA90593D
:10077000B9F1010F00DDB9460A9850EA4A000ED0DF
:1007800044F61050A5F2FF3545432F14B8F1000F81
:100790001ED07542291E1EDDC9F100021CE0B8F111
:1007A000010F4FF0000001D0302103E0F24305E0DB
:1007B0002154401CB042FBDB304600220021215472
:1007C0000B99C1F80880C1E900200FB0BDE8F08F97
:1007D000BD1B6D1CDEE74A4600DA694206A800F040
:1007E0005BFA06AB93E8070003AB83E807005046CB
:1007F0000A9900F03CFB8DE80700A0F500501F3877
:1008000000900398002D0ADD42F21F014A46084479
:10081000002303A90390684600F0A5FD09E0A0F5B8
:1008200000504A461F38002303A90390684600F091
:10083000AFFD8DE807000004000C03D04FF0FF303F
:10084000410800E01046B8F1000F03D000220092EA
:1008500015461EE0751E05D400F098F93032625539
:100860006D1EF9D5B3460122084302D000227F1C39
:1008700004E02078302801D100227F1E002A099749
:1008800084D01DE0112D07DA00F080F93032625576
:100890006D1C50EA0102F5D1084302D00098C8B19E
:1008A0000EE00021681E05E0235C625C6354225464
:1008B000401E491C8142F7DBAB46A81B401E099035
:1008C000002004F80B000B98099AC0F80880C0E9D2
:1008D000002B7AE711264FF0000857E72DE9F04F7B
:1008E00088460446D21D22F0070191B0D1E90001EB
:1008F000CDE90A0107F09DF802460B98C00F01D020
:100900002D2007E02068810701D52B2002E020215F
:1009100001EAC000032A099001D0072A05DB03463B
:100920004146204600F078F90BE12078800601D599
:10093000E06900E00620B8F1650F814606D0B8F105
:10094000660F18D0B8F1670F70D131E00020B9F10F
:10095000110F009001DB112301E009F101030AAA44
:1009600001A90CA8FFF7E2FEDDE90C70002609F1F1
:100970000105834647E001204B4600904FF00047B9
:100980000AAA01A90CA8FFF7D1FEDDE90DB00C9968
:100990005D46002610B909F101000D18B9EB0500FC
:1009A00003D4C0F1FF3609F10105A5EB09002BE0E6
:1009B000B9F1010F01DA4FF001090020B9F1110F6F
:1009C0000090484601DD112300E003460AAA01A970
:1009D0000CA8FFF7ABFEDDE90C704D460026834600
:1009E000207800070AD4AB4500DA5D4601A8012D46
:1009F00004DD411911F8011C302907D04F4502DAF6
:100A000017F1040F04DA012082460FE06D1EEEE7B5
:100A1000002F02DCED1B3E4403E0781CA84200DD01
:100A20007D1CB81B00F1010A4FF000472078000739
:100A300003D4AA4501DB4FF0FF3A0021B7F1004F84
:100A40000DF143088DF8431024D002202B23002FF2
:100A500001DA7F422D230A21021EA0F1010000DCF1
:100A60005FB197FBF1FC97FBF1F201FB1C7C174691
:100A70000CF1300C08F801CDEEE7A8F1010003708D
:100A80002188090501D5452100E06521A0F1010873
:100A900000F8011C09980FA9A1EB0807FF1D00B180
:100AA0000120411901EBEA70A1693844081A401E7F
:100AB000A0612078C00602D42046AFF300800998D8
:100AC00028B1D4E901219047206A401C2062207897
:100AD000C00622D52046AFF300801EE0002E04DBC6
:100AE000B34502DD01A8805D00E03020D4E901219A
:100AF0009047206A401C2062761CAAF101005FEA40
:100B0000000A0AD100F03EF8C0680168405CD4E9F0
:100B100001219047206A401C2062281EA5F1010592
:100B2000DCDC07E0D4E9012118F8010B9047206ACA
:100B3000401C2062381EA7F10107F3DC2046AFF30A
:100B40000080032011B041E601694A1C0261087867
:100B5000704700B58FB0CDE90131002105910549FD
:100B60007944CDE9031011466846FFF797FC0FB0B2
:100B700000BD0000E5FFFFFF0A6802F8010B0A60F4
:100B800070470000004870473820002030B5B0F1B1
:100B90000A024FEA900E71F100034EEA817EB0EB3B
:100BA0000E0061EB91014FEA101E4EEA017E10EB40
:100BB0000E0041EB11114FEA102E4EEA016E10EBC0
:100BC0000E0041EB11214FEA104E4EEA014E10EBA0
:100BD0000E0041EB1141401841F100014FEAD000F5
:100BE00040EA41704FEAD10110EB80054FEA8104E1
:100BF00044EA907444EB01046D1944EB0404521B65
:100C0000A3414FF0000348BF0A3200D530BD401C5D
:100C100041F1000130BD00002DE9F0411F460446BE
:100C200003260168072A01F4006004DB08B116A559
:100C300005E016A503E008B115A500E015A521F013
:100C400010002060A069C01EA0610FB1401EA0610D
:100C50002046AFF300804FB1D4E9012138469047D8
:100C6000206A401C2062C01C206206E0206AFAE76D
:100C7000D4E9012115F8010B9047761EF8D22046E1
:100C8000AFF30080BDE8F0814E414E006E616E0012
:100C9000494E4600696E66002DE9F04781461646CA
:100CA0008AB0354878440DC88DE80D003248784444
:100CB000801C03AC0DC884E80D0041F69B3008444D
:100CC000372190FBF1F290FBF1F5A5F1800501FBD6
:100CD00012041B3C02D56442012000E00020DFF832
:100CE00098A080460027FA44AAF1BE0A0EE0E00769
:100CF0000AD03246684607EB470101230AEB81011F
:100D000000F046FB8DE8070064107F1C002CEED13C
:100D1000194F7F44AE3F19E0E80715D007EB0410E8
:100D20000DF1180A90E80E008AE80E00C068F04243
:100D300001D1981908903246012306A903A800F0B2
:100D400027FB03AB83E807006D10641C002DE3D183
:100D50004FF0010332466946B8F1000F03A802D0F4
:100D600000F001FB01E000F013FBC9E90001C9F844
:100D700008200AB0BDE8F087F06F00000048704717
:100D8000182000207546FFF7F9FFAE4605006946BA
:100D9000534620F00700854618B020B5FFF7A2FAA9
:100DA000BDE820404FF000064FF000074FF000086C
:100DB0004FF0000B21F00701AC46ACE8C009ACE8ED
:100DC000C009ACE8C009ACE8C0098D46704710B551
:100DD0000446AFF300802046BDE81040FFF76EBA2E
:100DE0004FF0013C50F8042B51F8043B9A4221D1BA
:100DF000A2EB0C03934313EACC1317D150F8042B46
:100E000051F8043B9A4215D1A2EB0C03934313EA29
:100E1000CC130BD150F8042B51F8043B9A4209D162
:100E2000A2EB0C03934313EACC13DBD04FF000008A
:100E3000704700BFD01A01BAB1FA81F101F0180170
:100E400022FA01F0CB40C1F12001DBB2C0B2C01ADE
:100E50002CFA01F3D11A914311EAC311E6D170477C
:100E600001491820ABBEFEE72600020070475FEA8A
:100E7000400C08BF91F0000F4FEA8C234FEAC122CB
:100E800043EA51514FEA1C5018BF00F5F0404FEAB9
:100E9000300018BF41F000415FEA6C5C00F029802F
:100EA000BCF1FF3F08BF40F080407047130C06BF05
:100EB00012044FF0100C4FF0000C130E04BF12027E
:100EC0000CF1080C130F04BF12010CF1040C930F6A
:100ED00004BF92000CF1020CD30F04BF52000CF1BE
:100EE000010C11464FF00002A0F11F00A0EB0C0016
:100EF000704711F0004F08BF704731F000413FF4D8
:100F0000D5AF0B0C06BF09044FF0100C4FF0000CCE
:100F10000B0E04BF09020CF1080C0B0F04BF0901F2
:100F20000CF1040C8B0F04BF89000CF1020CCB0FE9
:100F300004BF49000CF1010CCCF12003A0EB0C0024
:100F400022FA03F302FA0CF241EA030100F1010074
:100F5000704720F07F4C80EA030023F07F47ACEB22
:100F6000070303F57C5300F0004003F1FF032DE974
:100F700080494FEA154B09B44FEA144325EA0B4E5A
:100F800024EA03480FF2042606EB132749083E78AB
:100F90005FEA320203FB0667C7F5000707FB06F6A8
:100FA0004FEA54374FEAD64606F1020607FB066CB5
:100FB000CCF1005C4FEA1C472CEA074C07FB06F417
:100FC0000CFB06F504EB15464FEA961634BF0020DD
:100FD0004FF000404FEAD13706FB07FC4FEA1C4CAC
:100FE0000CFB0BF7D21B03FB0CF761EB07010CFBAF
:100FF0000EF7B0EB074072EB17420CFB08F734BF5B
:10100000A2EB0742B2EB074261EB17414FEA0C44F7
:101010004FEA910706FB07FC4FEA1C4C0CFB0BF751
:10102000B0EBC74072EB573203FB0CF734BFA2EBB7
:10103000C742B2EBC74261EB57310CFB0EF7B0EB86
:10104000C70072EB57720CFB08F734BFA2EBC70264
:10105000B2EBC70261EB5771039F4FEA816141EA2E
:10106000921104EBCC044FEAD1374FEA826206FBBF
:1010700007FC42EA90124FEA80604FEA1C4C0CFBDE
:101080000BF7D21B03FB0CF761EB07010CFB0EF710
:10109000B0EB074072EB17420CFB08F734BFA2EB32
:1010A0000742B2EB074261EB17414FEA8C554FEA1A
:1010B000910704EB9C2406FB07FC4FEA1C4C0CFB3D
:1010C0000BF7B0EBC74072EB573203FB0CF734BFA2
:1010D000A2EBC742B2EBC74261EB57310CFB0EF7F4
:1010E000B0EBC70072EB57720CFB08F734BFA2EBF2
:1010F000C702B2EBC70261EB577115EB4C254FEA03
:10110000816141EA92114FEA82624FEAD13742EAA5
:10111000901206FB07FC44F100044FEA80604FEA9E
:101120001C4C0CFB0BF7D21B03FB0CF761EB07010C
:101130000CFB0EF7B0EB074072EB17420CFB08F705
:1011400034BFA2EB0742B2EB074261EB174115EB4C
:101150001C154FEA813141EA92414FEA823242EA5C
:1011600090424FEA80304FEA0C7644F1000448EA9E
:1011700003434EEA0B484FF0000EB2EB080C71EB44
:10118000030724BF624639464EEB0E0E4FF0000BAC
:101190000018524149414BEB0B0BB2EB080C71EBC1
:1011A00003077BF1000B24BF624639464EEB0E0E5F
:1011B0004FF0000B0018524149414BEB0B0BB2EBC7
:1011C000080C71EB03077BF1000B24BF6246394624
:1011D0004EEB0E0E51EA020718BF46F0010616EB61
:1011E0000E7655F1000254F1000103D5BDE88901E6
:1011F000BDE80088BDE88901BDE80048B619524144
:1012000041EB0101A3F10103704780807F7E7D7C6B
:101210007B7A7978777676757473727171706F6E88
:101220006E6D6C6C6B6A6A69686867666665646433
:10123000636362616160605F5F5E5E5D5D5C5C5BBD
:101240005B5A5A595958585757565655555554542C
:10125000535352525251515050504F4F4F4E4E4D8A
:101260004D4D4C4C4C4B4B4B4A4A4A4949494848D6
:101270004847474747464646454545444444444316
:1012800043434342424242414141002B9C4630D4B9
:1012900077002BD01CB54FEA370703B44FF010008E
:1012A0004FF01001BAF1000F06D0BCF1000FDCBF07
:1012B00040F0080040F008014FF000000FBCBDE80E
:1012C00010400BF1010BBBF1010F08BF5FEA1707DC
:1012D00022BF12F1010211F101014FF0004143F16F
:1012E000000300F0004043EA00007047F9D35708BC
:1012F000D0E746EA064613F1400F4FEA16461FDDD7
:1013000013F1200FDFBF16430A46002120335B4252
:10131000BED0C3F1200746EA064602FA07F74FEAB5
:10132000164646EA0706C3F1200722FA03F201FA3D
:1013300007F721FA03F14FF0000342EA0702A7E79B
:1013400046EA020646EA06464FEA164646EA01061D
:10135000BCBF46EA0646360C4FF000034FF00002D1
:101360004FF0000194E72DE9804C9A46934670B403
:1013700091E8380007C831EA400C48BF34EA430C12
:1013800003D5FFF7E6FDFFF780FFF0BCBDE8008C5A
:101390002DE9804C9A46934670B491E8380007C80E
:1013A00010F0804F08BF13F0804F03D100F005F814
:1013B000FFF76BFFF0BCBDE8008C20F07F4780EAB0
:1013C000030023F07F4C07EB0C03A3F57C5300F0E4
:1013D0000040A3F1FE0392F0000F00F0B38095F0FF
:1013E000000F00F077802DE901494FEA11404FEAE4
:1013F000144621EA004800FB06FC24EA064708FBE5
:1014000006F607FB08F800FB07F718EB06484CEB5D
:10141000164C4FEA124B18EB07484FEA15464CEBB7
:10142000174022EA0B4E0BFB06FC25EA06470EFB93
:1014300006F607FB0EFE0BFB07F71EEB064E4CEB0A
:10144000164C4FF000061EEB074E4CEB174B18EBFB
:101450000B0840F1000018EB0E0B58EB000840F1B0
:1014600000008F1A4FF000013CBFC943661B14BF38
:10147000B5EB040C00213CBFC943F61B4FEA1744EF
:101480004EEA8E0E27EA04454FEA1C4704FB07622A
:101490002CEA074C05FB07F70CFB05F604FB0CFCDC
:1014A00016EB074642EB174216EB0C4642EB1C428A
:1014B0001BEB060658EB0202414146EA9E0601D5A7
:1014C000BDE80189B619524141EB0101A3F10103C5
:1014D000BDE801894FEA14454FEA114724EA054661
:1014E00021EA074C05FB07F406FB07F70CFB06F1A6
:1014F00005FB0CFC11EB074144EB17444FEA124784
:1015000011EB0C4144EB1C4422EA074C05FB07F2AB
:1015100006FB07F70CFB06F605FB0CFC16EB074673
:1015200042EB174216EB0C4642EB1C456A1854F18D
:10153000000148BF7047B619524141EB0101A3F1C8
:101540000103704795F0000F37D04FEA11424FEA80
:10155000144721EA024624EA074C02FB07F106FB86
:1015600007F70CFB06F402FB0CFC14EB074441EB01
:1015700017414FEA154714EB0C4441EB1C4125EA97
:10158000074C02FB07F506FB07F70CFB06F602FB10
:101590000CFC16EB074645EB174516EB0C4645EBE6
:1015A0001C42121951F1000148BF7047B61952414F
:1015B00041EB0101A3F1010370474FEA14454FEAE3
:1015C000114724EA054621EA074C05FB07F106FB13
:1015D00007F70CFB06F24FF0000605FB0CFC12EBC4
:1015E000074241EB174112EB0C4251EB1C4148BF43
:1015F0007047921841EB0101A3F101037047FEE728
:10160000002070470020704710B5002204490548AB
:1016100004F0D6FD0449034804F0C5FD002010BDC8
:1016200014110020380400201409002010B50146D0
:10163000034804F0B8FD024804F08EFD002010BD00
:1016400038040020002070470A46094910B5D1F837
:10165000BC1211B1D1F8141209B1012010BD01461C
:10166000034804F0ADFDBDE81040014804F022BE7F
:1016700038040020014800F075B80000E80200209E
:10168000014800F06FB800009003002001681823A3
:10169000CAB2103AB2FBF3F2054B6FF30901032A09
:1016A0009B5CC36500D9091D816508467047000031
:1016B000E87B000810B5014600208B698A6A4FF06C
:1016C000C07453B1B3F5005F15D072B1012A0CD0CC
:1016D000022A0AD0032A09D104E01AB1012A06D04D
:1016E000022A03D1C96AC90100D5012010BDC96A07
:1016F000A142FAD010BD002AF7D0012AF2D0022A66
:10170000F3D0032AF3D010BD30B50468256825F462
:1017100080252560046863608368402B036803D0DC
:1017200099600068C26030BD9A600068C16030BDD9
:10173000704772B6FEE790F83510022903D0802179
:10174000416501207047052180F835100068016867
:1017500021F00101016000207047406D704790F852
:10176000350070472DE9F84304464FF00009CDF8E5
:10177000009063484FF41651A56D0068B0FBF1F777
:101780002E6894F85C10082000FA01F131420FD065
:1017900021680A6852070BD50A6822F004020A6021
:1017A00094F85C108840A860606D40F001006065AE
:1017B00094F85C104FF0010808FA01F0304208D0AC
:1017C00021684969090604D5A860606D40F00200EF
:1017D000606594F85C1004208840304208D021688D
:1017E0000968890704D5A860606D40F00400606551
:1017F00094F85C1010208840304218D021680968A5
:10180000090714D5A86020680168490304D5006859
:10181000000308D5A16C07E00168C90503D401687D
:1018200021F008010160216C09B12046884794F835
:101830005C1020208840304231D021680968C906F8
:101840002DD5A86094F8350005282068016806D0D9
:10185000490347D5006800031DD4616C1CE021F0EA
:10186000160101602068416921F080014161206C0E
:1018700008B9A06C20B12068016821F0080101605E
:1018800094F85C103F208840A86084F8358084F884
:101890003490216D1FE0E16B09B120468847606DEF
:1018A00000282BD0606DC00714D0052084F83500C7
:1018B0002068016821F0010101600098401C00903F
:1018C000B84203D820680068C007F6D184F8358094
:1018D00084F83490E16C002910D001B02046BDE8B6
:1018E000F04308470168C905D5D4016821F010010B
:1018F000016084F8358084F83490CCE7BDE8F88343
:10190000A40000202DE9F041044600F0A3F90646AA
:101910005CB1022084F83500002584F8345020683A
:10192000016821F0010101600DE00120BDE8F081B6
:1019300000F090F9801B052805D920206065032060
:1019400084F83500F2E720680068C007F0D122680B
:10195000116820480140D4E901031843D4E9033653
:101960003343184363691843A3691843E369184371
:10197000236A18430843616A042903D1D4E90B138D
:1019800019430843106020684069666A20F0070127
:1019900030460E43012704280CD1A06A0643E06AB2
:1019A00040B12046FFF786FE20B14020606584F8F4
:1019B0003570BAE7206846612046FFF767FE94F865
:1019C0005C203F2191408160656584F8357000207E
:1019D000ACE700003F8010F02DE9F0410446866D31
:1019E00090F83400002501280DD0012084F834003F
:1019F00094F835700020012F07D084F834000225B8
:101A00002846BDE8F0810220FBE7022784F8357004
:101A100060652046FFF778FE94F85C103F20884010
:101A2000B0602068016841F016010160206C20B1AF
:101A30002068016841F0080101602068016841F0F8
:101A400001010160DCE7000070B5044600F002F916
:101A50000546601C02D004480078044400F0FAF8FF
:101A6000401BA042FAD370BD980000202DE9F84F2A
:101A7000DFF8ACA10022012403254FF00F090AF181
:101A8000040BAAF1040E00BF0B6804FA02F63340FF
:101A9000B3426ED10F7907F00307012F01D0022F57
:101AA00016D187684FEA420805FA08FC27EA0C07B6
:101AB000D1F80CC00CFA08FC4CEA070CC0F808C0BE
:101AC0004768B7430E79C6F3001696403E4346601A
:101AD0000E79F643B6070AD0C6684FEA420C05FAFB
:101AE0000CF7BE438F6807FA0CF73743C7600E79CF
:101AF00006F00306022E10D1D60800EB8608D8F8AF
:101B0000206057074FEAD76C09FA0CF7BE430F69FC
:101B100007FA0CF73743C8F8207006684FEA420C02
:101B200005FA0CF7BE430F7907F0030707FA0CF725
:101B3000374307604E6816F4403F6BD0394E376824
:101B400047F480473760366822F0030706F4804682
:101B50000096354E07EB060CDCF8086897074FEA4D
:101B6000177809FA08F7BE43304FB84202D1002770
:101B70001FE04FE02E4FB84201D1012719E02D4F51
:101B8000B84201D1022714E02B4FB84201D10327FC
:101B90000FE02A4FB84201D104270AE0284FB8428B
:101BA00001D1052705E0274FB84201D1062700E003
:101BB000072707FA08F73743CCF80878DAF8006007
:101BC0005746D1F804C09E435FEACC2C00D51E4393
:101BD0003E60DBF800605F46D1F804C09E435FEAD8
:101BE0008C2C00D51E433E60DEF800607746D1F8AD
:101BF00004C09E435FEA8C3C00D51E433E60084F04
:101C0000083F3E68D1F804C09E435FEACC3C00D553
:101C10001E433E60521C102AFFF436AFBDE8F88F19
:101C2000083C0140443802400030014000000240BE
:101C30000004024000080240000C02400010024074
:101C400000140240001802400AB181617047090483
:101C5000FBE7000001488068704700009800002002
:101C6000704770472DE9F041016804464A694E68A3
:101C700090F83E000025D743FA0506D4F243D2057A
:101C800003D46FF4807201254A61B90508D4F14389
:101C9000C90505D422686FF4007145F00205516151
:101CA000790525D4F143C90522D4638D94F83D10FC
:101CB000226B202808D13BB9212910D029290ED028
:101CC000282901D1212A0AD022686FF4806151614C
:101CD00045F00405102806D0402804D008E020462E
:101CE00003F080F904E02068016841F400710160AC
:101CF000380508D4F043C00505D421686FF40060AE
:101D000045F008054861002D07D0206C2843206469
:101D10002046BDE8F04102F0B3BCBDE8F0812DE9FA
:101D2000F047026800215368C66A90F83E4090F878
:101D30003D50102C12D0402C10D0046C002C7DD0C3
:101D40005469E443A6077AD4DE43B60577D4036C1E
:101D500003B19169BDE8F04703F020B99769516973
:101D60004FF42A0CC9435FEAC1784FF02A4904D0E6
:101D700066452AD04E4528D010E0DE43B6050DD486
:101D8000C16A614501D1012103E0C16A494501D120
:101D90000821C162BDE8F04702F094BF0E0716D4D7
:101DA000DE43B60513D4416CC9B21161416B09B170
:101DB000C96B29B9816B002907D0C96B002904D0F0
:101DC0000068416841F400614160BDE8F0878E071A
:101DD00006D4DE43B60503D4BDE8F04702F0E6BE04
:101DE000FE43526876074FEA02521DD4002AECDB0C
:101DF0000A0608D4DA43520505D4490705D5BDE8DB
:101E0000F04702F077BE4907DFD4D9438905DCD417
:101E1000212D05D0402CD8D1BDE8F04702F098BF65
:101E2000BDE8F04702F024BE002ACEDB4A060BD400
:101E3000DA43520508D4490708D501E00DE00EE069
:101E4000BDE8F04702F04CBD4907BED4D94389052F
:101E5000BBD4BDE8F04702F0D6BC916970E7E1065B
:101E600006D4D943890503D4BDE8F04703F002B98D
:101E70002821212D27D0292D25D0650655D4DD43D5
:101E80006D0552D4640752D590F83D30448D002C36
:101E90009BD01269446A2270426A521C4262428D8F
:101EA000521E4285428D002A8FD12A2B8DD1026885
:101EB000536823F4806353602222026380F83D104C
:101EC00000F0C4FC81E7250623D4DD436D0520D452
:101ED000640720D590F83D30448D002CF2D0446A40
:101EE00024781461426A521C4262428D521E42851D
:101EF000428D002AE6D1292BE4D10268536823F4ED
:101F0000806353602122026380F83D1000F09FFC43
:101F10005BE76107D6D4D9438905D3D4418D002925
:101F2000D0D0416A097811610AE06107CAD4D94367
:101F30008905C7D4418D0029C4D01169426A117046
:101F4000416A491C4162418D491E41853DE7704708
:101F500070B5040025D094F83D00002520B984F820
:101F60003C50204600F012FC242084F83D002068FC
:101F7000016821F0010101602068016841F400411D
:101F800001602068016821F40041016001F0A8FFB0
:101F90004D4A6168914201D84C4900E04C49884261
:101FA00001D2012070BD4B492368B0FBF1F15E689E
:101FB00026F03F060E435E606368934206D94FF4F5
:101FC000967359434FF47A73B1FBF3F12368491CBC
:101FD0001E6A26F03F06314319626168914210D8AB
:101FE0004900401EB0FBF1F2521CC2F30B02042A5E
:101FF00001D2042022E0B0FBF1F0401CC0F30B0042
:102000001CE0A268F2B301EBC10303EB0116431E0F
:10201000B3FBF6F35B1C43F480431B0549D092B33A
:1020200001EBC10202EB0111401EB0FBF1F0401CBC
:10203000C0F30B0040F4804040F400402168CA69BE
:102040004CF6FF739A431043C861D4E9071001436B
:102050002068026822F0C00211430160D4E9030144
:1020600001432068826848F2FF339A43114381603C
:10207000D4E9050108432168CA6822F0FF02104331
:10208000C86001E00EE016E02068016841F001013F
:1020900001602564202084F83D00256384F83E50CB
:1020A000002070BD01EB4106431EB3FBF6F35B1C41
:1020B000B3E70120C2E701EB4101401EB0FBF1F0A4
:1020C000401CC0F30B00B7E7A086010080841E000F
:1020D00000093D0040420F00704770477047000004
:1020E0002DE9F84F1F4690468A460446DDF82890B1
:1020F000FFF7B0FD054694F83D0020287FD1192355
:10210000012240492046009503F08EF8002876D140
:1021100094F83C00012872D0012084F83C0020682B
:102120000168C90703D1016841F00101016020681D
:10213000016821F400610160212084F83D00102035
:1021400084F83E0000262664C4F824806785608DEC
:1021500020852D48E0622B464A465146204602F033
:1021600039FC90B9206841698069009036E02A46C0
:102170004946204603F036F950B1206C042804D1BA
:102180002068016841F4007101600120BDE8F88F0A
:10219000606A216800780861606A401C6062618D35
:1021A000491E6185218D491E89B2218522685369A6
:1021B000DB435B070BD451B100781061606A401CAF
:1021C0006062608D401E6085208D401E20852A46FD
:1021D0004946204602F0FCFF0028CED1208D002881
:1021E000C5D154F83D0B016841F400710160202015
:1021F00004F81E09E67766770020C7E7FFE70220AC
:10220000C4E70000020010000000FFFF2DE9FC41C0
:1022100000681949884217D1184E3078184D0227A6
:102220006C1D98B101281CD002280DD105F11000B9
:1022300003F0A8F900203070CDE900472979012387
:102240000922104800F024F9BDE8FC810C4805F093
:10225000A9FB01203070CDE9004729790346082207
:10226000EFE7074805F0A2FB3770BDE8FC410448E2
:10227000103003F02BBA0000005400402000002072
:102280003802002094020020704700002DE9FF4F23
:1022900083B09A46DDE9118793460446DDF8409005
:1022A000FFF7D8FC054694F83D00202870D119238B
:1022B000012274492046009502F0B6FF0028F5D1AE
:1022C00094F83C00012863D0012084F83C00206889
:1022D0000168C90703D1016841F00101016020686C
:1022E000016821F400610160222084F83D00402053
:1022F00084F83E0000262664C4F82490A4F82A80BE
:10230000608D20856048E062CDE9007553465A46ED
:102310002046049902F070FD002879D1208DD0B1BB
:10232000012821D00228206824D0416980690090CA
:10233000208D032866D801282BD0544902283B461B
:102340004FF00002009557D08846204602F06CFFFF
:1023500000285DD13AE020684169816900910168F7
:1023600041F4007101607DE02068016821F4806122
:102370000160F0E7016821F4806101602068016874
:1023800041F400610160206841698069009069E062
:1023900075E02A463946204602F0ECFF88BB54E03F
:1023A0002068016841F40071016020680069616A79
:1023B0000870606A401C6062218D491E2185618D14
:1023C000491E618521680969017042E02068016841
:1023D00021F48061016020680069616A0870606AA8
:1023E000401C6062208D401E2085608D401E6085EF
:1023F0003B46002241460095204602F015FF00B9F9
:10240000CEE705E02A463946204602F0B3FF18B170
:10241000012007B0BDE8F08F20680069616A08708C
:10242000606A401C6062208D401E81B22185608DF3
:10243000401E608520684269D243520712D40329A6
:1024400003D1016821F48061016020680069616A3C
:102450000870606A401C6062208D401E2085608D7F
:10246000401E6085208D00287FF462AF202084F814
:102470003D0084F83E6084F83C600020C9E70220FB
:10248000C7E70000020010000000FFFF0400010089
:102490002DE9FC5F994692468B460446DDF8308074
:1024A000FFF7D8FB00250646009594F83D0020284C
:1024B00028D1664846F2A81120270068B0FBF1F049
:1024C00000EBC00101EB001000900098401E00904E
:1024D00010D020688069C0438007F6D594F83C008E
:1024E00001280FD0012084F83C0020680168C9074A
:1024F0000BD00EE044F8305F6773A573206940F09D
:10250000200020610220BDE8FC9F016841F001012C
:1025100001602068016821F400610160222084F8D4
:102520003D00402084F83E002564C4F824800D98C6
:102530006085608D20854648E062C4F844B0C4F8E8
:1025400048A0C4F84C902565208D4FF02308002842
:1025500063D0A06B00B33F49C163A16B3E48C86420
:10256000A06B0564A06B4564A06B8564A06B0565DA
:102570002168238D1031626AA06BFFF72DFAA0B19C
:1025800084F83D7084F83E5054F8400F40F010003D
:1025900044F80409257049E084F83D7084F83E5001
:1025A00054F8400F40F08000F2E7CDE900864B463A
:1025B00052465946204602F01FFC88B1A06BFFF737
:1025C000BAF8A06BC5632068016821F480610160DE
:1025D000258565852068016821F00101016025E0FD
:1025E000208D0128206813D0416841F4805141605A
:1025F000206841698169009184F83C50416841F448
:10260000807141602068416841F4006141601BE0D5
:10261000016821F480610160EAE7CDE900864B465C
:1026200052465946204602F0E7FB08B101206AE70E
:102630002068416981690091016841F4007101607D
:1026400084F83D7084F83C5000205CE7A400002032
:102650000000FFFF5D4500081D4500082DE9FF4F04
:1026600083B09A46DDE9119793460446DDF8408031
:10267000FFF7F0FA054694F83D0020287FD1192392
:10268000012240492046009502F0CEFD002876D177
:1026900094F83C00012872D0012084F83C002068A6
:1026A0000168C90703D1016841F001010160206898
:1026B000016821F400610160212084F83D00402080
:1026C00084F83E0000262664C4F82480A4F82A90EA
:1026D000608D20852C48E062CDE9007553465A464E
:1026E0002046049902F006FC70B930E02A463946CB
:1026F000204602F077FE58B1206C042804D12068EF
:10270000016841F400710160012007B0BDE8F08F5D
:10271000606A216800780861606A401C6062218DEF
:10272000491E89B22185628D521E628522685369D5
:10273000DB435B070BD469B100781061606A401C11
:102740006062208D401E2085608D401E6085208D3A
:102750000028CBD12A463946204602F039FD002810
:10276000CAD154F83D0B016841F40071016020208A
:1027700004F81E09E67766770020C6E7FFE7022027
:10278000C3E70000020010000000FFFF70B586B034
:10279000064614216846FDF745FF27493068884200
:1027A00048D126480025016841F002010160006817
:1027B000694600F0020005904FF41070009012205E
:1027C000CDE9010503200390042004901C48FFF785
:1027D0004DF91A481030016841F400110160006899
:1027E000194C00F400100590164820604005C4E91B
:1027F0000105C013C4E903506561C001A561C4E9C6
:10280000075020466562FFF77DF808B1FEF791FF9B
:10281000B463002211461F20A66300F01BFA1F209C
:1028200000F00AFA00221146202000F013FA2020BE
:1028300000F002FA06B070BD00540040303802408B
:102840000004024010600240E80200207047704718
:102850007047416B084700002DE9F041040004D0A7
:1028600094F84100002618B109E00120BDE8F0818C
:1028700084F8406038486063204600F073F8022016
:1028800084F841002168CA6940F6BF77BA43CA613B
:10289000216808626069022839D0E06868B12025A3
:1028A000A068202800D86D002C492068884202D0FA
:1028B0002B49884203D1012002E01025F0E70220D5
:1028C00000F08AFF2169B1F5007F02D0B0FBF5F07E
:1028D00006E0E16809B1A90000E0E900B0FBF1F011
:1028E00000EB800061694000B0FBF1F0401D0A215F
:1028F000B0FBF1F000F00101401A40080902821E0D
:10290000FE2A06D3606C40F010006064ADE7022040
:10291000002122690843024320680262D4E90101D0
:102920000843A269E168114308432168CA69BA43B0
:10293000104340F40060C861A068302801D0B0287E
:1029400004D12068C16941F48051C16166640120ED
:1029500084F84100002089E79154000800380040C5
:10296000003C0040F0B59DB00646142117A8FDF7C5
:1029700059FE5C216846FDF755FE334930688842B0
:1029800060D102243221CDE90214012004210594F2
:10299000CDE90001049400250A900E95684600F0E8
:1029A000E7FF08B1FEF7C5FE2848016841F4804101
:1029B0000160006800F480401C90244810380168D1
:1029C00041F004010160016801F004011C910168FB
:1029D00041F002010160006817A900F002001C909C
:1029E000082081E831000527CDE91A571848FFF77C
:1029F0003DF817A9B80281E83100CDE91A5715480A
:102A0000FFF734F8154C1448C4E900050015A5601B
:102A1000C4E90350800060618000A0618011C4E9B6
:102A2000070520466562FEF76DFF08B1FEF781FEDF
:102A3000F463002205212420A66300F00BF9242072
:102A400000F0FAF81DB0F0BD0038004040380240F8
:102A50000008024000040240586002409003002039
:102A6000F8B5044629B122B194F84100012829D1D2
:102A700001E00120F8BD94F84000012822D0012691
:102A800084F84060042084F8410000256564E16218
:102A90002068C06900F00700032815D0052813D06E
:102AA00022866286E16B1F480864E16B1E48C8639A
:102AB000E16B1E48C8642168C869C0F3012003287F
:102AC00009D00BE00220F8BD4FF6FF7000EA42008B
:102AD00020866086E6E7C86888680090238E0C31FF
:102AE000E26AE06BFEF778FF40B154F8440F40F023
:102AF000080044F8040966702570BAE784F840506D
:102B000020684168C90703D1416841F00101416073
:102B10002068C169490503D4C16941F48061C1617C
:102B20000020F8BD87540008635400083B54000897
:102B30000649884209D106484169008A41EA0040B5
:102B4000011204484160012141737047480300208D
:102B500000000020840200200649884209D106486E
:102B60004168008841EA00400112044841600121A7
:102B700001737047480300200000002084020020F9
:102B800070470000024881680278114481607047F4
:102B9000980000200B4810B5016841F400710160F5
:102BA000016841F480610160016841F48071016055
:102BB000032000F06FF8002000F006F800F024F881
:102BC000002010BD003C024070B50D4D04464FF48E
:102BD0007A712878B1FBF0F00A490968B1FBF0F08E
:102BE00001F0B4FB48B9102C07D200222146501E38
:102BF00000F030F800206C6070BD012070BD000056
:102C000098000020A40000200A4808B5016841F49B
:102C100080410160006800F4804000900548001F7A
:102C2000016841F080510160006800F08050009020
:102C300008BD000044380240002809DB00F01F02F4
:102C4000012191404009800000F1E020C0F800110E
:102C500070470000F0B40E4B1B680C46C3F3022310
:102C6000C3F10705042D00D90425191D072901D238
:102C7000002300E0DB1E012606FA05F1491E214073
:102C800099409E40761E16403143F0BC04F0E9BEE8
:102C90000CED00E0064900F0070208684FF6FF035C
:102CA000184040EA0220034A1043086070470000C1
:102CB0000CED00E00000FA0501220168C0F8D824FC
:102CC000002280F8CC24886940F000608861486D5B
:102CD000024A1043486500207047000003000010BE
:102CE00070B5164D0446A1B1012911D12068D0F864
:102CF000001E41F00101C0F8001ED4F8E00403F00A
:102D0000A7FEE07A002803D0286840F0060028607B
:102D100070BDE07A28B102F093FF286820F0060029
:102D200028602068D0F8001E21F00101C0F8001EC4
:102D3000D4F8E004BDE8704003F025BE10ED00E0DB
:102D40000068416200207047F0B50368586A39B1E5
:102D50009C6A4FF4827600EB144400204D1E0AE07A
:102D600040EA024098620FE006EB8007DF59401C02
:102D700004EB1744C0B2A842F6D344EA02404FF431
:102D8000807202EB810158500020F0BDD0F8E004C1
:102D900003F039BD01EBC10200EB8202D0F8E00480
:102DA000126A03F08ABC01EBC10200EB8202D0F888
:102DB000E004D2F8602203F0DCBCD0F8E00403F0B9
:102DC00024BD0A0601F00F0101EBC10100EB8101F6
:102DD00001D5143101E001F51571006804F006BC5D
:102DE00070B504460B0601F00F0000EBC00104EBC8
:102DF00081014FF001024FF0000502D54A751431F0
:102E000003E081F8555201F51571087094F89404A7
:102E1000012808D084F89424206804F005F984F887
:102E20009454002070BD022070BD70B5044601F0BE
:102E30000F002279904201D9012070BD0B0601F0EC
:102E40000F0101EBC10104EB81014FF001024FF0D2
:102E5000000502D54A75143103E081F8555201F599
:102E600015718D70087094F89404012808D084F8C6
:102E70009424206804F046FA84F89454002070BD2D
:102E8000022070BD01F00F0101EBC10100EB8100D8
:102E9000D0F8680270472DE9F04104460F0601F0B2
:102EA0000F0000EBC00104EB81014FF001064FF071
:102EB000000502D54E75143103E081F8555201F535
:102EC0001571C2F30A0208708A600B714A7802B168
:102ED0004883022B00D14D7194F89404012809D045
:102EE00084F89464206803F0EDFF284684F8945435
:102EF000BDE8F0810220FBE710B501F00F0404EB00
:102F0000C40100EB8101C1E998230023C1F86832B4
:102F100081F8553281F85442837901F51571012BFE
:102F200000D1CA618279006804F044FA002010BD23
:102F300070B504460D4601F00F002179884201D991
:102F4000012070BD29064FF000064FF0010206D5A2
:102F500000EBC00104EB81014A75143107E005EB79
:102F6000C50104EB810181F8556201F515718A7084
:102F7000087094F89404012807D084F894242068F9
:102F800004F0ECF9280702D007E0022070BDA17917
:102F900004F29C42206804F089F984F894640020CB
:102FA00070BD10B501F00F0404EBC40100EB81010A
:102FB000C1E9082300238B6201234B7501F8144FEC
:102FC0008379012B00D1CA618279006804F0F2F99B
:102FD000002010BD2DE9FC5F05680446284604F07A
:102FE000A1FB00287DD1206804F0C8FB002878D020
:102FF000D5F80808C0F30D20C4F8D404206804F004
:10300000BDFB800704D52068416901F002014161E0
:10301000206804F0B3FBC10604F29C40009034D554
:103020002068816921F0100181612F6A07F00F008B
:1030300000EBC00004EB8006C7F3434006F51576AD
:10304000022802D0062811D01AE047F6F070074295
:1030500016D0C7F30A1217462846F16804F092FB0F
:10306000F0683844F0607069384408E00822284667
:10307000009904F087FB7069C7F30A110844706176
:103080002068816941F010018161206804F076FBBD
:1030900000034FF0080B4FF0000A4FF001097CD5F8
:1030A0000026206804F049FB074674E0F80770D05A
:1030B000F1B2206804F05AFB8046C00707D005EB48
:1030C0004611C1F8089B3146204602F0CDFC5FEA6C
:1030D000087024D505EB4611C1F808BB2068016CC7
:1030E00000E041E200EB46100191D0F8082BFE4BC6
:1030F000994205D9110403D54FF40041C0F8081BCB
:10310000204600F028FBF8490198884207D9A079A9
:10311000012804D120680121009A04F0C7F85FEA71
:10312000C86004D505EB46111020C1F8080B5FEA12
:1031300088701DD56869000605D5D5F8040840F4E7
:103140008061C5F8041806EBC60004EB800090F817
:10315000571200F51570012905D180F803A0F1B2CE
:10316000204600F007FA05EB46110220C1F8080BD3
:103170005FEA886004D505EB46102021C0F8081BE3
:103180005FEA884005D505EB46104FF40051C0F8C2
:10319000081B7F08761C002F88D1206804F0EEFA07
:1031A00040036ED5206804F0C1FA0746002666E0A9
:1031B000F80762D0F1B2206804F0C6FA8046C00772
:1031C00023D006F00F0109FA01F0D5F83418814335
:1031D000C5F8341805EB4610C0F80899A079012805
:1031E0000FD106EBC60004EB8000D0E907211144A3
:1031F000016236B9606A20B920680121009A04F0A2
:1032000055F8F1B22046FFF7C5FD5FEA087003D517
:1032100005EB4611C1F808B95FEAC86004D505EBB3
:1032200046111020C1F808095FEA486004D505EB93
:1032300046104021C0F808195FEA887016D531465B
:10324000284604F044FA06EBC60004EB8000C17D7A
:103250001430012905D180F803A0F1B2204600F016
:1032600085F905EB46110220C1F808095FEA0860FC
:1032700003D53146204602F05DFC7F08761C002F06
:1032800096D1206804F07AFA002811DAD5F80408FB
:1032900020F00101C5F8041894F8CC0401283BD0B3
:1032A000204600F03DFA2068416901F0004141618B
:1032B000206804F063FA00050BD5D5F80808C007AC
:1032C00002D0204600F070FA2068416901F40061E4
:1032D0004161206804F052FA00010AD52068416972
:1032E00001F00061416194F8CC04E0B1204600F0A7
:1032F0005BFA206804F042FAC00473D5D5F80408DC
:1033000020F00100C5F804081021206804F0DFF95E
:1033100000214FF67F322CE084F8CCA40021204617
:10332000FFF7DEFCBFE784F8CC942068406D0121F4
:10333000C0F38300C4F8D0042046FFF7D1FCD8E7DF
:1033400005EB4110C0F80829D0F8003923F4001328
:10335000C0F80039C0F8082BD0F8003B23F4001364
:10336000C0F8003BD0F8003B43F00063C0F8003BDE
:10337000491C20798842E3D8D5F81C0840F0011197
:10338000C5F81C18E07B002828460DD0D0F884082A
:1033900040F00B01C5F88418D5F8440840F00B0143
:1033A0002846C5F844180DE0D0F8140842F22B0165
:1033B0000843C5F81408D5F8100840F00B0128465A
:1033C000C5F81018D0F8000820F4FE61C5F8001800
:1033D000A1792068009A03F069FF2068416901F42F
:1033E00080514161206804F0C9F9800415D5206836
:1033F00003F0A8FD206804F088F9E07100F06AFD90
:103400000146E279206804F01BFA204600F072F9C8
:103410002068416901F400514161206804F0AEF96F
:10342000000707D5204600F07FF92068416901F0C8
:1034300008014161206804F0A1F9000616D5A869C9
:1034400020F08001A96101260DE000BF06EBC60057
:1034500004EB800090F85702012803D1F1B2204616
:10346000FFF7AFFC761C2079B042EFD8206804F05B
:1034700085F9C0021FD501264F4614E005EB461022
:10348000D0F8000906EBC60104EB81010A7E012A8F
:1034900008D1002806DACF75F0B240F0800120464E
:1034A000FFF78FFC761C2079B042E7D8206841698D
:1034B00001F480114161206804F060F9800236D582
:1034C00001204A462BE000BF05EB4011D1F8001B5C
:1034D00000EBC00304EB830393F85862012E1DD167
:1034E00000291BDA02E000000A30544F94F8D4643B
:1034F000C1F3004106F001068E420FD183F8572236
:10350000A96941F08003AB616969090606D4D5F861
:10351000040840F40070C5F8040803E0401C217959
:103520008142D1D82068416901F4001141612068CD
:1035300004F024F9400007D52046FFF727FC206857
:10354000416901F080414161206804F017F94007AA
:103550000AD520684568680702D52046FFF72DFC8C
:103560002068416829434160BDE8FC9FD0F8E00431
:1035700003F09DB9D0F8E00403F0ADB9F8B504004C
:1035800005D094F895042668002510B106E00120C6
:10359000F8BD84F89454204600F05CF8032084F8C9
:1035A0009504B6F1A04F00D1A571206803F078FE14
:1035B000207C8DF8000094E80F0003F0D1FC022677
:1035C000B8BB0021206804F0FCF890BB0020012764
:1035D0000DE000BF00EBC00104EB81014F750875E1
:1035E000C8850D76CD610D62401CC0B24D62217957
:1035F0008142EFD8002011E000EBC00104EB810113
:1036000081F8555281F8540281F85852C1F85C5241
:10361000C1F86052401CC0B2C1F8645221798142A5
:10362000EAD8207C8DF8000094E80F0003F07EFDBE
:1036300010B184F89564AAE7657484F89574207BCA
:10364000012802D12046FFF737FB206803F060FD18
:103650000020F8BD10B59EB00446142117A8FCF751
:10366000E1FF5C216846FCF7DDFF2068B0F1A04F68
:1036700039D14FF48070002400901594684600F012
:1036800077F908B1FEF755F81848016841F00101D3
:103690000160006817A900F001001C904FF4C050B1
:1036A00017900220CDE9180403201A900A201B90DD
:1036B0000F48FEF7DBF90D48001D016841F080015D
:1036C00001600A481430016841F4804101600068DB
:1036D000002200F480401C9002214320FFF7BAFA38
:1036E0004320FFF7A9FA1EB010BD00003038024099
:1036F0000000024070B50446C079012570B102286F
:1037000001D0FEF716F82946D4F8E00403F052F988
:10371000D4F8E004BDE8704003F006B90025F2E7F4
:10372000D0F8E00403F02FB9D0F8E00403F035B985
:1037300010B5044690F8940401280AD0012084F8BA
:1037400094046174206804F06AF8002084F89404FA
:1037500010BD022010BDD0F8E02400F29C411046BC
:1037600003F034B910B50446006894F894140129A4
:1037700009D0012184F89414C168490609D5617BF8
:10378000012902D005E0022010BD816B41F4803197
:103790008163206803F079FF206803F0ABFC002010
:1037A00084F8940410BD000010B50446D0F8E0047D
:1037B00003F04EF92068D0F8001E41F00101C0F876
:1037C000001EE07A002804D00248016841F006019A
:1037D000016010BD10ED00E0F0B5614B624A624936
:1037E000074600205C105F4D5F4E083A8839012F74
:1037F0006BD0022F77D0042F01D0082F46D1376825
:1038000007F47007C7F3130CBCF1000F3ED13F154E
:103810000D2F3BD2DFE807F007203B50203A3A3A21
:103820003B3A3A3A5200086841025048016801F0B8
:103830003F0102D4B3FBF1F101E0B4FBF1F1026806
:103840000068C2F30362C0F388104843B0FBF2F192
:103850003068C0F3042016E008684002106800F0E9
:103860003F0002D4B3FBF0F001E0B4FBF0F01168CC
:103870001268C1F30361C2F388124243B2FBF1F153
:10388000306800F01F00401CB1FBF0F0F0BD08688C
:103890004002086800F03F0002D4B3FBF0F001E002
:1038A000B4FBF0F00A680968C2F30272C1F3881130
:1038B0004143B1FBF2F0F0BD2846F0BD086840027C
:1038C00001D41846F0BD2046F0BD366816F0C0663B
:1038D0003BD0B6F1007FEFD0B6F1806F12D0B6F1D9
:1038E000C06FF1D12DE01FE0B4FBF0F002E000BFAB
:1038F000B3FBF0F01168C1F3881141431068C0F3C5
:103900000270C1E708684002086800F03F0023D554
:10391000B4FBF0F00A68C2F3881242430868C0F3AF
:103920000270B2FBF0F0F0BD366816F0C0560CD055
:10393000B6F1006FC0D0B6F1805FE3D0B6F1C05FE2
:10394000F1D108684002BED4BBE7086840021068A5
:1039500000F03F00CCD5C7E7B3FBF0F0DAE700009A
:103960000024F4000080BB008C38024088380240FC
:103970002DE9F84F044600260078F84D3746C00779
:1039800008D02868A16B20F0C06008432860A06BB5
:1039900000B901262078800708D52868E16B20F05F
:1039A000C05008432860E06B00B90126207840072A
:1039B0000ED52868216B20F4401008432860206B46
:1039C000B0F5801F01D010B102E0012600E0012710
:1039D000207800070ED52868616B20F4400008436A
:1039E0002860606BB0F5800F01D010B102E00126B5
:1039F00000E0012720784FF0000A80064FF0010B0D
:103A000063D5D6484C38016841F0805101600068A8
:103A1000DFF84C9300F080500090D9F8001041F48A
:103A20008071C9F80010FEF715F9804606E000BF66
:103A3000FEF710F9A0EB080002286FD8D9F80000B3
:103A4000C005F5D5DFF81483A8F11C08D8F80000EC
:103A500010F4407024D0B4F8401001F44071814259
:103A60001ED0D8F80010BF4A21F44071C2F800B04F
:103A7000C2F800A0C8F80010D8F80000C0070FD0A6
:103A8000FEF7E8F8814607E0FEF7E4F8A0EB09014D
:103A900041F288308142D0D8D8F800008007F3D5B1
:103AA000216CAE48C1F301228438032A37D0016863
:103AB00021F4F811C0F80010D8F80010B4F8402034
:103AC000C2F30B021143C8F800102078C00604D5D9
:103AD000A54894F85810C0F8E01120780106A348D2
:103AE00005D50168E26C21F44001114301602178A1
:103AF000490605D50168A26C21F08061114301607F
:103B00002188C90514D50168626D21F00061114357
:103B10000160616DB1F1006F09D009E01DE102683B
:103B2000934B22F4F81219400A430260C4E70127BC
:103B30002188890505D50168626C21F08051114307
:103B400001602188DFF82C92490509D50168226DB2
:103B500021F0005111430160206DB0F1005F04D0ED
:103B60001EB92068B0F5006F7ED18349C1F868A006
:103B7000FEF770F8794E80468C3E05E0FEF76AF855
:103B8000A0EB0800022886D830680001F6D421682E
:103B90007A48CA0701D0A26B1AB1890717D5E16B21
:103BA000A9B901680268C1F30141491CD4E9013C8B
:103BB00043EA8C1321F0004CC2F3036209EB0C4181
:103BC00041EA02610B43217D43EA017101602168F2
:103BD0004A0703D5226BB2F5801F05D0090721D50E
:103BE000616BB1F5800F1DD101680268C1F301411D
:103BF000491CD4E9013C43EA8C1321F0004C09EB49
:103C00000C4194F810C0C2F3027241EA0C610B43FC
:103C100043EA027101602968A26A21F01F01521E65
:103C200011432960218849051AD5216DB1F1005F42
:103C300016D101680268C1F30141491CD4E9013C75
:103C400043EA8C13D4F80CC0C2F302724FEA5C084A
:103C500009EB084C4CEA41610B4343EA02710160F5
:103C60002188090511D500E01FE0D4E9011241EADD
:103C70008211E268530809EB0342237C42EA0362A3
:103C80001143227D41EA027101603B49C1F868B0ED
:103C9000FDF7E0FF804605E0FDF7DCFFA0EB080044
:103CA000022874D830680001F6D5EFB3DFF8C88079
:103CB000C8F870A0FDF7CEFF304E0746843E04E002
:103CC000FDF7C8FFC01B022861D83068C0438000E0
:103CD000F6D521682A484A0701D5226B1AB109078F
:103CE0001DD5616BD9B90168D4E90623C1F301413F
:103CF000491C42EA831221F0004309EB034194F886
:103D0000243041EA03610A4302602968E26A6FF0E5
:103D1000FF0321F4F85103EB0222114329602188AB
:103D2000C90514D5616D00E038E0B1F1006F0ED126
:103D30000168D4E9062342EA8312236AC1F30361CE
:103D40005C0809EB044343EA01610A430260C8F8D6
:103D500070B0FDF77FFF04461CE018E08C3802408D
:103D600000700040400E4742001047429438024025
:103D7000FFFCFF0F0000FFFF0000474284380240B5
:103D800088380240FDF766FF001B022802D9032095
:103D9000BDE8F88F3068C0438000F3D40020F7E717
:103DA0002DE9F0470E46050065D0DFF81481D8F8FC
:103DB0000000F7B200F00F00B04207D288F80070A0
:103DC000D8F8000000F00F00B04254D128683D4CF4
:103DD000810712D5400703D5206840F4E0502060E9
:103DE0002878000703D5206840F4604020602068F0
:103DF000A96820F0F000084320602878C0072DD083
:103E0000304968680839012812D0022813D00328E5
:103E100011D00968890700292DDA216821F00301F2
:103E200001432160FDF716FF814641F2883A0EE01A
:103E300009688903EFE709688901ECE7FDF70AFFE4
:103E4000A0EB0901514502D90320BDE8F0872068A5
:103E5000696800F00C00B0EB810FEFD1D8F80010CA
:103E6000404601F00F01B14207D90770006800F029
:103E70000F00B04201D00120E7E72878400705D5C0
:103E80002068E96820F4E0500843206028780007A3
:103E900006D52068296920F4604040EAC10020600E
:103EA00000F03EF82168084AC1F30311515CC84094
:103EB0000649086006480068FEF786FE0020C4E751
:103EC000003C024008380240F07B0008A4000020BB
:103ED0009C0000200148006870470000A4000020FA
:103EE0000448054900680968044AC1F38221515C0D
:103EF000C8407047A400002008380240007C000839
:103F00000448054900680968044AC1F34231515C1C
:103F1000C8407047A400002008380240007C000818
:103F2000224810B5006810F00C02214815D041104D
:103F3000042A11D01D4C241F082A0FD00C2A0CD1A2
:103F40002268236802F03F025B0221D52068C0F39B
:103F50008810A0FB010120E0084610BD22682368FC
:103F600002F03F025B0205D52068C0F38810A0FB79
:103F7000010104E02168C1F38811A1FB00010023C5
:103F8000FCF7C2F92168C1F30141491C49000AE06C
:103F90002168C1F38811A1FB00010023FCF7B4F9EB
:103FA0002168C1F30271B0FBF1F010BD0838024086
:103FB0000024F4002DE9F84F04007DD0DFF878B339
:103FC0002078ABF10407C007A7F1040550D0DBF857
:103FD00000105846C1F3810101290FD00168C1F3D7
:103FE0008101022902D13968490207D40068C0F36F
:103FF0008100032809D13868400206D5286880036B
:1040000036D560680028D8D032E06068B0F5803FCF
:1040100010D0B0F5A02F286810D020F48030286090
:10402000286820F4802028606068A0B1FDF712FEA7
:1040300006460CE0286840F48030F4E740F4802025
:104040002860F7E7FDF706FE801B642876D828680D
:104050008003F7D50CE0FDF7FDFD064605E000BF47
:10406000FDF7F8FD801B6428F0D828688003F7D49A
:104070002078DFF8C89280074FF0000A44D5DBF8BB
:104080000010584611F00C0F0FD00168C1F38101E8
:10409000022902D13968490207D50068C0F38100BE
:1040A00003280AD13868400207D42868800715D54C
:1040B000E068012800D111E03AE1E068B0B10120E8
:1040C000C9F80000FDF7C6FD064604E0FDF7C2FD95
:1040D000801B0228BAD828688007F7D5286821698C
:1040E00020F0F80040EAC10028600DE0C9F800A007
:1040F000FDF7B0FD064604E0FDF7ACFD801B02288D
:104100001CD828688007F7D42078000727D5DFF867
:1041100028828B48616908F16C0881B10121016036
:10412000FDF798FD064604E0FDF794FD801B02288C
:1041300004D8D8F800008007F6D510E089E0C0F870
:1041400000A0FDF787FD064605E000BFFDF782FDF4
:10415000801B02287DD8D8F800008007F6D420788C
:10416000400769D574484FF0000838300068C00037
:104170000BD471483830016841F08051016000680B
:104180004FF0010800F0805000906E4E3068C0057E
:1041900011D4306840F480703060FDF75BFD009012
:1041A00006E000BFFDF756FD0099401A022850D8DE
:1041B0003068C005F6D5604EA068683601280FD07B
:1041C0000528306810D020F001003060306820F001
:1041D00004003060A068B8B1FDF73CFD00900FE02E
:1041E000306840F00100F4E740F004003060F7E789
:1041F000FDF730FD0099411A41F28830814264D8C0
:1042000030688007F4D50EE0FDF724FD009007E04C
:10421000FDF720FD0099411A41F28830814254D8BF
:1042200030688007F4D4B8F1000F05D04248383028
:10423000016821F080510160A069A8B3DBF800108B
:10424000C1F38101022947D00228C9F860A005D036
:1042500000E03AE0FDF7FEFC044639E0FDF7FAFC29
:10426000064604E0FDF7F6FC801B02282DD82868DE
:104270008001F7D4F4E907010843E168324A4908AC
:1042800002EB0141A26841EA82110843217C40EA25
:104290000160217D40EA017038600120C9F86000AA
:1042A000FDF7D8FC044606E044E000BFFDF7D2FC71
:1042B000001B022809D828688001F7D53AE000BF22
:1042C000FDF7C8FC001B022802D90320BDE8F88FC7
:1042D00028688001F4D42DE00128F7D03868E2691D
:1042E00000F48001914223D1226A00F03F01914203
:1042F0001ED147F6C071626A0140B1EB821F17D12F
:10430000A26A4FF0FF3300F4403103EB5202B1EBED
:10431000024F0DD194F82C2000F07061B1EB026FC8
:1043200006D194F8301000F0E040B0EB017F01D0EE
:104330000120CBE70020C9E70838024000004742CF
:10434000800E4742007000400000FFFF10B5401E85
:10435000B0F1807F01D3012010BD4FF0E0246061F7
:104360000F21601703F07DFB0020A0610720206172
:10437000002010BD70B5040004D094F84100002561
:1043800010B106E0012070BD84F84050204600F0D6
:1043900023F8242084F841002068C16821F40051EA
:1043A000C160204601F0A0FC2068016921F4904121
:1043B00001612068416921F02A0141612068C168DA
:1043C00041F40051C1606564202084F8410084F804
:1043D00042006563002070BD10B586B0044614210C
:1043E0006846FCF71FF914492068884221D1134818
:1043F0000021026842F010020260006800F0100024
:1044000005900E481438026842F00102026000680C
:1044100000F0010005904FF4C06000900220CDE94B
:104420000101032003900720049069460448FDF72A
:104430001DFB06B010BD00000010014044380240D2
:1044400000000240FEE700000148FDF70BBC000041
:10445000940200200148FDF762BC00009402002095
:1044600038B5806B002190F83D202B4B46F2A81404
:104470001B68B3FBF4F3C3EBC30303EB83030093A9
:104480003BB15B1E009303681B689B0505D5009B31
:10449000F6E7036C43F020030364436B03B1D96375
:1044A000836B03B1D96303681C6824F480641C60C7
:1044B0004185436B03B11965836B03B119650368CB
:1044C0001C6824F001041C6090F83D402023602CFF
:1044D0000BD0282434EA02020FD080F83D3080F857
:1044E0003E1000BFFDF733FD38BD80F83D3080F849
:1044F0003E100164FDF7B4FB38BD0268136843F059
:10450000010313600268136843F48063136001635E
:1045100080F83D40E6E70000A400002070B5846B01
:104520000025616B01B1CD63A16B01B1CD63FDF7D6
:1045300014F9022811D02068016821F4806101601B
:104540006585202084F83D0084F83E50206C40F0C2
:10455000100020642046FDF7FAFC70BD2DE9F04103
:10456000846B94F83D2094F83E50E16A20684368DB
:1045700023F440734360636B002003B1D863A36BE3
:1045800003B1D863212333EA02074FF022060CD08F
:1045900036EA020701D1202D07D094F83E20002AE8
:1045A00021D0628D012A20D024E021684D6825F4B5
:1045B00000654D6060852820292A02D02A2A07D06C
:1045C0000CE0236384F83D002046FEF740F905E047
:1045D000266384F83D002046FEF738F920684168DC
:1045E00041F440714160BDE8F0812268136823F412
:1045F000806313602268536823F44073536011F59D
:10460000803F06D0082904D0B1F12A4F01D02029DB
:1046100004D12268136843F400731360226853685E
:1046200023F4805353602268536823F4006353607B
:104630006085226C1AB12046FDF789FCD3E7202261
:1046400084F83D2094F83E2084F83E00402A09D0AA
:10465000082902D0202900D0122020632046FDF72F
:104660003CFDC0E720632046FDF7D0FDBBE70068B6
:104670004169C943090601D4002101617047000066
:1046800070B5044690F83D0094F83E10102901D012
:10469000402906D1222804D121680A6822F4006248
:1046A0000A60282131EA00024FF000054FF0200691
:1046B00026D021684968090505D4602803D084F80C
:1046C0003D6084F83E50256320684168090537D570
:1046D000416821F400614160606B90F835203C49ED
:1046E000012A11D00165606BFDF725F838B3206809
:1046F000016821F00101016084F83D60606B1CE0FD
:10470000256384F83D10DFE7A06B0165A06BFDF722
:1047100012F8A0B120684169C943490605D400696F
:10472000616A0870606A401C60622068016821F05C
:104730000101016084F83D60A06B016D884710E0C5
:1047400094F83D10602910D04169C943490605D449
:104750000069616A0870606A401C60622046FDF76B
:10476000F6FB206CC1071CD115E084F83D60256480
:104770004169C943490605D40069616A0870606AE5
:10478000401C60622068016821F001010160204640
:10479000FDF766FAE5E7810703D4410701D4000776
:1047A00004D52068416821F4E061416094F83D003F
:1047B000216C49070BD5282809D10648E0622563FA
:1047C00084F83D6084F83E502046FDF785FC70BDBE
:1047D000614400080000FFFF01684A69D2435205A6
:1047E0000FD46FF480624A61002140F8301F20220C
:1047F00042738173026942F0040202610173012075
:1048000070470020704710B5C26A438D0168042BC1
:1048100006D0438D032B08D0438D022B1DD012E010
:104820004A6822F480624A600CE04B6823F480639B
:104830004B60042A06D0022A04D001680A6822F4D8
:1048400080620A6001680969426A1170416A491C04
:104850004162418D491E418510BD012A34D0102A84
:1048600032D0042A34D0022A32D00B6843F40073C9
:104870000B6001680969436A1970416A491C416209
:10488000438D5B1E438503681B690B70416A491C9D
:104890004162418D491E418501684B6823F4407394
:1048A0004B60202180F83D1090F83E300021402BD5
:1048B00080F83E1010D0082A02D0202A00D0122101
:1048C0000163FDF70AFC10BD0B6823F48063CFE79A
:1048D0000B6843F48063CBE70163FDF797FC10BDE1
:1048E00038B590F83D10222910D1C36A418D0329B3
:1048F0000DD901680969426A1170416A491C416217
:10490000418D491E4185418D032906D038BDC26ABB
:10491000022A02D0012906D029B10068416821F499
:104920008061416038BD2A4A46F2A814002112680D
:10493000B2FBF4F202EB8202009202682024009D96
:104940006D1E009526D01568AD05F8D4156825F4C0
:10495000806515600268556825F4E0655560026859
:104960001269456A2A70426A521C4262428D521E86
:10497000428580F83D4090F83E2080F83E10402A65
:1049800021D0082B02D0202B00D012210163FDF78B
:10499000A4FB38BD036C43F020030364536823F485
:1049A000E063536002681269436A1A70426A521CDB
:1049B0004262428D521E428580F83D4080F83E1092
:1049C000FDF7C5FA38BD0163FDF720FC38BD0000D6
:1049D000A4000020F8B50446C06A1E460D461746DE
:1049E000082807D0012805D010F5803F02D0206BA1
:1049F000122804D12068016841F4807101601346D7
:104A000000224FF001112046009600F00DFC40B14D
:104A100020680068C00502D54FF4007020640320B0
:104A2000F8BD2069B0F5804F0ED00620216800EA5D
:104A3000D51040F0F000086133463A460B49204655
:104A400000F03AFC78B902E005F0FE0000E0E8B2C0
:104A500021680861054933463A46891F204600F01F
:104A60002BFC0028DCD00120F8BD0000080001006C
:104A700010B5C26A90F83D1021290BD1418D51B17A
:104A8000416A026809781161416A491C4162418D9D
:104A9000491E418510BD20230021082A13D0202A59
:104AA00011D012F5803F0ED00268546824F4E064FF
:104AB00054601122026380F83E1080F83D3000BF40
:104AC000FDF70CFB10BD0268546824F4E0645460E8
:104AD0000268146844F400741460016380F83D3087
:104AE00090F83E2080F83E10402AE9D1FDF7CCFB3B
:104AF00010BD000010B590F83D1090F83E30C26A2D
:104B0000048DB4B1212903D0402B11D122290FD11A
:104B1000418DE1B390F83E10402942D0416A0268CD
:104B200009781161416A491C4162418D491E4185E4
:104B300010BD2129E8D120230021082A13D0202AE2
:104B400011D012F5803F0ED00268546824F4E0645E
:104B500054601122026380F83E1080F83D3000BF9F
:104B6000FDF7BCFA10BD0268546824F4E064546098
:104B70000268146844F400741460016380F83D30E6
:104B800090F83E2080F83E10402AE9D100E002E093
:104B9000FDF77AFB10BD0068416821F48061416037
:104BA00010BDBDE8104000F0D3B8000078B590F813
:104BB0003E50C26A036B90F83D6000240168222ECB
:104BC0007AD1066D0EB9402D76D0056D1DB90569F7
:104BD000B5F5404F09D0458D05B3468D384D012EB2
:104BE0000ED0438D022B3AD05DE04A698A6900926B
:104BF0000A6842F480720A60016D491C016578BD43
:104C0000AA4213D10A6822F480620A6001684A68E5
:104C1000120503D50A6822F4806216E04A698A699F
:104C200000920A6842F400720A6039E0082A10D043
:104C3000202A0ED0122B0AD0042A03D0022A01D037
:104C4000102AE7D10A6842F480620A6024E0012A4F
:104C5000E0D00A6822F480620A600168DEE7042A74
:104C600021D0022A1FD0102A1DD00B6823F48063A4
:104C70000B6001680B6843F400630B6001684B68CC
:104C80001B0509D5AA4212D0012A10D0082A0ED03D
:104C9000102A0CD0202A0AD001684A69896900913B
:104CA000046578BD08E00B6843F48063E5E74A6873
:104CB00042F480524A60EFE7486988690090F0E763
:104CC0000000FFFF90F83E10402910D00169B1F5B7
:104CD000804F19D0016DA9B3016D012910D1416C2C
:104CE0005FF0F10201F4407142EAD11106E0016D7A
:104CF0000029416C05D0C9B241F001010068016191
:104D0000704701F0FE01F9E790F83D102129416C50
:104D100009D0C9B241F0010102681161416B29B1AA
:104D2000C96B49B902E001F0FE01F5E7816B00298A
:104D3000E6D0C96B0029E3D00068416841F4006106
:104D400041607047FFE7416CF02201F44071CBE70E
:104D500010B590F83D10026D4AB1026D012A14D0D1
:104D6000026D022A16D0BDE81040FFF780BCC16C6E
:104D70000129816C02D0C1F3072108E00268C9B2A1
:104D80001161016D891C016510BD816CC9B2026899
:104D9000116123E022291CD0428D0AB1212920D0A3
:104DA000428D002AF0D12129EED101684A6822F40F
:104DB000E0624A6001680A6842F400720A600021F9
:104DC0000163202280F83D2080F83E10FDF75CFA58
:104DD00010BD01680A6842F480720A60016D491CC6
:104DE000D1E7416A026809781161416A491C416250
:104DF000418D491E418510BD2DE9F84F04460068DC
:104E000089460B9D01689846174641F48061016010
:104E10002068016841F48071016000954FF0011B2A
:104E20000022594620460A9B00F0FEF94FF4007A12
:104E300040B120680068C00501D5C4F840A0032037
:104E4000BDE8F88F216809F0FE0008612B4628496B
:104E500020460A9A00F030FAF0BB20684169806968
:104E600000902A4620460A9900F0BCFA40B1206C16
:104E700004283AD12068016841F40071016034E0EF
:104E8000FEB2B8F1010F09D02168380A08612A463C
:104E900020460A9900F0A6FA0028E8D120680661A9
:104EA0002A4620460A9900F09DFA0028DFD12068A2
:104EB000016841F480710160009500225946204646
:104EC0000A9B00F0B1F90028B3D1216809F0FF0076
:104ED00040F00100086100E007E02B46044920464D
:104EE0000A9A00F0E9F90028AAD00120A8E70000FA
:104EF000020001002DE9F843044600680D46DDE993
:104F0000089701689846164641F4807101604B4647
:104F100000224FF001112046009700F085F948B1BA
:104F200020680068C00502D54FF40070206403209B
:104F3000BDE8F883216805F0FE0008613B464A465B
:104F40001549204600F0B8F988B9206841698069A0
:104F500000903A464946204600F044FA48B1206C99
:104F6000042804D12068016841F400710160012027
:104F7000DEE7F5B2B8F1010F09D02168300A086107
:104F80003A464946204600F02DFA0028E7D120682D
:104F900005610020CCE700000200010038B50C4696
:104FA00090F83D2000212825954302680B4605D046
:104FB00051699169009180F83C3038BD556825F4FD
:104FC00080655560E243540700D50121120601D5E2
:104FD000828900E0028B80F83C3092B2FCF741FEFF
:104FE00038BD00002DE9F04190F83D300446C26A1A
:104FF000002120261E4F00686FF48065082A01D02A
:10500000202A01D1282B04D0212B17D04561BDE8DF
:10501000F081E762426822F4E06242602068456104
:105020002068026822F480620260216384F83D6097
:1050300084F83E102046FDF74FF8E8E7E7622122AA
:10504000226384F83D6084F83E10416821F4E061F9
:105050004160206845612068016821F48061016039
:105060002046FFF704FB2046FDF7F1FBCFE70000E9
:105070000000FFFFF8B590F83D6004460068416805
:1050800021F4E061416020680025416900910168D8
:1050900041F0010101602068016821F48061016034
:1050A00020684168090520D5474F222E48D02A2E76
:1050B00046D0616B096849686185618D19B1216CC1
:1050C00041F004012164416821F400614160606B9A
:1050D000FCF745FB012808D0606B0765606BFCF7A7
:1050E0002AFB10B1606B016D8847608D08B32068A2
:1050F0004169C943490708D40069616A0870606A58
:10510000401C6062608D401E608520684169C94313
:10511000490608D40069616A0870606A401C6062D0
:10512000608D401E6085608D18B1206C40F00400D9
:105130002064206C00B32046BDE8F840FFF7A0BA19
:10514000A16B096849686185618D19B1216C41F0D5
:1051500004012164416821F400614160A06BFCF707
:10516000FEFA0128C1D0A06B0765A06BFCF7E3FA3B
:105170000028BAD0A06BB6E72A2E06D125632820D6
:1051800084F83D002046FDF761FB94F83D10202097
:1051900028290DD0216B222901D0222E07D1256389
:1051A00084F83D0084F83E502046FDF74FFBF8BDE3
:1051B0000649E162256384F83D0084F83E502046AC
:1051C000FCF78AFFF8BD0000614400080000FFFF03
:1051D00070B516460D4604461EE02046FFF7FCFA61
:1051E00008B1012070BD681C16D0FCF733FD801B90
:1051F000A84200D885B920684069C04340070BD554
:10520000002044F8300F20216173A073216941F020
:10521000200121612073E4E720684069C043400712
:10522000DBD4002070BD00002DE9F04798461746FA
:105230000D460446C1F30746DDF820902AE000BF82
:10524000B8F1FF3F26D0FCF705FDA0EB0901414571
:1052500002D8B8F1000F1DD12068012E16D0806948
:1052600025EA00000004000C12D00020B84211D141
:10527000002044F8300F20216173A073216941F0B0
:105280002001216120730120BDE8F0874069E7E734
:105290000120EBE72068012E0AD0806925EA000092
:1052A0000004000C06D00020B842C9D00020EBE773
:1052B0004069F3E70120F7E72DE9F04798461646E5
:1052C0000D4604464FF000094FF0200AC1F307478E
:1052D00023E020684069C043400515D42068016878
:1052E00041F40071016021686FF480604861C4F886
:1052F000309084F83DA084F83E90216C41F0040188
:10530000216484F83C9021E0701C06D0FCF7A2FCDC
:10531000A0EB0800B04203D816B1012F1FD021E046
:105320002068012F15D0806925EA00000004000CD8
:1053300018D000BF44F8309F84F80DA084F80E9078
:10534000216941F02001216184F80C900120BDE821
:10535000F087406925EA00000004000CEAD12068CB
:10536000406901E02068806925EA00000004000C23
:10537000AFD1ECE72DE9F041002590460E460446FA
:10538000202728E04069C043C0060CD454F8301BE5
:105390006FF01000486144F810596777A577206ACC
:1053A0002062257714E0FCF755FCA0EB0800B04222
:1053B00000D886B920684069C04340060BD544F840
:1053C000305F6773A573206940F02000206125736A
:1053D0000120BDE8F08120684169C9434906D1D464
:1053E0000020F6E770B516460D4604461EE020463E
:1053F000FFF7F2F908B1012070BD681C16D0FCF768
:1054000029FC801BA84200D885B920684069C043A8
:1054100000060BD5002044F8300F20216173A073E3
:10542000216941F0200121612073E4E7206840698F
:10543000C0430006DBD4002070BD10B5806B01684E
:105440004A6822F003024A60002141854186012119
:1054500080F84110416C41F008014164FDF7F8F912
:1054600010BD10B50146806BC96949B901684A6829
:1054700022F001024A6000214186012180F841109A
:10548000FDF756FB10BD10B5806BFDF765FB10BD39
:105490007CB5016804468868009094F841000125B5
:1054A000042834D10098C00718D04868C04340068B
:1054B00014D4C9682046E26A1180E16A891CE1625D
:1054C000618E491E6186618E41B901684A6822F089
:1054D00060024A6080F84150FDF72AFB00984006C0
:1054E00015D520684168C943890610D4416821F068
:1054F000600141602068C1688068019084F8415073
:10550000606C40F0020060642046FDF7A1F994F859
:105510004100032834D10098800719D521684868D4
:10552000C043000614D4626A20461288CA60616AC9
:10553000891C6162618D491E6185618D41B9016877
:105540004A6822F0A0024A6080F84150FDF718FB3B
:105550000098000714D520684168C94389060FD414
:10556000416821F0A001416020688068009084F8C3
:105570004150606C40F0040060642046FDF768F91B
:105580007CBD000010B5028ADFED2C0A52BA12B2BF
:1055900000EE102A00F11001B8EEC00A80EE201AC9
:1055A000B3EE090A31EE000A80ED0E0A428ACB887A
:1055B00052BA14B200EE104A828A5BBAF8EEC00A00
:1055C00090ED030A52BA12B260EE800A1BB2C0ED2F
:1055D000080A00EE902AF8EEE00A60EE800AC0EDBC
:1055E000090A00EE903AF8EEE00A20EE800A80ED1B
:1055F0000A0A0A894B8952BA12B200EE102A5BBA23
:105600008989F8EEC00A90ED020A1BB249BA60EE31
:10561000800A09B2C0ED0B0A00EE903AF8EEE00AFB
:1056200060EE800AC0ED0C0A00EE901AF8EEE00A77
:1056300020EE800A80ED0D0A10BD0000E17A0443DF
:105640001FB50160044602710A20FCF7FDF903A8AA
:10565000322301218DE80B00752221790123206876
:10566000FCF714FE08BB9DF80C0047281DD1012251
:105670001121204600F037F8B8B90A20FCF7E4F908
:105680000F224E21204600F02EF870B90120FCF7C1
:10569000DBF906224F21204600F025F828B9062222
:1056A0005021204600F01FF810B1012004B010BDB9
:1056B0009FED040A002084ED020A9FED030A84EDA9
:1056C000030AF3E700007A3D0000003A1CB50E2201
:1056D00000F11001CDE900120179006801231D22BB
:1056E000FCF7D6FE1CBD1CB502238DF804108DF806
:1056F0000520322100910179006801AAFCF7F0FC35
:105700001CBD0000F0B500230A24302537261F46B3
:1057100011E000BFB4EB107F02D905EB107C01E073
:1057200006EB107C01F813C001EB430C00015B1C7D
:105730008CF80170DBB29342ECD3F0BD40B139B1CB
:105740000160002101734173416081600846704728
:105750000120704728B1006818B104220249FDF702
:105760007FB9012070470000000000200D4808B5F7
:10577000016841F4001101600068002200F400108B
:10578000009011460B20FDF765FA0B20FDF754FA47
:10579000002205210E20FDF75DFABDE808400E202D
:1057A000FDF74ABA3038024030B587B01421684658
:1057B000FAF738FF19480024016841F080010160C0
:1057C000016801F080010591016841F00401016068
:1057D000016801F004010591016841F002010160D6
:1057E000016801F002010591016841F001010160C9
:1057F00000680B4D00F001000590002207212846AB
:10580000FCF722FA072000900120CDE90104694647
:1058100028460394FCF72AF907B030BD303802401F
:10582000000802400D4810B50B4901600C49416069
:1058300000214FF480428160C0E90312416181611F
:10584000C1610162FCF784FB002803D0BDE8104071
:10585000FBF76FBF10BD0000005400409402002011
:10586000801A06000E4810B50C4901604FF44071D3
:10587000416000210322C0E902124FF4FA52C0E94C
:1058800004128161C1610162FCF7E6FF002803D0C8
:10589000BDE81040FBF74DBF10BD000000380040D0
:1058A000480300200C4810B50A4901604FF4E1316B
:1058B0004160002181600C22C160C0E90412816155
:1058C000C161FEF757FD002803D0BDE81040FBF78B
:1058D00030BF10BD00100140F003002010B50022C1
:1058E0000F49104800F0C4FE08B1FBF722FF0E4933
:1058F0000C4801F0D9F808B1FBF71BFF0B49094828
:1059000000F046FC08B1FBF714FF064801F050F91F
:10591000002803D0BDE81040FBF70BBF10BD00000E
:105920002400002038040020000100208400002012
:10593000FEE700001CB500F04FF94FF4FA74204662
:10594000FCF782F812491348FFF7F8FE1148FFF7F9
:1059500001FF1149002008700E48C0220F494C3841
:1059600001F0F7FF0B48D0220C493C38FFF768FEE6
:105970002046FCF769F8074802214738CDE90001C5
:10598000401F0123017909220448FCF781FD1CBD59
:105990004803002084020020200000209402002000
:1059A0008EB02148406B02F0A7F806461E480F460D
:1059B000006B02F0A1F804461B480D46C06A02F0D5
:1059C0009BF8CDE900011848806A02F095F88246FC
:1059D00015488B46406A02F08FF880461248894687
:1059E000006A02F089F802460F480B463C304068D6
:1059F000CDE90B7008A880E87000DDE90001CDE971
:105A000006018DE80C0F084808A110384389028967
:105A1000A0F58070FAF7F0FC81B20E48FBF714FE97
:105A20000120FCF711F8BCE74802002025752C2561
:105A3000752C252E32662C252E32662C252E3266AC
:105A40002C252E32662C252E32662C252E32662CE5
:105A500025640A0038010020FEE700000148FDF738
:105A6000B9BA0000341B00202DE9F04103680D464F
:105A700004461E6C03EB4511D1F8080B94F806E0C0
:105A80004FF400474FF0200C04F29C42BEF1010F8E
:105A900009D0DFF898E0764539D1020432D500BF4D
:105AA000C1F8087B3FE0224B5FEA007E04D59E42AE
:105AB00039D90004F4D436E05FEA806E02D5C1F82B
:105AC00008CB30E010F0280F2DD19E4201D9000400
:105AD000E6D405EBC50004EB8000D1F8101BD0F82C
