:020000040800F2
:1000000058710020C502000849490008913D0008C8
:10001000DD4600088316000835680008000000006F
:10002000000000000000000000000000154B000868
:10003000A917000800000000C74A0008214B00086B
:10004000DF020008DF020008DF020008DF0200080C
:10005000DF020008DF020008DF020008DF020008FC
:10006000DF020008DF020008DF020008DF020008EC
:10007000DF020008DF020008DF020008DF020008DC
:10008000DF020008DF020008DF020008DF020008CC
:10009000DF020008DF020008DF020008DF020008BC
:1000A000DF020008DF020008DF020008DF020008AC
:1000B000DF020008DF020008DF020008DF0200089C
:1000C000DF020008DF020008DF020008DF0200088C
:1000D000DF020008DF020008DF020008DF0200087C
:1000E000DF020008DF020008DF020008DF0200086C
:1000F000DF020008DF020008DF020008DF0200085C
:10010000DF020008DF020008DF020008DF0200084B
:10011000DF020008DF020008DF020008DF0200083B
:10012000F9160008DF020008DF020008DF020008FD
:10013000DF0200080000000000000000DF020008ED
:10014000DF020008DF020008DF0200084D49000856
:10015000DF020008DF020008DF020008DF020008FB
:10016000DF020008DF020008DF020008DF020008EB
:10017000DF020008DF020008DF02000800000000C4
:1001800000000000DF020008000000000000000086
:10019000DF0200080000000000000000DF0200088D
:1001A000000000000000000000000000DF02000866
:1001B000DF020008DF020008DF020008DF0200089B
:1001C000DF02000800F002F800F06CF80AA090E8E6
:1001D000000C82448344AAF10107DA4501D100F002
:1001E00061F8AFF2090EBAE80F0013F0010F18BF63
:1001F000FB1A43F001031847BC680000DC680000EC
:100200000A444FF0000C10F8013B13F0070408BF3C
:1002100010F8014B1D1108BF10F8015B641E05D0DA
:1002200010F8016B641E01F8016BF9D113F0080F8F
:100230001EBF10F8014BAD1C0C1B09D16D1E58BF21
:1002400001F801CBFAD505E014F8016B01F8016B58
:100250006D1EF9D59142D6D37047000000230024CB
:1002600000250026103A28BF78C1FBD8520728BFC6
:1002700030C148BF0B607047662906F0B58364291A
:1002800000F0CE80002070471FB506F0A8FB00F0FC
:10029000BBFC04000020002106F014FBE0601FBD41
:1002A00010B510BD00F0B0FD1146FFF7EDFF06F0F0
:1002B000F1FA00F0CEFD03B4FFF7F2FF03BC00F04B
:1002C00011FE00000948804709480047FEE7FEE7A5
:1002D000FEE7FEE7FEE7FEE7FEE7FEE7FEE7FEE7F6
:1002E00004480549054A064B70470000BD4B00080D
:1002F000C501000858210020587100205831002005
:100300005831002053EA020C00F069802DE9F04BCF
:100310004FF00006002B1FBFB3FA83F503FA05F474
:1003200024FA05F65E4012BF1643B2FA82F502FACD
:1003300005F4C5F120051EBF22FA05FC44EA0C04B1
:10034000203556EA044C4FEA144418BF641C4FF0A1
:1003500000084FF00009904271EB030C39D30029DB
:1003600019BFB1FA81F701FA07F6B0FA80F700FA7F
:1003700007F6C7F120071EBF20FA07FC46EA0C0665
:100380002037B6FBF4FCA7EB0507103F07F01F0B67
:10039000CBF120060CFA0BFB2CFA06F644BFB34651
:1003A0000026202FA4BF5E464FF0000B5BEA060C30
:1003B00008BF4FF0010B19EB0B09ABFB027C48EBBC
:1003C0000608C01B06FB02CC0BFB03CC71EB0C0137
:1003D000C1E70B46024641464846BDE8F08B13B5DF
:1003E0004FF000004FF00001AFF30080BDE81C406B
:1003F000704700000FB41CB5084B06AA7B44694641
:100400000090059800F0E7FB04460020694600F0E4
:10041000F5FB20461CBC5DF814FB0000FD07000046
:100420002DE9F0410646002410687529314616A5CD
:1004300010D0AFF30080002802DA404213A507E095
:1004400031688A0701D512A502E0490704D511A534
:10045000012401E0AFF3008000210A2206F1240705
:1004600009E0B0FBF2FCB0FBF2F302FB1C00303001
:1004700078541846491C0028F3D123462A463046B2
:10048000BDE8F04100F039B9000000002D00000087
:100490002B000000200000002DE9F05F8946044693
:1004A0004FF0000ADFF874B1FB44C0F820A02046EA
:1004B000E1688847002874D0252806D0D4E90121B6
:1004C0009047206A401C2062F1E700265F462046E4
:1004D000E16888472028054607DB312D05D27819C9
:1004E00010F8200C08B10643F1E7B00701D526F05B
:1004F0000406C4F81CA00027C4F818A02A2D09D0AF
:10050000284606F0C0F938B304EB8708303DC8F838
:10051000185019E059F8041B204604EB870291613A
:10052000E1688847012F054618D1E069002820DAE4
:1005300026F020061DE0D8F8180000EB800005EB3F
:1005400040003038C8F818002046E1688847054662
:1005500006F099F90028EED1012F0AD02E2D08D1EE
:100560002046E16888477F1C0546022F46F020069A
:10057000C4DBA069002803DA404246F00106A0610E
:10058000F00701D026F010066C2D0BD0682D09D095
:100590004C2D39D06A2D35D0742D35D07A2D33D0ED
:1005A00016E038E0E1682F4620468847B842054605
:1005B00009D16C2F26D04FF48060E16806432046B5
:1005C0008847054604E06C2F1AD04FF4807006432C
:1005D0000DB3A5F14100192802D8203546F4006674
:1005E0004A462946204626604E46FFF745FE80B122
:1005F00001280BD0F61D26F0070000F1080956E788
:100600004020E4E78020D8E70020D6E706F104097F
:100610004DE7284652E7206ABDE8F09F606500007C
:1006200040EA0103024630B59B0710D14FF0013478
:1006300000E008C208C91D1B9D4315EAC41FF8D07D
:1006400013F0FF0102F8011B0DD01B0AF8E711F8A7
:10065000013B002B02F8013B05D011F8013B002BB8
:1006600002F8013BF3D130BD10B5431C02E010F895
:10067000011B71B18107FAD14FF0013202C88C1A07
:100680008C4314EAC211F9D0C01A0A0603D0C01E66
:1006900010BDC01A10BD0A0401D0801E10BD090291
:1006A000FCD0401E10BD4FF0000200B5134694462A
:1006B0009646203922BFA0E80C50A0E80C50B1F1BA
:1006C0002001BFF4F7AF090728BFA0E80C5048BFCE
:1006D0000CC05DF804EB890028BF40F8042B08BF6C
:1006E000704748BF20F8022B11F0804F18BF00F868
:1006F000012B70477047704770472DE9F0470D4652
:1007000099469246044600F124080168880604D5FB
:10071000E06921F01001216000E00120A84201DD24
:10072000471B00E00027A1697A1902EB0900081AAB
:10073000A0612078C00602D42046AFF300800026D6
:1007400008E0D4E901211AF806009047206A401C0D
:10075000761C20624E45F4DB2078C0060AD5204680
:10076000AFF3008006E0D4E9012130209047206AF1
:10077000401C2062381EA7F10107F4DC07E0D4E931
:10078000012118F805009047206A401C2062281EAD
:10079000A5F10105F3DC2046AFF3008020780006C8
:1007A00002D50220BDE8F0870120FBE770472DE964
:1007B000FF4F0C461E464FF0FF378BB0D2E90001C9
:1007C000DDF860800A908A46C1F30A5505B93D46B6
:1007D000002108464FF00000BAF1000F00F440007D
:1007E00005DA00EB80004FF4400101EA50004FEAC7
:1007F0009059B9F1010F00DDB9460A9850EA4A0054
:100800000ED044F61050A5F2FF3545432F14B8F131
:10081000000F1ED07542291E1EDDC9F100021CE02A
:10082000B8F1010F4FF0000001D0302103E0F24396
:1008300005E02154401CB042FBDB30460022002181
:1008400021540B99C1F80880C1E900200FB0BDE820
:10085000F08FBD1B6D1CDEE74A4600DA694206A830
:1008600000F05CFA06AB93E8070003AB83E80700EF
:1008700050460A9900F03DFB8DE80700A0F50050B6
:100880001F3800900398002D0ADD42F21F014A46EE
:100890000844002303A90390684600F0A6FD09E080
:1008A000A0F500504A461F38002303A9039068466C
:1008B00000F0B0FD8DE807000004000C03D04FF0FD
:1008C000FF30410800E01046B8F1000F03D00022CD
:1008D000009215461EE0751E05D400F099F93032DD
:1008E00062556D1EF9D5B3460122084302D000229D
:1008F0007F1C04E02078302801D100227F1E002ACE
:10090000099784D01DE0112D07DA00F081F930320B
:1009100062556D1C50EA0102F5D1084302D00098DF
:10092000C8B10EE00021681E05E0235C625C6354E0
:100930002254401E491C8142F7DBAB46A81B401ED7
:100940000990002004F80B000B98099AC0F8088061
:10095000C0E9002B7AE711264FF0000857E72DE990
:10096000F04F88460446D21D22F0070191B0D1E92C
:100970000001CDE90A0105F05EFF02460B98C00FA9
:1009800001D02D2007E02068810701D52B2002E04F
:10099000202101EAC000032A099001D0072A05DBC3
:1009A00003464146204600F079F90BE120788006A5
:1009B00001D5E06900E00620B8F1650F814606D058
:1009C000B8F1660F18D0B8F1670F70D131E0002090
:1009D000B9F1110F009001DB112301E009F10103CE
:1009E0000AAA01A90CA8FFF7E2FEDDE90C700026B7
:1009F00009F10105834647E001204B4600904FF086
:100A000000470AAA01A90CA8FFF7D1FEDDE90DB045
:100A10000C995D46002610B909F101000D18B9EBDB
:100A2000050003D4C0F1FF3609F10105A5EB09006B
:100A30002BE0B9F1010F01DA4FF001090020B9F103
:100A4000110F0090484601DD112300E003460AAA79
:100A500001A90CA8FFF7ABFEDDE90C704D4600269E
:100A60008346207800070AD4AB4500DA5D4601A82A
:100A7000012D04DD411911F8011C302907D04F4523
:100A800002DA17F1040F04DA012082460FE06D1E2E
:100A9000EEE7002F02DCED1B3E4403E0781CA84289
:100AA00000DD7D1CB81B00F1010A4FF000472078E3
:100AB000000703D4AA4501DB4FF0FF3A0021B7F14C
:100AC000004F0DF143088DF8431024D002202B2352
:100AD000002F01DA7F422D230A21021EA0F101001E
:100AE00000DC5FB197FBF1FC97FBF1F201FB1C7C92
:100AF00017460CF1300C08F801CDEEE7A8F1010023
:100B000003702188090501D5452100E06521A0F188
:100B1000010800F8011C09980FA9A1EB0807FF1DA7
:100B200000B10120411901EBEA70A1693844081AAB
:100B3000401EA0612078C00602D42046AFF300809A
:100B4000099828B1D4E901219047206A401C20620D
:100B50002078C00622D52046AFF300801EE0002E8C
:100B600004DBB34502DD01A8805D00E03020D4E95C
:100B700001219047206A401C2062761CAAF10100E6
:100B80005FEA000A0AD100F03FF8C0680168405CE3
:100B9000D4E901219047206A401C2062281EA5F15B
:100BA0000105DCDC07E0D4E9012118F8010B9047CE
:100BB000206A401C2062381EA7F10107F3DC2046A2
:100BC000AFF30080032011B041E6000001694A1C28
:100BD00002610878704700B58FB0CDE9013100217E
:100BE000059105497944CDE9031011466846FFF7A0
:100BF00053FC0FB000BD0000E5FFFFFF0A6802F8DC
:100C0000010B0A607047000000487047182100205F
:100C100030B5B0F10A024FEA900E71F100034EEACE
:100C2000817EB0EB0E0061EB91014FEA101E4EEA9F
:100C3000017E10EB0E0041EB11114FEA102E4EEA2F
:100C4000016E10EB0E0041EB11214FEA104E4EEAFF
:100C5000014E10EB0E0041EB1141401841F1000133
:100C60004FEAD00040EA41704FEAD10110EB800515
:100C70004FEA810444EA907444EB01046D1944EB9B
:100C80000404521BA3414FF0000348BF0A3200D5B1
:100C900030BD401C41F1000130BD00002DE9F041A4
:100CA0001F46044603260168072A01F4006004DB9E
:100CB00008B116A505E016A503E008B115A500E0EA
:100CC00015A521F010002060A069C01EA0610FB121
:100CD000401EA0612046AFF300804FB1D4E901214E
:100CE00038469047206A401C2062C01C206206E003
:100CF000206AFAE7D4E9012115F8010B9047761E26
:100D0000F8D22046AFF30080BDE8F0814E414E009E
:100D10006E616E00494E4600696E66002DE9F0472F
:100D2000814616468AB0354878440DC88DE80D00D6
:100D300032487844801C03AC0DC884E80D0041F6AD
:100D40009B300844372190FBF1F290FBF1F5A5F1BF
:100D5000800501FB12041B3C02D56442012000E027
:100D60000020DFF898A080460027FA44AAF1BE0AC6
:100D70000EE0E0070AD03246684607EB4701012340
:100D80000AEB810100F046FB8DE8070064107F1C30
:100D9000002CEED1194F7F44AE3F19E0E80715D083
:100DA00007EB04100DF1180A90E80E008AE80E0017
:100DB000C068F04201D1981908903246012306A973
:100DC00003A800F027FB03AB83E807006D10641C49
:100DD000002DE3D14FF0010332466946B8F1000F10
:100DE00003A802D000F001FB01E000F013FBC9E909
:100DF0000001C9F808200AB0BDE8F087705D000066
:100E000000487047F82000207546FFF7F9FFAE460E
:100E100005006946534620F00700854618B020B506
:100E2000FFF75EFABDE820404FF000064FF00007E4
:100E30004FF000084FF0000B21F00701AC46ACE882
:100E4000C009ACE8C009ACE8C009ACE8C0098D46EF
:100E5000704710B50446AFF300802046BDE810404F
:100E6000FFF729BA4FF0013C50F8042B51F8043B2E
:100E70009A4221D1A2EB0C03934313EACC1317D16E
:100E800050F8042B51F8043B9A4215D1A2EB0C0305
:100E9000934313EACC130BD150F8042B51F8043BC5
:100EA0009A4209D1A2EB0C03934313EACC13DBD093
:100EB0004FF00000704700BFD01A01BAB1FA81F1BB
:100EC00001F0180122FA01F0CB40C1F12001DBB2A0
:100ED000C0B2C01A2CFA01F3D11A914311EAC3111E
:100EE000E6D1704701491820ABBEFEE7260002009C
:100EF00070475FEA400C08BF91F0000F4FEA8C2367
:100F00004FEAC12243EA51514FEA1C5018BF00F585
:100F1000F0404FEA300018BF41F000415FEA6C5CDE
:100F200000F02980BCF1FF3F08BF40F080407047CF
:100F3000130C06BF12044FF0100C4FF0000C130EF0
:100F400004BF12020CF1080C130F04BF12010CF1C4
:100F5000040C930F04BF92000CF1020CD30F04BFDA
:100F600052000CF1010C11464FF00002A0F11F00DD
:100F7000A0EB0C00704711F0004F08BF704731F034
:100F800000413FF4D5AF0B0C06BF09044FF0100C25
:100F90004FF0000C0B0E04BF09020CF1080C0B0FF4
:100FA00004BF09010CF1040C8B0F04BF89000CF184
:100FB000020CCB0F04BF49000CF1010CCCF1200353
:100FC000A0EB0C0022FA03F302FA0CF241EA03014F
:100FD00000F10100704720F07F4C80EA030023F00D
:100FE0007F47ACEB070303F57C5300F0004003F1AF
:100FF000FF032DE980494FEA154B09B44FEA14432A
:1010000025EA0B4E24EA03480FF2042606EB1327C9
:1010100049083E785FEA320203FB0667C7F500071E
:1010200007FB06F64FEA54374FEAD64606F10206AA
:1010300007FB066CCCF1005C4FEA1C472CEA074C1E
:1010400007FB06F40CFB06F504EB15464FEA961673
:1010500034BF00204FF000404FEAD13706FB07FCB9
:101060004FEA1C4C0CFB0BF7D21B03FB0CF761EB9C
:1010700007010CFB0EF7B0EB074072EB17420CFBBD
:1010800008F734BFA2EB0742B2EB074261EB17410E
:101090004FEA0C444FEA910706FB07FC4FEA1C4C51
:1010A0000CFB0BF7B0EBC74072EB573203FB0CF7AE
:1010B00034BFA2EBC742B2EBC74261EB57310CFB26
:1010C0000EF7B0EBC70072EB57720CFB08F734BF9A
:1010D000A2EBC702B2EBC70261EB5771039F4FEA65
:1010E000816141EA921104EBCC044FEAD1374FEA17
:1010F000826206FB07FC42EA90124FEA80604FEAE8
:101100001C4C0CFB0BF7D21B03FB0CF761EB07012C
:101110000CFB0EF7B0EB074072EB17420CFB08F725
:1011200034BFA2EB0742B2EB074261EB17414FEA33
:101130008C554FEA910704EB9C2406FB07FC4FEA11
:101140001C4C0CFB0BF7B0EBC74072EB573203FBA8
:101150000CF734BFA2EBC742B2EBC74261EB573189
:101160000CFB0EF7B0EBC70072EB57720CFB08F7E5
:1011700034BFA2EBC702B2EBC70261EB577115EBAC
:101180004C254FEA816141EA92114FEA82624FEAAF
:10119000D13742EA901206FB07FC44F100044FEA03
:1011A00080604FEA1C4C0CFB0BF7D21B03FB0CF7C7
:1011B00061EB07010CFB0EF7B0EB074072EB174237
:1011C0000CFB08F734BFA2EB0742B2EB074261EB1E
:1011D000174115EB1C154FEA813141EA92414FEA64
:1011E000823242EA90424FEA80304FEA0C7644F174
:1011F000000448EA03434EEA0B484FF0000EB2EBFE
:10120000080C71EB030724BF624639464EEB0E0E05
:101210004FF0000B0018524149414BEB0B0BB2EB66
:10122000080C71EB03077BF1000B24BF62463946C3
:101230004EEB0E0E4FF0000B0018524149414BEBA4
:101240000B0BB2EB080C71EB03077BF1000B24BF17
:10125000624639464EEB0E0E51EA020718BF46F0C1
:10126000010616EB0E7655F1000254F1000103D58C
:10127000BDE88901BDE80088BDE88901BDE80048F6
:10128000B619524141EB0101A3F10103704780807F
:101290007F7E7D7C7B7A79787776767574737271D0
:1012A00071706F6E6E6D6C6C6B6A6A696868676688
:1012B00066656464636362616160605F5F5E5E5D1A
:1012C0005D5C5C5B5B5A5A5959585857575656558E
:1012D00055555454535352525251515050504F4FF0
:1012E0004F4E4E4D4D4D4C4C4C4B4B4B4A4A4A4940
:1012F0004949484848474747474646464545454483
:101300004444444343434342424242414141002B0F
:101310009C4630D477002BD01CB54FEA370703B476
:101320004FF010004FF01001BAF1000F06D0BCF1E1
:10133000000FDCBF40F0080040F008014FF0000053
:101340000FBCBDE810400BF1010BBBF1010F08BF52
:101350005FEA170722BF12F1010211F101014FF0FC
:10136000004143F1000300F0004043EA00007047F1
:10137000F9D35708D0E746EA064613F1400F4FEA83
:1013800016461FDD13F1200FDFBF16430A4600216A
:1013900020335B42BED0C3F1200746EA064602FA7C
:1013A00007F74FEA164646EA0706C3F1200722FA76
:1013B00003F201FA07F721FA03F14FF0000342EAC2
:1013C0000702A7E746EA020646EA06464FEA16463D
:1013D00046EA0106BCBF46EA0646360C4FF000035B
:1013E0004FF000024FF0000194E72DE9804C9A463F
:1013F000934670B491E8380007C831EA400C48BF02
:1014000034EA430C03D5FFF7E6FDFFF780FFF0BC9D
:10141000BDE8008C2DE9804C9A46934670B491E863
:10142000380007C810F0804F08BF13F0804F03D179
:1014300000F005F8FFF76BFFF0BCBDE8008C20F072
:101440007F4780EA030023F07F4C07EB0C03A3F5F2
:101450007C5300F00040A3F1FE0392F0000F00F077
:10146000B38095F0000F00F077802DE901494FEA35
:1014700011404FEA144621EA004800FB06FC24EA2A
:10148000064708FB06F607FB08F800FB07F718EB12
:1014900006484CEB164C4FEA124B18EB07484FEA44
:1014A00015464CEB174022EA0B4E0BFB06FC25EAD7
:1014B00006470EFB06F607FB0EFE0BFB07F71EEBBF
:1014C000064E4CEB164C4FF000061EEB074E4CEB55
:1014D000174B18EB0B0840F1000018EB0E0B58EB04
:1014E000000840F100008F1A4FF000013CBFC943D3
:1014F000661B14BFB5EB040C00213CBFC943F61BAF
:101500004FEA17444EEA8E0E27EA04454FEA1C477D
:1015100004FB07622CEA074C05FB07F70CFB05F6FA
:1015200004FB0CFC16EB074642EB174216EB0C468D
:1015300042EB1C421BEB060658EB0202414146EA15
:101540009E0601D5BDE80189B619524141EB010162
:10155000A3F10103BDE801894FEA14454FEA1147A1
:1015600024EA054621EA074C05FB07F406FB07F7CA
:101570000CFB06F105FB0CFC11EB074144EB174497
:101580004FEA124711EB0C4144EB1C4422EA074C92
:1015900005FB07F206FB07F70CFB06F605FB0CFC48
:1015A00016EB074642EB174216EB0C4642EB1C4586
:1015B0006A1854F1000148BF7047B619524141EB17
:1015C0000101A3F10103704795F0000F37D04FEAF6
:1015D00011424FEA144721EA024624EA074C02FB73
:1015E00007F106FB07F70CFB06F402FB0CFC14EBFF
:1015F000074441EB17414FEA154714EB0C4441EB0C
:101600001C4125EA074C02FB07F506FB07F70CFB1C
:1016100006F602FB0CFC16EB074645EB174516EBEE
:101620000C4645EB1C42121951F1000148BF7047AE
:10163000B619524141EB0101A3F1010370474FEA92
:1016400014454FEA114724EA054621EA074C05FBF9
:1016500007F106FB07F70CFB06F24FF0000605FB4F
:101660000CFC12EB074241EB174112EB0C4251EB21
:101670001C4148BF7047921841EB0101A3F10103DF
:101680007047FEE7002070470020704710B5002229
:101690000449054803F006FD0449034803F0F5FC3E
:1016A000002010BDF411002018050020F4090020CE
:1016B00010B50146034803F0E8FC024803F0BEFC05
:1016C000002010BD18050020002070470A46094977
:1016D00010B5D1F8BC1211B1D1F8141209B1012022
:1016E00010BD0146034803F0DDFCBDE81040014891
:1016F00003F052BD18050020014800F059B8000061
:101700007004002001681823CAB2103AB2FBF3F249
:10171000054B6FF30901032A9B5CC36500D9091DC2
:101720008165084670470000EC69000810B5014665
:1017300000208B698A6A4FF0C07453B1B3F5005F23
:1017400015D072B1012A0CD0022A0AD0032A09D17D
:1017500004E01AB1012A06D0022A03D1C96AC901DC
:1017600000D5012010BDC96AA142FAD010BD002ADF
:10177000F7D0012AF2D0022AF3D0032AF3D010BD09
:1017800030B50468256825F4802525600468636009
:101790008368402B036803D099600068C26030BD45
:1017A0009A600068C16030BD704772B6FEE7000005
:1017B0002DE9F84304464FF00009CDF80090634846
:1017C0004FF41651A56D0068B0FBF1F72E6894F840
:1017D0005C10082000FA01F131420FD021680A683C
:1017E00052070BD50A6822F004020A6094F85C10D4
:1017F0008840A860606D40F00100606594F85C105E
:101800004FF0010808FA01F0304208D02168496918
:10181000090604D5A860606D40F00200606594F888
:101820005C1004208840304208D02168096889078C
:1018300004D5A860606D40F00400606594F85C1009
:1018400010208840304218D021680968090714D553
:10185000A86020680168490304D50068000308D522
:10186000A16C07E00168C90503D4016821F00801F3
:101870000160216C09B12046884794F85C10202053
:101880008840304231D021680968C9062DD5A8604A
:1018900094F8350005282068016806D0490347D52B
:1018A000006800031DD4616C1CE021F0160101608A
:1018B0002068416921F080014161206C08B9A06C69
:1018C00020B12068016821F00801016094F85C10E3
:1018D0003F208840A86084F8358084F83490216DDA
:1018E0001FE0E16B09B120468847606D00282BD0CE
:1018F000606DC00714D0052084F8350020680168A9
:1019000021F0010101600098401C0090B84203D80A
:1019100020680068C007F6D184F8358084F83490D8
:10192000E16C002910D001B02046BDE8F043084723
:101930000168C905D5D4016821F01001016084F85F
:10194000358084F83490CCE7BDE8F883A00000200F
:101950002DE9F041044600F0A3F906465CB10220EF
:1019600084F83500002584F834502068016821F09F
:10197000010101600DE00120BDE8F08100F090F967
:10198000801B052805D920206065032084F83500D8
:10199000F2E720680068C007F0D12268116820488B
:1019A0000140D4E901031843D4E903363343184313
:1019B00063691843A3691843E3691843236A18430A
:1019C0000843616A042903D1D4E90B13194308437E
:1019D000106020684069666A20F0070130460E43B7
:1019E000012704280CD1A06A0643E06A40B12046D2
:1019F000FFF79CFE20B14020606584F83570BAE79F
:101A0000206846612046FFF77DFE94F85C203F2168
:101A100091408160656584F835700020ACE7000076
:101A20003F8010F02DE9F0410446866D90F83400B7
:101A3000002501280DD0012084F8340094F8357079
:101A40000020012F07D084F8340002252846BDE885
:101A5000F0810220FBE7022784F83570606520469C
:101A6000FFF78EFE94F85C103F208840B06020683D
:101A7000016841F016010160206C20B12068016806
:101A800041F0080101602068016841F00101016036
:101A9000DCE7000070B5044600F002F90546601C62
:101AA00002D004480078044400F0FAF8401BA04239
:101AB000FAD370BD940000202DE9F84FDFF8ACA1F7
:101AC0000022012403254FF00F090AF1040BAAF1AB
:101AD000040E00BF0B6804FA02F63340B3426ED125
:101AE0000F7907F00307012F01D0022F16D1876865
:101AF0004FEA420805FA08FC27EA0C07D1F80CC0A7
:101B00000CFA08FC4CEA070CC0F808C04768B74359
:101B10000E79C6F3001696403E4346600E79F643B2
:101B2000B6070AD0C6684FEA420C05FA0CF7BE4366
:101B30008F6807FA0CF73743C7600E7906F0030683
:101B4000022E10D1D60800EB8608D8F8206057077F
:101B50004FEAD76C09FA0CF7BE430F6907FA0CF786
:101B60003743C8F8207006684FEA420C05FA0CF7B4
:101B7000BE430F7907F0030707FA0CF737430760F6
:101B80004E6816F4403F6BD0394E376847F48047B3
:101B90003760366822F0030706F480460096354E1B
:101BA00007EB060CDCF8086897074FEA177809FA84
:101BB00008F7BE43304FB84202D100271FE04FE084
:101BC0002E4FB84201D1012719E02D4FB84201D163
:101BD000022714E02B4FB84201D103270FE02A4F10
:101BE000B84201D104270AE0284FB84201D10527A5
:101BF00005E0274FB84201D1062700E0072707FA82
:101C000008F73743CCF80878DAF800605746D1F87F
:101C100004C09E435FEACC2C00D51E433E60DBF837
:101C200000605F46D1F804C09E435FEA8C2C00D56B
:101C30001E433E60DEF800607746D1F804C09E4344
:101C40005FEA8C3C00D51E433E60084F083F3E686B
:101C5000D1F804C09E435FEACC3C00D51E433E60F1
:101C6000521C102AFFF436AFBDE8F88F083C014043
:101C700044380240003001400000024000040240AD
:101C800000080240000C0240001002400014024014
:101C9000001802400AB1816170470904FBE70000A7
:101CA00001488068704700009400002070B504006F
:101CB00025D094F83D00002520B984F83C502046FA
:101CC00000F050FA242084F83D002068016821F0DB
:101CD000010101602068016841F400410160206851
:101CE000016821F40041016001F0A0FD4D4A6168E6
:101CF000914201D84C4900E04C49884201D2012070
:101D000070BD4B492368B0FBF1F15E6826F03F06D9
:101D10000E435E606368934206D94FF4967359434D
:101D20004FF47A73B1FBF3F12368491C1E6A26F065
:101D30003F06314319626168914210D84900401E44
:101D4000B0FBF1F2521CC2F30B02042A01D20420B0
:101D500022E0B0FBF1F0401CC0F30B001CE0A268D5
:101D6000F2B301EBC10303EB0116431EB3FBF6F321
:101D70005B1C43F480431B0549D092B301EBC102C5
:101D800002EB0111401EB0FBF1F0401CC0F30B0050
:101D900040F4804040F400402168CA694CF6FF736B
:101DA0009A431043C861D4E90710014320680268D0
:101DB00022F0C00211430160D4E90301014320680D
:101DC000826848F2FF339A4311438160D4E90501E8
:101DD00008432168CA6822F0FF021043C86001E08E
:101DE0000EE016E02068016841F001010160256401
:101DF000202084F83D00256384F83E50002070BD0B
:101E000001EB4106431EB3FBF6F35B1CB3E7012075
:101E1000C2E701EB4101401EB0FBF1F0401CC0F3F2
:101E20000B00B7E7A086010080841E0000093D007A
:101E300040420F002DE9F84F1F4690468A4604465F
:101E4000DDF82890FFF72CFF054694F83D00202888
:101E50007FD11923012240492046009502F0A8F8BD
:101E6000002876D194F83C00012872D0012084F833
:101E70003C0020680168C90703D1016841F00101F5
:101E800001602068016821F400610160212084F86C
:101E90003D00102084F83E0000262664C4F824800B
:101EA0006785608D20852D48E0622B464A46514665
:101EB000204601F085FF90B9206841698069009053
:101EC00036E02A464946204602F050F950B1206CCF
:101ED000042804D12068016841F4007101600120E8
:101EE000BDE8F88F606A216800780861606A401C6C
:101EF0006062618D491E6185218D491E89B22185EF
:101F000022685369DB435B070BD451B10078106141
:101F1000606A401C6062608D401E6085208D401E9E
:101F200020852A464946204602F016F80028CED1E0
:101F3000208D0028C5D154F83D0B016841F4007193
:101F40000160202004F81E09E67766770020C7E7C5
:101F5000FFE70220C4E70000020010000000FFFFBE
:101F60002DE9FF4F83B09A46DDE911879346044679
:101F7000DDF84090FFF794FE054694F83D002028D8
:101F800070D11923012274492046009502F010F8FF
:101F90000028F5D194F83C00012863D0012084F892
:101FA0003C0020680168C90703D1016841F00101C4
:101FB00001602068016821F400610160222084F83A
:101FC0003D00402084F83E0000262664C4F824909A
:101FD000A4F82A80608D20856048E062CDE9007514
:101FE00053465A462046049901F038FF002879D11B
:101FF000208DD0B1012821D00228206824D0416949
:1020000080690090208D032866D801282BD0544980
:1020100002283B464FF00002009557D088462046E4
:1020200001F0C6FF00285DD13AE02068416981696E
:102030000091016841F4007101607DE02068016851
:1020400021F480610160F0E7016821F480610160A2
:102050002068016841F4006101602068416980697D
:10206000009069E075E02A463946204602F046F8BD
:1020700088BB54E02068016841F400710160206869
:102080000069616A0870606A401C6062218D491EA7
:102090002185618D491E618521680969017042E0D1
:1020A0002068016821F48061016020680069616A2C
:1020B0000870606A401C6062208D401E2085608D23
:1020C000401E60853B46002241460095204601F0B7
:1020D0006FFF00B9CEE705E02A463946204602F0F8
:1020E0000DF818B1012007B0BDE8F08F2068006935
:1020F000616A0870606A401C6062208D401E81B277
:102100002185608D401E608520684269D243520758
:1021100012D4032903D1016821F480610160206891
:102120000069616A0870606A401C6062208D401E10
:102130002085608D401E6085208D00287FF462AF71
:10214000202084F83D0084F83E6084F83C60002044
:10215000C9E70220C7E70000020010000000FFFFEF
:102160000400010010B586B0044614216846FEF74D
:102170009AFA14492068884221D113480021026844
:1021800042F002020260006800F0020005904FF485
:10219000107000901220CDE901010320039004206B
:1021A000049069460948FFF787FC0748103001682A
:1021B00041F400110160006800F40010059006B0C1
:1021C00010BD0000005400403038024000040240BE
:1021D000704700002DE9F041040004D094F841005C
:1021E000002618B109E00120BDE8F08184F84060C4
:1021F00038486063204600F073F8022084F84100FC
:102200002168CA6940F6BF77BA43CA61216808628B
:102210006069022839D0E06868B12025A0682028CC
:1022200000D86D002C492068884202D02B49884292
:1022300003D1012002E01025F0E7022000F072FF38
:102240002169B1F5007F02D0B0FBF5F006E0E1684E
:1022500009B1A90000E0E900B0FBF1F000EB80005B
:1022600061694000B0FBF1F0401D0A21B0FBF1F0C4
:1022700000F00101401A40080902821EFE2A06D31E
:10228000606C40F010006064ADE70220002122691C
:102290000843024320680262D4E901010843A269AD
:1022A000E168114308432168CA69BA43104340F406
:1022B0000060C861A068302801D0B02804D120682F
:1022C000C16941F48051C1616664012084F8410014
:1022D000002089E71942000800380040003C004017
:1022E00070B59EB00646142117A8FEF7DCF95C21F4
:1022F0006846FEF7D8F92849306888424AD1022456
:102300003220CDE9020400940420059401900025B8
:1023100001200F950A900494684600F0CFFF08B1A1
:10232000FFF743FA1D48016841F4805101600068DD
:1023300000F480501C9019481438016841F00101E4
:102340000160006817A900F001001C90B02081E82E
:1023500031000520CDE91A501148FFF7ADFB124CB2
:10236000104820604FF0C060C4E901054FF4806060
:10237000C4E90350800060618000A0618011C4E95D
:10238000070520466562FFF7E3FA08B1FFF70DFA8B
:10239000F463A6631EB070BD0030014044380240B3
:1023A000000002401064024070040020F8B50446AA
:1023B00029B122B194F84100012829D101E001207E
:1023C000F8BD94F84000012822D0012684F840602E
:1023D000042084F8410000256564E1622068C0693A
:1023E00000F00700032815D0052813D02286628646
:1023F000E16B1F480864E16B1E48C863E16B1E482F
:10240000C8642168C869C0F30120032809D00BE023
:102410000220F8BD4FF6FF7000EA42002086608679
:10242000E6E7C86888680090238E0C31E26AE06BAA
:10243000FFF7F8FA40B154F8440F40F0080044F8B0
:10244000040966702570BAE784F840502068416836
:10245000C90703D1416841F0010141602068C169A9
:10246000490503D4C16941F48061C1610020F8BD10
:102470000F420008EB410008C341000806498842AA
:1024800009D106484169008A41EA004081120448A6
:1024900041600121417370472804002000000020A2
:1024A000C40300200649884209D1064841680088D3
:1024B00041EA0040811204484160012141737047A4
:1024C0002804002000000020C40300207047000002
:1024D00002488168027811448160704794000020AE
:1024E0000B4810B5016841F400710160016841F4C6
:1024F00080610160016841F480710160032000F097
:102500006FF8002000F006F800F024F8002010BD5D
:10251000003C024070B50D4D04464FF47A712878A6
:10252000B1FBF0F00A490968B1FBF0F001F0B4FB2F
:1025300048B9102C07D200222146501E00F030F876
:1025400000206C6070BD012070BD00009400002070
:10255000A00000200A4808B5016841F480410160EC
:10256000006800F4804000900548001F016841F0B9
:1025700080510160006800F08050009008BD0000AC
:1025800044380240002809DB00F01F02012191407D
:102590004009800000F1E020C0F800117047000001
:1025A000F0B40E4B1B680C46C3F30223C3F10705BE
:1025B000042D00D90425191D072901D2002300E0AC
:1025C000DB1E012606FA05F1491E214099409E4076
:1025D000761E16403143F0BC04F045B90CED00E026
:1025E000064900F0070208684FF6FF03184040EA6A
:1025F0000220034A10430860704700000CED00E021
:102600000000FA0501220168C0F8D824002280F8F1
:10261000CC24886940F000608861486D024A10430C
:1026200048650020704700000300001070B5164D8B
:102630000446A1B1012911D12068D0F8001E41F053
:102640000101C0F8001ED4F8E00403F073F9E07A49
:10265000002803D0286840F00600286070BDE07AAA
:1026600028B102F05FFA286820F006002860206890
:10267000D0F8001E21F00101C0F8001ED4F8E004DB
:10268000BDE8704003F0F1B810ED00E00068416271
:1026900000207047F0B50368586A39B19C6A4FF45E
:1026A000827600EB144400204D1E0AE040EA02400E
:1026B00098620FE006EB8007DF59401C04EB1744DB
:1026C000C0B2A842F6D344EA02404FF4807202EB53
:1026D000810158500020F0BDD0F8E00403F005B8A7
:1026E00001EBC10200EB8202D0F8E004126A02F0B2
:1026F00056BF01EBC10200EB8202D0F8E004D2F831
:10270000602202F0A8BFD0F8E00402F0F0BF0A0691
:1027100001F00F0101EBC10100EB810101D5143182
:1027200001E001F51571006803F0D2BE70B50446F2
:102730000B0601F00F0000EBC00104EB81014FF02C
:1027400001024FF0000502D54A75143103E081F80B
:10275000555201F51571087094F89404012808D0B9
:1027600084F89424206803F0D1FB84F8945400206A
:1027700070BD022070BD70B5044601F00F002279D3
:10278000904201D9012070BD0B0601F00F0101EB51
:10279000C10104EB81014FF001024FF0000502D5A9
:1027A0004A75143103E081F8555201F515718D70A9
:1027B000087094F89404012808D084F894242068C0
:1027C00003F012FD84F89454002070BD022070BD07
:1027D00001F00F0101EBC10100EB8100D0F86802AC
:1027E00070472DE9F04104460F0601F00F0000EBA1
:1027F000C00104EB81014FF001064FF0000502D546
:102800004E75143103E081F8555201F51571C2F38C
:102810000A0208708A600B714A7802B14883022B61
:1028200000D14D7194F89404012809D084F894647F
:10283000206803F0B9FA284684F89454BDE8F08182
:102840000220FBE710B501F00F0404EBC40100EB1C
:102850008101C1E998230023C1F8683281F855321B
:1028600081F85442837901F51571012B00D1CA61B9
:102870008279006803F010FD002010BD70B5044699
:102880000D4601F00F002179884201D9012070BD69
:1028900029064FF000064FF0010206D500EBC001FB
:1028A00004EB81014A75143107E005EBC50104EB27
:1028B000810181F8556201F515718A70087094F8EC
:1028C0009404012807D084F89424206803F0B8FC0D
:1028D000280702D007E0022070BDA17904F29C42D3
:1028E000206803F055FC84F89464002070BD10B596
:1028F00001F00F0404EBC40100EB8101C1E90823DE
:1029000000238B6201234B7501F8144F8379012B4F
:1029100000D1CA618279006803F0BEFC002010BDBE
:102920002DE9FC5F05680446284603F06DFE00288B
:102930007DD1206803F094FE002878D0D5F80808EF
:10294000C0F30D20C4F8D404206803F089FE80078A
:1029500004D52068416901F002014161206803F05B
:102960007FFEC10604F29C40009034D52068816946
:1029700021F0100181612F6A07F00F0000EBC00009
:1029800004EB8006C7F3434006F51576022802D013
:10299000062811D01AE047F6F070074216D0C7F3A8
:1029A0000A1217462846F16803F05EFEF0683844C4
:1029B000F0607069384408E008222846009903F066
:1029C00053FE7069C7F30A11084470612068816979
:1029D00041F010018161206803F042FE00034FF0D6
:1029E000080B4FF0000A4FF001097CD50026206843
:1029F00003F015FE074674E0F80770D0F1B22068C6
:102A000003F026FE8046C00707D005EB4611C1F84B
:102A1000089B3146204601F09FFF5FEA087024D5ED
:102A200005EB4611C1F808BB2068016C00E041E2EB
:102A300000EB46100191D0F8082BFE4B994205D9C6
:102A4000110403D54FF40041C0F8081B204600F0E4
:102A500028FBF8490198884207D9A079012804D1B8
:102A600020680121009A03F093FB5FEAC86004D557
:102A700005EB46111020C1F8080B5FEA88701DD5E0
:102A80006869000605D5D5F8040840F48061C5F8EA
:102A9000041806EBC60004EB800090F8571200F50E
:102AA0001570012905D180F803A0F1B2204600F08D
:102AB00007FA05EB46110220C1F8080B5FEA8860AF
:102AC00004D505EB46102021C0F8081B5FEA8840BA
:102AD00005D505EB46104FF40051C0F8081B7F08E0
:102AE000761C002F88D1206803F0BAFD40036ED514
:102AF000206803F08DFD0746002666E0F80762D0E7
:102B0000F1B2206803F092FD8046C00723D006F0A2
:102B10000F0109FA01F0D5F834188143C5F83418CB
:102B200005EB4610C0F80899A07901280FD106EBF3
:102B3000C60004EB8000D0E907211144016236B9D8
:102B4000606A20B920680121009A03F021FBF1B2EC
:102B50002046FFF7C5FD5FEA087003D505EB461177
:102B6000C1F808B95FEAC86004D505EB461110202A
:102B7000C1F808095FEA486004D505EB461040211A
:102B8000C0F808195FEA887016D53146284603F068
:102B900010FD06EBC60004EB8000C17D1430012956
:102BA00005D180F803A0F1B2204600F085F905EBCD
:102BB00046110220C1F808095FEA086003D53146D2
:102BC000204601F02FFF7F08761C002F96D1206849
:102BD00003F046FD002811DAD5F8040820F00101C1
:102BE000C5F8041894F8CC0401283BD0204600F026
:102BF0003DFA2068416901F000414161206803F01D
:102C00002FFD00050BD5D5F80808C00702D02046D7
:102C100000F070FA2068416901F4006141612068A8
:102C200003F01EFD00010AD52068416901F0006132
:102C3000416194F8CC04E0B1204600F05BFA2068D2
:102C400003F00EFDC00473D5D5F8040820F0010090
:102C5000C5F804081021206803F0ABFC00214FF6F2
:102C60007F322CE084F8CCA400212046FFF7DEFC64
:102C7000BFE784F8CC942068406D0121C0F3830045
:102C8000C4F8D0042046FFF7D1FCD8E705EB41108B
:102C9000C0F80829D0F8003923F40013C0F800392F
:102CA000C0F8082BD0F8003B23F40013C0F8003B19
:102CB000D0F8003B43F00063C0F8003B491C20798A
:102CC0008842E3D8D5F81C0840F00111C5F81C185B
:102CD000E07B002828460DD0D0F8840840F00B0196
:102CE000C5F88418D5F8440840F00B012846C5F80B
:102CF00044180DE0D0F8140842F22B010843C5F83F
:102D00001408D5F8100840F00B012846C5F8101833
:102D1000D0F8000820F4FE61C5F80018A1792068F9
:102D2000009A03F035FA2068416901F4805141614D
:102D3000206803F095FC800415D5206803F074F832
:102D4000206803F054FCE07100F06AFD0146E2796E
:102D5000206803F0E7FC204600F072F92068416922
:102D600001F400514161206803F07AFC000707D5A7
:102D7000204600F07FF92068416901F008014161B7
:102D8000206803F06DFC000616D5A86920F08001CC
:102D9000A96101260DE000BF06EBC60004EB800030
:102DA00090F85702012803D1F1B22046FFF7AFFC9B
:102DB000761C2079B042EFD8206803F051FCC002A5
:102DC0001FD501264F4614E005EB4610D0F8000948
:102DD00006EBC60104EB81010A7E012A08D1002816
:102DE00006DACF75F0B240F080012046FFF78FFC85
:102DF000761C2079B042E7D82068416901F480113F
:102E00004161206803F02CFC800236D501204A463F
:102E10002BE000BF05EB4011D1F8001B00EBC00315
:102E200004EB830393F85862012E1DD100291BDAAD
:102E300002E000000A30544F94F8D464C1F300411A
:102E400006F001068E420FD183F85722A96941F09E
:102E50008003AB616969090606D4D5F8040840F41B
:102E60000070C5F8040803E0401C21798142D1D8E4
:102E70002068416901F400114161206803F0F0FB12
:102E8000400007D52046FFF727FC2068416901F084
:102E900080414161206803F0E3FB40070AD52068C8
:102EA0004568680702D52046FFF72DFC2068416879
:102EB00029434160BDE8FC9FD0F8E00402F069BC02
:102EC000D0F8E00402F079BCF8B5040005D094F81D
:102ED00095042668002510B106E00120F8BD84F8AD
:102EE0009454204600F05CF8032084F89504B6F171
:102EF000A04F00D1A571206803F044F9207C8DF823
:102F0000000094E80F0002F09DFF0226B8BB0021EC
:102F1000206803F0C8FB90BB002001270DE000BF34
:102F200000EBC00104EB81014F750875C8850D7673
:102F3000CD610D62401CC0B24D6221798142EFD853
:102F4000002011E000EBC00104EB810181F8555233
:102F500081F8540281F85852C1F85C52C1F86052AD
:102F6000401CC0B2C1F8645221798142EAD8207C69
:102F70008DF8000094E80F0003F04AF810B184F8CF
:102F80009564AAE7657484F89574207B012802D1C2
:102F90002046FFF737FB206803F02CF80020F8BD2F
:102FA00010B59EB00446142117A8FDF77CFB5C21E8
:102FB0006846FDF778FB2068B0F1A04F39D14FF497
:102FC0008070002400901594684600F077F908B1ED
:102FD000FEF7EBFB1848016841F001010160006851
:102FE00017A900F001001C904FF4C0501790022068
:102FF000CDE9180403201A900A201B900F48FEF711
:103000005BFD0D48001D016841F0800101600A4828
:103010001430016841F4804101600068002200F42E
:1030200080401C9002214320FFF7BAFA4320FFF7AB
:10303000A9FA1EB010BD0000303802400000024066
:1030400070B50446C079012570B1022801D0FEF7A1
:10305000ACFB2946D4F8E00402F01EFCD4F8E004EE
:10306000BDE8704002F0D2BB0025F2E7D0F8E004E2
:1030700002F0FBBBD0F8E00402F001BC10B504463E
:1030800090F8940401280AD0012084F89404617413
:10309000206803F036FB002084F8940410BD022061
:1030A00010BDD0F8E02400F29C41104602F000BCB4
:1030B00010B50446006894F89414012909D0012140
:1030C00084F89414C168490609D5617B012902D0AE
:1030D00005E0022010BD816B41F4803181632068DE
:1030E00003F045FA206802F077FF002084F894048A
:1030F00010BD000010B50446D0F8E00402F01AFC40
:103100002068D0F8001E41F00101C0F8001EE07AEE
:10311000002804D00248016841F00601016010BD9A
:1031200010ED00E0F0B5614B624A624907460020AD
:103130005C105F4D5F4E083A8839012F6BD0022F2B
:1031400077D0042F01D0082F46D1376807F47007D5
:10315000C7F3130CBCF1000F3ED13F150D2F3BD22E
:10316000DFE807F007203B50203A3A3A3B3A3A3A38
:103170005200086841025048016801F03F0102D442
:10318000B3FBF1F101E0B4FBF1F102680068C2F3B6
:103190000362C0F388104843B0FBF2F13068C0F31B
:1031A000042016E008684002106800F03F0002D4D6
:1031B000B3FBF0F001E0B4FBF0F011681268C1F36A
:1031C0000361C2F388124243B2FBF1F1306800F0B0
:1031D0001F00401CB1FBF0F0F0BD08684002086819
:1031E00000F03F0002D4B3FBF0F001E0B4FBF0F0DC
:1031F0000A680968C2F30272C1F388114143B1FB46
:10320000F2F0F0BD2846F0BD0868400201D418462F
:10321000F0BD2046F0BD366816F0C0663BD0B6F172
:10322000007FEFD0B6F1806F12D0B6F1C06FF1D150
:103230002DE01FE0B4FBF0F002E000BFB3FBF0F0C4
:103240001168C1F3881141431068C0F30270C1E7EF
:1032500008684002086800F03F0023D5B4FBF0F096
:103260000A68C2F3881242430868C0F30270B2FBD6
:10327000F0F0F0BD366816F0C0560CD0B6F1006F15
:10328000C0D0B6F1805FE3D0B6F1C05FF1D108687D
:103290004002BED4BBE708684002106800F03F005F
:1032A000CCD5C7E7B3FBF0F0DAE700000024F40068
:1032B0000080BB008C380240883802402DE9F84F6E
:1032C000044600260078F84D3746C00708D0286825
:1032D000A16B20F0C06008432860A06B00B90126F4
:1032E0002078800708D52868E16B20F0C05008439B
:1032F0002860E06B00B90126207840070ED52868C9
:10330000216B20F4401008432860206BB0F5801F2B
:1033100001D010B102E0012600E00127207800076B
:103320000ED52868616B20F4400008432860606B6C
:10333000B0F5800F01D010B102E0012600E00127B6
:1033400020784FF0000A80064FF0010B63D5D64875
:103350004C38016841F0805101600068DFF84C93FF
:1033600000F080500090D9F8001041F48071C9F845
:103370000010FEF795FC804606E000BFFEF790FCCB
:10338000A0EB080002286FD8D9F80000C005F5D5D9
:10339000DFF81483A8F11C08D8F8000010F440707E
:1033A00024D0B4F8401001F4407181421ED0D8F806
:1033B0000010BF4A21F44071C2F800B0C2F800A06A
:1033C000C8F80010D8F80000C0070FD0FEF768FC5E
:1033D000814607E0FEF764FCA0EB090141F288306A
:1033E0008142D0D8D8F800008007F3D5216CAE48D0
:1033F000C1F301228438032A37D0016821F4F8117F
:10340000C0F80010D8F80010B4F84020C2F30B0246
:103410001143C8F800102078C00604D5A54894F8D8
:103420005810C0F8E01120780106A34805D50168BE
:10343000E26C21F44001114301602178490605D571
:103440000168A26C21F08061114301602188C905E7
:1034500014D50168626D21F0006111430160616D56
:10346000B1F1006F09D009E01DE10268934B22F42D
:10347000F81219400A430260C4E701272188890530
:1034800005D50168626C21F08051114301602188EB
:10349000DFF82C92490509D50168226D21F0005111
:1034A00011430160206DB0F1005F04D01EB92068A7
:1034B000B0F5006F7ED18349C1F868A0FEF7F0FB3C
:1034C000794E80468C3E05E0FEF7EAFBA0EB080053
:1034D000022886D830680001F6D421687A48CA07E5
:1034E00001D0A26B1AB1890717D5E16BA9B90168A0
:1034F0000268C1F30141491CD4E9013C43EA8C1341
:1035000021F0004CC2F3036209EB0C4141EA026175
:103510000B43217D43EA0171016021684A0703D50D
:10352000226BB2F5801F05D0090721D5616BB1F57B
:10353000800F1DD101680268C1F30141491CD4E923
:10354000013C43EA8C1321F0004C09EB0C4194F848
:1035500010C0C2F3027241EA0C610B4343EA0271EC
:1035600001602968A26A21F01F01521E11432960DF
:10357000218849051AD5216DB1F1005F16D1016886
:103580000268C1F30141491CD4E9013C43EA8C13B0
:10359000D4F80CC0C2F302724FEA5C0809EB084C85
:1035A0004CEA41610B4343EA02710160218809053D
:1035B00011D500E01FE0D4E9011241EA8211E2686E
:1035C000530809EB0342237C42EA03621143227D44
:1035D00041EA027101603B49C1F868B0FEF760FB47
:1035E000804605E0FEF75CFBA0EB0800022874D8DB
:1035F00030680001F6D5EFB3DFF8C880C8F870A0D6
:10360000FEF74EFB304E0746843E04E0FEF748FBD3
:10361000C01B022861D83068C0438000F6D52168FD
:103620002A484A0701D5226B1AB109071DD5616BDB
:10363000D9B90168D4E90623C1F30141491C42EA22
:10364000831221F0004309EB034194F8243041EA4E
:1036500003610A4302602968E26A6FF0FF0321F404
:10366000F85103EB0222114329602188C90514D5C2
:10367000616D00E038E0B1F1006F0ED10168D4E96E
:10368000062342EA8312236AC1F303615C0809EB53
:10369000044343EA01610A430260C8F870B0FEF7D0
:1036A000FFFA04461CE018E08C380240007000402D
:1036B000400E47420010474294380240FFFCFF0F83
:1036C0000000FFFF00004742843802408838024073
:1036D000FEF7E6FA001B022802D90320BDE8F88FA6
:1036E0003068C0438000F3D40020F7E72DE9F047AD
:1036F0000E46050065D0DFF81481D8F80000F7B257
:1037000000F00F00B04207D288F80070D8F800002F
:1037100000F00F00B04254D128683D4C810712D50B
:10372000400703D5206840F4E05020602878000767
:1037300003D5206840F4604020602068A96820F02C
:10374000F000084320602878C0072DD03049686811
:103750000839012812D0022813D0032811D0096893
:10376000890700292DDA216821F003010143216036
:10377000FEF796FA814641F2883A0EE0096889031D
:10378000EFE709688901ECE7FEF78AFAA0EB090187
:10379000514502D90320BDE8F0872068696800F030
:1037A0000C00B0EB810FEFD1D8F80010404601F0CB
:1037B0000F01B14207D90770006800F00F00B04256
:1037C00001D00120E7E72878400705D52068E9689F
:1037D00020F4E050084320602878000706D52068D0
:1037E000296920F4604040EAC100206000F03EF802
:1037F0002168084AC1F30311515CC84006490860BA
:1038000006480068FEF786FE0020C4E7003C024040
:1038100008380240F4690008A00000209800002049
:103820000148006870470000A000002004480549D6
:1038300000680968044AC1F38221515CC84070479E
:10384000A000002008380240046A00080448054926
:1038500000680968044AC1F34231515CC8407047AE
:10386000A000002008380240046A0008224810B571
:10387000006810F00C02214815D04110042A11D024
:103880001D4C241F082A0FD00C2A0CD12268236853
:1038900002F03F025B0221D52068C0F38810A0FB34
:1038A000010120E0084610BD2268236802F03F02B3
:1038B0005B0205D52068C0F38810A0FB010104E07D
:1038C0002168C1F38811A1FB00010023FCF71AFD58
:1038D0002168C1F30141491C49000AE02168C1F394
:1038E0008811A1FB00010023FCF70CFD2168C1F346
:1038F0000271B0FBF1F010BD083802400024F40062
:103900002DE9F84F04007DD0DFF878B32078ABF1D3
:103910000407C007A7F1040550D0DBF80010584693
:10392000C1F3810101290FD00168C1F3810102298E
:1039300002D13968490207D40068C0F38100032826
:1039400009D13868400206D52868800336D56068FA
:103950000028D8D032E06068B0F5803F10D0B0F5D4
:10396000A02F286810D020F480302860286820F428
:10397000802028606068A0B1FEF792F906460CE04E
:10398000286840F48030F4E740F480202860F7E7AE
:10399000FEF786F9801B642876D828688003F7D55F
:1039A0000CE0FEF77DF9064605E000BFFEF778F96A
:1039B000801B6428F0D828688003F7D42078DFF8CB
:1039C000C89280074FF0000A44D5DBF80010584633
:1039D00011F00C0F0FD00168C1F38101022902D14F
:1039E0003968490207D50068C0F3810003280AD16D
:1039F0003868400207D42868800715D5E068012898
:103A000000D111E03AE1E068B0B10120C9F800004E
:103A1000FEF746F9064604E0FEF742F9801B02284D
:103A2000BAD828688007F7D52868216920F0F800FF
:103A300040EAC10028600DE0C9F800A0FEF730F9A7
:103A4000064604E0FEF72CF9801B02281CD82868E3
:103A50008007F7D42078000727D5DFF828828B4825
:103A6000616908F16C0881B101210160FEF718F964
:103A7000064604E0FEF714F9801B022804D8D8F8A3
:103A800000008007F6D510E089E0C0F800A0FEF73E
:103A900007F9064605E000BFFEF702F9801B022881
:103AA0007DD8D8F800008007F6D42078400769D583
:103AB00074484FF0000838300068C0000BD47148DB
:103AC0003830016841F08051016000684FF0010812
:103AD00000F0805000906E4E3068C00511D4306800
:103AE00040F480703060FEF7DBF8009006E000BF25
:103AF000FEF7D6F80099401A022850D83068C00561
:103B0000F6D5604EA068683601280FD005283068C9
:103B100010D020F001003060306820F004003060E8
:103B2000A068B8B1FEF7BCF800900FE0306840F034
:103B30000100F4E740F004003060F7E7FEF7B0F86A
:103B40000099411A41F28830814264D83068800778
:103B5000F4D50EE0FEF7A4F8009007E0FEF7A0F819
:103B60000099411A41F28830814254D83068800768
:103B7000F4D4B8F1000F05D042483830016821F084
:103B800080510160A069A8B3DBF80010C1F3810186
:103B9000022947D00228C9F860A005D000E03AE029
:103BA000FEF77EF8044639E0FEF77AF8064604E0B0
:103BB000FEF776F8801B02282DD828688001F7D4FC
:103BC000F4E907010843E168324A490802EB014180
:103BD000A26841EA82110843217C40EA0160217D0C
:103BE00040EA017038600120C9F86000FEF758F81B
:103BF000044606E044E000BFFEF752F8001B02282E
:103C000009D828688001F7D53AE000BFFEF748F8E8
:103C1000001B022802D90320BDE8F88F2868800124
:103C2000F4D42DE00128F7D03868E26900F480016F
:103C3000914223D1226A00F03F0191421ED147F602
:103C4000C071626A0140B1EB821F17D1A26A4FF0C6
:103C5000FF3300F4403103EB5202B1EB024F0DD1C0
:103C600094F82C2000F07061B1EB026F06D194F84B
:103C7000301000F0E040B0EB017F01D00120CBE735
:103C80000020C9E70838024000004742800E474242
:103C9000007000400000FFFF10B5401EB0F1807FB3
:103CA00001D3012010BD4FF0E02460610F216017A7
:103CB00002F0D9FD0020A06107202061002010BD86
:103CC00070B5040004D094F84100002510B106E05E
:103CD000012070BD84F84050204600F023F82420D5
:103CE00084F841002068C16821F40051C160204679
:103CF00000F06CFF2068016921F4904101612068A7
:103D0000416921F02A0141612068C16841F40051F4
:103D1000C1606564202084F8410084F84200656336
:103D2000002070BD10B586B0044614216846FCF72B
:103D3000BAFC14492068884221D113480021026846
:103D400042F010020260006800F0100005900E487A
:103D50001438026842F001020260006800F00100BD
:103D600005904FF4C06000900220CDE901010320CE
:103D700003900720049069460448FDF79DFE06B0B5
:103D800010BD000000100140443802400000024015
:103D9000FEE701684A69D24352050FD46FF480628E
:103DA0004A61002140F8301F20224273817302696A
:103DB00042F0040202610173012070470020704745
:103DC000F8B50446C06A1E460D461746082807D0B7
:103DD000012805D010F5803F02D0206B122804D1B5
:103DE0002068016841F480710160134600224FF0A1
:103DF00001112046009600F0DBF840B12068006811
:103E0000C00502D54FF4007020640320F8BD20697E
:103E1000B0F5804F0ED00620216800EAD51040F0A2
:103E2000F000086133463A460B49204600F008F995
:103E300078B902E005F0FE0000E0E8B22168086110
:103E4000054933463A46891F204600F0F9F8002814
:103E5000DCD00120F8BD0000080001002DE9F84F7A
:103E60000446006889460B9D01689846174641F450
:103E7000806101602068016841F4807101600095F3
:103E80004FF0011B0022594620460A9B00F090F893
:103E90004FF4007A40B120680068C00501D5C4F82D
:103EA00040A00320BDE8F88F216809F0FE000861FA
:103EB0002B46284920460A9A00F0C2F8F0BB206839
:103EC0004169806900902A4620460A9900F04EF91F
:103ED00040B1206C04283AD12068016841F4007197
:103EE000016034E0FEB2B8F1010F09D02168380A50
:103EF00008612A4620460A9900F038F90028E8D1DE
:103F0000206806612A4620460A9900F02FF9002809
:103F1000DFD12068016841F48071016000950022C2
:103F2000594620460A9B00F043F80028B3D1216887
:103F300009F0FF0040F00100086100E007E02B46B7
:103F4000044920460A9A00F07BF80028AAD00120F4
:103F5000A8E700000200010070B516460D460446B1
:103F60001EE02046FFF715FF08B1012070BD681C58
:103F700016D0FDF795FE801BA84200D885B92068B1
:103F80004069C04340070BD5002044F8300F202182
:103F90006173A073216941F0200121612073E4E77E
:103FA00020684069C0434007DBD4002070BD00009A
:103FB0002DE9F047984617460D460446C1F30746DB
:103FC000DDF820902AE000BFB8F1FF3F26D0FDF7D2
:103FD00067FEA0EB0901414502D8B8F1000F1DD1E1
:103FE0002068012E16D0806925EA00000004000C2C
:103FF00012D00020B84211D1002044F8300F202107
:104000006173A073216941F02001216120730120B7
:10401000BDE8F0874069E7E70120EBE72068012E63
:104020000AD0806925EA00000004000C06D00020B8
:10403000B842C9D00020EBE74069F3E70120F7E779
:104040002DE9F047984616460D4604464FF0000904
:104050004FF0200AC1F3074723E020684069C043BE
:10406000400515D42068016841F4007101602168A1
:104070006FF480604861C4F8309084F83DA084F803
:104080003E90216C41F00401216484F83C9021E0D1
:10409000701C06D0FDF704FEA0EB0800B04203D868
:1040A00016B1012F1FD021E02068012F15D08069A3
:1040B00025EA00000004000C18D000BF44F8309F2F
:1040C00084F80DA084F80E90216941F0200121614F
:1040D00084F80C900120BDE8F087406925EA0000D3
:1040E0000004000CEAD12068406901E02068806982
:1040F00025EA00000004000CAFD1ECE72DE9F04107
:10410000002590460E460446202728E04069C0431B
:10411000C0060CD454F8301B6FF01000486144F80E
:1041200010596777A577206A2062257714E0FDF79C
:10413000B7FDA0EB0800B04200D886B920684069FE
:10414000C04340060BD544F8305F6773A573206900
:1041500040F02000206125730120BDE8F081206837
:104160004169C9434906D1D40020F6E770B5164627
:104170000D4604461EE02046FFF70BFE08B1012065
:1041800070BD681C16D0FDF78BFD801BA84200D8BF
:1041900085B920684069C04300060BD5002044F86B
:1041A000300F20216173A073216941F0200121614A
:1041B0002073E4E720684069C0430006DBD4002098
:1041C00070BD10B5806B01684A6822F003024A6036
:1041D000002141854186012180F84110416C41F068
:1041E00008014164FDF7F4FF10BD10B50146806B76
:1041F000C96949B901684A6822F001024A60002190
:104200004186012180F84110FEF738F910BD10B544
:10421000806BFEF747F910BD7CB5016804468868DD
:10422000009094F841000125042834D10098C0077B
:1042300018D04868C043400614D4C9682046E26AD2
:104240001180E16A891CE162618E491E6186618E7E
:1042500041B901684A6822F060024A6080F8415022
:10426000FEF70CF90098400615D520684168C9434F
:10427000890610D4416821F0600141602068C1685E
:104280008068019084F84150606C40F002006064E6
:104290002046FDF79DFF94F84100032834D1009893
:1042A000800719D521684868C043000614D4626AA3
:1042B00020461288CA60616A891C6162618D491E4C
:1042C0006185618D41B901684A6822F0A0024A60A7
:1042D00080F84150FEF7FAF80098000714D52068DE
:1042E0004168C94389060FD4416821F0A0014160AB
:1042F00020688068009084F84150606C40F00400B1
:1043000060642046FDF764FF7CBD00001FB50160BE
:10431000044602710A20FDF7BDFB03A832230121E8
:104320008DE80B007522217901232068FDF718FE26
:1043300008BB9DF80C0047281DD101221121204601
:1043400000F0B0F8B8B90A20FDF7A4FB0F224E2107
:10435000204600F0A7F870B90120FDF79BFB06226C
:104360004F21204600F09EF828B906225021204611
:1043700000F098F810B1012004B010BD9FED040AC0
:10438000002084ED020A9FED030A84ED030AF3E79F
:1043900000007A3D0000003A2DE9FF411F46154616
:1043A0000E4604460E236A461D2100F06FF818B130
:1043B000012004B0BDE8F081BDF80000DFED320A55
:1043C00040BA00B200EE100AB8EEC00A80EE201A21
:1043D000B3EE090A31EE000A87ED000ABDF80200CB
:1043E000D4ED030A40BA01B200EE101ABDF8040081
:1043F000BDF80620B8EEC00A40BA00B252BA20EEAC
:10440000200A12B286ED000A00EE100AD4ED030A6B
:10441000B8EEC00A20EE200A86ED010A00EE102A4E
:10442000D4ED030AB8EEC00A20EE200A86ED020A97
:10443000BDF80800D4ED020A40BA02B200EE102A1C
:10444000BDF80A00B8EEC00A40BA01B2BDF80C00CF
:1044500020EE200A40BA00B285ED000A00EE101AE4
:10446000D4ED020AB8EEC00A20EE200A85ED010A5A
:1044700000EE100AD4ED020A0020B8EEC00A20EEC9
:10448000200A85ED020A94E7E17A04433EB532241E
:104490008DE81C0004790A46006801232146FDF7D7
:1044A0005FFD3EBD1CB502238DF804108DF805207C
:1044B000322100910179006801AAFDF7BBFC1CBD07
:1044C000F0B500230A24302537261F4611E000BF2F
:1044D000B4EB107F02D905EB107C01E006EB107CF9
:1044E00001F813C001EB430C00015B1C8CF8017058
:1044F000DBB29342ECD3F0BD40B139B10160002191
:104500000173417341608160084670470120704724
:1045100028B1006818B104220249FDF747BF012005
:104520007047000000000020094808B5016841F408
:10453000800101600068002200F4800000900521E5
:104540003820FEF72DF8BDE808403820FEF71AB8ED
:104550003038024030B587B014216846FCF7A3F824
:1045600019480024016841F080010160016801F0F0
:1045700080010591016841F004010160016801F0CA
:1045800004010591016841F001010160016801F039
:1045900001010591016841F00201016000680B4DC5
:1045A00000F002000590002207212846FDF772FB6B
:1045B000072000900120CDE90104694628460394B4
:1045C000FDF77AFA07B030BD3038024000080240EB
:1045D0000D4810B50B4901600C49416000214FF4B2
:1045E00080428160C0E9031241618161C161016261
:1045F000FDF75CFB002803D0BDE81040FDF7D5B8FF
:1046000010BD000000540040D4030020801A0600B2
:104610000E4810B50C4901604FF440714160002113
:104620000322C0E902124FF4FA52C0E90412816178
:10463000C1610162FDF7CEFD002803D0BDE8104046
:10464000FDF7B3B810BD0000003001402804002081
:104650000C4810B50A4901604FF4E1314160002176
:1046600081600C22C160C0E904128161C161FFF761
:1046700027FB002803D0BDE81040FDF796B810BD19
:1046800000100140D004002010B500220F4910484E
:1046900000F060FF08B1FDF788F80E490C4801F002
:1046A00075F908B1FDF781F80B49094800F0E2FC03
:1046B00008B1FDF77AF8064801F0ECF9002803D0BC
:1046C000BDE81040FDF771B810BD000020000020CB
:1046D00018050020FC00002080000020FEE70000FC
:1046E00010B539A13D48FBF79BFF3C48FBF7BCFFE9
:1046F00081B23A48FCF7EAFF00F0E6F938A1374802
:10470000FBF78EFF3548FBF7AFFF81B23348FCF76C
:10471000DDFF4FF47A70FDF7BDF936A12F48FBF7A6
:104720007FFF2E48FBF7A0FF81B22C48FCF7CEFF9D
:104730006420FDF7AFF9D02233493448FFF7E6FD96
:1047400033A12648FBF76CFF2448FBF78DFF81B2AD
:104750002248FCF7BBFF6420FDF79CF931A11F48FC
:10476000FBF75EFF1D48FBF77FFF81B21B48FCF79C
:10477000ADFF6420FDF78EF924482F491030FFF774
:10478000BBFE22481030FFF7C3FE2CA11348FBF7F5
:1047900047FF1248FBF768FF81B21048FCF796FF0D
:1047A0006420FDF777F92AA10C48FBF739FF0B4885
:1047B000FBF75AFF81B20948FCF788FFBDE81040BB
:1047C0004FF4FA70FDF766B95247425F4C45445FBB
:1047D000496E69742E2E2E0A00000000340100205C
:1047E0005247425F4C45445F496E6974204F4B0A03
:1047F00000000000494E49543A49434D343236389E
:10480000382E2E2E0A000000D4030020B40300200E
:10481000494E49543A49434D3432363838204F4B8B
:104820000A000000494E49543A4D4943524F5048FE
:104830004F4E452E2E2E0A0028040020494E495482
:104840003A4D4943524F50484F4E45204F4B0A0076
:104850003D3D3D3D3D3D3D3D3D3D20414C4C20538A
:10486000454E534F5253205245414459203D3D3D02
:104870003D3D3D3D3D3D3D0A0000000094B000201F
:104880000E909FED240A0F901090119012901390AB
:104890008DED0D0A0DAB11AA0EA91F48FFF77CFD87
:1048A0000D9802F02BF806460F46139802F026F8F2
:1048B00004460D46129802F021F8CDE90601119840
:1048C00002F01CF8CDE90401109802F017F88246B6
:1048D0008B460F9802F012F8804689460E9802F037
:1048E0000DF841EC100B0C480DF1200C103053EC7E
:1048F000102B406809A1CDE90B708CE870008DE8A1
:10490000000F1048FBF776FD81B20E48FCF7DEFE83
:10491000C0E7000000000000B4030020252E32662E
:104920002C252E32662C252E32662C252E32662C16
:10493000252E32662C252E32662C252E32662C250D
:10494000640A0000B4010020FEE700000148FDF702
:10495000E7BF0000141C00202DE9F04103680D465C
:1049600004461E6C03EB4511D1F8080B94F806E0E1
:104970004FF400474FF0200C04F29C42BEF1010FAF
:1049800009D0DFF898E0764539D1020432D500BF6E
:10499000C1F8087B3FE0224B5FEA007E04D59E42CF
:1049A00039D90004F4D436E05FEA806E02D5C1F84C
:1049B00008CB30E010F0280F2DD19E4201D9000421
:1049C000E6D405EBC50004EB8000D1F8101BD0F84D
:1049D0007432C1F31201591AC0F8681200F515704B
:1049E000ADB903691BB1C2681144C1600FE0012178
:1049F00020680AE080060AD5C1F808CB07E035B97F
:104A0000D4F8640218B90021184601F0C1FBE9B2DC
:104A10002046FDF76EFE0020BDE8F0810A31544FBC
:104A20000A30544F2DE9F84F0E4601EBC60100EB5A
:104A3000810481460568D4E909101434884202D9FA
:104A40000120BDE8F88F081AA168814200D208460B
:104A5000C01C870805EB46181BE000BFA0EB010A4D
:104A6000A068504500D282460AF10300870899F8F1
:104A7000060000901FFA8AF3F2B22846E16801F0BE
:104A8000C5FEE16801EB0A00E060616901EB0A0024
:104A90006061D8F8180980B2B84205D3D4E904019E
:104AA000814201D20028D9D1D4E90401884208D832
:104AB00006F00F0101208840D5F834188143C5F86D
:104AC00034180020BDE7704710B586B01421684641
:104AD000FBF7E9FD0D480021026842F00402026084
:104AE00000680B4C00F004000590072000900120A6
:104AF000CDE90101039169462046FCF7DDFF002264
:104B000007212046FDF7C6F806B010BD3038024038
:104B10000008024070470178407841EA0020704761
:104B2000FDF7D6BC30B593B034216846FBF7BBFD2A
:104B300014210DA8FBF7B7FD1E480025016841F0C0
:104B400080510160006800F0805012901A4801689E
:104B500021F4404141F4804101600068022400F4E6
:104B60004040129001200090000401908001CDE9A6
:104B70000640042008904820CDE909040320CDE92F
:104B80000B046846FEF7BCFE08B172B6FEE70DA93D
:104B90000F2081E831004FF48050CDE9100502214B
:104BA0000DA8FEF7A3FD002801D072B6FEE713B0F2
:104BB00030BD0000403802400070004002480168EB
:104BC00041F470010160704788ED00E070B5044663
:104BD00000680169E26821F44051114301612169D3
:104BE000A068E26908436169114308432168CA6803
:104BF00049F20C639A430243CA6020684169A26982
:104C000021F440711143416131492068884202D04A
:104C10003049884202D1FEF719FE01E0FEF706FE98
:104C2000E2690023192164253226B2F5004F62683B
:104C300028D0A0FB0101930F9200FBF763FB014614
:104C4000B0FBF5F06FF01802504301EB800006EB6B
:104C50000010B0FBF5F000F0F002B1FBF5F002EB54
:104C60000012B1FBF5F06FF01803584301EB800020
:104C700006EB0010B0FBF5F000F00F0021681044C7
:104C8000886070BDA0FB010192185B41FBF73AFB05
:104C90000146B0FBF5F00201B1FBF5F06FF018032F
:104CA000584301EB800006EBC000B0FBF5F000F0CC
:104CB000F80002EB4002B1FBF5F0584301EB800035
:104CC00006EBC000B0FBF5F000F00700D6E70000EF
:104CD00000100140001401402DE9F0410C46D0F8CD
:104CE000D412D0F8C82200EB8101D1F8C01229B348
:104CF00004F00F0606EB860300EB830500276B69C3
:104D00004BB106EBC60602EB8602D269B3FBF2F6A4
:104D100002FB1632A2B1C1F81472D0F8D42200EB13
:104D20008200D0F8C40203692BB1D1F808022246F0
:104D300001F5047198470020BDE8F0810320FBE7EE
:104D400000231A4621466F6100F001FEF3E770B5BB
:104D50000546D0F8D40205EB8000D0F8C04294B1EB
:104D6000284600F0D3FCC4F80C02D5F8D412D4F8CD
:104D7000040205EB8101D1F8C412CA6804F503717D
:104D80009047002070BD032070BD000070B5234D1A
:104D90000446297800F0FAFB2878002600F00F007E
:104DA00000EB800004EB800080F8236069782046E7
:104DB00000F0ECFB687800F00F0000EB800004EBE3
:104DC000800080F86361A978204600F0DFFBA878B6
:104DD00000F00F0000EB800004EB800080F82360FF
:104DE000C661D4F8D40204EB8000D0F8C01299B1A7
:104DF000D0F8C40240688047D4F8D40204EB8000A5
:104E0000D0F8C00200F0CAFFD4F8D40204EB80004E
:104E1000C0F8C062C4F8BC62002070BDA8000020C9
:104E200010B5D0F8D41200EB8100D0F8C04284B1A4
:104E3000D0F8C41259B194F80002FF2807D08B684B
:104E400094F8012221469847FF2084F800020020B0
:104E500010BD032010BD00000A21018000487047EA
:104E6000AC00002070B5064682210C4800F011FB12
:104E700005460121094800F00CFB04468121074842
:104E800000F007FB0DB11021A971402104B1A180F0
:104E900000B1818043203080004870BDB800002000
:104EA00070B5064682210D4800F0F3FA054601214F
:104EB0000A4800F0EEFA04468121084800F0E9FAB9
:104EC0000DB11021A9714FF4007104B1A18000B19E
:104ED000818043203080014870BD0000B800002070
:104EE00070B5064682210C4800F0D3FA0546012130
:104EF000094800F0CEFA04468121074800F0C9FABB
:104F00000DB11021A971402104B1A18000B18180AF
:104F100043203080004870BDB80000202DE9F047E4
:104F200004464FF40775284600F03AFF06004FF09C
:104F3000000865D02946FBF7B6FBD4F8D4023E4DF5
:104F400004EB80004FF01009C0F8C062C4F8BC62E6
:104F5000207C4FF4007A0127E8B34023022229780D
:104F6000204600F03EFC2878402300F00F0000EBC4
:104F7000800004EB800080F82370022269782046CC
:104F800000F02FFC6878082300F00F0000EB800091
:104F900004EB8000032280F86371A978204601F0B9
:104FA0000F0101EB810104EB8101C1F81C90A9788C
:104FB00000F017FCA87800F00F0000EB800004EB75
:104FC000800080F82370C6F80482D4F8D4024746E3
:104FD00004EB800000E01BE0D0F8C40206F5017687
:104FE000006880473761776132687AB1207C00B30E
:104FF00040236978204600F000FC0020BDE8F087DF
:10500000D4F8D41204EB8101C1F8C0820220F5E784
:10501000534602222978204600F0E3FB28785346C5
:1050200000F00F0000EB800004EB800080F823709C
:10503000A3E75346DDE70000A800002010B5D0F834
:10504000D41200EB8101D1F8C01259B1027C084C96
:10505000002AD1F8042207D04023617800F0CDFB6C
:10506000002010BD032010BD4FF40073F5E70000D1
:10507000A800002039B1D0F8D42200EB8200C0F89B
:10508000C4120020704703207047D0F8D42200EBF0
:105090008200D0F8C00218B1C0F804120020704796
:1050A00003207047D0F8D43200EB8300D0F8C00260
:1050B00028B1C0F81022C0F8081200207047032061
:1050C00070472DE9FC410646D0F8D4020C4606EBA9
:1050D00080000021D0F8C0728DF80010ADF80410E7
:1050E0000D4637B1217811F060022FD0202A4BD124
:1050F00002E00320BDE8FC81E288F2B109060DD58B
:10510000D0F8C40263783946D0F808C01846E047A2
:10511000E288072A00D9072239462DE0607887F80F
:105120000002E088402800D34020C2B287F8012264
:105130003946304600F081F82BE0D0F8C40263789D
:105140000022866821461846B04722E0607830B1D8
:1051500001281ED00A2809D00B2815D110E096F896
:105160009C02032810D1022201A905E096F89C02B6
:10517000032809D101226946304600F07AF808E098
:1051800096F89C02032804D02146304600F04AF8E5
:1051900003252846AEE7000010B5D0F8D41200EB86
:1051A0008101D1F8C02201211AB1D2F8143213B111
:1051B00016E0032010BD0121C2F814120949D2F8EB
:1051C0001032097801F00F0404EB840400EB84042E
:1051D0006361D2F81032D2F8082200F0B8FB002147
:1051E000084610BDA800002010B5D0F8B822002451
:1051F0005268904700B10324204610BD002070473C
:1052000000207047134610B50A46002100F0F5FA59
:10521000002010BD134610B50A46002100F097FB90
:10522000002010BD10B50446802100F071FB20461F
:10523000BDE81040002100F06BBB10B50323C0F89F
:105240009432C0F85421C0F858211346C0F86411B4
:105250000A46002100F0D1FA002010BD10B505214A
:10526000C0F8941200231A46194600F0C6FA00202E
:1052700010BD10B50223C0F894324261826113461A
:1052800041620A46002100F062FB002010BD10B50B
:105290000421C0F8941200231A46194600F057FB67
:1052A000002010BD10B50A46024903A000F01FF906
:1052B000004810BDF407002043444320436F6E664E
:1052C00069670000122008800048704744000020F1
:1052D00010B50A46024903A000F009F9004810BDC4
:1052E000F407002043444320496E7465726661638D
:1052F000650000000420088000487047400000203E
:1053000010B50A46024903A000F0F1F8004810BDAC
:10531000F407002053544D6963726F656C656374C4
:10532000726F6E696373000010B50A46024903A0EC
:1053300000F0DDF8004810BDF407002053544D3351
:1053400032205669727475616C20436F6D506F72B4
:105350007400000010B51A2008800A480168001D7A
:105360000468001D0068081809D008220649FFF7E4
:10537000A7F80549042210312046FFF7A1F802489A
:10538000801E10BD107AFF1F660000200C200880D0
:105390000048704758000020F8B504460020ADF8DA
:1053A000000048880D46010A062947D006DC01297D
:1053B0000FD0022912D0032962D11DE0072946D05F
:1053C0000F295DD1D4F8B402C26920E06946904744
:1053D0003BE0D4F8B412207C0A68F7E7207C022670
:1053E0000028D4F8B80205D0C16A6846884701464B
:1053F000467036E0816AF8E7C0B2062840D2DFE89E
:1054000000F003090D111519D4F8B4024268B2B3C3
:10541000207CDBE7D4F8B4028268F8E7D4F8B40261
:10542000C268F4E7D4F8B4020269F0E7D4F8B40231
:105430004269ECE7D4F8B4028269E8E7207CF0B96D
:10544000D4F8B802416B68468847014609E0207CE1
:10545000A8B9D4F8B802016B68468847014607200E
:105460004870EA888AB1BDF8000040B1824200D994
:105470000246ADF800202046FFF7FBFEF8BDFFE72F
:1054800029462046FFF7CEFEF8E72046FFF7FFFE4D
:10549000F4E778B50E4642880178002504468A4232
:1054A00012D9ADF800100AE0694600F019F8417809
:1054B000052904D181780546B14205D000256188CF
:1054C000BDF800209142EFD8284678BD0146002063
:1054D00002E0401CC0B2491C0A78002AF9D170478A
:1054E0000A8803781A440A8001780844704770B526
:1054F00016460D46002820D00446FFF7E7FF02219C
:1055000001EB40014FF40070814204D82046FFF7C0
:10551000DDFF4000801C30803078287003206870E8
:105520000220002206E02954401CC0B22A54401C2C
:10553000C0B2641C21780029F5D170BD01004FF084
:10554000000004D0012901D0022901D003207047B6
:105550000120704778B10023C0F8B832C0F8C432D7
:10556000C0F8D03209B1C0F8B412012180F89C1201
:10557000027000F0CFB80320704710B5D0F8C80211
:10558000FDF7F9F8BDE81040FFF7D8BF10B5D0F827
:10559000C802FDF7CBF8BDE81040FFF7CFBF70B5EC
:1055A0000446002521B194F89C02032846D050E01F
:1055B000D4F8941204F11400022939D18189426887
:1055C0008A420AD9511A41608289016911440161F4
:1055D00042682046FFF71EFE0FE0914214D100689A
:1055E000884211D3D4F8981288420DD20022114675
:1055F0002046FFF70FFEC4F8985200231A461946BA
:10560000204600F0FAF813E094F89C02032808D131
:10561000D4F8B802C16821B1C4F8D452C168204698
:1056200088478021204600F073F92046FFF716FED8
:1056300094F8A00268B184F8A0520AE0D4F8B80245
:10564000426932B1C4F8D4524269204690470028DA
:1056500000D1002070BD10B50446002221B194F89D
:105660009C02032834D03EE0D4F8941204F5AA70CA
:10567000032938D1818943688B420ED9591A416078
:10568000828901691144016142688089824200D89F
:1056900002462046FFF7B6FD25E094F8AA0210F076
:1056A0001F0003D0012802D0022800D0002294F865
:1056B0009C02032808D1D4F8B802016921B1C4F8CA
:1056C000D4220169204688472046FFF7E0FD0AE022
:1056D000D4F8B802836933B1C4F8D4228269204671
:1056E0009047002800D1002010BD0020704710B561
:1056F0000024012180F89C12D0F8B82222B152680F
:105700000179904700B10324204610BDD0F8C802AB
:10571000FDF75EB810B5017839BB15490222C1F812
:10572000E004C0F8C8124FF0A040086006200871DD
:10573000CA71002088714A728872C87208738873AF
:10574000C8730846FDF7C0FB08B1FCF72EF88021AE
:105750000748FCF79BFF402200210548FCF79AFF11
:10576000802201210248FCF795FF002010BD0000B7
:10577000141C00200A0601F07F01D0F8C80201EBDA
:10578000C10100EB810001D5807D704790F8560281
:10579000704710B5D0F8D42200EB8202D2F8B822BC
:1057A00022B190F89C32032B02D004E0032010BDFC
:1057B000126A02B19047002010BD10B5D0F8D42273
:1057C00000EB8202D2F8B82222B190F89C32032B6F
:1057D00002D004E0032010BD526A02B190470020BD
:1057E00010BD10B51C461346D0F8C8022246FCF77F
:1057F000F8FFBDE81040FFF7A1BE10B5D0F8C80211
:10580000FDF720F8BDE81040FFF798BE2DE9F04104
:1058100000260125044680F89C52C4F89462666014
:10582000C4F8A46280F8A062D0F8B80230B142682F
:1058300022B100212046904700B1032600224023D8
:1058400011462046FFF7CDFF402784F86351A4F8A6
:1058500060713B46002280212046FFF7C2FF84F89A
:10586000235027843046BDE8F08190F89C1204292B
:1058700003D190F89D1280F89C120020704710B55B
:1058800090F89C12032905D1D0F8B81211B1C9695A
:1058900001B18847002010BD01740020704710B589
:1058A000D0F8C802FDF7EAFBBDE81040FFF746BE9E
:1058B00070B5044600F2AA20054600F051F8012018
:1058C000C4F89402B4F8B002C4F8980294F8AA029A
:1058D00010F01F010AD001290ED0022912D000F0C9
:1058E00080012046BDE8704000F012B829462046ED
:1058F000BDE8704000F0D0B829462046BDE87040B1
:1059000000F013BA29462046BDE8704000F05AB9AD
:1059100010B5D0F8C802FCF7B1FFBDE81040FFF7A2
:105920000DBE10B5D0F8C802FDF7C2FBBDE81040AF
:10593000FFF704BE90F89C12042903D090F89C1243
:1059400080F89D12042180F89C120020704710B549
:10595000D0F8C802FCF7CBFFBDE81040FFF7EEBD62
:1059600070B5054611F8010B2870087868704C1C5A
:105970002046FFF7D0F86880A41C2046FFF7CBF83C
:10598000A880A01CFFF7C7F8E88070BD38B50446B2
:105990000020ADF80000A1B1C4F8B812D4F8D402C8
:1059A00004EB8000D0F8B802C16A19B16846884794
:1059B000C4F8D002D4F8D802401CC4F8D8020020A1
:1059C00038BD032038BD02460020D2F8B832002B83
:1059D00002D01B6810461847704700002DE9F041BF
:1059E00088462B4E8978002504463170012906D956
:1059F00041462046FFF716FC0320BDE8F08194F8ED
:105A00009C02022702280CD003281DD041462046C4
:105A1000FFF708FC31782046FFF7E6FB0325284610
:105A2000EBE789B320466160FFF7CDFF050004D0A6
:105A300041462046FFF7F6FB1DE02046FFF727FC16
:105A4000032084F89C02EAE7C1B1606888421BD059
:105A5000C1B22046FFF7C8FB317820466160FFF7EE
:105A6000B2FF050010D041462046FFF7DBFB21794D
:105A70002046FFF7B9FB84F89C72D0E784F89C724B
:105A800020466160FFF7B0FB2046FFF700FCC6E749
:105A9000A4000020FFF745BF2DE9F0410A7800255A
:105AA00012F060020CD0202A01D0402A7DD1D0F81B
:105AB000D42200EB8202D2F8B8229268904731E0FB
:105AC0004B78002201260A2B6FD2DFE803F04166F3
:105AD0006E586E08056E2D29FFF75EFC67E00446E0
